{
  "contracts/TestContract.sol": {
    "TestContract": {
      "abi": [
        {
          "inputs": [
            {
              "internalType": "string",
              "name": "_name",
              "type": "string"
            },
            {
              "internalType": "string",
              "name": "_symbol",
              "type": "string"
            },
            {
              "internalType": "address",
              "name": "_signer",
              "type": "address"
            },
            {
              "internalType": "string",
              "name": "_initBaseURI",
              "type": "string"
            },
            {
              "internalType": "string",
              "name": "_initNotRevealedUri",
              "type": "string"
            }
          ],
          "stateMutability": "nonpayable",
          "type": "constructor"
        },
        {
          "anonymous": false,
          "inputs": [
            {
              "indexed": true,
              "internalType": "address",
              "name": "owner",
              "type": "address"
            },
            {
              "indexed": true,
              "internalType": "address",
              "name": "approved",
              "type": "address"
            },
            {
              "indexed": true,
              "internalType": "uint256",
              "name": "tokenId",
              "type": "uint256"
            }
          ],
          "name": "Approval",
          "type": "event"
        },
        {
          "anonymous": false,
          "inputs": [
            {
              "indexed": true,
              "internalType": "address",
              "name": "owner",
              "type": "address"
            },
            {
              "indexed": true,
              "internalType": "address",
              "name": "operator",
              "type": "address"
            },
            {
              "indexed": false,
              "internalType": "bool",
              "name": "approved",
              "type": "bool"
            }
          ],
          "name": "ApprovalForAll",
          "type": "event"
        },
        {
          "anonymous": false,
          "inputs": [
            {
              "indexed": true,
              "internalType": "address",
              "name": "previousOwner",
              "type": "address"
            },
            {
              "indexed": true,
              "internalType": "address",
              "name": "newOwner",
              "type": "address"
            }
          ],
          "name": "OwnershipTransferred",
          "type": "event"
        },
        {
          "anonymous": false,
          "inputs": [
            {
              "indexed": true,
              "internalType": "address",
              "name": "from",
              "type": "address"
            },
            {
              "indexed": true,
              "internalType": "address",
              "name": "to",
              "type": "address"
            },
            {
              "indexed": true,
              "internalType": "uint256",
              "name": "tokenId",
              "type": "uint256"
            }
          ],
          "name": "Transfer",
          "type": "event"
        },
        {
          "inputs": [],
          "name": "MAX_PER_TRANSACTION",
          "outputs": [
            {
              "internalType": "uint256",
              "name": "",
              "type": "uint256"
            }
          ],
          "stateMutability": "view",
          "type": "function"
        },
        {
          "inputs": [],
          "name": "MAX_SUPPLY",
          "outputs": [
            {
              "internalType": "uint256",
              "name": "",
              "type": "uint256"
            }
          ],
          "stateMutability": "view",
          "type": "function"
        },
        {
          "inputs": [],
          "name": "PRICE_FIRST",
          "outputs": [
            {
              "internalType": "uint256",
              "name": "",
              "type": "uint256"
            }
          ],
          "stateMutability": "view",
          "type": "function"
        },
        {
          "inputs": [],
          "name": "PRICE_PUBLIC",
          "outputs": [
            {
              "internalType": "uint256",
              "name": "",
              "type": "uint256"
            }
          ],
          "stateMutability": "view",
          "type": "function"
        },
        {
          "inputs": [
            {
              "internalType": "address",
              "name": "to",
              "type": "address"
            },
            {
              "internalType": "uint256",
              "name": "tokenId",
              "type": "uint256"
            }
          ],
          "name": "approve",
          "outputs": [],
          "stateMutability": "nonpayable",
          "type": "function"
        },
        {
          "inputs": [
            {
              "internalType": "address",
              "name": "owner",
              "type": "address"
            }
          ],
          "name": "balanceOf",
          "outputs": [
            {
              "internalType": "uint256",
              "name": "",
              "type": "uint256"
            }
          ],
          "stateMutability": "view",
          "type": "function"
        },
        {
          "inputs": [],
          "name": "baseExtension",
          "outputs": [
            {
              "internalType": "string",
              "name": "",
              "type": "string"
            }
          ],
          "stateMutability": "view",
          "type": "function"
        },
        {
          "inputs": [],
          "name": "baseUri",
          "outputs": [
            {
              "internalType": "string",
              "name": "",
              "type": "string"
            }
          ],
          "stateMutability": "view",
          "type": "function"
        },
        {
          "inputs": [
            {
              "internalType": "uint256",
              "name": "tokenId",
              "type": "uint256"
            }
          ],
          "name": "getApproved",
          "outputs": [
            {
              "internalType": "address",
              "name": "",
              "type": "address"
            }
          ],
          "stateMutability": "view",
          "type": "function"
        },
        {
          "inputs": [
            {
              "internalType": "address",
              "name": "owner",
              "type": "address"
            },
            {
              "internalType": "address",
              "name": "operator",
              "type": "address"
            }
          ],
          "name": "isApprovedForAll",
          "outputs": [
            {
              "internalType": "bool",
              "name": "",
              "type": "bool"
            }
          ],
          "stateMutability": "view",
          "type": "function"
        },
        {
          "inputs": [
            {
              "internalType": "uint256",
              "name": "numberOfTokens",
              "type": "uint256"
            }
          ],
          "name": "mint",
          "outputs": [],
          "stateMutability": "payable",
          "type": "function"
        },
        {
          "inputs": [],
          "name": "name",
          "outputs": [
            {
              "internalType": "string",
              "name": "",
              "type": "string"
            }
          ],
          "stateMutability": "view",
          "type": "function"
        },
        {
          "inputs": [],
          "name": "notRevealedUri",
          "outputs": [
            {
              "internalType": "string",
              "name": "",
              "type": "string"
            }
          ],
          "stateMutability": "view",
          "type": "function"
        },
        {
          "inputs": [],
          "name": "owner",
          "outputs": [
            {
              "internalType": "address",
              "name": "",
              "type": "address"
            }
          ],
          "stateMutability": "view",
          "type": "function"
        },
        {
          "inputs": [
            {
              "internalType": "uint256",
              "name": "tokenId",
              "type": "uint256"
            }
          ],
          "name": "ownerOf",
          "outputs": [
            {
              "internalType": "address",
              "name": "",
              "type": "address"
            }
          ],
          "stateMutability": "view",
          "type": "function"
        },
        {
          "inputs": [],
          "name": "paused",
          "outputs": [
            {
              "internalType": "bool",
              "name": "",
              "type": "bool"
            }
          ],
          "stateMutability": "view",
          "type": "function"
        },
        {
          "inputs": [],
          "name": "pausedWhitelist",
          "outputs": [
            {
              "internalType": "bool",
              "name": "",
              "type": "bool"
            }
          ],
          "stateMutability": "view",
          "type": "function"
        },
        {
          "inputs": [
            {
              "internalType": "address",
              "name": "_sender",
              "type": "address"
            },
            {
              "internalType": "bytes",
              "name": "_signature",
              "type": "bytes"
            }
          ],
          "name": "recoverData",
          "outputs": [
            {
              "internalType": "address",
              "name": "_data",
              "type": "address"
            }
          ],
          "stateMutability": "pure",
          "type": "function"
        },
        {
          "inputs": [],
          "name": "renounceOwnership",
          "outputs": [],
          "stateMutability": "nonpayable",
          "type": "function"
        },
        {
          "inputs": [
            {
              "internalType": "uint256",
              "name": "numberOfTokens",
              "type": "uint256"
            }
          ],
          "name": "reserve",
          "outputs": [],
          "stateMutability": "nonpayable",
          "type": "function"
        },
        {
          "inputs": [],
          "name": "revealed",
          "outputs": [
            {
              "internalType": "bool",
              "name": "",
              "type": "bool"
            }
          ],
          "stateMutability": "view",
          "type": "function"
        },
        {
          "inputs": [
            {
              "internalType": "address",
              "name": "from",
              "type": "address"
            },
            {
              "internalType": "address",
              "name": "to",
              "type": "address"
            },
            {
              "internalType": "uint256",
              "name": "tokenId",
              "type": "uint256"
            }
          ],
          "name": "safeTransferFrom",
          "outputs": [],
          "stateMutability": "nonpayable",
          "type": "function"
        },
        {
          "inputs": [
            {
              "internalType": "address",
              "name": "from",
              "type": "address"
            },
            {
              "internalType": "address",
              "name": "to",
              "type": "address"
            },
            {
              "internalType": "uint256",
              "name": "tokenId",
              "type": "uint256"
            },
            {
              "internalType": "bytes",
              "name": "_data",
              "type": "bytes"
            }
          ],
          "name": "safeTransferFrom",
          "outputs": [],
          "stateMutability": "nonpayable",
          "type": "function"
        },
        {
          "inputs": [
            {
              "internalType": "address",
              "name": "operator",
              "type": "address"
            },
            {
              "internalType": "bool",
              "name": "approved",
              "type": "bool"
            }
          ],
          "name": "setApprovalForAll",
          "outputs": [],
          "stateMutability": "nonpayable",
          "type": "function"
        },
        {
          "inputs": [
            {
              "internalType": "string",
              "name": "_newBaseExtension",
              "type": "string"
            }
          ],
          "name": "setBaseExtension",
          "outputs": [],
          "stateMutability": "nonpayable",
          "type": "function"
        },
        {
          "inputs": [
            {
              "internalType": "string",
              "name": "newBaseURI",
              "type": "string"
            }
          ],
          "name": "setBaseURI",
          "outputs": [],
          "stateMutability": "nonpayable",
          "type": "function"
        },
        {
          "inputs": [
            {
              "internalType": "string",
              "name": "_notRevealedURI",
              "type": "string"
            }
          ],
          "name": "setNotRevealedURI",
          "outputs": [],
          "stateMutability": "nonpayable",
          "type": "function"
        },
        {
          "inputs": [
            {
              "internalType": "bool",
              "name": "newState",
              "type": "bool"
            }
          ],
          "name": "setPaused",
          "outputs": [],
          "stateMutability": "nonpayable",
          "type": "function"
        },
        {
          "inputs": [
            {
              "internalType": "bool",
              "name": "newState",
              "type": "bool"
            }
          ],
          "name": "setPausedWhitelist",
          "outputs": [],
          "stateMutability": "nonpayable",
          "type": "function"
        },
        {
          "inputs": [
            {
              "internalType": "bool",
              "name": "newState",
              "type": "bool"
            }
          ],
          "name": "setRevealed",
          "outputs": [],
          "stateMutability": "nonpayable",
          "type": "function"
        },
        {
          "inputs": [
            {
              "internalType": "address",
              "name": "newSigner",
              "type": "address"
            }
          ],
          "name": "setSigner",
          "outputs": [],
          "stateMutability": "nonpayable",
          "type": "function"
        },
        {
          "inputs": [
            {
              "internalType": "bytes4",
              "name": "interfaceId",
              "type": "bytes4"
            }
          ],
          "name": "supportsInterface",
          "outputs": [
            {
              "internalType": "bool",
              "name": "",
              "type": "bool"
            }
          ],
          "stateMutability": "view",
          "type": "function"
        },
        {
          "inputs": [],
          "name": "symbol",
          "outputs": [
            {
              "internalType": "string",
              "name": "",
              "type": "string"
            }
          ],
          "stateMutability": "view",
          "type": "function"
        },
        {
          "inputs": [
            {
              "internalType": "uint256",
              "name": "index",
              "type": "uint256"
            }
          ],
          "name": "tokenByIndex",
          "outputs": [
            {
              "internalType": "uint256",
              "name": "",
              "type": "uint256"
            }
          ],
          "stateMutability": "view",
          "type": "function"
        },
        {
          "inputs": [
            {
              "internalType": "address",
              "name": "owner",
              "type": "address"
            },
            {
              "internalType": "uint256",
              "name": "index",
              "type": "uint256"
            }
          ],
          "name": "tokenOfOwnerByIndex",
          "outputs": [
            {
              "internalType": "uint256",
              "name": "",
              "type": "uint256"
            }
          ],
          "stateMutability": "view",
          "type": "function"
        },
        {
          "inputs": [
            {
              "internalType": "uint256",
              "name": "tokenId",
              "type": "uint256"
            }
          ],
          "name": "tokenURI",
          "outputs": [
            {
              "internalType": "string",
              "name": "",
              "type": "string"
            }
          ],
          "stateMutability": "view",
          "type": "function"
        },
        {
          "inputs": [],
          "name": "totalSupply",
          "outputs": [
            {
              "internalType": "uint256",
              "name": "",
              "type": "uint256"
            }
          ],
          "stateMutability": "view",
          "type": "function"
        },
        {
          "inputs": [
            {
              "internalType": "address",
              "name": "from",
              "type": "address"
            },
            {
              "internalType": "address",
              "name": "to",
              "type": "address"
            },
            {
              "internalType": "uint256",
              "name": "tokenId",
              "type": "uint256"
            }
          ],
          "name": "transferFrom",
          "outputs": [],
          "stateMutability": "nonpayable",
          "type": "function"
        },
        {
          "inputs": [
            {
              "internalType": "address",
              "name": "newOwner",
              "type": "address"
            }
          ],
          "name": "transferOwnership",
          "outputs": [],
          "stateMutability": "nonpayable",
          "type": "function"
        },
        {
          "inputs": [
            {
              "internalType": "uint256",
              "name": "numberOfTokens",
              "type": "uint256"
            },
            {
              "internalType": "bytes",
              "name": "_signature",
              "type": "bytes"
            }
          ],
          "name": "whitelistMint",
          "outputs": [],
          "stateMutability": "payable",
          "type": "function"
        },
        {
          "inputs": [],
          "name": "withdraw",
          "outputs": [],
          "stateMutability": "nonpayable",
          "type": "function"
        }
      ],
      "evm": {
        "bytecode": {
          "linkReferences": {},
          "object": "60c06040526005608081905264173539b7b760d91b60a09081526200002891600c9190620002c3565b50600e805462ff00001961ff001960ff19909216600117919091166101001716905567011c37937e080000600f5567013fbe85edc900006010553480156200006f57600080fd5b50604051620034d2380380620034d2833981016040819052620000929162000414565b845185908590620000ab906000906020850190620002c3565b508051620000c1906001906020840190620002c3565b505050620000de620000d86200010a60201b60201c565b6200010e565b620000e98262000160565b620000f481620001c8565b620000ff8362000223565b50505050506200059c565b3390565b600a80546001600160a01b038381166001600160a01b0319831681179093556040519116919082907f8be0079c531659141344cd1fd0a4f28419497f9722a3daafe3b4186f6b6457e090600090a35050565b6200016a6200010a565b6001600160a01b03166200017d620002b4565b6001600160a01b031614620001af5760405162461bcd60e51b8152600401620001a690620004e9565b60405180910390fd5b8051620001c490600b906020840190620002c3565b5050565b620001d26200010a565b6001600160a01b0316620001e5620002b4565b6001600160a01b0316146200020e5760405162461bcd60e51b8152600401620001a690620004e9565b8051620001c490600d906020840190620002c3565b6200022d6200010a565b6001600160a01b031662000240620002b4565b6001600160a01b031614620002695760405162461bcd60e51b8152600401620001a690620004e9565b6001600160a01b038116620002925760405162461bcd60e51b8152600401620001a6906200051e565b601180546001600160a01b0319166001600160a01b0392909216919091179055565b600a546001600160a01b031690565b828054620002d19062000549565b90600052602060002090601f016020900481019282620002f5576000855562000340565b82601f106200031057805160ff191683800117855562000340565b8280016001018555821562000340579182015b828111156200034057825182559160200191906001019062000323565b506200034e92915062000352565b5090565b5b808211156200034e576000815560010162000353565b600082601f8301126200037a578081fd5b81516001600160401b038082111562000397576200039762000586565b6040516020601f8401601f1916820181018381118382101715620003bf57620003bf62000586565b6040528382528584018101871015620003d6578485fd5b8492505b83831015620003f95785830181015182840182015291820191620003da565b838311156200040a57848185840101525b5095945050505050565b600080600080600060a086880312156200042c578081fd5b85516001600160401b038082111562000443578283fd5b6200045189838a0162000369565b9650602088015191508082111562000467578283fd5b6200047589838a0162000369565b604089015190965091506001600160a01b038216821462000494578283fd5b606088015191945080821115620004a9578283fd5b620004b789838a0162000369565b93506080880151915080821115620004cd578283fd5b50620004dc8882890162000369565b9150509295509295909350565b6020808252818101527f4f776e61626c653a2063616c6c6572206973206e6f7420746865206f776e6572604082015260600190565b602080825260119082015270696e636f7272656374206164647265737360781b604082015260600190565b6002810460018216806200055e57607f821691505b602082108114156200058057634e487b7160e01b600052602260045260246000fd5b50919050565b634e487b7160e01b600052604160045260246000fd5b612f2680620005ac6000396000f3fe6080604052600436106102465760003560e01c8063715018a611610139578063a8a4b4f1116100b6578063da3ef23f1161007a578063da3ef23f1461062b578063e0a808531461064b578063e985e9c51461066b578063f2c4ce1e1461068b578063f2fde38b146106ab578063f72ec829146106cb57610246565b8063a8a4b4f1146105ac578063b88d4fde146105c1578063c6682862146105e1578063c87b56dd146105f6578063cb14eb871461061657610246565b80639abc8320116100fd5780639abc83201461053c5780639e852f7514610551578063a0712d6814610564578063a22cb46514610577578063a56d77301461059757610246565b8063715018a6146104bd578063819b25ba146104d2578063844847f6146104f25780638da5cb5b1461051257806395d89b411461052757610246565b80633ccfd60b116101c757806357ae51fb1161018b57806357ae51fb146104285780635c975abb146104485780636352211e1461045d5780636c19e7831461047d57806370a082311461049d57610246565b80633ccfd60b1461039e57806342842e0e146103b35780634f6ccce7146103d357806351830227146103f357806355f804b31461040857610246565b806316c38b3c1161020e57806316c38b3c1461030757806318160ddd1461032757806323b872dd146103495780632f745c591461036957806332cb6b0c1461038957610246565b806301ffc9a71461024b57806306fdde0314610281578063081812fc146102a3578063081c8c44146102d0578063095ea7b3146102e5575b600080fd5b34801561025757600080fd5b5061026b6102663660046123a6565b6106e0565b60405161027891906125dd565b60405180910390f35b34801561028d57600080fd5b506102966106f3565b6040516102789190612606565b3480156102af57600080fd5b506102c36102be366004612424565b610785565b604051610278919061258c565b3480156102dc57600080fd5b506102966107d1565b3480156102f157600080fd5b50610305610300366004612363565b61085f565b005b34801561031357600080fd5b5061030561032236600461238c565b6108f7565b34801561033357600080fd5b5061033c610949565b6040516102789190612d8b565b34801561035557600080fd5b50610305610364366004612235565b61094f565b34801561037557600080fd5b5061033c610384366004612363565b610987565b34801561039557600080fd5b5061033c6109d9565b3480156103aa57600080fd5b506103056109df565b3480156103bf57600080fd5b506103056103ce366004612235565b610a51565b3480156103df57600080fd5b5061033c6103ee366004612424565b610a6c565b3480156103ff57600080fd5b5061026b610ac7565b34801561041457600080fd5b506103056104233660046123de565b610ad6565b34801561043457600080fd5b5061030561044336600461238c565b610b28565b34801561045457600080fd5b5061026b610b81565b34801561046957600080fd5b506102c3610478366004612424565b610b8a565b34801561048957600080fd5b506103056104983660046121e9565b610bbf565b3480156104a957600080fd5b5061033c6104b83660046121e9565b610c46565b3480156104c957600080fd5b50610305610c8a565b3480156104de57600080fd5b506103056104ed366004612424565b610cd5565b3480156104fe57600080fd5b506102c361050d366004612312565b610d7b565b34801561051e57600080fd5b506102c3610dfb565b34801561053357600080fd5b50610296610e0a565b34801561054857600080fd5b50610296610e19565b61030561055f36600461243c565b610e26565b610305610572366004612424565b610f3e565b34801561058357600080fd5b506103056105923660046122e9565b611012565b3480156105a357600080fd5b5061033c611024565b3480156105b857600080fd5b5061033c61102a565b3480156105cd57600080fd5b506103056105dc366004612270565b611030565b3480156105ed57600080fd5b5061029661106f565b34801561060257600080fd5b50610296610611366004612424565b61107c565b34801561062257600080fd5b5061033c6111a4565b34801561063757600080fd5b506103056106463660046123de565b6111a9565b34801561065757600080fd5b5061030561066636600461238c565b6111fb565b34801561067757600080fd5b5061026b610686366004612203565b611256565b34801561069757600080fd5b506103056106a63660046123de565b611284565b3480156106b757600080fd5b506103056106c63660046121e9565b6112d6565b3480156106d757600080fd5b5061026b611347565b60006106eb82611355565b90505b919050565b60606000805461070290612e2e565b80601f016020809104026020016040519081016040528092919081815260200182805461072e90612e2e565b801561077b5780601f106107505761010080835404028352916020019161077b565b820191906000526020600020905b81548152906001019060200180831161075e57829003601f168201915b5050505050905090565b60006107908261137a565b6107b55760405162461bcd60e51b81526004016107ac90612aa7565b60405180910390fd5b506000908152600460205260409020546001600160a01b031690565b600d80546107de90612e2e565b80601f016020809104026020016040519081016040528092919081815260200182805461080a90612e2e565b80156108575780601f1061082c57610100808354040283529160200191610857565b820191906000526020600020905b81548152906001019060200180831161083a57829003601f168201915b505050505081565b600061086a82610b8a565b9050806001600160a01b0316836001600160a01b0316141561089e5760405162461bcd60e51b81526004016107ac90612c4d565b806001600160a01b03166108b0611397565b6001600160a01b031614806108cc57506108cc81610686611397565b6108e85760405162461bcd60e51b81526004016107ac90612940565b6108f2838361139b565b505050565b6108ff611397565b6001600160a01b0316610910610dfb565b6001600160a01b0316146109365760405162461bcd60e51b81526004016107ac90612b1e565b600e805460ff1916911515919091179055565b60085490565b61096061095a611397565b82611409565b61097c5760405162461bcd60e51b81526004016107ac90612cc5565b6108f283838361148e565b600061099283610c46565b82106109b05760405162461bcd60e51b81526004016107ac906126b1565b506001600160a01b03919091166000908152600660209081526040808320938352929052205490565b614e1f81565b6109e7611397565b6001600160a01b03166109f8610dfb565b6001600160a01b031614610a1e5760405162461bcd60e51b81526004016107ac90612b1e565b6040514790339082156108fc029083906000818181858888f19350505050158015610a4d573d6000803e3d6000fd5b5050565b6108f283838360405180602001604052806000815250611030565b6000610a76610949565b8210610a945760405162461bcd60e51b81526004016107ac90612d16565b60088281548110610ab557634e487b7160e01b600052603260045260246000fd5b90600052602060002001549050919050565b600e5462010000900460ff1681565b610ade611397565b6001600160a01b0316610aef610dfb565b6001600160a01b031614610b155760405162461bcd60e51b81526004016107ac90612b1e565b8051610a4d90600b906020840190612079565b610b30611397565b6001600160a01b0316610b41610dfb565b6001600160a01b031614610b675760405162461bcd60e51b81526004016107ac90612b1e565b600e80549115156101000261ff0019909216919091179055565b600e5460ff1681565b6000818152600260205260408120546001600160a01b0316806106eb5760405162461bcd60e51b81526004016107ac906129e7565b610bc7611397565b6001600160a01b0316610bd8610dfb565b6001600160a01b031614610bfe5760405162461bcd60e51b81526004016107ac90612b1e565b6001600160a01b038116610c245760405162461bcd60e51b81526004016107ac90612c22565b601180546001600160a01b0319166001600160a01b0392909216919091179055565b60006001600160a01b038216610c6e5760405162461bcd60e51b81526004016107ac9061299d565b506001600160a01b031660009081526003602052604090205490565b610c92611397565b6001600160a01b0316610ca3610dfb565b6001600160a01b031614610cc95760405162461bcd60e51b81526004016107ac90612b1e565b610cd360006115bb565b565b610cdd611397565b6001600160a01b0316610cee610dfb565b6001600160a01b031614610d145760405162461bcd60e51b81526004016107ac90612b1e565b6000610d1e610949565b9050614e1f610d2d8383612da0565b1115610d4b5760405162461bcd60e51b81526004016107ac90612794565b60005b828110156108f257610d6933610d648385612da0565b61160d565b80610d7381612e69565b915050610d4e565b60008084604051602001610d8f919061258c565b604051602081830303815290604052805190602001209050610df284848080601f016020809104026020016040519081016040528093929190818152602001838380828437600092019190915250610dec92508591506116279050565b90611657565b95945050505050565b600a546001600160a01b031690565b60606001805461070290612e2e565b600b80546107de90612e2e565b6000610e30610949565b600e54909150610100900460ff1615610e5b5760405162461bcd60e51b81526004016107ac90612650565b601e841115610e7c5760405162461bcd60e51b81526004016107ac90612c8e565b614e1f610e898583612da0565b1115610ea75760405162461bcd60e51b81526004016107ac90612794565b610eb384600f5461167b565b610ecf5760405162461bcd60e51b81526004016107ac90612b53565b6011546001600160a01b0316610ee6338585610d7b565b6001600160a01b031614610f0c5760405162461bcd60e51b81526004016107ac90612af3565b60005b84811015610f3757610f2533610d648385612da0565b80610f2f81612e69565b915050610f0f565b5050505050565b6000610f48610949565b600e5490915060ff1615610f6e5760405162461bcd60e51b81526004016107ac90612d62565b601e821115610f8f5760405162461bcd60e51b81526004016107ac90612c8e565b614e1f610f9c8383612da0565b1115610fba5760405162461bcd60e51b81526004016107ac90612794565b3482601054610fc99190612dcc565b1115610fe75760405162461bcd60e51b81526004016107ac9061287b565b60005b828110156108f25761100033610d648385612da0565b8061100a81612e69565b915050610fea565b610a4d61101d611397565b83836116af565b60105481565b600f5481565b61104161103b611397565b83611409565b61105d5760405162461bcd60e51b81526004016107ac90612cc5565b61106984848484611752565b50505050565b600c80546107de90612e2e565b60606110878261137a565b6110a35760405162461bcd60e51b81526004016107ac90612bd3565b600e5462010000900460ff1661114557600d80546110c090612e2e565b80601f01602080910402602001604051908101604052809291908181526020018280546110ec90612e2e565b80156111395780601f1061110e57610100808354040283529160200191611139565b820191906000526020600020905b81548152906001019060200180831161111c57829003601f168201915b505050505090506106ee565b600061114f611785565b9050600081511161116f576040518060200160405280600081525061119d565b8061117984611794565b600c60405160200161118d93929190612499565b6040516020818303038152906040525b9392505050565b601e81565b6111b1611397565b6001600160a01b03166111c2610dfb565b6001600160a01b0316146111e85760405162461bcd60e51b81526004016107ac90612b1e565b8051610a4d90600c906020840190612079565b611203611397565b6001600160a01b0316611214610dfb565b6001600160a01b03161461123a5760405162461bcd60e51b81526004016107ac90612b1e565b600e8054911515620100000262ff000019909216919091179055565b6001600160a01b03918216600090815260056020908152604080832093909416825291909152205460ff1690565b61128c611397565b6001600160a01b031661129d610dfb565b6001600160a01b0316146112c35760405162461bcd60e51b81526004016107ac90612b1e565b8051610a4d90600d906020840190612079565b6112de611397565b6001600160a01b03166112ef610dfb565b6001600160a01b0316146113155760405162461bcd60e51b81526004016107ac90612b1e565b6001600160a01b03811661133b5760405162461bcd60e51b81526004016107ac9061274e565b611344816115bb565b50565b600e54610100900460ff1681565b60006001600160e01b0319821663780e9d6360e01b14806106eb57506106eb826118af565b6000908152600260205260409020546001600160a01b0316151590565b3390565b600081815260046020526040902080546001600160a01b0319166001600160a01b03841690811790915581906113d082610b8a565b6001600160a01b03167f8c5be1e5ebec7d5bd14f71427d1e84f3dd0314c0f7b2291e5b200ac8c7c3b92560405160405180910390a45050565b60006114148261137a565b6114305760405162461bcd60e51b81526004016107ac906128f4565b600061143b83610b8a565b9050806001600160a01b0316846001600160a01b031614806114765750836001600160a01b031661146b84610785565b6001600160a01b0316145b8061148657506114868185611256565b949350505050565b826001600160a01b03166114a182610b8a565b6001600160a01b0316146114c75760405162461bcd60e51b81526004016107ac90612b8a565b6001600160a01b0382166114ed5760405162461bcd60e51b81526004016107ac90612800565b6114f88383836118ef565b61150360008261139b565b6001600160a01b038316600090815260036020526040812080546001929061152c908490612deb565b90915550506001600160a01b038216600090815260036020526040812080546001929061155a908490612da0565b909155505060008181526002602052604080822080546001600160a01b0319166001600160a01b0386811691821790925591518493918716917fddf252ad1be2c89b69c2b068fc378daa952ba7f163c4a11628f55a4df523b3ef91a4505050565b600a80546001600160a01b038381166001600160a01b0319831681179093556040519116919082907f8be0079c531659141344cd1fd0a4f28419497f9722a3daafe3b4186f6b6457e090600090a35050565b610a4d8282604051806020016040528060008152506118fa565b60008160405160200161163a919061255b565b604051602081830303815290604052805190602001209050919050565b6000806000611666858561192d565b915091506116738161199d565b509392505050565b600080611689600185612deb565b61169a9066d529ae9e860000612dcc565b6116a49084612da0565b341015949350505050565b816001600160a01b0316836001600160a01b031614156116e15760405162461bcd60e51b81526004016107ac90612844565b6001600160a01b0383811660008181526005602090815260408083209487168084529490915290819020805460ff1916851515179055517f17307eab39ab6107e8899845ad3d59bd9653f200f220920489ca2b5937696c31906117459085906125dd565b60405180910390a3505050565b61175d84848461148e565b61176984848484611aca565b6110695760405162461bcd60e51b81526004016107ac906126fc565b6060600b805461070290612e2e565b6060816117b957506040805180820190915260018152600360fc1b60208201526106ee565b8160005b81156117e357806117cd81612e69565b91506117dc9050600a83612db8565b91506117bd565b60008167ffffffffffffffff81111561180c57634e487b7160e01b600052604160045260246000fd5b6040519080825280601f01601f191660200182016040528015611836576020820181803683370190505b5090505b84156114865761184b600183612deb565b9150611858600a86612e84565b611863906030612da0565b60f81b81838151811061188657634e487b7160e01b600052603260045260246000fd5b60200101906001600160f81b031916908160001a9053506118a8600a86612db8565b945061183a565b60006001600160e01b031982166380ac58cd60e01b14806118e057506001600160e01b03198216635b5e139f60e01b145b806106eb57506106eb82611be5565b6108f2838383611bfe565b6119048383611c87565b6119116000848484611aca565b6108f25760405162461bcd60e51b81526004016107ac906126fc565b6000808251604114156119645760208301516040840151606085015160001a61195887828585611d66565b94509450505050611996565b82516040141561198e5760208301516040840151611983868383611e46565b935093505050611996565b506000905060025b9250929050565b60008160048111156119bf57634e487b7160e01b600052602160045260246000fd5b14156119ca57611344565b60018160048111156119ec57634e487b7160e01b600052602160045260246000fd5b1415611a0a5760405162461bcd60e51b81526004016107ac90612619565b6002816004811115611a2c57634e487b7160e01b600052602160045260246000fd5b1415611a4a5760405162461bcd60e51b81526004016107ac9061267a565b6003816004811115611a6c57634e487b7160e01b600052602160045260246000fd5b1415611a8a5760405162461bcd60e51b81526004016107ac906128b2565b6004816004811115611aac57634e487b7160e01b600052602160045260246000fd5b14156113445760405162461bcd60e51b81526004016107ac90612a30565b6000611ade846001600160a01b0316611e75565b15611bda57836001600160a01b031663150b7a02611afa611397565b8786866040518563ffffffff1660e01b8152600401611b1c94939291906125a0565b602060405180830381600087803b158015611b3657600080fd5b505af1925050508015611b66575060408051601f3d908101601f19168201909252611b63918101906123c2565b60015b611bc0573d808015611b94576040519150601f19603f3d011682016040523d82523d6000602084013e611b99565b606091505b508051611bb85760405162461bcd60e51b81526004016107ac906126fc565b805181602001fd5b6001600160e01b031916630a85bd0160e11b149050611486565b506001949350505050565b6001600160e01b031981166301ffc9a760e01b14919050565b611c098383836108f2565b6001600160a01b038316611c2557611c2081611e7b565b611c48565b816001600160a01b0316836001600160a01b031614611c4857611c488382611ebf565b6001600160a01b038216611c6457611c5f81611f5c565b6108f2565b826001600160a01b0316826001600160a01b0316146108f2576108f28282612035565b6001600160a01b038216611cad5760405162461bcd60e51b81526004016107ac90612a72565b611cb68161137a565b15611cd35760405162461bcd60e51b81526004016107ac906127c9565b611cdf600083836118ef565b6001600160a01b0382166000908152600360205260408120805460019290611d08908490612da0565b909155505060008181526002602052604080822080546001600160a01b0319166001600160a01b03861690811790915590518392907fddf252ad1be2c89b69c2b068fc378daa952ba7f163c4a11628f55a4df523b3ef908290a45050565b6000807f7fffffffffffffffffffffffffffffff5d576e7357a4501ddfe92f46681b20a0831115611d9d5750600090506003611e3d565b8460ff16601b14158015611db557508460ff16601c14155b15611dc65750600090506004611e3d565b600060018787878760405160008152602001604052604051611deb94939291906125e8565b6020604051602081039080840390855afa158015611e0d573d6000803e3d6000fd5b5050604051601f1901519150506001600160a01b038116611e3657600060019250925050611e3d565b9150600090505b94509492505050565b6000806001600160ff1b03831660ff84901c601b01611e6787828885611d66565b935093505050935093915050565b3b151590565b600880546000838152600960205260408120829055600182018355919091527ff3f7a9fe364faab93b216da50a3214154f22a0a2b415b23a84c8169e8b636ee30155565b60006001611ecc84610c46565b611ed69190612deb565b600083815260076020526040902054909150808214611f29576001600160a01b03841660009081526006602090815260408083208584528252808320548484528184208190558352600790915290208190555b5060009182526007602090815260408084208490556001600160a01b039094168352600681528383209183525290812055565b600854600090611f6e90600190612deb565b60008381526009602052604081205460088054939450909284908110611fa457634e487b7160e01b600052603260045260246000fd5b906000526020600020015490508060088381548110611fd357634e487b7160e01b600052603260045260246000fd5b600091825260208083209091019290925582815260099091526040808220849055858252812055600880548061201957634e487b7160e01b600052603160045260246000fd5b6001900381819060005260206000200160009055905550505050565b600061204083610c46565b6001600160a01b039093166000908152600660209081526040808320868452825280832085905593825260079052919091209190915550565b82805461208590612e2e565b90600052602060002090601f0160209004810192826120a757600085556120ed565b82601f106120c057805160ff19168380011785556120ed565b828001600101855582156120ed579182015b828111156120ed5782518255916020019190600101906120d2565b506120f99291506120fd565b5090565b5b808211156120f957600081556001016120fe565b600067ffffffffffffffff8084111561212d5761212d612ec4565b604051601f8501601f19168101602001828111828210171561215157612151612ec4565b60405284815291508183850186101561216957600080fd5b8484602083013760006020868301015250509392505050565b80356001600160a01b03811681146106ee57600080fd5b803580151581146106ee57600080fd5b60008083601f8401126121ba578182fd5b50813567ffffffffffffffff8111156121d1578182fd5b60208301915083602082850101111561199657600080fd5b6000602082840312156121fa578081fd5b61119d82612182565b60008060408385031215612215578081fd5b61221e83612182565b915061222c60208401612182565b90509250929050565b600080600060608486031215612249578081fd5b61225284612182565b925061226060208501612182565b9150604084013590509250925092565b60008060008060808587031215612285578081fd5b61228e85612182565b935061229c60208601612182565b925060408501359150606085013567ffffffffffffffff8111156122be578182fd5b8501601f810187136122ce578182fd5b6122dd87823560208401612112565b91505092959194509250565b600080604083850312156122fb578182fd5b61230483612182565b915061222c60208401612199565b600080600060408486031215612326578283fd5b61232f84612182565b9250602084013567ffffffffffffffff81111561234a578283fd5b612356868287016121a9565b9497909650939450505050565b60008060408385031215612375578182fd5b61237e83612182565b946020939093013593505050565b60006020828403121561239d578081fd5b61119d82612199565b6000602082840312156123b7578081fd5b813561119d81612eda565b6000602082840312156123d3578081fd5b815161119d81612eda565b6000602082840312156123ef578081fd5b813567ffffffffffffffff811115612405578182fd5b8201601f81018413612415578182fd5b61148684823560208401612112565b600060208284031215612435578081fd5b5035919050565b600080600060408486031215612450578283fd5b83359250602084013567ffffffffffffffff81111561234a578283fd5b60008151808452612485816020860160208601612e02565b601f01601f19169290920160200192915050565b6000845160206124ac8285838a01612e02565b8551918401916124bf8184848a01612e02565b85549201918390600281046001808316806124db57607f831692505b8583108114156124f957634e487b7160e01b88526022600452602488fd5b80801561250d576001811461251e5761254a565b60ff1985168852838801955061254a565b6125278b612d94565b895b858110156125425781548a820152908401908801612529565b505083880195505b50939b9a5050505050505050505050565b7f19457468657265756d205369676e6564204d6573736167653a0a3332000000008152601c810191909152603c0190565b6001600160a01b0391909116815260200190565b6001600160a01b03858116825284166020820152604081018390526080606082018190526000906125d39083018461246d565b9695505050505050565b901515815260200190565b93845260ff9290921660208401526040830152606082015260800190565b60006020825261119d602083018461246d565b60208082526018908201527f45434453413a20696e76616c6964207369676e61747572650000000000000000604082015260600190565b60208082526010908201526f15da1a5d195b1a5cdd0814185d5cd95960821b604082015260600190565b6020808252601f908201527f45434453413a20696e76616c6964207369676e6174757265206c656e67746800604082015260600190565b6020808252602b908201527f455243373231456e756d657261626c653a206f776e657220696e646578206f7560408201526a74206f6620626f756e647360a81b606082015260800190565b60208082526032908201527f4552433732313a207472616e7366657220746f206e6f6e20455243373231526560408201527131b2b4bb32b91034b6b83632b6b2b73a32b960711b606082015260800190565b60208082526026908201527f4f776e61626c653a206e6577206f776e657220697320746865207a65726f206160408201526564647265737360d01b606082015260800190565b6020808252818101527f507572636861736520776f756c6420657863656564206d617820746f6b656e73604082015260600190565b6020808252601c908201527f4552433732313a20746f6b656e20616c7265616479206d696e74656400000000604082015260600190565b60208082526024908201527f4552433732313a207472616e7366657220746f20746865207a65726f206164646040820152637265737360e01b606082015260800190565b60208082526019908201527f4552433732313a20617070726f766520746f2063616c6c657200000000000000604082015260600190565b6020808252601f908201527f45746865722076616c75652073656e74206973206e6f7420636f727265637400604082015260600190565b60208082526022908201527f45434453413a20696e76616c6964207369676e6174757265202773272076616c604082015261756560f01b606082015260800190565b6020808252602c908201527f4552433732313a206f70657261746f7220717565727920666f72206e6f6e657860408201526b34b9ba32b73a103a37b5b2b760a11b606082015260800190565b60208082526038908201527f4552433732313a20617070726f76652063616c6c6572206973206e6f74206f7760408201527f6e6572206e6f7220617070726f76656420666f7220616c6c0000000000000000606082015260800190565b6020808252602a908201527f4552433732313a2062616c616e636520717565727920666f7220746865207a65604082015269726f206164647265737360b01b606082015260800190565b60208082526029908201527f4552433732313a206f776e657220717565727920666f72206e6f6e657869737460408201526832b73a103a37b5b2b760b91b606082015260800190565b60208082526022908201527f45434453413a20696e76616c6964207369676e6174757265202776272076616c604082015261756560f01b606082015260800190565b6020808252818101527f4552433732313a206d696e7420746f20746865207a65726f2061646472657373604082015260600190565b6020808252602c908201527f4552433732313a20617070726f76656420717565727920666f72206e6f6e657860408201526b34b9ba32b73a103a37b5b2b760a11b606082015260800190565b602080825260119082015270496e76616c6964205369676e617475726560781b604082015260600190565b6020808252818101527f4f776e61626c653a2063616c6c6572206973206e6f7420746865206f776e6572604082015260600190565b6020808252601b908201527f45746865722076616c756573206973206e6f7420636f72726563740000000000604082015260600190565b60208082526029908201527f4552433732313a207472616e73666572206f6620746f6b656e2074686174206960408201526839903737ba1037bbb760b91b606082015260800190565b6020808252602f908201527f4552433732314d657461646174613a2055524920717565727920666f72206e6f60408201526e3732bc34b9ba32b73a103a37b5b2b760891b606082015260800190565b602080825260119082015270696e636f7272656374206164647265737360781b604082015260600190565b60208082526021908201527f4552433732313a20617070726f76616c20746f2063757272656e74206f776e656040820152603960f91b606082015260800190565b6020808252601b908201527f4578636565646564206d617820746f6b656e2070757263686173650000000000604082015260600190565b60208082526031908201527f4552433732313a207472616e736665722063616c6c6572206973206e6f74206f6040820152701ddb995c881b9bdc88185c1c1c9bdd9959607a1b606082015260800190565b6020808252602c908201527f455243373231456e756d657261626c653a20676c6f62616c20696e646578206f60408201526b7574206f6620626f756e647360a01b606082015260800190565b6020808252600f908201526e10dbdb9d1c9858dd0814185d5cd959608a1b604082015260600190565b90815260200190565b60009081526020902090565b60008219821115612db357612db3612e98565b500190565b600082612dc757612dc7612eae565b500490565b6000816000190483118215151615612de657612de6612e98565b500290565b600082821015612dfd57612dfd612e98565b500390565b60005b83811015612e1d578181015183820152602001612e05565b838111156110695750506000910152565b600281046001821680612e4257607f821691505b60208210811415612e6357634e487b7160e01b600052602260045260246000fd5b50919050565b6000600019821415612e7d57612e7d612e98565b5060010190565b600082612e9357612e93612eae565b500690565b634e487b7160e01b600052601160045260246000fd5b634e487b7160e01b600052601260045260246000fd5b634e487b7160e01b600052604160045260246000fd5b6001600160e01b03198116811461134457600080fdfea2646970667358221220a14c8633e890e070c84f7fca94bc37e43621ddbaa1724e2fc583886be8af932864736f6c63430008000033",
          "opcodes": "PUSH1 0xC0 PUSH1 0x40 MSTORE PUSH1 0x5 PUSH1 0x80 DUP2 SWAP1 MSTORE PUSH5 0x173539B7B7 PUSH1 0xD9 SHL PUSH1 0xA0 SWAP1 DUP2 MSTORE PUSH3 0x28 SWAP2 PUSH1 0xC SWAP2 SWAP1 PUSH3 0x2C3 JUMP JUMPDEST POP PUSH1 0xE DUP1 SLOAD PUSH3 0xFF0000 NOT PUSH2 0xFF00 NOT PUSH1 0xFF NOT SWAP1 SWAP3 AND PUSH1 0x1 OR SWAP2 SWAP1 SWAP2 AND PUSH2 0x100 OR AND SWAP1 SSTORE PUSH8 0x11C37937E080000 PUSH1 0xF SSTORE PUSH8 0x13FBE85EDC90000 PUSH1 0x10 SSTORE CALLVALUE DUP1 ISZERO PUSH3 0x6F JUMPI PUSH1 0x0 DUP1 REVERT JUMPDEST POP PUSH1 0x40 MLOAD PUSH3 0x34D2 CODESIZE SUB DUP1 PUSH3 0x34D2 DUP4 CODECOPY DUP2 ADD PUSH1 0x40 DUP2 SWAP1 MSTORE PUSH3 0x92 SWAP2 PUSH3 0x414 JUMP JUMPDEST DUP5 MLOAD DUP6 SWAP1 DUP6 SWAP1 PUSH3 0xAB SWAP1 PUSH1 0x0 SWAP1 PUSH1 0x20 DUP6 ADD SWAP1 PUSH3 0x2C3 JUMP JUMPDEST POP DUP1 MLOAD PUSH3 0xC1 SWAP1 PUSH1 0x1 SWAP1 PUSH1 0x20 DUP5 ADD SWAP1 PUSH3 0x2C3 JUMP JUMPDEST POP POP POP PUSH3 0xDE PUSH3 0xD8 PUSH3 0x10A PUSH1 0x20 SHL PUSH1 0x20 SHR JUMP JUMPDEST PUSH3 0x10E JUMP JUMPDEST PUSH3 0xE9 DUP3 PUSH3 0x160 JUMP JUMPDEST PUSH3 0xF4 DUP2 PUSH3 0x1C8 JUMP JUMPDEST PUSH3 0xFF DUP4 PUSH3 0x223 JUMP JUMPDEST POP POP POP POP POP PUSH3 0x59C JUMP JUMPDEST CALLER SWAP1 JUMP JUMPDEST PUSH1 0xA DUP1 SLOAD PUSH1 0x1 PUSH1 0x1 PUSH1 0xA0 SHL SUB DUP4 DUP2 AND PUSH1 0x1 PUSH1 0x1 PUSH1 0xA0 SHL SUB NOT DUP4 AND DUP2 OR SWAP1 SWAP4 SSTORE PUSH1 0x40 MLOAD SWAP2 AND SWAP2 SWAP1 DUP3 SWAP1 PUSH32 0x8BE0079C531659141344CD1FD0A4F28419497F9722A3DAAFE3B4186F6B6457E0 SWAP1 PUSH1 0x0 SWAP1 LOG3 POP POP JUMP JUMPDEST PUSH3 0x16A PUSH3 0x10A JUMP JUMPDEST PUSH1 0x1 PUSH1 0x1 PUSH1 0xA0 SHL SUB AND PUSH3 0x17D PUSH3 0x2B4 JUMP JUMPDEST PUSH1 0x1 PUSH1 0x1 PUSH1 0xA0 SHL SUB AND EQ PUSH3 0x1AF JUMPI PUSH1 0x40 MLOAD PUSH3 0x461BCD PUSH1 0xE5 SHL DUP2 MSTORE PUSH1 0x4 ADD PUSH3 0x1A6 SWAP1 PUSH3 0x4E9 JUMP JUMPDEST PUSH1 0x40 MLOAD DUP1 SWAP2 SUB SWAP1 REVERT JUMPDEST DUP1 MLOAD PUSH3 0x1C4 SWAP1 PUSH1 0xB SWAP1 PUSH1 0x20 DUP5 ADD SWAP1 PUSH3 0x2C3 JUMP JUMPDEST POP POP JUMP JUMPDEST PUSH3 0x1D2 PUSH3 0x10A JUMP JUMPDEST PUSH1 0x1 PUSH1 0x1 PUSH1 0xA0 SHL SUB AND PUSH3 0x1E5 PUSH3 0x2B4 JUMP JUMPDEST PUSH1 0x1 PUSH1 0x1 PUSH1 0xA0 SHL SUB AND EQ PUSH3 0x20E JUMPI PUSH1 0x40 MLOAD PUSH3 0x461BCD PUSH1 0xE5 SHL DUP2 MSTORE PUSH1 0x4 ADD PUSH3 0x1A6 SWAP1 PUSH3 0x4E9 JUMP JUMPDEST DUP1 MLOAD PUSH3 0x1C4 SWAP1 PUSH1 0xD SWAP1 PUSH1 0x20 DUP5 ADD SWAP1 PUSH3 0x2C3 JUMP JUMPDEST PUSH3 0x22D PUSH3 0x10A JUMP JUMPDEST PUSH1 0x1 PUSH1 0x1 PUSH1 0xA0 SHL SUB AND PUSH3 0x240 PUSH3 0x2B4 JUMP JUMPDEST PUSH1 0x1 PUSH1 0x1 PUSH1 0xA0 SHL SUB AND EQ PUSH3 0x269 JUMPI PUSH1 0x40 MLOAD PUSH3 0x461BCD PUSH1 0xE5 SHL DUP2 MSTORE PUSH1 0x4 ADD PUSH3 0x1A6 SWAP1 PUSH3 0x4E9 JUMP JUMPDEST PUSH1 0x1 PUSH1 0x1 PUSH1 0xA0 SHL SUB DUP2 AND PUSH3 0x292 JUMPI PUSH1 0x40 MLOAD PUSH3 0x461BCD PUSH1 0xE5 SHL DUP2 MSTORE PUSH1 0x4 ADD PUSH3 0x1A6 SWAP1 PUSH3 0x51E JUMP JUMPDEST PUSH1 0x11 DUP1 SLOAD PUSH1 0x1 PUSH1 0x1 PUSH1 0xA0 SHL SUB NOT AND PUSH1 0x1 PUSH1 0x1 PUSH1 0xA0 SHL SUB SWAP3 SWAP1 SWAP3 AND SWAP2 SWAP1 SWAP2 OR SWAP1 SSTORE JUMP JUMPDEST PUSH1 0xA SLOAD PUSH1 0x1 PUSH1 0x1 PUSH1 0xA0 SHL SUB AND SWAP1 JUMP JUMPDEST DUP3 DUP1 SLOAD PUSH3 0x2D1 SWAP1 PUSH3 0x549 JUMP JUMPDEST SWAP1 PUSH1 0x0 MSTORE PUSH1 0x20 PUSH1 0x0 KECCAK256 SWAP1 PUSH1 0x1F ADD PUSH1 0x20 SWAP1 DIV DUP2 ADD SWAP3 DUP3 PUSH3 0x2F5 JUMPI PUSH1 0x0 DUP6 SSTORE PUSH3 0x340 JUMP JUMPDEST DUP3 PUSH1 0x1F LT PUSH3 0x310 JUMPI DUP1 MLOAD PUSH1 0xFF NOT AND DUP4 DUP1 ADD OR DUP6 SSTORE PUSH3 0x340 JUMP JUMPDEST DUP3 DUP1 ADD PUSH1 0x1 ADD DUP6 SSTORE DUP3 ISZERO PUSH3 0x340 JUMPI SWAP2 DUP3 ADD JUMPDEST DUP3 DUP2 GT ISZERO PUSH3 0x340 JUMPI DUP3 MLOAD DUP3 SSTORE SWAP2 PUSH1 0x20 ADD SWAP2 SWAP1 PUSH1 0x1 ADD SWAP1 PUSH3 0x323 JUMP JUMPDEST POP PUSH3 0x34E SWAP3 SWAP2 POP PUSH3 0x352 JUMP JUMPDEST POP SWAP1 JUMP JUMPDEST JUMPDEST DUP1 DUP3 GT ISZERO PUSH3 0x34E JUMPI PUSH1 0x0 DUP2 SSTORE PUSH1 0x1 ADD PUSH3 0x353 JUMP JUMPDEST PUSH1 0x0 DUP3 PUSH1 0x1F DUP4 ADD SLT PUSH3 0x37A JUMPI DUP1 DUP2 REVERT JUMPDEST DUP2 MLOAD PUSH1 0x1 PUSH1 0x1 PUSH1 0x40 SHL SUB DUP1 DUP3 GT ISZERO PUSH3 0x397 JUMPI PUSH3 0x397 PUSH3 0x586 JUMP JUMPDEST PUSH1 0x40 MLOAD PUSH1 0x20 PUSH1 0x1F DUP5 ADD PUSH1 0x1F NOT AND DUP3 ADD DUP2 ADD DUP4 DUP2 GT DUP4 DUP3 LT OR ISZERO PUSH3 0x3BF JUMPI PUSH3 0x3BF PUSH3 0x586 JUMP JUMPDEST PUSH1 0x40 MSTORE DUP4 DUP3 MSTORE DUP6 DUP5 ADD DUP2 ADD DUP8 LT ISZERO PUSH3 0x3D6 JUMPI DUP5 DUP6 REVERT JUMPDEST DUP5 SWAP3 POP JUMPDEST DUP4 DUP4 LT ISZERO PUSH3 0x3F9 JUMPI DUP6 DUP4 ADD DUP2 ADD MLOAD DUP3 DUP5 ADD DUP3 ADD MSTORE SWAP2 DUP3 ADD SWAP2 PUSH3 0x3DA JUMP JUMPDEST DUP4 DUP4 GT ISZERO PUSH3 0x40A JUMPI DUP5 DUP2 DUP6 DUP5 ADD ADD MSTORE JUMPDEST POP SWAP6 SWAP5 POP POP POP POP POP JUMP JUMPDEST PUSH1 0x0 DUP1 PUSH1 0x0 DUP1 PUSH1 0x0 PUSH1 0xA0 DUP7 DUP9 SUB SLT ISZERO PUSH3 0x42C JUMPI DUP1 DUP2 REVERT JUMPDEST DUP6 MLOAD PUSH1 0x1 PUSH1 0x1 PUSH1 0x40 SHL SUB DUP1 DUP3 GT ISZERO PUSH3 0x443 JUMPI DUP3 DUP4 REVERT JUMPDEST PUSH3 0x451 DUP10 DUP4 DUP11 ADD PUSH3 0x369 JUMP JUMPDEST SWAP7 POP PUSH1 0x20 DUP9 ADD MLOAD SWAP2 POP DUP1 DUP3 GT ISZERO PUSH3 0x467 JUMPI DUP3 DUP4 REVERT JUMPDEST PUSH3 0x475 DUP10 DUP4 DUP11 ADD PUSH3 0x369 JUMP JUMPDEST PUSH1 0x40 DUP10 ADD MLOAD SWAP1 SWAP7 POP SWAP2 POP PUSH1 0x1 PUSH1 0x1 PUSH1 0xA0 SHL SUB DUP3 AND DUP3 EQ PUSH3 0x494 JUMPI DUP3 DUP4 REVERT JUMPDEST PUSH1 0x60 DUP9 ADD MLOAD SWAP2 SWAP5 POP DUP1 DUP3 GT ISZERO PUSH3 0x4A9 JUMPI DUP3 DUP4 REVERT JUMPDEST PUSH3 0x4B7 DUP10 DUP4 DUP11 ADD PUSH3 0x369 JUMP JUMPDEST SWAP4 POP PUSH1 0x80 DUP9 ADD MLOAD SWAP2 POP DUP1 DUP3 GT ISZERO PUSH3 0x4CD JUMPI DUP3 DUP4 REVERT JUMPDEST POP PUSH3 0x4DC DUP9 DUP3 DUP10 ADD PUSH3 0x369 JUMP JUMPDEST SWAP2 POP POP SWAP3 SWAP6 POP SWAP3 SWAP6 SWAP1 SWAP4 POP JUMP JUMPDEST PUSH1 0x20 DUP1 DUP3 MSTORE DUP2 DUP2 ADD MSTORE PUSH32 0x4F776E61626C653A2063616C6C6572206973206E6F7420746865206F776E6572 PUSH1 0x40 DUP3 ADD MSTORE PUSH1 0x60 ADD SWAP1 JUMP JUMPDEST PUSH1 0x20 DUP1 DUP3 MSTORE PUSH1 0x11 SWAP1 DUP3 ADD MSTORE PUSH17 0x696E636F72726563742061646472657373 PUSH1 0x78 SHL PUSH1 0x40 DUP3 ADD MSTORE PUSH1 0x60 ADD SWAP1 JUMP JUMPDEST PUSH1 0x2 DUP2 DIV PUSH1 0x1 DUP3 AND DUP1 PUSH3 0x55E JUMPI PUSH1 0x7F DUP3 AND SWAP2 POP JUMPDEST PUSH1 0x20 DUP3 LT DUP2 EQ ISZERO PUSH3 0x580 JUMPI PUSH4 0x4E487B71 PUSH1 0xE0 SHL PUSH1 0x0 MSTORE PUSH1 0x22 PUSH1 0x4 MSTORE PUSH1 0x24 PUSH1 0x0 REVERT JUMPDEST POP SWAP2 SWAP1 POP JUMP JUMPDEST PUSH4 0x4E487B71 PUSH1 0xE0 SHL PUSH1 0x0 MSTORE PUSH1 0x41 PUSH1 0x4 MSTORE PUSH1 0x24 PUSH1 0x0 REVERT JUMPDEST PUSH2 0x2F26 DUP1 PUSH3 0x5AC PUSH1 0x0 CODECOPY PUSH1 0x0 RETURN INVALID PUSH1 0x80 PUSH1 0x40 MSTORE PUSH1 0x4 CALLDATASIZE LT PUSH2 0x246 JUMPI PUSH1 0x0 CALLDATALOAD PUSH1 0xE0 SHR DUP1 PUSH4 0x715018A6 GT PUSH2 0x139 JUMPI DUP1 PUSH4 0xA8A4B4F1 GT PUSH2 0xB6 JUMPI DUP1 PUSH4 0xDA3EF23F GT PUSH2 0x7A JUMPI DUP1 PUSH4 0xDA3EF23F EQ PUSH2 0x62B JUMPI DUP1 PUSH4 0xE0A80853 EQ PUSH2 0x64B JUMPI DUP1 PUSH4 0xE985E9C5 EQ PUSH2 0x66B JUMPI DUP1 PUSH4 0xF2C4CE1E EQ PUSH2 0x68B JUMPI DUP1 PUSH4 0xF2FDE38B EQ PUSH2 0x6AB JUMPI DUP1 PUSH4 0xF72EC829 EQ PUSH2 0x6CB JUMPI PUSH2 0x246 JUMP JUMPDEST DUP1 PUSH4 0xA8A4B4F1 EQ PUSH2 0x5AC JUMPI DUP1 PUSH4 0xB88D4FDE EQ PUSH2 0x5C1 JUMPI DUP1 PUSH4 0xC6682862 EQ PUSH2 0x5E1 JUMPI DUP1 PUSH4 0xC87B56DD EQ PUSH2 0x5F6 JUMPI DUP1 PUSH4 0xCB14EB87 EQ PUSH2 0x616 JUMPI PUSH2 0x246 JUMP JUMPDEST DUP1 PUSH4 0x9ABC8320 GT PUSH2 0xFD JUMPI DUP1 PUSH4 0x9ABC8320 EQ PUSH2 0x53C JUMPI DUP1 PUSH4 0x9E852F75 EQ PUSH2 0x551 JUMPI DUP1 PUSH4 0xA0712D68 EQ PUSH2 0x564 JUMPI DUP1 PUSH4 0xA22CB465 EQ PUSH2 0x577 JUMPI DUP1 PUSH4 0xA56D7730 EQ PUSH2 0x597 JUMPI PUSH2 0x246 JUMP JUMPDEST DUP1 PUSH4 0x715018A6 EQ PUSH2 0x4BD JUMPI DUP1 PUSH4 0x819B25BA EQ PUSH2 0x4D2 JUMPI DUP1 PUSH4 0x844847F6 EQ PUSH2 0x4F2 JUMPI DUP1 PUSH4 0x8DA5CB5B EQ PUSH2 0x512 JUMPI DUP1 PUSH4 0x95D89B41 EQ PUSH2 0x527 JUMPI PUSH2 0x246 JUMP JUMPDEST DUP1 PUSH4 0x3CCFD60B GT PUSH2 0x1C7 JUMPI DUP1 PUSH4 0x57AE51FB GT PUSH2 0x18B JUMPI DUP1 PUSH4 0x57AE51FB EQ PUSH2 0x428 JUMPI DUP1 PUSH4 0x5C975ABB EQ PUSH2 0x448 JUMPI DUP1 PUSH4 0x6352211E EQ PUSH2 0x45D JUMPI DUP1 PUSH4 0x6C19E783 EQ PUSH2 0x47D JUMPI DUP1 PUSH4 0x70A08231 EQ PUSH2 0x49D JUMPI PUSH2 0x246 JUMP JUMPDEST DUP1 PUSH4 0x3CCFD60B EQ PUSH2 0x39E JUMPI DUP1 PUSH4 0x42842E0E EQ PUSH2 0x3B3 JUMPI DUP1 PUSH4 0x4F6CCCE7 EQ PUSH2 0x3D3 JUMPI DUP1 PUSH4 0x51830227 EQ PUSH2 0x3F3 JUMPI DUP1 PUSH4 0x55F804B3 EQ PUSH2 0x408 JUMPI PUSH2 0x246 JUMP JUMPDEST DUP1 PUSH4 0x16C38B3C GT PUSH2 0x20E JUMPI DUP1 PUSH4 0x16C38B3C EQ PUSH2 0x307 JUMPI DUP1 PUSH4 0x18160DDD EQ PUSH2 0x327 JUMPI DUP1 PUSH4 0x23B872DD EQ PUSH2 0x349 JUMPI DUP1 PUSH4 0x2F745C59 EQ PUSH2 0x369 JUMPI DUP1 PUSH4 0x32CB6B0C EQ PUSH2 0x389 JUMPI PUSH2 0x246 JUMP JUMPDEST DUP1 PUSH4 0x1FFC9A7 EQ PUSH2 0x24B JUMPI DUP1 PUSH4 0x6FDDE03 EQ PUSH2 0x281 JUMPI DUP1 PUSH4 0x81812FC EQ PUSH2 0x2A3 JUMPI DUP1 PUSH4 0x81C8C44 EQ PUSH2 0x2D0 JUMPI DUP1 PUSH4 0x95EA7B3 EQ PUSH2 0x2E5 JUMPI JUMPDEST PUSH1 0x0 DUP1 REVERT JUMPDEST CALLVALUE DUP1 ISZERO PUSH2 0x257 JUMPI PUSH1 0x0 DUP1 REVERT JUMPDEST POP PUSH2 0x26B PUSH2 0x266 CALLDATASIZE PUSH1 0x4 PUSH2 0x23A6 JUMP JUMPDEST PUSH2 0x6E0 JUMP JUMPDEST PUSH1 0x40 MLOAD PUSH2 0x278 SWAP2 SWAP1 PUSH2 0x25DD JUMP JUMPDEST PUSH1 0x40 MLOAD DUP1 SWAP2 SUB SWAP1 RETURN JUMPDEST CALLVALUE DUP1 ISZERO PUSH2 0x28D JUMPI PUSH1 0x0 DUP1 REVERT JUMPDEST POP PUSH2 0x296 PUSH2 0x6F3 JUMP JUMPDEST PUSH1 0x40 MLOAD PUSH2 0x278 SWAP2 SWAP1 PUSH2 0x2606 JUMP JUMPDEST CALLVALUE DUP1 ISZERO PUSH2 0x2AF JUMPI PUSH1 0x0 DUP1 REVERT JUMPDEST POP PUSH2 0x2C3 PUSH2 0x2BE CALLDATASIZE PUSH1 0x4 PUSH2 0x2424 JUMP JUMPDEST PUSH2 0x785 JUMP JUMPDEST PUSH1 0x40 MLOAD PUSH2 0x278 SWAP2 SWAP1 PUSH2 0x258C JUMP JUMPDEST CALLVALUE DUP1 ISZERO PUSH2 0x2DC JUMPI PUSH1 0x0 DUP1 REVERT JUMPDEST POP PUSH2 0x296 PUSH2 0x7D1 JUMP JUMPDEST CALLVALUE DUP1 ISZERO PUSH2 0x2F1 JUMPI PUSH1 0x0 DUP1 REVERT JUMPDEST POP PUSH2 0x305 PUSH2 0x300 CALLDATASIZE PUSH1 0x4 PUSH2 0x2363 JUMP JUMPDEST PUSH2 0x85F JUMP JUMPDEST STOP JUMPDEST CALLVALUE DUP1 ISZERO PUSH2 0x313 JUMPI PUSH1 0x0 DUP1 REVERT JUMPDEST POP PUSH2 0x305 PUSH2 0x322 CALLDATASIZE PUSH1 0x4 PUSH2 0x238C JUMP JUMPDEST PUSH2 0x8F7 JUMP JUMPDEST CALLVALUE DUP1 ISZERO PUSH2 0x333 JUMPI PUSH1 0x0 DUP1 REVERT JUMPDEST POP PUSH2 0x33C PUSH2 0x949 JUMP JUMPDEST PUSH1 0x40 MLOAD PUSH2 0x278 SWAP2 SWAP1 PUSH2 0x2D8B JUMP JUMPDEST CALLVALUE DUP1 ISZERO PUSH2 0x355 JUMPI PUSH1 0x0 DUP1 REVERT JUMPDEST POP PUSH2 0x305 PUSH2 0x364 CALLDATASIZE PUSH1 0x4 PUSH2 0x2235 JUMP JUMPDEST PUSH2 0x94F JUMP JUMPDEST CALLVALUE DUP1 ISZERO PUSH2 0x375 JUMPI PUSH1 0x0 DUP1 REVERT JUMPDEST POP PUSH2 0x33C PUSH2 0x384 CALLDATASIZE PUSH1 0x4 PUSH2 0x2363 JUMP JUMPDEST PUSH2 0x987 JUMP JUMPDEST CALLVALUE DUP1 ISZERO PUSH2 0x395 JUMPI PUSH1 0x0 DUP1 REVERT JUMPDEST POP PUSH2 0x33C PUSH2 0x9D9 JUMP JUMPDEST CALLVALUE DUP1 ISZERO PUSH2 0x3AA JUMPI PUSH1 0x0 DUP1 REVERT JUMPDEST POP PUSH2 0x305 PUSH2 0x9DF JUMP JUMPDEST CALLVALUE DUP1 ISZERO PUSH2 0x3BF JUMPI PUSH1 0x0 DUP1 REVERT JUMPDEST POP PUSH2 0x305 PUSH2 0x3CE CALLDATASIZE PUSH1 0x4 PUSH2 0x2235 JUMP JUMPDEST PUSH2 0xA51 JUMP JUMPDEST CALLVALUE DUP1 ISZERO PUSH2 0x3DF JUMPI PUSH1 0x0 DUP1 REVERT JUMPDEST POP PUSH2 0x33C PUSH2 0x3EE CALLDATASIZE PUSH1 0x4 PUSH2 0x2424 JUMP JUMPDEST PUSH2 0xA6C JUMP JUMPDEST CALLVALUE DUP1 ISZERO PUSH2 0x3FF JUMPI PUSH1 0x0 DUP1 REVERT JUMPDEST POP PUSH2 0x26B PUSH2 0xAC7 JUMP JUMPDEST CALLVALUE DUP1 ISZERO PUSH2 0x414 JUMPI PUSH1 0x0 DUP1 REVERT JUMPDEST POP PUSH2 0x305 PUSH2 0x423 CALLDATASIZE PUSH1 0x4 PUSH2 0x23DE JUMP JUMPDEST PUSH2 0xAD6 JUMP JUMPDEST CALLVALUE DUP1 ISZERO PUSH2 0x434 JUMPI PUSH1 0x0 DUP1 REVERT JUMPDEST POP PUSH2 0x305 PUSH2 0x443 CALLDATASIZE PUSH1 0x4 PUSH2 0x238C JUMP JUMPDEST PUSH2 0xB28 JUMP JUMPDEST CALLVALUE DUP1 ISZERO PUSH2 0x454 JUMPI PUSH1 0x0 DUP1 REVERT JUMPDEST POP PUSH2 0x26B PUSH2 0xB81 JUMP JUMPDEST CALLVALUE DUP1 ISZERO PUSH2 0x469 JUMPI PUSH1 0x0 DUP1 REVERT JUMPDEST POP PUSH2 0x2C3 PUSH2 0x478 CALLDATASIZE PUSH1 0x4 PUSH2 0x2424 JUMP JUMPDEST PUSH2 0xB8A JUMP JUMPDEST CALLVALUE DUP1 ISZERO PUSH2 0x489 JUMPI PUSH1 0x0 DUP1 REVERT JUMPDEST POP PUSH2 0x305 PUSH2 0x498 CALLDATASIZE PUSH1 0x4 PUSH2 0x21E9 JUMP JUMPDEST PUSH2 0xBBF JUMP JUMPDEST CALLVALUE DUP1 ISZERO PUSH2 0x4A9 JUMPI PUSH1 0x0 DUP1 REVERT JUMPDEST POP PUSH2 0x33C PUSH2 0x4B8 CALLDATASIZE PUSH1 0x4 PUSH2 0x21E9 JUMP JUMPDEST PUSH2 0xC46 JUMP JUMPDEST CALLVALUE DUP1 ISZERO PUSH2 0x4C9 JUMPI PUSH1 0x0 DUP1 REVERT JUMPDEST POP PUSH2 0x305 PUSH2 0xC8A JUMP JUMPDEST CALLVALUE DUP1 ISZERO PUSH2 0x4DE JUMPI PUSH1 0x0 DUP1 REVERT JUMPDEST POP PUSH2 0x305 PUSH2 0x4ED CALLDATASIZE PUSH1 0x4 PUSH2 0x2424 JUMP JUMPDEST PUSH2 0xCD5 JUMP JUMPDEST CALLVALUE DUP1 ISZERO PUSH2 0x4FE JUMPI PUSH1 0x0 DUP1 REVERT JUMPDEST POP PUSH2 0x2C3 PUSH2 0x50D CALLDATASIZE PUSH1 0x4 PUSH2 0x2312 JUMP JUMPDEST PUSH2 0xD7B JUMP JUMPDEST CALLVALUE DUP1 ISZERO PUSH2 0x51E JUMPI PUSH1 0x0 DUP1 REVERT JUMPDEST POP PUSH2 0x2C3 PUSH2 0xDFB JUMP JUMPDEST CALLVALUE DUP1 ISZERO PUSH2 0x533 JUMPI PUSH1 0x0 DUP1 REVERT JUMPDEST POP PUSH2 0x296 PUSH2 0xE0A JUMP JUMPDEST CALLVALUE DUP1 ISZERO PUSH2 0x548 JUMPI PUSH1 0x0 DUP1 REVERT JUMPDEST POP PUSH2 0x296 PUSH2 0xE19 JUMP JUMPDEST PUSH2 0x305 PUSH2 0x55F CALLDATASIZE PUSH1 0x4 PUSH2 0x243C JUMP JUMPDEST PUSH2 0xE26 JUMP JUMPDEST PUSH2 0x305 PUSH2 0x572 CALLDATASIZE PUSH1 0x4 PUSH2 0x2424 JUMP JUMPDEST PUSH2 0xF3E JUMP JUMPDEST CALLVALUE DUP1 ISZERO PUSH2 0x583 JUMPI PUSH1 0x0 DUP1 REVERT JUMPDEST POP PUSH2 0x305 PUSH2 0x592 CALLDATASIZE PUSH1 0x4 PUSH2 0x22E9 JUMP JUMPDEST PUSH2 0x1012 JUMP JUMPDEST CALLVALUE DUP1 ISZERO PUSH2 0x5A3 JUMPI PUSH1 0x0 DUP1 REVERT JUMPDEST POP PUSH2 0x33C PUSH2 0x1024 JUMP JUMPDEST CALLVALUE DUP1 ISZERO PUSH2 0x5B8 JUMPI PUSH1 0x0 DUP1 REVERT JUMPDEST POP PUSH2 0x33C PUSH2 0x102A JUMP JUMPDEST CALLVALUE DUP1 ISZERO PUSH2 0x5CD JUMPI PUSH1 0x0 DUP1 REVERT JUMPDEST POP PUSH2 0x305 PUSH2 0x5DC CALLDATASIZE PUSH1 0x4 PUSH2 0x2270 JUMP JUMPDEST PUSH2 0x1030 JUMP JUMPDEST CALLVALUE DUP1 ISZERO PUSH2 0x5ED JUMPI PUSH1 0x0 DUP1 REVERT JUMPDEST POP PUSH2 0x296 PUSH2 0x106F JUMP JUMPDEST CALLVALUE DUP1 ISZERO PUSH2 0x602 JUMPI PUSH1 0x0 DUP1 REVERT JUMPDEST POP PUSH2 0x296 PUSH2 0x611 CALLDATASIZE PUSH1 0x4 PUSH2 0x2424 JUMP JUMPDEST PUSH2 0x107C JUMP JUMPDEST CALLVALUE DUP1 ISZERO PUSH2 0x622 JUMPI PUSH1 0x0 DUP1 REVERT JUMPDEST POP PUSH2 0x33C PUSH2 0x11A4 JUMP JUMPDEST CALLVALUE DUP1 ISZERO PUSH2 0x637 JUMPI PUSH1 0x0 DUP1 REVERT JUMPDEST POP PUSH2 0x305 PUSH2 0x646 CALLDATASIZE PUSH1 0x4 PUSH2 0x23DE JUMP JUMPDEST PUSH2 0x11A9 JUMP JUMPDEST CALLVALUE DUP1 ISZERO PUSH2 0x657 JUMPI PUSH1 0x0 DUP1 REVERT JUMPDEST POP PUSH2 0x305 PUSH2 0x666 CALLDATASIZE PUSH1 0x4 PUSH2 0x238C JUMP JUMPDEST PUSH2 0x11FB JUMP JUMPDEST CALLVALUE DUP1 ISZERO PUSH2 0x677 JUMPI PUSH1 0x0 DUP1 REVERT JUMPDEST POP PUSH2 0x26B PUSH2 0x686 CALLDATASIZE PUSH1 0x4 PUSH2 0x2203 JUMP JUMPDEST PUSH2 0x1256 JUMP JUMPDEST CALLVALUE DUP1 ISZERO PUSH2 0x697 JUMPI PUSH1 0x0 DUP1 REVERT JUMPDEST POP PUSH2 0x305 PUSH2 0x6A6 CALLDATASIZE PUSH1 0x4 PUSH2 0x23DE JUMP JUMPDEST PUSH2 0x1284 JUMP JUMPDEST CALLVALUE DUP1 ISZERO PUSH2 0x6B7 JUMPI PUSH1 0x0 DUP1 REVERT JUMPDEST POP PUSH2 0x305 PUSH2 0x6C6 CALLDATASIZE PUSH1 0x4 PUSH2 0x21E9 JUMP JUMPDEST PUSH2 0x12D6 JUMP JUMPDEST CALLVALUE DUP1 ISZERO PUSH2 0x6D7 JUMPI PUSH1 0x0 DUP1 REVERT JUMPDEST POP PUSH2 0x26B PUSH2 0x1347 JUMP JUMPDEST PUSH1 0x0 PUSH2 0x6EB DUP3 PUSH2 0x1355 JUMP JUMPDEST SWAP1 POP JUMPDEST SWAP2 SWAP1 POP JUMP JUMPDEST PUSH1 0x60 PUSH1 0x0 DUP1 SLOAD PUSH2 0x702 SWAP1 PUSH2 0x2E2E JUMP JUMPDEST DUP1 PUSH1 0x1F ADD PUSH1 0x20 DUP1 SWAP2 DIV MUL PUSH1 0x20 ADD PUSH1 0x40 MLOAD SWAP1 DUP2 ADD PUSH1 0x40 MSTORE DUP1 SWAP3 SWAP2 SWAP1 DUP2 DUP2 MSTORE PUSH1 0x20 ADD DUP3 DUP1 SLOAD PUSH2 0x72E SWAP1 PUSH2 0x2E2E JUMP JUMPDEST DUP1 ISZERO PUSH2 0x77B JUMPI DUP1 PUSH1 0x1F LT PUSH2 0x750 JUMPI PUSH2 0x100 DUP1 DUP4 SLOAD DIV MUL DUP4 MSTORE SWAP2 PUSH1 0x20 ADD SWAP2 PUSH2 0x77B JUMP JUMPDEST DUP3 ADD SWAP2 SWAP1 PUSH1 0x0 MSTORE PUSH1 0x20 PUSH1 0x0 KECCAK256 SWAP1 JUMPDEST DUP2 SLOAD DUP2 MSTORE SWAP1 PUSH1 0x1 ADD SWAP1 PUSH1 0x20 ADD DUP1 DUP4 GT PUSH2 0x75E JUMPI DUP3 SWAP1 SUB PUSH1 0x1F AND DUP3 ADD SWAP2 JUMPDEST POP POP POP POP POP SWAP1 POP SWAP1 JUMP JUMPDEST PUSH1 0x0 PUSH2 0x790 DUP3 PUSH2 0x137A JUMP JUMPDEST PUSH2 0x7B5 JUMPI PUSH1 0x40 MLOAD PUSH3 0x461BCD PUSH1 0xE5 SHL DUP2 MSTORE PUSH1 0x4 ADD PUSH2 0x7AC SWAP1 PUSH2 0x2AA7 JUMP JUMPDEST PUSH1 0x40 MLOAD DUP1 SWAP2 SUB SWAP1 REVERT JUMPDEST POP PUSH1 0x0 SWAP1 DUP2 MSTORE PUSH1 0x4 PUSH1 0x20 MSTORE PUSH1 0x40 SWAP1 KECCAK256 SLOAD PUSH1 0x1 PUSH1 0x1 PUSH1 0xA0 SHL SUB AND SWAP1 JUMP JUMPDEST PUSH1 0xD DUP1 SLOAD PUSH2 0x7DE SWAP1 PUSH2 0x2E2E JUMP JUMPDEST DUP1 PUSH1 0x1F ADD PUSH1 0x20 DUP1 SWAP2 DIV MUL PUSH1 0x20 ADD PUSH1 0x40 MLOAD SWAP1 DUP2 ADD PUSH1 0x40 MSTORE DUP1 SWAP3 SWAP2 SWAP1 DUP2 DUP2 MSTORE PUSH1 0x20 ADD DUP3 DUP1 SLOAD PUSH2 0x80A SWAP1 PUSH2 0x2E2E JUMP JUMPDEST DUP1 ISZERO PUSH2 0x857 JUMPI DUP1 PUSH1 0x1F LT PUSH2 0x82C JUMPI PUSH2 0x100 DUP1 DUP4 SLOAD DIV MUL DUP4 MSTORE SWAP2 PUSH1 0x20 ADD SWAP2 PUSH2 0x857 JUMP JUMPDEST DUP3 ADD SWAP2 SWAP1 PUSH1 0x0 MSTORE PUSH1 0x20 PUSH1 0x0 KECCAK256 SWAP1 JUMPDEST DUP2 SLOAD DUP2 MSTORE SWAP1 PUSH1 0x1 ADD SWAP1 PUSH1 0x20 ADD DUP1 DUP4 GT PUSH2 0x83A JUMPI DUP3 SWAP1 SUB PUSH1 0x1F AND DUP3 ADD SWAP2 JUMPDEST POP POP POP POP POP DUP2 JUMP JUMPDEST PUSH1 0x0 PUSH2 0x86A DUP3 PUSH2 0xB8A JUMP JUMPDEST SWAP1 POP DUP1 PUSH1 0x1 PUSH1 0x1 PUSH1 0xA0 SHL SUB AND DUP4 PUSH1 0x1 PUSH1 0x1 PUSH1 0xA0 SHL SUB AND EQ ISZERO PUSH2 0x89E JUMPI PUSH1 0x40 MLOAD PUSH3 0x461BCD PUSH1 0xE5 SHL DUP2 MSTORE PUSH1 0x4 ADD PUSH2 0x7AC SWAP1 PUSH2 0x2C4D JUMP JUMPDEST DUP1 PUSH1 0x1 PUSH1 0x1 PUSH1 0xA0 SHL SUB AND PUSH2 0x8B0 PUSH2 0x1397 JUMP JUMPDEST PUSH1 0x1 PUSH1 0x1 PUSH1 0xA0 SHL SUB AND EQ DUP1 PUSH2 0x8CC JUMPI POP PUSH2 0x8CC DUP2 PUSH2 0x686 PUSH2 0x1397 JUMP JUMPDEST PUSH2 0x8E8 JUMPI PUSH1 0x40 MLOAD PUSH3 0x461BCD PUSH1 0xE5 SHL DUP2 MSTORE PUSH1 0x4 ADD PUSH2 0x7AC SWAP1 PUSH2 0x2940 JUMP JUMPDEST PUSH2 0x8F2 DUP4 DUP4 PUSH2 0x139B JUMP JUMPDEST POP POP POP JUMP JUMPDEST PUSH2 0x8FF PUSH2 0x1397 JUMP JUMPDEST PUSH1 0x1 PUSH1 0x1 PUSH1 0xA0 SHL SUB AND PUSH2 0x910 PUSH2 0xDFB JUMP JUMPDEST PUSH1 0x1 PUSH1 0x1 PUSH1 0xA0 SHL SUB AND EQ PUSH2 0x936 JUMPI PUSH1 0x40 MLOAD PUSH3 0x461BCD PUSH1 0xE5 SHL DUP2 MSTORE PUSH1 0x4 ADD PUSH2 0x7AC SWAP1 PUSH2 0x2B1E JUMP JUMPDEST PUSH1 0xE DUP1 SLOAD PUSH1 0xFF NOT AND SWAP2 ISZERO ISZERO SWAP2 SWAP1 SWAP2 OR SWAP1 SSTORE JUMP JUMPDEST PUSH1 0x8 SLOAD SWAP1 JUMP JUMPDEST PUSH2 0x960 PUSH2 0x95A PUSH2 0x1397 JUMP JUMPDEST DUP3 PUSH2 0x1409 JUMP JUMPDEST PUSH2 0x97C JUMPI PUSH1 0x40 MLOAD PUSH3 0x461BCD PUSH1 0xE5 SHL DUP2 MSTORE PUSH1 0x4 ADD PUSH2 0x7AC SWAP1 PUSH2 0x2CC5 JUMP JUMPDEST PUSH2 0x8F2 DUP4 DUP4 DUP4 PUSH2 0x148E JUMP JUMPDEST PUSH1 0x0 PUSH2 0x992 DUP4 PUSH2 0xC46 JUMP JUMPDEST DUP3 LT PUSH2 0x9B0 JUMPI PUSH1 0x40 MLOAD PUSH3 0x461BCD PUSH1 0xE5 SHL DUP2 MSTORE PUSH1 0x4 ADD PUSH2 0x7AC SWAP1 PUSH2 0x26B1 JUMP JUMPDEST POP PUSH1 0x1 PUSH1 0x1 PUSH1 0xA0 SHL SUB SWAP2 SWAP1 SWAP2 AND PUSH1 0x0 SWAP1 DUP2 MSTORE PUSH1 0x6 PUSH1 0x20 SWAP1 DUP2 MSTORE PUSH1 0x40 DUP1 DUP4 KECCAK256 SWAP4 DUP4 MSTORE SWAP3 SWAP1 MSTORE KECCAK256 SLOAD SWAP1 JUMP JUMPDEST PUSH2 0x4E1F DUP2 JUMP JUMPDEST PUSH2 0x9E7 PUSH2 0x1397 JUMP JUMPDEST PUSH1 0x1 PUSH1 0x1 PUSH1 0xA0 SHL SUB AND PUSH2 0x9F8 PUSH2 0xDFB JUMP JUMPDEST PUSH1 0x1 PUSH1 0x1 PUSH1 0xA0 SHL SUB AND EQ PUSH2 0xA1E JUMPI PUSH1 0x40 MLOAD PUSH3 0x461BCD PUSH1 0xE5 SHL DUP2 MSTORE PUSH1 0x4 ADD PUSH2 0x7AC SWAP1 PUSH2 0x2B1E JUMP JUMPDEST PUSH1 0x40 MLOAD SELFBALANCE SWAP1 CALLER SWAP1 DUP3 ISZERO PUSH2 0x8FC MUL SWAP1 DUP4 SWAP1 PUSH1 0x0 DUP2 DUP2 DUP2 DUP6 DUP9 DUP9 CALL SWAP4 POP POP POP POP ISZERO DUP1 ISZERO PUSH2 0xA4D JUMPI RETURNDATASIZE PUSH1 0x0 DUP1 RETURNDATACOPY RETURNDATASIZE PUSH1 0x0 REVERT JUMPDEST POP POP JUMP JUMPDEST PUSH2 0x8F2 DUP4 DUP4 DUP4 PUSH1 0x40 MLOAD DUP1 PUSH1 0x20 ADD PUSH1 0x40 MSTORE DUP1 PUSH1 0x0 DUP2 MSTORE POP PUSH2 0x1030 JUMP JUMPDEST PUSH1 0x0 PUSH2 0xA76 PUSH2 0x949 JUMP JUMPDEST DUP3 LT PUSH2 0xA94 JUMPI PUSH1 0x40 MLOAD PUSH3 0x461BCD PUSH1 0xE5 SHL DUP2 MSTORE PUSH1 0x4 ADD PUSH2 0x7AC SWAP1 PUSH2 0x2D16 JUMP JUMPDEST PUSH1 0x8 DUP3 DUP2 SLOAD DUP2 LT PUSH2 0xAB5 JUMPI PUSH4 0x4E487B71 PUSH1 0xE0 SHL PUSH1 0x0 MSTORE PUSH1 0x32 PUSH1 0x4 MSTORE PUSH1 0x24 PUSH1 0x0 REVERT JUMPDEST SWAP1 PUSH1 0x0 MSTORE PUSH1 0x20 PUSH1 0x0 KECCAK256 ADD SLOAD SWAP1 POP SWAP2 SWAP1 POP JUMP JUMPDEST PUSH1 0xE SLOAD PUSH3 0x10000 SWAP1 DIV PUSH1 0xFF AND DUP2 JUMP JUMPDEST PUSH2 0xADE PUSH2 0x1397 JUMP JUMPDEST PUSH1 0x1 PUSH1 0x1 PUSH1 0xA0 SHL SUB AND PUSH2 0xAEF PUSH2 0xDFB JUMP JUMPDEST PUSH1 0x1 PUSH1 0x1 PUSH1 0xA0 SHL SUB AND EQ PUSH2 0xB15 JUMPI PUSH1 0x40 MLOAD PUSH3 0x461BCD PUSH1 0xE5 SHL DUP2 MSTORE PUSH1 0x4 ADD PUSH2 0x7AC SWAP1 PUSH2 0x2B1E JUMP JUMPDEST DUP1 MLOAD PUSH2 0xA4D SWAP1 PUSH1 0xB SWAP1 PUSH1 0x20 DUP5 ADD SWAP1 PUSH2 0x2079 JUMP JUMPDEST PUSH2 0xB30 PUSH2 0x1397 JUMP JUMPDEST PUSH1 0x1 PUSH1 0x1 PUSH1 0xA0 SHL SUB AND PUSH2 0xB41 PUSH2 0xDFB JUMP JUMPDEST PUSH1 0x1 PUSH1 0x1 PUSH1 0xA0 SHL SUB AND EQ PUSH2 0xB67 JUMPI PUSH1 0x40 MLOAD PUSH3 0x461BCD PUSH1 0xE5 SHL DUP2 MSTORE PUSH1 0x4 ADD PUSH2 0x7AC SWAP1 PUSH2 0x2B1E JUMP JUMPDEST PUSH1 0xE DUP1 SLOAD SWAP2 ISZERO ISZERO PUSH2 0x100 MUL PUSH2 0xFF00 NOT SWAP1 SWAP3 AND SWAP2 SWAP1 SWAP2 OR SWAP1 SSTORE JUMP JUMPDEST PUSH1 0xE SLOAD PUSH1 0xFF AND DUP2 JUMP JUMPDEST PUSH1 0x0 DUP2 DUP2 MSTORE PUSH1 0x2 PUSH1 0x20 MSTORE PUSH1 0x40 DUP2 KECCAK256 SLOAD PUSH1 0x1 PUSH1 0x1 PUSH1 0xA0 SHL SUB AND DUP1 PUSH2 0x6EB JUMPI PUSH1 0x40 MLOAD PUSH3 0x461BCD PUSH1 0xE5 SHL DUP2 MSTORE PUSH1 0x4 ADD PUSH2 0x7AC SWAP1 PUSH2 0x29E7 JUMP JUMPDEST PUSH2 0xBC7 PUSH2 0x1397 JUMP JUMPDEST PUSH1 0x1 PUSH1 0x1 PUSH1 0xA0 SHL SUB AND PUSH2 0xBD8 PUSH2 0xDFB JUMP JUMPDEST PUSH1 0x1 PUSH1 0x1 PUSH1 0xA0 SHL SUB AND EQ PUSH2 0xBFE JUMPI PUSH1 0x40 MLOAD PUSH3 0x461BCD PUSH1 0xE5 SHL DUP2 MSTORE PUSH1 0x4 ADD PUSH2 0x7AC SWAP1 PUSH2 0x2B1E JUMP JUMPDEST PUSH1 0x1 PUSH1 0x1 PUSH1 0xA0 SHL SUB DUP2 AND PUSH2 0xC24 JUMPI PUSH1 0x40 MLOAD PUSH3 0x461BCD PUSH1 0xE5 SHL DUP2 MSTORE PUSH1 0x4 ADD PUSH2 0x7AC SWAP1 PUSH2 0x2C22 JUMP JUMPDEST PUSH1 0x11 DUP1 SLOAD PUSH1 0x1 PUSH1 0x1 PUSH1 0xA0 SHL SUB NOT AND PUSH1 0x1 PUSH1 0x1 PUSH1 0xA0 SHL SUB SWAP3 SWAP1 SWAP3 AND SWAP2 SWAP1 SWAP2 OR SWAP1 SSTORE JUMP JUMPDEST PUSH1 0x0 PUSH1 0x1 PUSH1 0x1 PUSH1 0xA0 SHL SUB DUP3 AND PUSH2 0xC6E JUMPI PUSH1 0x40 MLOAD PUSH3 0x461BCD PUSH1 0xE5 SHL DUP2 MSTORE PUSH1 0x4 ADD PUSH2 0x7AC SWAP1 PUSH2 0x299D JUMP JUMPDEST POP PUSH1 0x1 PUSH1 0x1 PUSH1 0xA0 SHL SUB AND PUSH1 0x0 SWAP1 DUP2 MSTORE PUSH1 0x3 PUSH1 0x20 MSTORE PUSH1 0x40 SWAP1 KECCAK256 SLOAD SWAP1 JUMP JUMPDEST PUSH2 0xC92 PUSH2 0x1397 JUMP JUMPDEST PUSH1 0x1 PUSH1 0x1 PUSH1 0xA0 SHL SUB AND PUSH2 0xCA3 PUSH2 0xDFB JUMP JUMPDEST PUSH1 0x1 PUSH1 0x1 PUSH1 0xA0 SHL SUB AND EQ PUSH2 0xCC9 JUMPI PUSH1 0x40 MLOAD PUSH3 0x461BCD PUSH1 0xE5 SHL DUP2 MSTORE PUSH1 0x4 ADD PUSH2 0x7AC SWAP1 PUSH2 0x2B1E JUMP JUMPDEST PUSH2 0xCD3 PUSH1 0x0 PUSH2 0x15BB JUMP JUMPDEST JUMP JUMPDEST PUSH2 0xCDD PUSH2 0x1397 JUMP JUMPDEST PUSH1 0x1 PUSH1 0x1 PUSH1 0xA0 SHL SUB AND PUSH2 0xCEE PUSH2 0xDFB JUMP JUMPDEST PUSH1 0x1 PUSH1 0x1 PUSH1 0xA0 SHL SUB AND EQ PUSH2 0xD14 JUMPI PUSH1 0x40 MLOAD PUSH3 0x461BCD PUSH1 0xE5 SHL DUP2 MSTORE PUSH1 0x4 ADD PUSH2 0x7AC SWAP1 PUSH2 0x2B1E JUMP JUMPDEST PUSH1 0x0 PUSH2 0xD1E PUSH2 0x949 JUMP JUMPDEST SWAP1 POP PUSH2 0x4E1F PUSH2 0xD2D DUP4 DUP4 PUSH2 0x2DA0 JUMP JUMPDEST GT ISZERO PUSH2 0xD4B JUMPI PUSH1 0x40 MLOAD PUSH3 0x461BCD PUSH1 0xE5 SHL DUP2 MSTORE PUSH1 0x4 ADD PUSH2 0x7AC SWAP1 PUSH2 0x2794 JUMP JUMPDEST PUSH1 0x0 JUMPDEST DUP3 DUP2 LT ISZERO PUSH2 0x8F2 JUMPI PUSH2 0xD69 CALLER PUSH2 0xD64 DUP4 DUP6 PUSH2 0x2DA0 JUMP JUMPDEST PUSH2 0x160D JUMP JUMPDEST DUP1 PUSH2 0xD73 DUP2 PUSH2 0x2E69 JUMP JUMPDEST SWAP2 POP POP PUSH2 0xD4E JUMP JUMPDEST PUSH1 0x0 DUP1 DUP5 PUSH1 0x40 MLOAD PUSH1 0x20 ADD PUSH2 0xD8F SWAP2 SWAP1 PUSH2 0x258C JUMP JUMPDEST PUSH1 0x40 MLOAD PUSH1 0x20 DUP2 DUP4 SUB SUB DUP2 MSTORE SWAP1 PUSH1 0x40 MSTORE DUP1 MLOAD SWAP1 PUSH1 0x20 ADD KECCAK256 SWAP1 POP PUSH2 0xDF2 DUP5 DUP5 DUP1 DUP1 PUSH1 0x1F ADD PUSH1 0x20 DUP1 SWAP2 DIV MUL PUSH1 0x20 ADD PUSH1 0x40 MLOAD SWAP1 DUP2 ADD PUSH1 0x40 MSTORE DUP1 SWAP4 SWAP3 SWAP2 SWAP1 DUP2 DUP2 MSTORE PUSH1 0x20 ADD DUP4 DUP4 DUP1 DUP3 DUP5 CALLDATACOPY PUSH1 0x0 SWAP3 ADD SWAP2 SWAP1 SWAP2 MSTORE POP PUSH2 0xDEC SWAP3 POP DUP6 SWAP2 POP PUSH2 0x1627 SWAP1 POP JUMP JUMPDEST SWAP1 PUSH2 0x1657 JUMP JUMPDEST SWAP6 SWAP5 POP POP POP POP POP JUMP JUMPDEST PUSH1 0xA SLOAD PUSH1 0x1 PUSH1 0x1 PUSH1 0xA0 SHL SUB AND SWAP1 JUMP JUMPDEST PUSH1 0x60 PUSH1 0x1 DUP1 SLOAD PUSH2 0x702 SWAP1 PUSH2 0x2E2E JUMP JUMPDEST PUSH1 0xB DUP1 SLOAD PUSH2 0x7DE SWAP1 PUSH2 0x2E2E JUMP JUMPDEST PUSH1 0x0 PUSH2 0xE30 PUSH2 0x949 JUMP JUMPDEST PUSH1 0xE SLOAD SWAP1 SWAP2 POP PUSH2 0x100 SWAP1 DIV PUSH1 0xFF AND ISZERO PUSH2 0xE5B JUMPI PUSH1 0x40 MLOAD PUSH3 0x461BCD PUSH1 0xE5 SHL DUP2 MSTORE PUSH1 0x4 ADD PUSH2 0x7AC SWAP1 PUSH2 0x2650 JUMP JUMPDEST PUSH1 0x1E DUP5 GT ISZERO PUSH2 0xE7C JUMPI PUSH1 0x40 MLOAD PUSH3 0x461BCD PUSH1 0xE5 SHL DUP2 MSTORE PUSH1 0x4 ADD PUSH2 0x7AC SWAP1 PUSH2 0x2C8E JUMP JUMPDEST PUSH2 0x4E1F PUSH2 0xE89 DUP6 DUP4 PUSH2 0x2DA0 JUMP JUMPDEST GT ISZERO PUSH2 0xEA7 JUMPI PUSH1 0x40 MLOAD PUSH3 0x461BCD PUSH1 0xE5 SHL DUP2 MSTORE PUSH1 0x4 ADD PUSH2 0x7AC SWAP1 PUSH2 0x2794 JUMP JUMPDEST PUSH2 0xEB3 DUP5 PUSH1 0xF SLOAD PUSH2 0x167B JUMP JUMPDEST PUSH2 0xECF JUMPI PUSH1 0x40 MLOAD PUSH3 0x461BCD PUSH1 0xE5 SHL DUP2 MSTORE PUSH1 0x4 ADD PUSH2 0x7AC SWAP1 PUSH2 0x2B53 JUMP JUMPDEST PUSH1 0x11 SLOAD PUSH1 0x1 PUSH1 0x1 PUSH1 0xA0 SHL SUB AND PUSH2 0xEE6 CALLER DUP6 DUP6 PUSH2 0xD7B JUMP JUMPDEST PUSH1 0x1 PUSH1 0x1 PUSH1 0xA0 SHL SUB AND EQ PUSH2 0xF0C JUMPI PUSH1 0x40 MLOAD PUSH3 0x461BCD PUSH1 0xE5 SHL DUP2 MSTORE PUSH1 0x4 ADD PUSH2 0x7AC SWAP1 PUSH2 0x2AF3 JUMP JUMPDEST PUSH1 0x0 JUMPDEST DUP5 DUP2 LT ISZERO PUSH2 0xF37 JUMPI PUSH2 0xF25 CALLER PUSH2 0xD64 DUP4 DUP6 PUSH2 0x2DA0 JUMP JUMPDEST DUP1 PUSH2 0xF2F DUP2 PUSH2 0x2E69 JUMP JUMPDEST SWAP2 POP POP PUSH2 0xF0F JUMP JUMPDEST POP POP POP POP POP JUMP JUMPDEST PUSH1 0x0 PUSH2 0xF48 PUSH2 0x949 JUMP JUMPDEST PUSH1 0xE SLOAD SWAP1 SWAP2 POP PUSH1 0xFF AND ISZERO PUSH2 0xF6E JUMPI PUSH1 0x40 MLOAD PUSH3 0x461BCD PUSH1 0xE5 SHL DUP2 MSTORE PUSH1 0x4 ADD PUSH2 0x7AC SWAP1 PUSH2 0x2D62 JUMP JUMPDEST PUSH1 0x1E DUP3 GT ISZERO PUSH2 0xF8F JUMPI PUSH1 0x40 MLOAD PUSH3 0x461BCD PUSH1 0xE5 SHL DUP2 MSTORE PUSH1 0x4 ADD PUSH2 0x7AC SWAP1 PUSH2 0x2C8E JUMP JUMPDEST PUSH2 0x4E1F PUSH2 0xF9C DUP4 DUP4 PUSH2 0x2DA0 JUMP JUMPDEST GT ISZERO PUSH2 0xFBA JUMPI PUSH1 0x40 MLOAD PUSH3 0x461BCD PUSH1 0xE5 SHL DUP2 MSTORE PUSH1 0x4 ADD PUSH2 0x7AC SWAP1 PUSH2 0x2794 JUMP JUMPDEST CALLVALUE DUP3 PUSH1 0x10 SLOAD PUSH2 0xFC9 SWAP2 SWAP1 PUSH2 0x2DCC JUMP JUMPDEST GT ISZERO PUSH2 0xFE7 JUMPI PUSH1 0x40 MLOAD PUSH3 0x461BCD PUSH1 0xE5 SHL DUP2 MSTORE PUSH1 0x4 ADD PUSH2 0x7AC SWAP1 PUSH2 0x287B JUMP JUMPDEST PUSH1 0x0 JUMPDEST DUP3 DUP2 LT ISZERO PUSH2 0x8F2 JUMPI PUSH2 0x1000 CALLER PUSH2 0xD64 DUP4 DUP6 PUSH2 0x2DA0 JUMP JUMPDEST DUP1 PUSH2 0x100A DUP2 PUSH2 0x2E69 JUMP JUMPDEST SWAP2 POP POP PUSH2 0xFEA JUMP JUMPDEST PUSH2 0xA4D PUSH2 0x101D PUSH2 0x1397 JUMP JUMPDEST DUP4 DUP4 PUSH2 0x16AF JUMP JUMPDEST PUSH1 0x10 SLOAD DUP2 JUMP JUMPDEST PUSH1 0xF SLOAD DUP2 JUMP JUMPDEST PUSH2 0x1041 PUSH2 0x103B PUSH2 0x1397 JUMP JUMPDEST DUP4 PUSH2 0x1409 JUMP JUMPDEST PUSH2 0x105D JUMPI PUSH1 0x40 MLOAD PUSH3 0x461BCD PUSH1 0xE5 SHL DUP2 MSTORE PUSH1 0x4 ADD PUSH2 0x7AC SWAP1 PUSH2 0x2CC5 JUMP JUMPDEST PUSH2 0x1069 DUP5 DUP5 DUP5 DUP5 PUSH2 0x1752 JUMP JUMPDEST POP POP POP POP JUMP JUMPDEST PUSH1 0xC DUP1 SLOAD PUSH2 0x7DE SWAP1 PUSH2 0x2E2E JUMP JUMPDEST PUSH1 0x60 PUSH2 0x1087 DUP3 PUSH2 0x137A JUMP JUMPDEST PUSH2 0x10A3 JUMPI PUSH1 0x40 MLOAD PUSH3 0x461BCD PUSH1 0xE5 SHL DUP2 MSTORE PUSH1 0x4 ADD PUSH2 0x7AC SWAP1 PUSH2 0x2BD3 JUMP JUMPDEST PUSH1 0xE SLOAD PUSH3 0x10000 SWAP1 DIV PUSH1 0xFF AND PUSH2 0x1145 JUMPI PUSH1 0xD DUP1 SLOAD PUSH2 0x10C0 SWAP1 PUSH2 0x2E2E JUMP JUMPDEST DUP1 PUSH1 0x1F ADD PUSH1 0x20 DUP1 SWAP2 DIV MUL PUSH1 0x20 ADD PUSH1 0x40 MLOAD SWAP1 DUP2 ADD PUSH1 0x40 MSTORE DUP1 SWAP3 SWAP2 SWAP1 DUP2 DUP2 MSTORE PUSH1 0x20 ADD DUP3 DUP1 SLOAD PUSH2 0x10EC SWAP1 PUSH2 0x2E2E JUMP JUMPDEST DUP1 ISZERO PUSH2 0x1139 JUMPI DUP1 PUSH1 0x1F LT PUSH2 0x110E JUMPI PUSH2 0x100 DUP1 DUP4 SLOAD DIV MUL DUP4 MSTORE SWAP2 PUSH1 0x20 ADD SWAP2 PUSH2 0x1139 JUMP JUMPDEST DUP3 ADD SWAP2 SWAP1 PUSH1 0x0 MSTORE PUSH1 0x20 PUSH1 0x0 KECCAK256 SWAP1 JUMPDEST DUP2 SLOAD DUP2 MSTORE SWAP1 PUSH1 0x1 ADD SWAP1 PUSH1 0x20 ADD DUP1 DUP4 GT PUSH2 0x111C JUMPI DUP3 SWAP1 SUB PUSH1 0x1F AND DUP3 ADD SWAP2 JUMPDEST POP POP POP POP POP SWAP1 POP PUSH2 0x6EE JUMP JUMPDEST PUSH1 0x0 PUSH2 0x114F PUSH2 0x1785 JUMP JUMPDEST SWAP1 POP PUSH1 0x0 DUP2 MLOAD GT PUSH2 0x116F JUMPI PUSH1 0x40 MLOAD DUP1 PUSH1 0x20 ADD PUSH1 0x40 MSTORE DUP1 PUSH1 0x0 DUP2 MSTORE POP PUSH2 0x119D JUMP JUMPDEST DUP1 PUSH2 0x1179 DUP5 PUSH2 0x1794 JUMP JUMPDEST PUSH1 0xC PUSH1 0x40 MLOAD PUSH1 0x20 ADD PUSH2 0x118D SWAP4 SWAP3 SWAP2 SWAP1 PUSH2 0x2499 JUMP JUMPDEST PUSH1 0x40 MLOAD PUSH1 0x20 DUP2 DUP4 SUB SUB DUP2 MSTORE SWAP1 PUSH1 0x40 MSTORE JUMPDEST SWAP4 SWAP3 POP POP POP JUMP JUMPDEST PUSH1 0x1E DUP2 JUMP JUMPDEST PUSH2 0x11B1 PUSH2 0x1397 JUMP JUMPDEST PUSH1 0x1 PUSH1 0x1 PUSH1 0xA0 SHL SUB AND PUSH2 0x11C2 PUSH2 0xDFB JUMP JUMPDEST PUSH1 0x1 PUSH1 0x1 PUSH1 0xA0 SHL SUB AND EQ PUSH2 0x11E8 JUMPI PUSH1 0x40 MLOAD PUSH3 0x461BCD PUSH1 0xE5 SHL DUP2 MSTORE PUSH1 0x4 ADD PUSH2 0x7AC SWAP1 PUSH2 0x2B1E JUMP JUMPDEST DUP1 MLOAD PUSH2 0xA4D SWAP1 PUSH1 0xC SWAP1 PUSH1 0x20 DUP5 ADD SWAP1 PUSH2 0x2079 JUMP JUMPDEST PUSH2 0x1203 PUSH2 0x1397 JUMP JUMPDEST PUSH1 0x1 PUSH1 0x1 PUSH1 0xA0 SHL SUB AND PUSH2 0x1214 PUSH2 0xDFB JUMP JUMPDEST PUSH1 0x1 PUSH1 0x1 PUSH1 0xA0 SHL SUB AND EQ PUSH2 0x123A JUMPI PUSH1 0x40 MLOAD PUSH3 0x461BCD PUSH1 0xE5 SHL DUP2 MSTORE PUSH1 0x4 ADD PUSH2 0x7AC SWAP1 PUSH2 0x2B1E JUMP JUMPDEST PUSH1 0xE DUP1 SLOAD SWAP2 ISZERO ISZERO PUSH3 0x10000 MUL PUSH3 0xFF0000 NOT SWAP1 SWAP3 AND SWAP2 SWAP1 SWAP2 OR SWAP1 SSTORE JUMP JUMPDEST PUSH1 0x1 PUSH1 0x1 PUSH1 0xA0 SHL SUB SWAP2 DUP3 AND PUSH1 0x0 SWAP1 DUP2 MSTORE PUSH1 0x5 PUSH1 0x20 SWAP1 DUP2 MSTORE PUSH1 0x40 DUP1 DUP4 KECCAK256 SWAP4 SWAP1 SWAP5 AND DUP3 MSTORE SWAP2 SWAP1 SWAP2 MSTORE KECCAK256 SLOAD PUSH1 0xFF AND SWAP1 JUMP JUMPDEST PUSH2 0x128C PUSH2 0x1397 JUMP JUMPDEST PUSH1 0x1 PUSH1 0x1 PUSH1 0xA0 SHL SUB AND PUSH2 0x129D PUSH2 0xDFB JUMP JUMPDEST PUSH1 0x1 PUSH1 0x1 PUSH1 0xA0 SHL SUB AND EQ PUSH2 0x12C3 JUMPI PUSH1 0x40 MLOAD PUSH3 0x461BCD PUSH1 0xE5 SHL DUP2 MSTORE PUSH1 0x4 ADD PUSH2 0x7AC SWAP1 PUSH2 0x2B1E JUMP JUMPDEST DUP1 MLOAD PUSH2 0xA4D SWAP1 PUSH1 0xD SWAP1 PUSH1 0x20 DUP5 ADD SWAP1 PUSH2 0x2079 JUMP JUMPDEST PUSH2 0x12DE PUSH2 0x1397 JUMP JUMPDEST PUSH1 0x1 PUSH1 0x1 PUSH1 0xA0 SHL SUB AND PUSH2 0x12EF PUSH2 0xDFB JUMP JUMPDEST PUSH1 0x1 PUSH1 0x1 PUSH1 0xA0 SHL SUB AND EQ PUSH2 0x1315 JUMPI PUSH1 0x40 MLOAD PUSH3 0x461BCD PUSH1 0xE5 SHL DUP2 MSTORE PUSH1 0x4 ADD PUSH2 0x7AC SWAP1 PUSH2 0x2B1E JUMP JUMPDEST PUSH1 0x1 PUSH1 0x1 PUSH1 0xA0 SHL SUB DUP2 AND PUSH2 0x133B JUMPI PUSH1 0x40 MLOAD PUSH3 0x461BCD PUSH1 0xE5 SHL DUP2 MSTORE PUSH1 0x4 ADD PUSH2 0x7AC SWAP1 PUSH2 0x274E JUMP JUMPDEST PUSH2 0x1344 DUP2 PUSH2 0x15BB JUMP JUMPDEST POP JUMP JUMPDEST PUSH1 0xE SLOAD PUSH2 0x100 SWAP1 DIV PUSH1 0xFF AND DUP2 JUMP JUMPDEST PUSH1 0x0 PUSH1 0x1 PUSH1 0x1 PUSH1 0xE0 SHL SUB NOT DUP3 AND PUSH4 0x780E9D63 PUSH1 0xE0 SHL EQ DUP1 PUSH2 0x6EB JUMPI POP PUSH2 0x6EB DUP3 PUSH2 0x18AF JUMP JUMPDEST PUSH1 0x0 SWAP1 DUP2 MSTORE PUSH1 0x2 PUSH1 0x20 MSTORE PUSH1 0x40 SWAP1 KECCAK256 SLOAD PUSH1 0x1 PUSH1 0x1 PUSH1 0xA0 SHL SUB AND ISZERO ISZERO SWAP1 JUMP JUMPDEST CALLER SWAP1 JUMP JUMPDEST PUSH1 0x0 DUP2 DUP2 MSTORE PUSH1 0x4 PUSH1 0x20 MSTORE PUSH1 0x40 SWAP1 KECCAK256 DUP1 SLOAD PUSH1 0x1 PUSH1 0x1 PUSH1 0xA0 SHL SUB NOT AND PUSH1 0x1 PUSH1 0x1 PUSH1 0xA0 SHL SUB DUP5 AND SWAP1 DUP2 OR SWAP1 SWAP2 SSTORE DUP2 SWAP1 PUSH2 0x13D0 DUP3 PUSH2 0xB8A JUMP JUMPDEST PUSH1 0x1 PUSH1 0x1 PUSH1 0xA0 SHL SUB AND PUSH32 0x8C5BE1E5EBEC7D5BD14F71427D1E84F3DD0314C0F7B2291E5B200AC8C7C3B925 PUSH1 0x40 MLOAD PUSH1 0x40 MLOAD DUP1 SWAP2 SUB SWAP1 LOG4 POP POP JUMP JUMPDEST PUSH1 0x0 PUSH2 0x1414 DUP3 PUSH2 0x137A JUMP JUMPDEST PUSH2 0x1430 JUMPI PUSH1 0x40 MLOAD PUSH3 0x461BCD PUSH1 0xE5 SHL DUP2 MSTORE PUSH1 0x4 ADD PUSH2 0x7AC SWAP1 PUSH2 0x28F4 JUMP JUMPDEST PUSH1 0x0 PUSH2 0x143B DUP4 PUSH2 0xB8A JUMP JUMPDEST SWAP1 POP DUP1 PUSH1 0x1 PUSH1 0x1 PUSH1 0xA0 SHL SUB AND DUP5 PUSH1 0x1 PUSH1 0x1 PUSH1 0xA0 SHL SUB AND EQ DUP1 PUSH2 0x1476 JUMPI POP DUP4 PUSH1 0x1 PUSH1 0x1 PUSH1 0xA0 SHL SUB AND PUSH2 0x146B DUP5 PUSH2 0x785 JUMP JUMPDEST PUSH1 0x1 PUSH1 0x1 PUSH1 0xA0 SHL SUB AND EQ JUMPDEST DUP1 PUSH2 0x1486 JUMPI POP PUSH2 0x1486 DUP2 DUP6 PUSH2 0x1256 JUMP JUMPDEST SWAP5 SWAP4 POP POP POP POP JUMP JUMPDEST DUP3 PUSH1 0x1 PUSH1 0x1 PUSH1 0xA0 SHL SUB AND PUSH2 0x14A1 DUP3 PUSH2 0xB8A JUMP JUMPDEST PUSH1 0x1 PUSH1 0x1 PUSH1 0xA0 SHL SUB AND EQ PUSH2 0x14C7 JUMPI PUSH1 0x40 MLOAD PUSH3 0x461BCD PUSH1 0xE5 SHL DUP2 MSTORE PUSH1 0x4 ADD PUSH2 0x7AC SWAP1 PUSH2 0x2B8A JUMP JUMPDEST PUSH1 0x1 PUSH1 0x1 PUSH1 0xA0 SHL SUB DUP3 AND PUSH2 0x14ED JUMPI PUSH1 0x40 MLOAD PUSH3 0x461BCD PUSH1 0xE5 SHL DUP2 MSTORE PUSH1 0x4 ADD PUSH2 0x7AC SWAP1 PUSH2 0x2800 JUMP JUMPDEST PUSH2 0x14F8 DUP4 DUP4 DUP4 PUSH2 0x18EF JUMP JUMPDEST PUSH2 0x1503 PUSH1 0x0 DUP3 PUSH2 0x139B JUMP JUMPDEST PUSH1 0x1 PUSH1 0x1 PUSH1 0xA0 SHL SUB DUP4 AND PUSH1 0x0 SWAP1 DUP2 MSTORE PUSH1 0x3 PUSH1 0x20 MSTORE PUSH1 0x40 DUP2 KECCAK256 DUP1 SLOAD PUSH1 0x1 SWAP3 SWAP1 PUSH2 0x152C SWAP1 DUP5 SWAP1 PUSH2 0x2DEB JUMP JUMPDEST SWAP1 SWAP2 SSTORE POP POP PUSH1 0x1 PUSH1 0x1 PUSH1 0xA0 SHL SUB DUP3 AND PUSH1 0x0 SWAP1 DUP2 MSTORE PUSH1 0x3 PUSH1 0x20 MSTORE PUSH1 0x40 DUP2 KECCAK256 DUP1 SLOAD PUSH1 0x1 SWAP3 SWAP1 PUSH2 0x155A SWAP1 DUP5 SWAP1 PUSH2 0x2DA0 JUMP JUMPDEST SWAP1 SWAP2 SSTORE POP POP PUSH1 0x0 DUP2 DUP2 MSTORE PUSH1 0x2 PUSH1 0x20 MSTORE PUSH1 0x40 DUP1 DUP3 KECCAK256 DUP1 SLOAD PUSH1 0x1 PUSH1 0x1 PUSH1 0xA0 SHL SUB NOT AND PUSH1 0x1 PUSH1 0x1 PUSH1 0xA0 SHL SUB DUP7 DUP2 AND SWAP2 DUP3 OR SWAP1 SWAP3 SSTORE SWAP2 MLOAD DUP5 SWAP4 SWAP2 DUP8 AND SWAP2 PUSH32 0xDDF252AD1BE2C89B69C2B068FC378DAA952BA7F163C4A11628F55A4DF523B3EF SWAP2 LOG4 POP POP POP JUMP JUMPDEST PUSH1 0xA DUP1 SLOAD PUSH1 0x1 PUSH1 0x1 PUSH1 0xA0 SHL SUB DUP4 DUP2 AND PUSH1 0x1 PUSH1 0x1 PUSH1 0xA0 SHL SUB NOT DUP4 AND DUP2 OR SWAP1 SWAP4 SSTORE PUSH1 0x40 MLOAD SWAP2 AND SWAP2 SWAP1 DUP3 SWAP1 PUSH32 0x8BE0079C531659141344CD1FD0A4F28419497F9722A3DAAFE3B4186F6B6457E0 SWAP1 PUSH1 0x0 SWAP1 LOG3 POP POP JUMP JUMPDEST PUSH2 0xA4D DUP3 DUP3 PUSH1 0x40 MLOAD DUP1 PUSH1 0x20 ADD PUSH1 0x40 MSTORE DUP1 PUSH1 0x0 DUP2 MSTORE POP PUSH2 0x18FA JUMP JUMPDEST PUSH1 0x0 DUP2 PUSH1 0x40 MLOAD PUSH1 0x20 ADD PUSH2 0x163A SWAP2 SWAP1 PUSH2 0x255B JUMP JUMPDEST PUSH1 0x40 MLOAD PUSH1 0x20 DUP2 DUP4 SUB SUB DUP2 MSTORE SWAP1 PUSH1 0x40 MSTORE DUP1 MLOAD SWAP1 PUSH1 0x20 ADD KECCAK256 SWAP1 POP SWAP2 SWAP1 POP JUMP JUMPDEST PUSH1 0x0 DUP1 PUSH1 0x0 PUSH2 0x1666 DUP6 DUP6 PUSH2 0x192D JUMP JUMPDEST SWAP2 POP SWAP2 POP PUSH2 0x1673 DUP2 PUSH2 0x199D JUMP JUMPDEST POP SWAP4 SWAP3 POP POP POP JUMP JUMPDEST PUSH1 0x0 DUP1 PUSH2 0x1689 PUSH1 0x1 DUP6 PUSH2 0x2DEB JUMP JUMPDEST PUSH2 0x169A SWAP1 PUSH7 0xD529AE9E860000 PUSH2 0x2DCC JUMP JUMPDEST PUSH2 0x16A4 SWAP1 DUP5 PUSH2 0x2DA0 JUMP JUMPDEST CALLVALUE LT ISZERO SWAP5 SWAP4 POP POP POP POP JUMP JUMPDEST DUP2 PUSH1 0x1 PUSH1 0x1 PUSH1 0xA0 SHL SUB AND DUP4 PUSH1 0x1 PUSH1 0x1 PUSH1 0xA0 SHL SUB AND EQ ISZERO PUSH2 0x16E1 JUMPI PUSH1 0x40 MLOAD PUSH3 0x461BCD PUSH1 0xE5 SHL DUP2 MSTORE PUSH1 0x4 ADD PUSH2 0x7AC SWAP1 PUSH2 0x2844 JUMP JUMPDEST PUSH1 0x1 PUSH1 0x1 PUSH1 0xA0 SHL SUB DUP4 DUP2 AND PUSH1 0x0 DUP2 DUP2 MSTORE PUSH1 0x5 PUSH1 0x20 SWAP1 DUP2 MSTORE PUSH1 0x40 DUP1 DUP4 KECCAK256 SWAP5 DUP8 AND DUP1 DUP5 MSTORE SWAP5 SWAP1 SWAP2 MSTORE SWAP1 DUP2 SWAP1 KECCAK256 DUP1 SLOAD PUSH1 0xFF NOT AND DUP6 ISZERO ISZERO OR SWAP1 SSTORE MLOAD PUSH32 0x17307EAB39AB6107E8899845AD3D59BD9653F200F220920489CA2B5937696C31 SWAP1 PUSH2 0x1745 SWAP1 DUP6 SWAP1 PUSH2 0x25DD JUMP JUMPDEST PUSH1 0x40 MLOAD DUP1 SWAP2 SUB SWAP1 LOG3 POP POP POP JUMP JUMPDEST PUSH2 0x175D DUP5 DUP5 DUP5 PUSH2 0x148E JUMP JUMPDEST PUSH2 0x1769 DUP5 DUP5 DUP5 DUP5 PUSH2 0x1ACA JUMP JUMPDEST PUSH2 0x1069 JUMPI PUSH1 0x40 MLOAD PUSH3 0x461BCD PUSH1 0xE5 SHL DUP2 MSTORE PUSH1 0x4 ADD PUSH2 0x7AC SWAP1 PUSH2 0x26FC JUMP JUMPDEST PUSH1 0x60 PUSH1 0xB DUP1 SLOAD PUSH2 0x702 SWAP1 PUSH2 0x2E2E JUMP JUMPDEST PUSH1 0x60 DUP2 PUSH2 0x17B9 JUMPI POP PUSH1 0x40 DUP1 MLOAD DUP1 DUP3 ADD SWAP1 SWAP2 MSTORE PUSH1 0x1 DUP2 MSTORE PUSH1 0x3 PUSH1 0xFC SHL PUSH1 0x20 DUP3 ADD MSTORE PUSH2 0x6EE JUMP JUMPDEST DUP2 PUSH1 0x0 JUMPDEST DUP2 ISZERO PUSH2 0x17E3 JUMPI DUP1 PUSH2 0x17CD DUP2 PUSH2 0x2E69 JUMP JUMPDEST SWAP2 POP PUSH2 0x17DC SWAP1 POP PUSH1 0xA DUP4 PUSH2 0x2DB8 JUMP JUMPDEST SWAP2 POP PUSH2 0x17BD JUMP JUMPDEST PUSH1 0x0 DUP2 PUSH8 0xFFFFFFFFFFFFFFFF DUP2 GT ISZERO PUSH2 0x180C JUMPI PUSH4 0x4E487B71 PUSH1 0xE0 SHL PUSH1 0x0 MSTORE PUSH1 0x41 PUSH1 0x4 MSTORE PUSH1 0x24 PUSH1 0x0 REVERT JUMPDEST PUSH1 0x40 MLOAD SWAP1 DUP1 DUP3 MSTORE DUP1 PUSH1 0x1F ADD PUSH1 0x1F NOT AND PUSH1 0x20 ADD DUP3 ADD PUSH1 0x40 MSTORE DUP1 ISZERO PUSH2 0x1836 JUMPI PUSH1 0x20 DUP3 ADD DUP2 DUP1 CALLDATASIZE DUP4 CALLDATACOPY ADD SWAP1 POP JUMPDEST POP SWAP1 POP JUMPDEST DUP5 ISZERO PUSH2 0x1486 JUMPI PUSH2 0x184B PUSH1 0x1 DUP4 PUSH2 0x2DEB JUMP JUMPDEST SWAP2 POP PUSH2 0x1858 PUSH1 0xA DUP7 PUSH2 0x2E84 JUMP JUMPDEST PUSH2 0x1863 SWAP1 PUSH1 0x30 PUSH2 0x2DA0 JUMP JUMPDEST PUSH1 0xF8 SHL DUP2 DUP4 DUP2 MLOAD DUP2 LT PUSH2 0x1886 JUMPI PUSH4 0x4E487B71 PUSH1 0xE0 SHL PUSH1 0x0 MSTORE PUSH1 0x32 PUSH1 0x4 MSTORE PUSH1 0x24 PUSH1 0x0 REVERT JUMPDEST PUSH1 0x20 ADD ADD SWAP1 PUSH1 0x1 PUSH1 0x1 PUSH1 0xF8 SHL SUB NOT AND SWAP1 DUP2 PUSH1 0x0 BYTE SWAP1 MSTORE8 POP PUSH2 0x18A8 PUSH1 0xA DUP7 PUSH2 0x2DB8 JUMP JUMPDEST SWAP5 POP PUSH2 0x183A JUMP JUMPDEST PUSH1 0x0 PUSH1 0x1 PUSH1 0x1 PUSH1 0xE0 SHL SUB NOT DUP3 AND PUSH4 0x80AC58CD PUSH1 0xE0 SHL EQ DUP1 PUSH2 0x18E0 JUMPI POP PUSH1 0x1 PUSH1 0x1 PUSH1 0xE0 SHL SUB NOT DUP3 AND PUSH4 0x5B5E139F PUSH1 0xE0 SHL EQ JUMPDEST DUP1 PUSH2 0x6EB JUMPI POP PUSH2 0x6EB DUP3 PUSH2 0x1BE5 JUMP JUMPDEST PUSH2 0x8F2 DUP4 DUP4 DUP4 PUSH2 0x1BFE JUMP JUMPDEST PUSH2 0x1904 DUP4 DUP4 PUSH2 0x1C87 JUMP JUMPDEST PUSH2 0x1911 PUSH1 0x0 DUP5 DUP5 DUP5 PUSH2 0x1ACA JUMP JUMPDEST PUSH2 0x8F2 JUMPI PUSH1 0x40 MLOAD PUSH3 0x461BCD PUSH1 0xE5 SHL DUP2 MSTORE PUSH1 0x4 ADD PUSH2 0x7AC SWAP1 PUSH2 0x26FC JUMP JUMPDEST PUSH1 0x0 DUP1 DUP3 MLOAD PUSH1 0x41 EQ ISZERO PUSH2 0x1964 JUMPI PUSH1 0x20 DUP4 ADD MLOAD PUSH1 0x40 DUP5 ADD MLOAD PUSH1 0x60 DUP6 ADD MLOAD PUSH1 0x0 BYTE PUSH2 0x1958 DUP8 DUP3 DUP6 DUP6 PUSH2 0x1D66 JUMP JUMPDEST SWAP5 POP SWAP5 POP POP POP POP PUSH2 0x1996 JUMP JUMPDEST DUP3 MLOAD PUSH1 0x40 EQ ISZERO PUSH2 0x198E JUMPI PUSH1 0x20 DUP4 ADD MLOAD PUSH1 0x40 DUP5 ADD MLOAD PUSH2 0x1983 DUP7 DUP4 DUP4 PUSH2 0x1E46 JUMP JUMPDEST SWAP4 POP SWAP4 POP POP POP PUSH2 0x1996 JUMP JUMPDEST POP PUSH1 0x0 SWAP1 POP PUSH1 0x2 JUMPDEST SWAP3 POP SWAP3 SWAP1 POP JUMP JUMPDEST PUSH1 0x0 DUP2 PUSH1 0x4 DUP2 GT ISZERO PUSH2 0x19BF JUMPI PUSH4 0x4E487B71 PUSH1 0xE0 SHL PUSH1 0x0 MSTORE PUSH1 0x21 PUSH1 0x4 MSTORE PUSH1 0x24 PUSH1 0x0 REVERT JUMPDEST EQ ISZERO PUSH2 0x19CA JUMPI PUSH2 0x1344 JUMP JUMPDEST PUSH1 0x1 DUP2 PUSH1 0x4 DUP2 GT ISZERO PUSH2 0x19EC JUMPI PUSH4 0x4E487B71 PUSH1 0xE0 SHL PUSH1 0x0 MSTORE PUSH1 0x21 PUSH1 0x4 MSTORE PUSH1 0x24 PUSH1 0x0 REVERT JUMPDEST EQ ISZERO PUSH2 0x1A0A JUMPI PUSH1 0x40 MLOAD PUSH3 0x461BCD PUSH1 0xE5 SHL DUP2 MSTORE PUSH1 0x4 ADD PUSH2 0x7AC SWAP1 PUSH2 0x2619 JUMP JUMPDEST PUSH1 0x2 DUP2 PUSH1 0x4 DUP2 GT ISZERO PUSH2 0x1A2C JUMPI PUSH4 0x4E487B71 PUSH1 0xE0 SHL PUSH1 0x0 MSTORE PUSH1 0x21 PUSH1 0x4 MSTORE PUSH1 0x24 PUSH1 0x0 REVERT JUMPDEST EQ ISZERO PUSH2 0x1A4A JUMPI PUSH1 0x40 MLOAD PUSH3 0x461BCD PUSH1 0xE5 SHL DUP2 MSTORE PUSH1 0x4 ADD PUSH2 0x7AC SWAP1 PUSH2 0x267A JUMP JUMPDEST PUSH1 0x3 DUP2 PUSH1 0x4 DUP2 GT ISZERO PUSH2 0x1A6C JUMPI PUSH4 0x4E487B71 PUSH1 0xE0 SHL PUSH1 0x0 MSTORE PUSH1 0x21 PUSH1 0x4 MSTORE PUSH1 0x24 PUSH1 0x0 REVERT JUMPDEST EQ ISZERO PUSH2 0x1A8A JUMPI PUSH1 0x40 MLOAD PUSH3 0x461BCD PUSH1 0xE5 SHL DUP2 MSTORE PUSH1 0x4 ADD PUSH2 0x7AC SWAP1 PUSH2 0x28B2 JUMP JUMPDEST PUSH1 0x4 DUP2 PUSH1 0x4 DUP2 GT ISZERO PUSH2 0x1AAC JUMPI PUSH4 0x4E487B71 PUSH1 0xE0 SHL PUSH1 0x0 MSTORE PUSH1 0x21 PUSH1 0x4 MSTORE PUSH1 0x24 PUSH1 0x0 REVERT JUMPDEST EQ ISZERO PUSH2 0x1344 JUMPI PUSH1 0x40 MLOAD PUSH3 0x461BCD PUSH1 0xE5 SHL DUP2 MSTORE PUSH1 0x4 ADD PUSH2 0x7AC SWAP1 PUSH2 0x2A30 JUMP JUMPDEST PUSH1 0x0 PUSH2 0x1ADE DUP5 PUSH1 0x1 PUSH1 0x1 PUSH1 0xA0 SHL SUB AND PUSH2 0x1E75 JUMP JUMPDEST ISZERO PUSH2 0x1BDA JUMPI DUP4 PUSH1 0x1 PUSH1 0x1 PUSH1 0xA0 SHL SUB AND PUSH4 0x150B7A02 PUSH2 0x1AFA PUSH2 0x1397 JUMP JUMPDEST DUP8 DUP7 DUP7 PUSH1 0x40 MLOAD DUP6 PUSH4 0xFFFFFFFF AND PUSH1 0xE0 SHL DUP2 MSTORE PUSH1 0x4 ADD PUSH2 0x1B1C SWAP5 SWAP4 SWAP3 SWAP2 SWAP1 PUSH2 0x25A0 JUMP JUMPDEST PUSH1 0x20 PUSH1 0x40 MLOAD DUP1 DUP4 SUB DUP2 PUSH1 0x0 DUP8 DUP1 EXTCODESIZE ISZERO DUP1 ISZERO PUSH2 0x1B36 JUMPI PUSH1 0x0 DUP1 REVERT JUMPDEST POP GAS CALL SWAP3 POP POP POP DUP1 ISZERO PUSH2 0x1B66 JUMPI POP PUSH1 0x40 DUP1 MLOAD PUSH1 0x1F RETURNDATASIZE SWAP1 DUP2 ADD PUSH1 0x1F NOT AND DUP3 ADD SWAP1 SWAP3 MSTORE PUSH2 0x1B63 SWAP2 DUP2 ADD SWAP1 PUSH2 0x23C2 JUMP JUMPDEST PUSH1 0x1 JUMPDEST PUSH2 0x1BC0 JUMPI RETURNDATASIZE DUP1 DUP1 ISZERO PUSH2 0x1B94 JUMPI PUSH1 0x40 MLOAD SWAP2 POP PUSH1 0x1F NOT PUSH1 0x3F RETURNDATASIZE ADD AND DUP3 ADD PUSH1 0x40 MSTORE RETURNDATASIZE DUP3 MSTORE RETURNDATASIZE PUSH1 0x0 PUSH1 0x20 DUP5 ADD RETURNDATACOPY PUSH2 0x1B99 JUMP JUMPDEST PUSH1 0x60 SWAP2 POP JUMPDEST POP DUP1 MLOAD PUSH2 0x1BB8 JUMPI PUSH1 0x40 MLOAD PUSH3 0x461BCD PUSH1 0xE5 SHL DUP2 MSTORE PUSH1 0x4 ADD PUSH2 0x7AC SWAP1 PUSH2 0x26FC JUMP JUMPDEST DUP1 MLOAD DUP2 PUSH1 0x20 ADD REVERT JUMPDEST PUSH1 0x1 PUSH1 0x1 PUSH1 0xE0 SHL SUB NOT AND PUSH4 0xA85BD01 PUSH1 0xE1 SHL EQ SWAP1 POP PUSH2 0x1486 JUMP JUMPDEST POP PUSH1 0x1 SWAP5 SWAP4 POP POP POP POP JUMP JUMPDEST PUSH1 0x1 PUSH1 0x1 PUSH1 0xE0 SHL SUB NOT DUP2 AND PUSH4 0x1FFC9A7 PUSH1 0xE0 SHL EQ SWAP2 SWAP1 POP JUMP JUMPDEST PUSH2 0x1C09 DUP4 DUP4 DUP4 PUSH2 0x8F2 JUMP JUMPDEST PUSH1 0x1 PUSH1 0x1 PUSH1 0xA0 SHL SUB DUP4 AND PUSH2 0x1C25 JUMPI PUSH2 0x1C20 DUP2 PUSH2 0x1E7B JUMP JUMPDEST PUSH2 0x1C48 JUMP JUMPDEST DUP2 PUSH1 0x1 PUSH1 0x1 PUSH1 0xA0 SHL SUB AND DUP4 PUSH1 0x1 PUSH1 0x1 PUSH1 0xA0 SHL SUB AND EQ PUSH2 0x1C48 JUMPI PUSH2 0x1C48 DUP4 DUP3 PUSH2 0x1EBF JUMP JUMPDEST PUSH1 0x1 PUSH1 0x1 PUSH1 0xA0 SHL SUB DUP3 AND PUSH2 0x1C64 JUMPI PUSH2 0x1C5F DUP2 PUSH2 0x1F5C JUMP JUMPDEST PUSH2 0x8F2 JUMP JUMPDEST DUP3 PUSH1 0x1 PUSH1 0x1 PUSH1 0xA0 SHL SUB AND DUP3 PUSH1 0x1 PUSH1 0x1 PUSH1 0xA0 SHL SUB AND EQ PUSH2 0x8F2 JUMPI PUSH2 0x8F2 DUP3 DUP3 PUSH2 0x2035 JUMP JUMPDEST PUSH1 0x1 PUSH1 0x1 PUSH1 0xA0 SHL SUB DUP3 AND PUSH2 0x1CAD JUMPI PUSH1 0x40 MLOAD PUSH3 0x461BCD PUSH1 0xE5 SHL DUP2 MSTORE PUSH1 0x4 ADD PUSH2 0x7AC SWAP1 PUSH2 0x2A72 JUMP JUMPDEST PUSH2 0x1CB6 DUP2 PUSH2 0x137A JUMP JUMPDEST ISZERO PUSH2 0x1CD3 JUMPI PUSH1 0x40 MLOAD PUSH3 0x461BCD PUSH1 0xE5 SHL DUP2 MSTORE PUSH1 0x4 ADD PUSH2 0x7AC SWAP1 PUSH2 0x27C9 JUMP JUMPDEST PUSH2 0x1CDF PUSH1 0x0 DUP4 DUP4 PUSH2 0x18EF JUMP JUMPDEST PUSH1 0x1 PUSH1 0x1 PUSH1 0xA0 SHL SUB DUP3 AND PUSH1 0x0 SWAP1 DUP2 MSTORE PUSH1 0x3 PUSH1 0x20 MSTORE PUSH1 0x40 DUP2 KECCAK256 DUP1 SLOAD PUSH1 0x1 SWAP3 SWAP1 PUSH2 0x1D08 SWAP1 DUP5 SWAP1 PUSH2 0x2DA0 JUMP JUMPDEST SWAP1 SWAP2 SSTORE POP POP PUSH1 0x0 DUP2 DUP2 MSTORE PUSH1 0x2 PUSH1 0x20 MSTORE PUSH1 0x40 DUP1 DUP3 KECCAK256 DUP1 SLOAD PUSH1 0x1 PUSH1 0x1 PUSH1 0xA0 SHL SUB NOT AND PUSH1 0x1 PUSH1 0x1 PUSH1 0xA0 SHL SUB DUP7 AND SWAP1 DUP2 OR SWAP1 SWAP2 SSTORE SWAP1 MLOAD DUP4 SWAP3 SWAP1 PUSH32 0xDDF252AD1BE2C89B69C2B068FC378DAA952BA7F163C4A11628F55A4DF523B3EF SWAP1 DUP3 SWAP1 LOG4 POP POP JUMP JUMPDEST PUSH1 0x0 DUP1 PUSH32 0x7FFFFFFFFFFFFFFFFFFFFFFFFFFFFFFF5D576E7357A4501DDFE92F46681B20A0 DUP4 GT ISZERO PUSH2 0x1D9D JUMPI POP PUSH1 0x0 SWAP1 POP PUSH1 0x3 PUSH2 0x1E3D JUMP JUMPDEST DUP5 PUSH1 0xFF AND PUSH1 0x1B EQ ISZERO DUP1 ISZERO PUSH2 0x1DB5 JUMPI POP DUP5 PUSH1 0xFF AND PUSH1 0x1C EQ ISZERO JUMPDEST ISZERO PUSH2 0x1DC6 JUMPI POP PUSH1 0x0 SWAP1 POP PUSH1 0x4 PUSH2 0x1E3D JUMP JUMPDEST PUSH1 0x0 PUSH1 0x1 DUP8 DUP8 DUP8 DUP8 PUSH1 0x40 MLOAD PUSH1 0x0 DUP2 MSTORE PUSH1 0x20 ADD PUSH1 0x40 MSTORE PUSH1 0x40 MLOAD PUSH2 0x1DEB SWAP5 SWAP4 SWAP3 SWAP2 SWAP1 PUSH2 0x25E8 JUMP JUMPDEST PUSH1 0x20 PUSH1 0x40 MLOAD PUSH1 0x20 DUP2 SUB SWAP1 DUP1 DUP5 SUB SWAP1 DUP6 GAS STATICCALL ISZERO DUP1 ISZERO PUSH2 0x1E0D JUMPI RETURNDATASIZE PUSH1 0x0 DUP1 RETURNDATACOPY RETURNDATASIZE PUSH1 0x0 REVERT JUMPDEST POP POP PUSH1 0x40 MLOAD PUSH1 0x1F NOT ADD MLOAD SWAP2 POP POP PUSH1 0x1 PUSH1 0x1 PUSH1 0xA0 SHL SUB DUP2 AND PUSH2 0x1E36 JUMPI PUSH1 0x0 PUSH1 0x1 SWAP3 POP SWAP3 POP POP PUSH2 0x1E3D JUMP JUMPDEST SWAP2 POP PUSH1 0x0 SWAP1 POP JUMPDEST SWAP5 POP SWAP5 SWAP3 POP POP POP JUMP JUMPDEST PUSH1 0x0 DUP1 PUSH1 0x1 PUSH1 0x1 PUSH1 0xFF SHL SUB DUP4 AND PUSH1 0xFF DUP5 SWAP1 SHR PUSH1 0x1B ADD PUSH2 0x1E67 DUP8 DUP3 DUP9 DUP6 PUSH2 0x1D66 JUMP JUMPDEST SWAP4 POP SWAP4 POP POP POP SWAP4 POP SWAP4 SWAP2 POP POP JUMP JUMPDEST EXTCODESIZE ISZERO ISZERO SWAP1 JUMP JUMPDEST PUSH1 0x8 DUP1 SLOAD PUSH1 0x0 DUP4 DUP2 MSTORE PUSH1 0x9 PUSH1 0x20 MSTORE PUSH1 0x40 DUP2 KECCAK256 DUP3 SWAP1 SSTORE PUSH1 0x1 DUP3 ADD DUP4 SSTORE SWAP2 SWAP1 SWAP2 MSTORE PUSH32 0xF3F7A9FE364FAAB93B216DA50A3214154F22A0A2B415B23A84C8169E8B636EE3 ADD SSTORE JUMP JUMPDEST PUSH1 0x0 PUSH1 0x1 PUSH2 0x1ECC DUP5 PUSH2 0xC46 JUMP JUMPDEST PUSH2 0x1ED6 SWAP2 SWAP1 PUSH2 0x2DEB JUMP JUMPDEST PUSH1 0x0 DUP4 DUP2 MSTORE PUSH1 0x7 PUSH1 0x20 MSTORE PUSH1 0x40 SWAP1 KECCAK256 SLOAD SWAP1 SWAP2 POP DUP1 DUP3 EQ PUSH2 0x1F29 JUMPI PUSH1 0x1 PUSH1 0x1 PUSH1 0xA0 SHL SUB DUP5 AND PUSH1 0x0 SWAP1 DUP2 MSTORE PUSH1 0x6 PUSH1 0x20 SWAP1 DUP2 MSTORE PUSH1 0x40 DUP1 DUP4 KECCAK256 DUP6 DUP5 MSTORE DUP3 MSTORE DUP1 DUP4 KECCAK256 SLOAD DUP5 DUP5 MSTORE DUP2 DUP5 KECCAK256 DUP2 SWAP1 SSTORE DUP4 MSTORE PUSH1 0x7 SWAP1 SWAP2 MSTORE SWAP1 KECCAK256 DUP2 SWAP1 SSTORE JUMPDEST POP PUSH1 0x0 SWAP2 DUP3 MSTORE PUSH1 0x7 PUSH1 0x20 SWAP1 DUP2 MSTORE PUSH1 0x40 DUP1 DUP5 KECCAK256 DUP5 SWAP1 SSTORE PUSH1 0x1 PUSH1 0x1 PUSH1 0xA0 SHL SUB SWAP1 SWAP5 AND DUP4 MSTORE PUSH1 0x6 DUP2 MSTORE DUP4 DUP4 KECCAK256 SWAP2 DUP4 MSTORE MSTORE SWAP1 DUP2 KECCAK256 SSTORE JUMP JUMPDEST PUSH1 0x8 SLOAD PUSH1 0x0 SWAP1 PUSH2 0x1F6E SWAP1 PUSH1 0x1 SWAP1 PUSH2 0x2DEB JUMP JUMPDEST PUSH1 0x0 DUP4 DUP2 MSTORE PUSH1 0x9 PUSH1 0x20 MSTORE PUSH1 0x40 DUP2 KECCAK256 SLOAD PUSH1 0x8 DUP1 SLOAD SWAP4 SWAP5 POP SWAP1 SWAP3 DUP5 SWAP1 DUP2 LT PUSH2 0x1FA4 JUMPI PUSH4 0x4E487B71 PUSH1 0xE0 SHL PUSH1 0x0 MSTORE PUSH1 0x32 PUSH1 0x4 MSTORE PUSH1 0x24 PUSH1 0x0 REVERT JUMPDEST SWAP1 PUSH1 0x0 MSTORE PUSH1 0x20 PUSH1 0x0 KECCAK256 ADD SLOAD SWAP1 POP DUP1 PUSH1 0x8 DUP4 DUP2 SLOAD DUP2 LT PUSH2 0x1FD3 JUMPI PUSH4 0x4E487B71 PUSH1 0xE0 SHL PUSH1 0x0 MSTORE PUSH1 0x32 PUSH1 0x4 MSTORE PUSH1 0x24 PUSH1 0x0 REVERT JUMPDEST PUSH1 0x0 SWAP2 DUP3 MSTORE PUSH1 0x20 DUP1 DUP4 KECCAK256 SWAP1 SWAP2 ADD SWAP3 SWAP1 SWAP3 SSTORE DUP3 DUP2 MSTORE PUSH1 0x9 SWAP1 SWAP2 MSTORE PUSH1 0x40 DUP1 DUP3 KECCAK256 DUP5 SWAP1 SSTORE DUP6 DUP3 MSTORE DUP2 KECCAK256 SSTORE PUSH1 0x8 DUP1 SLOAD DUP1 PUSH2 0x2019 JUMPI PUSH4 0x4E487B71 PUSH1 0xE0 SHL PUSH1 0x0 MSTORE PUSH1 0x31 PUSH1 0x4 MSTORE PUSH1 0x24 PUSH1 0x0 REVERT JUMPDEST PUSH1 0x1 SWAP1 SUB DUP2 DUP2 SWAP1 PUSH1 0x0 MSTORE PUSH1 0x20 PUSH1 0x0 KECCAK256 ADD PUSH1 0x0 SWAP1 SSTORE SWAP1 SSTORE POP POP POP POP JUMP JUMPDEST PUSH1 0x0 PUSH2 0x2040 DUP4 PUSH2 0xC46 JUMP JUMPDEST PUSH1 0x1 PUSH1 0x1 PUSH1 0xA0 SHL SUB SWAP1 SWAP4 AND PUSH1 0x0 SWAP1 DUP2 MSTORE PUSH1 0x6 PUSH1 0x20 SWAP1 DUP2 MSTORE PUSH1 0x40 DUP1 DUP4 KECCAK256 DUP7 DUP5 MSTORE DUP3 MSTORE DUP1 DUP4 KECCAK256 DUP6 SWAP1 SSTORE SWAP4 DUP3 MSTORE PUSH1 0x7 SWAP1 MSTORE SWAP2 SWAP1 SWAP2 KECCAK256 SWAP2 SWAP1 SWAP2 SSTORE POP JUMP JUMPDEST DUP3 DUP1 SLOAD PUSH2 0x2085 SWAP1 PUSH2 0x2E2E JUMP JUMPDEST SWAP1 PUSH1 0x0 MSTORE PUSH1 0x20 PUSH1 0x0 KECCAK256 SWAP1 PUSH1 0x1F ADD PUSH1 0x20 SWAP1 DIV DUP2 ADD SWAP3 DUP3 PUSH2 0x20A7 JUMPI PUSH1 0x0 DUP6 SSTORE PUSH2 0x20ED JUMP JUMPDEST DUP3 PUSH1 0x1F LT PUSH2 0x20C0 JUMPI DUP1 MLOAD PUSH1 0xFF NOT AND DUP4 DUP1 ADD OR DUP6 SSTORE PUSH2 0x20ED JUMP JUMPDEST DUP3 DUP1 ADD PUSH1 0x1 ADD DUP6 SSTORE DUP3 ISZERO PUSH2 0x20ED JUMPI SWAP2 DUP3 ADD JUMPDEST DUP3 DUP2 GT ISZERO PUSH2 0x20ED JUMPI DUP3 MLOAD DUP3 SSTORE SWAP2 PUSH1 0x20 ADD SWAP2 SWAP1 PUSH1 0x1 ADD SWAP1 PUSH2 0x20D2 JUMP JUMPDEST POP PUSH2 0x20F9 SWAP3 SWAP2 POP PUSH2 0x20FD JUMP JUMPDEST POP SWAP1 JUMP JUMPDEST JUMPDEST DUP1 DUP3 GT ISZERO PUSH2 0x20F9 JUMPI PUSH1 0x0 DUP2 SSTORE PUSH1 0x1 ADD PUSH2 0x20FE JUMP JUMPDEST PUSH1 0x0 PUSH8 0xFFFFFFFFFFFFFFFF DUP1 DUP5 GT ISZERO PUSH2 0x212D JUMPI PUSH2 0x212D PUSH2 0x2EC4 JUMP JUMPDEST PUSH1 0x40 MLOAD PUSH1 0x1F DUP6 ADD PUSH1 0x1F NOT AND DUP2 ADD PUSH1 0x20 ADD DUP3 DUP2 GT DUP3 DUP3 LT OR ISZERO PUSH2 0x2151 JUMPI PUSH2 0x2151 PUSH2 0x2EC4 JUMP JUMPDEST PUSH1 0x40 MSTORE DUP5 DUP2 MSTORE SWAP2 POP DUP2 DUP4 DUP6 ADD DUP7 LT ISZERO PUSH2 0x2169 JUMPI PUSH1 0x0 DUP1 REVERT JUMPDEST DUP5 DUP5 PUSH1 0x20 DUP4 ADD CALLDATACOPY PUSH1 0x0 PUSH1 0x20 DUP7 DUP4 ADD ADD MSTORE POP POP SWAP4 SWAP3 POP POP POP JUMP JUMPDEST DUP1 CALLDATALOAD PUSH1 0x1 PUSH1 0x1 PUSH1 0xA0 SHL SUB DUP2 AND DUP2 EQ PUSH2 0x6EE JUMPI PUSH1 0x0 DUP1 REVERT JUMPDEST DUP1 CALLDATALOAD DUP1 ISZERO ISZERO DUP2 EQ PUSH2 0x6EE JUMPI PUSH1 0x0 DUP1 REVERT JUMPDEST PUSH1 0x0 DUP1 DUP4 PUSH1 0x1F DUP5 ADD SLT PUSH2 0x21BA JUMPI DUP2 DUP3 REVERT JUMPDEST POP DUP2 CALLDATALOAD PUSH8 0xFFFFFFFFFFFFFFFF DUP2 GT ISZERO PUSH2 0x21D1 JUMPI DUP2 DUP3 REVERT JUMPDEST PUSH1 0x20 DUP4 ADD SWAP2 POP DUP4 PUSH1 0x20 DUP3 DUP6 ADD ADD GT ISZERO PUSH2 0x1996 JUMPI PUSH1 0x0 DUP1 REVERT JUMPDEST PUSH1 0x0 PUSH1 0x20 DUP3 DUP5 SUB SLT ISZERO PUSH2 0x21FA JUMPI DUP1 DUP2 REVERT JUMPDEST PUSH2 0x119D DUP3 PUSH2 0x2182 JUMP JUMPDEST PUSH1 0x0 DUP1 PUSH1 0x40 DUP4 DUP6 SUB SLT ISZERO PUSH2 0x2215 JUMPI DUP1 DUP2 REVERT JUMPDEST PUSH2 0x221E DUP4 PUSH2 0x2182 JUMP JUMPDEST SWAP2 POP PUSH2 0x222C PUSH1 0x20 DUP5 ADD PUSH2 0x2182 JUMP JUMPDEST SWAP1 POP SWAP3 POP SWAP3 SWAP1 POP JUMP JUMPDEST PUSH1 0x0 DUP1 PUSH1 0x0 PUSH1 0x60 DUP5 DUP7 SUB SLT ISZERO PUSH2 0x2249 JUMPI DUP1 DUP2 REVERT JUMPDEST PUSH2 0x2252 DUP5 PUSH2 0x2182 JUMP JUMPDEST SWAP3 POP PUSH2 0x2260 PUSH1 0x20 DUP6 ADD PUSH2 0x2182 JUMP JUMPDEST SWAP2 POP PUSH1 0x40 DUP5 ADD CALLDATALOAD SWAP1 POP SWAP3 POP SWAP3 POP SWAP3 JUMP JUMPDEST PUSH1 0x0 DUP1 PUSH1 0x0 DUP1 PUSH1 0x80 DUP6 DUP8 SUB SLT ISZERO PUSH2 0x2285 JUMPI DUP1 DUP2 REVERT JUMPDEST PUSH2 0x228E DUP6 PUSH2 0x2182 JUMP JUMPDEST SWAP4 POP PUSH2 0x229C PUSH1 0x20 DUP7 ADD PUSH2 0x2182 JUMP JUMPDEST SWAP3 POP PUSH1 0x40 DUP6 ADD CALLDATALOAD SWAP2 POP PUSH1 0x60 DUP6 ADD CALLDATALOAD PUSH8 0xFFFFFFFFFFFFFFFF DUP2 GT ISZERO PUSH2 0x22BE JUMPI DUP2 DUP3 REVERT JUMPDEST DUP6 ADD PUSH1 0x1F DUP2 ADD DUP8 SGT PUSH2 0x22CE JUMPI DUP2 DUP3 REVERT JUMPDEST PUSH2 0x22DD DUP8 DUP3 CALLDATALOAD PUSH1 0x20 DUP5 ADD PUSH2 0x2112 JUMP JUMPDEST SWAP2 POP POP SWAP3 SWAP6 SWAP2 SWAP5 POP SWAP3 POP JUMP JUMPDEST PUSH1 0x0 DUP1 PUSH1 0x40 DUP4 DUP6 SUB SLT ISZERO PUSH2 0x22FB JUMPI DUP2 DUP3 REVERT JUMPDEST PUSH2 0x2304 DUP4 PUSH2 0x2182 JUMP JUMPDEST SWAP2 POP PUSH2 0x222C PUSH1 0x20 DUP5 ADD PUSH2 0x2199 JUMP JUMPDEST PUSH1 0x0 DUP1 PUSH1 0x0 PUSH1 0x40 DUP5 DUP7 SUB SLT ISZERO PUSH2 0x2326 JUMPI DUP3 DUP4 REVERT JUMPDEST PUSH2 0x232F DUP5 PUSH2 0x2182 JUMP JUMPDEST SWAP3 POP PUSH1 0x20 DUP5 ADD CALLDATALOAD PUSH8 0xFFFFFFFFFFFFFFFF DUP2 GT ISZERO PUSH2 0x234A JUMPI DUP3 DUP4 REVERT JUMPDEST PUSH2 0x2356 DUP7 DUP3 DUP8 ADD PUSH2 0x21A9 JUMP JUMPDEST SWAP5 SWAP8 SWAP1 SWAP7 POP SWAP4 SWAP5 POP POP POP POP JUMP JUMPDEST PUSH1 0x0 DUP1 PUSH1 0x40 DUP4 DUP6 SUB SLT ISZERO PUSH2 0x2375 JUMPI DUP2 DUP3 REVERT JUMPDEST PUSH2 0x237E DUP4 PUSH2 0x2182 JUMP JUMPDEST SWAP5 PUSH1 0x20 SWAP4 SWAP1 SWAP4 ADD CALLDATALOAD SWAP4 POP POP POP JUMP JUMPDEST PUSH1 0x0 PUSH1 0x20 DUP3 DUP5 SUB SLT ISZERO PUSH2 0x239D JUMPI DUP1 DUP2 REVERT JUMPDEST PUSH2 0x119D DUP3 PUSH2 0x2199 JUMP JUMPDEST PUSH1 0x0 PUSH1 0x20 DUP3 DUP5 SUB SLT ISZERO PUSH2 0x23B7 JUMPI DUP1 DUP2 REVERT JUMPDEST DUP2 CALLDATALOAD PUSH2 0x119D DUP2 PUSH2 0x2EDA JUMP JUMPDEST PUSH1 0x0 PUSH1 0x20 DUP3 DUP5 SUB SLT ISZERO PUSH2 0x23D3 JUMPI DUP1 DUP2 REVERT JUMPDEST DUP2 MLOAD PUSH2 0x119D DUP2 PUSH2 0x2EDA JUMP JUMPDEST PUSH1 0x0 PUSH1 0x20 DUP3 DUP5 SUB SLT ISZERO PUSH2 0x23EF JUMPI DUP1 DUP2 REVERT JUMPDEST DUP2 CALLDATALOAD PUSH8 0xFFFFFFFFFFFFFFFF DUP2 GT ISZERO PUSH2 0x2405 JUMPI DUP2 DUP3 REVERT JUMPDEST DUP3 ADD PUSH1 0x1F DUP2 ADD DUP5 SGT PUSH2 0x2415 JUMPI DUP2 DUP3 REVERT JUMPDEST PUSH2 0x1486 DUP5 DUP3 CALLDATALOAD PUSH1 0x20 DUP5 ADD PUSH2 0x2112 JUMP JUMPDEST PUSH1 0x0 PUSH1 0x20 DUP3 DUP5 SUB SLT ISZERO PUSH2 0x2435 JUMPI DUP1 DUP2 REVERT JUMPDEST POP CALLDATALOAD SWAP2 SWAP1 POP JUMP JUMPDEST PUSH1 0x0 DUP1 PUSH1 0x0 PUSH1 0x40 DUP5 DUP7 SUB SLT ISZERO PUSH2 0x2450 JUMPI DUP3 DUP4 REVERT JUMPDEST DUP4 CALLDATALOAD SWAP3 POP PUSH1 0x20 DUP5 ADD CALLDATALOAD PUSH8 0xFFFFFFFFFFFFFFFF DUP2 GT ISZERO PUSH2 0x234A JUMPI DUP3 DUP4 REVERT JUMPDEST PUSH1 0x0 DUP2 MLOAD DUP1 DUP5 MSTORE PUSH2 0x2485 DUP2 PUSH1 0x20 DUP7 ADD PUSH1 0x20 DUP7 ADD PUSH2 0x2E02 JUMP JUMPDEST PUSH1 0x1F ADD PUSH1 0x1F NOT AND SWAP3 SWAP1 SWAP3 ADD PUSH1 0x20 ADD SWAP3 SWAP2 POP POP JUMP JUMPDEST PUSH1 0x0 DUP5 MLOAD PUSH1 0x20 PUSH2 0x24AC DUP3 DUP6 DUP4 DUP11 ADD PUSH2 0x2E02 JUMP JUMPDEST DUP6 MLOAD SWAP2 DUP5 ADD SWAP2 PUSH2 0x24BF DUP2 DUP5 DUP5 DUP11 ADD PUSH2 0x2E02 JUMP JUMPDEST DUP6 SLOAD SWAP3 ADD SWAP2 DUP4 SWAP1 PUSH1 0x2 DUP2 DIV PUSH1 0x1 DUP1 DUP4 AND DUP1 PUSH2 0x24DB JUMPI PUSH1 0x7F DUP4 AND SWAP3 POP JUMPDEST DUP6 DUP4 LT DUP2 EQ ISZERO PUSH2 0x24F9 JUMPI PUSH4 0x4E487B71 PUSH1 0xE0 SHL DUP9 MSTORE PUSH1 0x22 PUSH1 0x4 MSTORE PUSH1 0x24 DUP9 REVERT JUMPDEST DUP1 DUP1 ISZERO PUSH2 0x250D JUMPI PUSH1 0x1 DUP2 EQ PUSH2 0x251E JUMPI PUSH2 0x254A JUMP JUMPDEST PUSH1 0xFF NOT DUP6 AND DUP9 MSTORE DUP4 DUP9 ADD SWAP6 POP PUSH2 0x254A JUMP JUMPDEST PUSH2 0x2527 DUP12 PUSH2 0x2D94 JUMP JUMPDEST DUP10 JUMPDEST DUP6 DUP2 LT ISZERO PUSH2 0x2542 JUMPI DUP2 SLOAD DUP11 DUP3 ADD MSTORE SWAP1 DUP5 ADD SWAP1 DUP9 ADD PUSH2 0x2529 JUMP JUMPDEST POP POP DUP4 DUP9 ADD SWAP6 POP JUMPDEST POP SWAP4 SWAP12 SWAP11 POP POP POP POP POP POP POP POP POP POP POP JUMP JUMPDEST PUSH32 0x19457468657265756D205369676E6564204D6573736167653A0A333200000000 DUP2 MSTORE PUSH1 0x1C DUP2 ADD SWAP2 SWAP1 SWAP2 MSTORE PUSH1 0x3C ADD SWAP1 JUMP JUMPDEST PUSH1 0x1 PUSH1 0x1 PUSH1 0xA0 SHL SUB SWAP2 SWAP1 SWAP2 AND DUP2 MSTORE PUSH1 0x20 ADD SWAP1 JUMP JUMPDEST PUSH1 0x1 PUSH1 0x1 PUSH1 0xA0 SHL SUB DUP6 DUP2 AND DUP3 MSTORE DUP5 AND PUSH1 0x20 DUP3 ADD MSTORE PUSH1 0x40 DUP2 ADD DUP4 SWAP1 MSTORE PUSH1 0x80 PUSH1 0x60 DUP3 ADD DUP2 SWAP1 MSTORE PUSH1 0x0 SWAP1 PUSH2 0x25D3 SWAP1 DUP4 ADD DUP5 PUSH2 0x246D JUMP JUMPDEST SWAP7 SWAP6 POP POP POP POP POP POP JUMP JUMPDEST SWAP1 ISZERO ISZERO DUP2 MSTORE PUSH1 0x20 ADD SWAP1 JUMP JUMPDEST SWAP4 DUP5 MSTORE PUSH1 0xFF SWAP3 SWAP1 SWAP3 AND PUSH1 0x20 DUP5 ADD MSTORE PUSH1 0x40 DUP4 ADD MSTORE PUSH1 0x60 DUP3 ADD MSTORE PUSH1 0x80 ADD SWAP1 JUMP JUMPDEST PUSH1 0x0 PUSH1 0x20 DUP3 MSTORE PUSH2 0x119D PUSH1 0x20 DUP4 ADD DUP5 PUSH2 0x246D JUMP JUMPDEST PUSH1 0x20 DUP1 DUP3 MSTORE PUSH1 0x18 SWAP1 DUP3 ADD MSTORE PUSH32 0x45434453413A20696E76616C6964207369676E61747572650000000000000000 PUSH1 0x40 DUP3 ADD MSTORE PUSH1 0x60 ADD SWAP1 JUMP JUMPDEST PUSH1 0x20 DUP1 DUP3 MSTORE PUSH1 0x10 SWAP1 DUP3 ADD MSTORE PUSH16 0x15DA1A5D195B1A5CDD0814185D5CD959 PUSH1 0x82 SHL PUSH1 0x40 DUP3 ADD MSTORE PUSH1 0x60 ADD SWAP1 JUMP JUMPDEST PUSH1 0x20 DUP1 DUP3 MSTORE PUSH1 0x1F SWAP1 DUP3 ADD MSTORE PUSH32 0x45434453413A20696E76616C6964207369676E6174757265206C656E67746800 PUSH1 0x40 DUP3 ADD MSTORE PUSH1 0x60 ADD SWAP1 JUMP JUMPDEST PUSH1 0x20 DUP1 DUP3 MSTORE PUSH1 0x2B SWAP1 DUP3 ADD MSTORE PUSH32 0x455243373231456E756D657261626C653A206F776E657220696E646578206F75 PUSH1 0x40 DUP3 ADD MSTORE PUSH11 0x74206F6620626F756E6473 PUSH1 0xA8 SHL PUSH1 0x60 DUP3 ADD MSTORE PUSH1 0x80 ADD SWAP1 JUMP JUMPDEST PUSH1 0x20 DUP1 DUP3 MSTORE PUSH1 0x32 SWAP1 DUP3 ADD MSTORE PUSH32 0x4552433732313A207472616E7366657220746F206E6F6E204552433732315265 PUSH1 0x40 DUP3 ADD MSTORE PUSH18 0x31B2B4BB32B91034B6B83632B6B2B73A32B9 PUSH1 0x71 SHL PUSH1 0x60 DUP3 ADD MSTORE PUSH1 0x80 ADD SWAP1 JUMP JUMPDEST PUSH1 0x20 DUP1 DUP3 MSTORE PUSH1 0x26 SWAP1 DUP3 ADD MSTORE PUSH32 0x4F776E61626C653A206E6577206F776E657220697320746865207A65726F2061 PUSH1 0x40 DUP3 ADD MSTORE PUSH6 0x646472657373 PUSH1 0xD0 SHL PUSH1 0x60 DUP3 ADD MSTORE PUSH1 0x80 ADD SWAP1 JUMP JUMPDEST PUSH1 0x20 DUP1 DUP3 MSTORE DUP2 DUP2 ADD MSTORE PUSH32 0x507572636861736520776F756C6420657863656564206D617820746F6B656E73 PUSH1 0x40 DUP3 ADD MSTORE PUSH1 0x60 ADD SWAP1 JUMP JUMPDEST PUSH1 0x20 DUP1 DUP3 MSTORE PUSH1 0x1C SWAP1 DUP3 ADD MSTORE PUSH32 0x4552433732313A20746F6B656E20616C7265616479206D696E74656400000000 PUSH1 0x40 DUP3 ADD MSTORE PUSH1 0x60 ADD SWAP1 JUMP JUMPDEST PUSH1 0x20 DUP1 DUP3 MSTORE PUSH1 0x24 SWAP1 DUP3 ADD MSTORE PUSH32 0x4552433732313A207472616E7366657220746F20746865207A65726F20616464 PUSH1 0x40 DUP3 ADD MSTORE PUSH4 0x72657373 PUSH1 0xE0 SHL PUSH1 0x60 DUP3 ADD MSTORE PUSH1 0x80 ADD SWAP1 JUMP JUMPDEST PUSH1 0x20 DUP1 DUP3 MSTORE PUSH1 0x19 SWAP1 DUP3 ADD MSTORE PUSH32 0x4552433732313A20617070726F766520746F2063616C6C657200000000000000 PUSH1 0x40 DUP3 ADD MSTORE PUSH1 0x60 ADD SWAP1 JUMP JUMPDEST PUSH1 0x20 DUP1 DUP3 MSTORE PUSH1 0x1F SWAP1 DUP3 ADD MSTORE PUSH32 0x45746865722076616C75652073656E74206973206E6F7420636F727265637400 PUSH1 0x40 DUP3 ADD MSTORE PUSH1 0x60 ADD SWAP1 JUMP JUMPDEST PUSH1 0x20 DUP1 DUP3 MSTORE PUSH1 0x22 SWAP1 DUP3 ADD MSTORE PUSH32 0x45434453413A20696E76616C6964207369676E6174757265202773272076616C PUSH1 0x40 DUP3 ADD MSTORE PUSH2 0x7565 PUSH1 0xF0 SHL PUSH1 0x60 DUP3 ADD MSTORE PUSH1 0x80 ADD SWAP1 JUMP JUMPDEST PUSH1 0x20 DUP1 DUP3 MSTORE PUSH1 0x2C SWAP1 DUP3 ADD MSTORE PUSH32 0x4552433732313A206F70657261746F7220717565727920666F72206E6F6E6578 PUSH1 0x40 DUP3 ADD MSTORE PUSH12 0x34B9BA32B73A103A37B5B2B7 PUSH1 0xA1 SHL PUSH1 0x60 DUP3 ADD MSTORE PUSH1 0x80 ADD SWAP1 JUMP JUMPDEST PUSH1 0x20 DUP1 DUP3 MSTORE PUSH1 0x38 SWAP1 DUP3 ADD MSTORE PUSH32 0x4552433732313A20617070726F76652063616C6C6572206973206E6F74206F77 PUSH1 0x40 DUP3 ADD MSTORE PUSH32 0x6E6572206E6F7220617070726F76656420666F7220616C6C0000000000000000 PUSH1 0x60 DUP3 ADD MSTORE PUSH1 0x80 ADD SWAP1 JUMP JUMPDEST PUSH1 0x20 DUP1 DUP3 MSTORE PUSH1 0x2A SWAP1 DUP3 ADD MSTORE PUSH32 0x4552433732313A2062616C616E636520717565727920666F7220746865207A65 PUSH1 0x40 DUP3 ADD MSTORE PUSH10 0x726F2061646472657373 PUSH1 0xB0 SHL PUSH1 0x60 DUP3 ADD MSTORE PUSH1 0x80 ADD SWAP1 JUMP JUMPDEST PUSH1 0x20 DUP1 DUP3 MSTORE PUSH1 0x29 SWAP1 DUP3 ADD MSTORE PUSH32 0x4552433732313A206F776E657220717565727920666F72206E6F6E6578697374 PUSH1 0x40 DUP3 ADD MSTORE PUSH9 0x32B73A103A37B5B2B7 PUSH1 0xB9 SHL PUSH1 0x60 DUP3 ADD MSTORE PUSH1 0x80 ADD SWAP1 JUMP JUMPDEST PUSH1 0x20 DUP1 DUP3 MSTORE PUSH1 0x22 SWAP1 DUP3 ADD MSTORE PUSH32 0x45434453413A20696E76616C6964207369676E6174757265202776272076616C PUSH1 0x40 DUP3 ADD MSTORE PUSH2 0x7565 PUSH1 0xF0 SHL PUSH1 0x60 DUP3 ADD MSTORE PUSH1 0x80 ADD SWAP1 JUMP JUMPDEST PUSH1 0x20 DUP1 DUP3 MSTORE DUP2 DUP2 ADD MSTORE PUSH32 0x4552433732313A206D696E7420746F20746865207A65726F2061646472657373 PUSH1 0x40 DUP3 ADD MSTORE PUSH1 0x60 ADD SWAP1 JUMP JUMPDEST PUSH1 0x20 DUP1 DUP3 MSTORE PUSH1 0x2C SWAP1 DUP3 ADD MSTORE PUSH32 0x4552433732313A20617070726F76656420717565727920666F72206E6F6E6578 PUSH1 0x40 DUP3 ADD MSTORE PUSH12 0x34B9BA32B73A103A37B5B2B7 PUSH1 0xA1 SHL PUSH1 0x60 DUP3 ADD MSTORE PUSH1 0x80 ADD SWAP1 JUMP JUMPDEST PUSH1 0x20 DUP1 DUP3 MSTORE PUSH1 0x11 SWAP1 DUP3 ADD MSTORE PUSH17 0x496E76616C6964205369676E6174757265 PUSH1 0x78 SHL PUSH1 0x40 DUP3 ADD MSTORE PUSH1 0x60 ADD SWAP1 JUMP JUMPDEST PUSH1 0x20 DUP1 DUP3 MSTORE DUP2 DUP2 ADD MSTORE PUSH32 0x4F776E61626C653A2063616C6C6572206973206E6F7420746865206F776E6572 PUSH1 0x40 DUP3 ADD MSTORE PUSH1 0x60 ADD SWAP1 JUMP JUMPDEST PUSH1 0x20 DUP1 DUP3 MSTORE PUSH1 0x1B SWAP1 DUP3 ADD MSTORE PUSH32 0x45746865722076616C756573206973206E6F7420636F72726563740000000000 PUSH1 0x40 DUP3 ADD MSTORE PUSH1 0x60 ADD SWAP1 JUMP JUMPDEST PUSH1 0x20 DUP1 DUP3 MSTORE PUSH1 0x29 SWAP1 DUP3 ADD MSTORE PUSH32 0x4552433732313A207472616E73666572206F6620746F6B656E20746861742069 PUSH1 0x40 DUP3 ADD MSTORE PUSH9 0x39903737BA1037BBB7 PUSH1 0xB9 SHL PUSH1 0x60 DUP3 ADD MSTORE PUSH1 0x80 ADD SWAP1 JUMP JUMPDEST PUSH1 0x20 DUP1 DUP3 MSTORE PUSH1 0x2F SWAP1 DUP3 ADD MSTORE PUSH32 0x4552433732314D657461646174613A2055524920717565727920666F72206E6F PUSH1 0x40 DUP3 ADD MSTORE PUSH15 0x3732BC34B9BA32B73A103A37B5B2B7 PUSH1 0x89 SHL PUSH1 0x60 DUP3 ADD MSTORE PUSH1 0x80 ADD SWAP1 JUMP JUMPDEST PUSH1 0x20 DUP1 DUP3 MSTORE PUSH1 0x11 SWAP1 DUP3 ADD MSTORE PUSH17 0x696E636F72726563742061646472657373 PUSH1 0x78 SHL PUSH1 0x40 DUP3 ADD MSTORE PUSH1 0x60 ADD SWAP1 JUMP JUMPDEST PUSH1 0x20 DUP1 DUP3 MSTORE PUSH1 0x21 SWAP1 DUP3 ADD MSTORE PUSH32 0x4552433732313A20617070726F76616C20746F2063757272656E74206F776E65 PUSH1 0x40 DUP3 ADD MSTORE PUSH1 0x39 PUSH1 0xF9 SHL PUSH1 0x60 DUP3 ADD MSTORE PUSH1 0x80 ADD SWAP1 JUMP JUMPDEST PUSH1 0x20 DUP1 DUP3 MSTORE PUSH1 0x1B SWAP1 DUP3 ADD MSTORE PUSH32 0x4578636565646564206D617820746F6B656E2070757263686173650000000000 PUSH1 0x40 DUP3 ADD MSTORE PUSH1 0x60 ADD SWAP1 JUMP JUMPDEST PUSH1 0x20 DUP1 DUP3 MSTORE PUSH1 0x31 SWAP1 DUP3 ADD MSTORE PUSH32 0x4552433732313A207472616E736665722063616C6C6572206973206E6F74206F PUSH1 0x40 DUP3 ADD MSTORE PUSH17 0x1DDB995C881B9BDC88185C1C1C9BDD9959 PUSH1 0x7A SHL PUSH1 0x60 DUP3 ADD MSTORE PUSH1 0x80 ADD SWAP1 JUMP JUMPDEST PUSH1 0x20 DUP1 DUP3 MSTORE PUSH1 0x2C SWAP1 DUP3 ADD MSTORE PUSH32 0x455243373231456E756D657261626C653A20676C6F62616C20696E646578206F PUSH1 0x40 DUP3 ADD MSTORE PUSH12 0x7574206F6620626F756E6473 PUSH1 0xA0 SHL PUSH1 0x60 DUP3 ADD MSTORE PUSH1 0x80 ADD SWAP1 JUMP JUMPDEST PUSH1 0x20 DUP1 DUP3 MSTORE PUSH1 0xF SWAP1 DUP3 ADD MSTORE PUSH15 0x10DBDB9D1C9858DD0814185D5CD959 PUSH1 0x8A SHL PUSH1 0x40 DUP3 ADD MSTORE PUSH1 0x60 ADD SWAP1 JUMP JUMPDEST SWAP1 DUP2 MSTORE PUSH1 0x20 ADD SWAP1 JUMP JUMPDEST PUSH1 0x0 SWAP1 DUP2 MSTORE PUSH1 0x20 SWAP1 KECCAK256 SWAP1 JUMP JUMPDEST PUSH1 0x0 DUP3 NOT DUP3 GT ISZERO PUSH2 0x2DB3 JUMPI PUSH2 0x2DB3 PUSH2 0x2E98 JUMP JUMPDEST POP ADD SWAP1 JUMP JUMPDEST PUSH1 0x0 DUP3 PUSH2 0x2DC7 JUMPI PUSH2 0x2DC7 PUSH2 0x2EAE JUMP JUMPDEST POP DIV SWAP1 JUMP JUMPDEST PUSH1 0x0 DUP2 PUSH1 0x0 NOT DIV DUP4 GT DUP3 ISZERO ISZERO AND ISZERO PUSH2 0x2DE6 JUMPI PUSH2 0x2DE6 PUSH2 0x2E98 JUMP JUMPDEST POP MUL SWAP1 JUMP JUMPDEST PUSH1 0x0 DUP3 DUP3 LT ISZERO PUSH2 0x2DFD JUMPI PUSH2 0x2DFD PUSH2 0x2E98 JUMP JUMPDEST POP SUB SWAP1 JUMP JUMPDEST PUSH1 0x0 JUMPDEST DUP4 DUP2 LT ISZERO PUSH2 0x2E1D JUMPI DUP2 DUP2 ADD MLOAD DUP4 DUP3 ADD MSTORE PUSH1 0x20 ADD PUSH2 0x2E05 JUMP JUMPDEST DUP4 DUP2 GT ISZERO PUSH2 0x1069 JUMPI POP POP PUSH1 0x0 SWAP2 ADD MSTORE JUMP JUMPDEST PUSH1 0x2 DUP2 DIV PUSH1 0x1 DUP3 AND DUP1 PUSH2 0x2E42 JUMPI PUSH1 0x7F DUP3 AND SWAP2 POP JUMPDEST PUSH1 0x20 DUP3 LT DUP2 EQ ISZERO PUSH2 0x2E63 JUMPI PUSH4 0x4E487B71 PUSH1 0xE0 SHL PUSH1 0x0 MSTORE PUSH1 0x22 PUSH1 0x4 MSTORE PUSH1 0x24 PUSH1 0x0 REVERT JUMPDEST POP SWAP2 SWAP1 POP JUMP JUMPDEST PUSH1 0x0 PUSH1 0x0 NOT DUP3 EQ ISZERO PUSH2 0x2E7D JUMPI PUSH2 0x2E7D PUSH2 0x2E98 JUMP JUMPDEST POP PUSH1 0x1 ADD SWAP1 JUMP JUMPDEST PUSH1 0x0 DUP3 PUSH2 0x2E93 JUMPI PUSH2 0x2E93 PUSH2 0x2EAE JUMP JUMPDEST POP MOD SWAP1 JUMP JUMPDEST PUSH4 0x4E487B71 PUSH1 0xE0 SHL PUSH1 0x0 MSTORE PUSH1 0x11 PUSH1 0x4 MSTORE PUSH1 0x24 PUSH1 0x0 REVERT JUMPDEST PUSH4 0x4E487B71 PUSH1 0xE0 SHL PUSH1 0x0 MSTORE PUSH1 0x12 PUSH1 0x4 MSTORE PUSH1 0x24 PUSH1 0x0 REVERT JUMPDEST PUSH4 0x4E487B71 PUSH1 0xE0 SHL PUSH1 0x0 MSTORE PUSH1 0x41 PUSH1 0x4 MSTORE PUSH1 0x24 PUSH1 0x0 REVERT JUMPDEST PUSH1 0x1 PUSH1 0x1 PUSH1 0xE0 SHL SUB NOT DUP2 AND DUP2 EQ PUSH2 0x1344 JUMPI PUSH1 0x0 DUP1 REVERT INVALID LOG2 PUSH5 0x6970667358 0x22 SLT KECCAK256 LOG1 0x4C DUP7 CALLER 0xE8 SWAP1 0xE0 PUSH17 0xC84F7FCA94BC37E43621DDBAA1724E2FC5 DUP4 DUP9 PUSH12 0xE8AF932864736F6C63430008 STOP STOP CALLER "
        },
        "methodIdentifiers": {
          "MAX_PER_TRANSACTION()": "cb14eb87",
          "MAX_SUPPLY()": "32cb6b0c",
          "PRICE_FIRST()": "a8a4b4f1",
          "PRICE_PUBLIC()": "a56d7730",
          "approve(address,uint256)": "095ea7b3",
          "balanceOf(address)": "70a08231",
          "baseExtension()": "c6682862",
          "baseUri()": "9abc8320",
          "getApproved(uint256)": "081812fc",
          "isApprovedForAll(address,address)": "e985e9c5",
          "mint(uint256)": "a0712d68",
          "name()": "06fdde03",
          "notRevealedUri()": "081c8c44",
          "owner()": "8da5cb5b",
          "ownerOf(uint256)": "6352211e",
          "paused()": "5c975abb",
          "pausedWhitelist()": "f72ec829",
          "recoverData(address,bytes)": "844847f6",
          "renounceOwnership()": "715018a6",
          "reserve(uint256)": "819b25ba",
          "revealed()": "51830227",
          "safeTransferFrom(address,address,uint256)": "42842e0e",
          "safeTransferFrom(address,address,uint256,bytes)": "b88d4fde",
          "setApprovalForAll(address,bool)": "a22cb465",
          "setBaseExtension(string)": "da3ef23f",
          "setBaseURI(string)": "55f804b3",
          "setNotRevealedURI(string)": "f2c4ce1e",
          "setPaused(bool)": "16c38b3c",
          "setPausedWhitelist(bool)": "57ae51fb",
          "setRevealed(bool)": "e0a80853",
          "setSigner(address)": "6c19e783",
          "supportsInterface(bytes4)": "01ffc9a7",
          "symbol()": "95d89b41",
          "tokenByIndex(uint256)": "4f6ccce7",
          "tokenOfOwnerByIndex(address,uint256)": "2f745c59",
          "tokenURI(uint256)": "c87b56dd",
          "totalSupply()": "18160ddd",
          "transferFrom(address,address,uint256)": "23b872dd",
          "transferOwnership(address)": "f2fde38b",
          "whitelistMint(uint256,bytes)": "9e852f75",
          "withdraw()": "3ccfd60b"
        }
      }
    }
  }
}