{
  "_format": "hh-sol-artifact-1",
  "contractName": "TestContract",
  "sourceName": "contracts/TestContract.sol",
  "abi": [
    {
      "inputs": [
        {
          "internalType": "string",
          "name": "_name",
          "type": "string"
        },
        {
          "internalType": "string",
          "name": "_symbol",
          "type": "string"
        },
        {
          "internalType": "address",
          "name": "_signer",
          "type": "address"
        },
        {
          "internalType": "string",
          "name": "_initBaseURI",
          "type": "string"
        },
        {
          "internalType": "string",
          "name": "_initNotRevealedUri",
          "type": "string"
        }
      ],
      "stateMutability": "nonpayable",
      "type": "constructor"
    },
    {
      "anonymous": false,
      "inputs": [
        {
          "indexed": true,
          "internalType": "address",
          "name": "owner",
          "type": "address"
        },
        {
          "indexed": true,
          "internalType": "address",
          "name": "approved",
          "type": "address"
        },
        {
          "indexed": true,
          "internalType": "uint256",
          "name": "tokenId",
          "type": "uint256"
        }
      ],
      "name": "Approval",
      "type": "event"
    },
    {
      "anonymous": false,
      "inputs": [
        {
          "indexed": true,
          "internalType": "address",
          "name": "owner",
          "type": "address"
        },
        {
          "indexed": true,
          "internalType": "address",
          "name": "operator",
          "type": "address"
        },
        {
          "indexed": false,
          "internalType": "bool",
          "name": "approved",
          "type": "bool"
        }
      ],
      "name": "ApprovalForAll",
      "type": "event"
    },
    {
      "anonymous": false,
      "inputs": [
        {
          "indexed": true,
          "internalType": "address",
          "name": "previousOwner",
          "type": "address"
        },
        {
          "indexed": true,
          "internalType": "address",
          "name": "newOwner",
          "type": "address"
        }
      ],
      "name": "OwnershipTransferred",
      "type": "event"
    },
    {
      "anonymous": false,
      "inputs": [
        {
          "indexed": true,
          "internalType": "address",
          "name": "from",
          "type": "address"
        },
        {
          "indexed": true,
          "internalType": "address",
          "name": "to",
          "type": "address"
        },
        {
          "indexed": true,
          "internalType": "uint256",
          "name": "tokenId",
          "type": "uint256"
        }
      ],
      "name": "Transfer",
      "type": "event"
    },
    {
      "inputs": [],
      "name": "MAX_PER_TRANSACTION",
      "outputs": [
        {
          "internalType": "uint256",
          "name": "",
          "type": "uint256"
        }
      ],
      "stateMutability": "view",
      "type": "function"
    },
    {
      "inputs": [],
      "name": "MAX_SUPPLY",
      "outputs": [
        {
          "internalType": "uint256",
          "name": "",
          "type": "uint256"
        }
      ],
      "stateMutability": "view",
      "type": "function"
    },
    {
      "inputs": [],
      "name": "PRICE_FIRST",
      "outputs": [
        {
          "internalType": "uint256",
          "name": "",
          "type": "uint256"
        }
      ],
      "stateMutability": "view",
      "type": "function"
    },
    {
      "inputs": [],
      "name": "PRICE_PUBLIC",
      "outputs": [
        {
          "internalType": "uint256",
          "name": "",
          "type": "uint256"
        }
      ],
      "stateMutability": "view",
      "type": "function"
    },
    {
      "inputs": [],
      "name": "PRICE_SECOND",
      "outputs": [
        {
          "internalType": "uint256",
          "name": "",
          "type": "uint256"
        }
      ],
      "stateMutability": "view",
      "type": "function"
    },
    {
      "inputs": [
        {
          "internalType": "address",
          "name": "to",
          "type": "address"
        },
        {
          "internalType": "uint256",
          "name": "tokenId",
          "type": "uint256"
        }
      ],
      "name": "approve",
      "outputs": [],
      "stateMutability": "nonpayable",
      "type": "function"
    },
    {
      "inputs": [
        {
          "internalType": "address",
          "name": "owner",
          "type": "address"
        }
      ],
      "name": "balanceOf",
      "outputs": [
        {
          "internalType": "uint256",
          "name": "",
          "type": "uint256"
        }
      ],
      "stateMutability": "view",
      "type": "function"
    },
    {
      "inputs": [],
      "name": "baseExtension",
      "outputs": [
        {
          "internalType": "string",
          "name": "",
          "type": "string"
        }
      ],
      "stateMutability": "view",
      "type": "function"
    },
    {
      "inputs": [],
      "name": "baseUri",
      "outputs": [
        {
          "internalType": "string",
          "name": "",
          "type": "string"
        }
      ],
      "stateMutability": "view",
      "type": "function"
    },
    {
      "inputs": [
        {
          "internalType": "uint256",
          "name": "tokenId",
          "type": "uint256"
        }
      ],
      "name": "getApproved",
      "outputs": [
        {
          "internalType": "address",
          "name": "",
          "type": "address"
        }
      ],
      "stateMutability": "view",
      "type": "function"
    },
    {
      "inputs": [
        {
          "internalType": "address",
          "name": "owner",
          "type": "address"
        },
        {
          "internalType": "address",
          "name": "operator",
          "type": "address"
        }
      ],
      "name": "isApprovedForAll",
      "outputs": [
        {
          "internalType": "bool",
          "name": "",
          "type": "bool"
        }
      ],
      "stateMutability": "view",
      "type": "function"
    },
    {
      "inputs": [
        {
          "internalType": "uint256",
          "name": "numberOfTokens",
          "type": "uint256"
        }
      ],
      "name": "mint",
      "outputs": [],
      "stateMutability": "payable",
      "type": "function"
    },
    {
      "inputs": [],
      "name": "name",
      "outputs": [
        {
          "internalType": "string",
          "name": "",
          "type": "string"
        }
      ],
      "stateMutability": "view",
      "type": "function"
    },
    {
      "inputs": [],
      "name": "notRevealedUri",
      "outputs": [
        {
          "internalType": "string",
          "name": "",
          "type": "string"
        }
      ],
      "stateMutability": "view",
      "type": "function"
    },
    {
      "inputs": [],
      "name": "owner",
      "outputs": [
        {
          "internalType": "address",
          "name": "",
          "type": "address"
        }
      ],
      "stateMutability": "view",
      "type": "function"
    },
    {
      "inputs": [
        {
          "internalType": "uint256",
          "name": "tokenId",
          "type": "uint256"
        }
      ],
      "name": "ownerOf",
      "outputs": [
        {
          "internalType": "address",
          "name": "",
          "type": "address"
        }
      ],
      "stateMutability": "view",
      "type": "function"
    },
    {
      "inputs": [],
      "name": "paused",
      "outputs": [
        {
          "internalType": "bool",
          "name": "",
          "type": "bool"
        }
      ],
      "stateMutability": "view",
      "type": "function"
    },
    {
      "inputs": [],
      "name": "pausedWhitelist",
      "outputs": [
        {
          "internalType": "bool",
          "name": "",
          "type": "bool"
        }
      ],
      "stateMutability": "view",
      "type": "function"
    },
    {
      "inputs": [
        {
          "internalType": "address",
          "name": "_sender",
          "type": "address"
        },
        {
          "internalType": "bytes",
          "name": "_signature",
          "type": "bytes"
        }
      ],
      "name": "recoverData",
      "outputs": [
        {
          "internalType": "address",
          "name": "_data",
          "type": "address"
        }
      ],
      "stateMutability": "pure",
      "type": "function"
    },
    {
      "inputs": [],
      "name": "renounceOwnership",
      "outputs": [],
      "stateMutability": "nonpayable",
      "type": "function"
    },
    {
      "inputs": [
        {
          "internalType": "uint256",
          "name": "numberOfTokens",
          "type": "uint256"
        }
      ],
      "name": "reserve",
      "outputs": [],
      "stateMutability": "nonpayable",
      "type": "function"
    },
    {
      "inputs": [],
      "name": "revealed",
      "outputs": [
        {
          "internalType": "bool",
          "name": "",
          "type": "bool"
        }
      ],
      "stateMutability": "view",
      "type": "function"
    },
    {
      "inputs": [
        {
          "internalType": "address",
          "name": "from",
          "type": "address"
        },
        {
          "internalType": "address",
          "name": "to",
          "type": "address"
        },
        {
          "internalType": "uint256",
          "name": "tokenId",
          "type": "uint256"
        }
      ],
      "name": "safeTransferFrom",
      "outputs": [],
      "stateMutability": "nonpayable",
      "type": "function"
    },
    {
      "inputs": [
        {
          "internalType": "address",
          "name": "from",
          "type": "address"
        },
        {
          "internalType": "address",
          "name": "to",
          "type": "address"
        },
        {
          "internalType": "uint256",
          "name": "tokenId",
          "type": "uint256"
        },
        {
          "internalType": "bytes",
          "name": "_data",
          "type": "bytes"
        }
      ],
      "name": "safeTransferFrom",
      "outputs": [],
      "stateMutability": "nonpayable",
      "type": "function"
    },
    {
      "inputs": [
        {
          "internalType": "address",
          "name": "operator",
          "type": "address"
        },
        {
          "internalType": "bool",
          "name": "approved",
          "type": "bool"
        }
      ],
      "name": "setApprovalForAll",
      "outputs": [],
      "stateMutability": "nonpayable",
      "type": "function"
    },
    {
      "inputs": [
        {
          "internalType": "string",
          "name": "_newBaseExtension",
          "type": "string"
        }
      ],
      "name": "setBaseExtension",
      "outputs": [],
      "stateMutability": "nonpayable",
      "type": "function"
    },
    {
      "inputs": [
        {
          "internalType": "string",
          "name": "newBaseURI",
          "type": "string"
        }
      ],
      "name": "setBaseURI",
      "outputs": [],
      "stateMutability": "nonpayable",
      "type": "function"
    },
    {
      "inputs": [
        {
          "internalType": "string",
          "name": "_notRevealedURI",
          "type": "string"
        }
      ],
      "name": "setNotRevealedURI",
      "outputs": [],
      "stateMutability": "nonpayable",
      "type": "function"
    },
    {
      "inputs": [
        {
          "internalType": "bool",
          "name": "newState",
          "type": "bool"
        }
      ],
      "name": "setPaused",
      "outputs": [],
      "stateMutability": "nonpayable",
      "type": "function"
    },
    {
      "inputs": [
        {
          "internalType": "bool",
          "name": "newState",
          "type": "bool"
        }
      ],
      "name": "setPausedWhitelist",
      "outputs": [],
      "stateMutability": "nonpayable",
      "type": "function"
    },
    {
      "inputs": [
        {
          "internalType": "bool",
          "name": "newState",
          "type": "bool"
        }
      ],
      "name": "setRevealed",
      "outputs": [],
      "stateMutability": "nonpayable",
      "type": "function"
    },
    {
      "inputs": [
        {
          "internalType": "address",
          "name": "newSigner",
          "type": "address"
        }
      ],
      "name": "setSigner",
      "outputs": [],
      "stateMutability": "nonpayable",
      "type": "function"
    },
    {
      "inputs": [
        {
          "internalType": "bytes4",
          "name": "interfaceId",
          "type": "bytes4"
        }
      ],
      "name": "supportsInterface",
      "outputs": [
        {
          "internalType": "bool",
          "name": "",
          "type": "bool"
        }
      ],
      "stateMutability": "view",
      "type": "function"
    },
    {
      "inputs": [],
      "name": "symbol",
      "outputs": [
        {
          "internalType": "string",
          "name": "",
          "type": "string"
        }
      ],
      "stateMutability": "view",
      "type": "function"
    },
    {
      "inputs": [
        {
          "internalType": "uint256",
          "name": "index",
          "type": "uint256"
        }
      ],
      "name": "tokenByIndex",
      "outputs": [
        {
          "internalType": "uint256",
          "name": "",
          "type": "uint256"
        }
      ],
      "stateMutability": "view",
      "type": "function"
    },
    {
      "inputs": [
        {
          "internalType": "address",
          "name": "owner",
          "type": "address"
        },
        {
          "internalType": "uint256",
          "name": "index",
          "type": "uint256"
        }
      ],
      "name": "tokenOfOwnerByIndex",
      "outputs": [
        {
          "internalType": "uint256",
          "name": "",
          "type": "uint256"
        }
      ],
      "stateMutability": "view",
      "type": "function"
    },
    {
      "inputs": [
        {
          "internalType": "uint256",
          "name": "tokenId",
          "type": "uint256"
        }
      ],
      "name": "tokenURI",
      "outputs": [
        {
          "internalType": "string",
          "name": "",
          "type": "string"
        }
      ],
      "stateMutability": "view",
      "type": "function"
    },
    {
      "inputs": [],
      "name": "totalSupply",
      "outputs": [
        {
          "internalType": "uint256",
          "name": "",
          "type": "uint256"
        }
      ],
      "stateMutability": "view",
      "type": "function"
    },
    {
      "inputs": [
        {
          "internalType": "address",
          "name": "from",
          "type": "address"
        },
        {
          "internalType": "address",
          "name": "to",
          "type": "address"
        },
        {
          "internalType": "uint256",
          "name": "tokenId",
          "type": "uint256"
        }
      ],
      "name": "transferFrom",
      "outputs": [],
      "stateMutability": "nonpayable",
      "type": "function"
    },
    {
      "inputs": [
        {
          "internalType": "address",
          "name": "newOwner",
          "type": "address"
        }
      ],
      "name": "transferOwnership",
      "outputs": [],
      "stateMutability": "nonpayable",
      "type": "function"
    },
    {
      "inputs": [
        {
          "internalType": "uint256",
          "name": "numberOfTokens",
          "type": "uint256"
        },
        {
          "internalType": "uint256",
          "name": "limit",
          "type": "uint256"
        },
        {
          "internalType": "bytes",
          "name": "_signature",
          "type": "bytes"
        }
      ],
      "name": "whitelistMint",
      "outputs": [],
      "stateMutability": "payable",
      "type": "function"
    },
    {
      "inputs": [],
      "name": "withdraw",
      "outputs": [],
      "stateMutability": "nonpayable",
      "type": "function"
    }
  ],
  "bytecode": "0x60c06040526005608081905264173539b7b760d91b60a09081526200002891600c9190620002ce565b50600e805462ff00001961ff001960ff19909216600117919091166101001716905567011c37937e080000600f5567013fbe85edc9000060105566d529ae9e8600006011553480156200007a57600080fd5b506040516200355f3803806200355f8339810160408190526200009d916200041f565b845185908590620000b6906000906020850190620002ce565b508051620000cc906001906020840190620002ce565b505050620000e9620000e36200011560201b60201c565b62000119565b620000f4826200016b565b620000ff81620001d3565b6200010a836200022e565b5050505050620005a7565b3390565b600a80546001600160a01b038381166001600160a01b0319831681179093556040519116919082907f8be0079c531659141344cd1fd0a4f28419497f9722a3daafe3b4186f6b6457e090600090a35050565b6200017562000115565b6001600160a01b031662000188620002bf565b6001600160a01b031614620001ba5760405162461bcd60e51b8152600401620001b190620004f4565b60405180910390fd5b8051620001cf90600b906020840190620002ce565b5050565b620001dd62000115565b6001600160a01b0316620001f0620002bf565b6001600160a01b031614620002195760405162461bcd60e51b8152600401620001b190620004f4565b8051620001cf90600d906020840190620002ce565b6200023862000115565b6001600160a01b03166200024b620002bf565b6001600160a01b031614620002745760405162461bcd60e51b8152600401620001b190620004f4565b6001600160a01b0381166200029d5760405162461bcd60e51b8152600401620001b19062000529565b601280546001600160a01b0319166001600160a01b0392909216919091179055565b600a546001600160a01b031690565b828054620002dc9062000554565b90600052602060002090601f0160209004810192826200030057600085556200034b565b82601f106200031b57805160ff19168380011785556200034b565b828001600101855582156200034b579182015b828111156200034b5782518255916020019190600101906200032e565b50620003599291506200035d565b5090565b5b808211156200035957600081556001016200035e565b600082601f83011262000385578081fd5b81516001600160401b0380821115620003a257620003a262000591565b6040516020601f8401601f1916820181018381118382101715620003ca57620003ca62000591565b6040528382528584018101871015620003e1578485fd5b8492505b83831015620004045785830181015182840182015291820191620003e5565b838311156200041557848185840101525b5095945050505050565b600080600080600060a0868803121562000437578081fd5b85516001600160401b03808211156200044e578283fd5b6200045c89838a0162000374565b9650602088015191508082111562000472578283fd5b6200048089838a0162000374565b604089015190965091506001600160a01b03821682146200049f578283fd5b606088015191945080821115620004b4578283fd5b620004c289838a0162000374565b93506080880151915080821115620004d8578283fd5b50620004e78882890162000374565b9150509295509295909350565b6020808252818101527f4f776e61626c653a2063616c6c6572206973206e6f7420746865206f776e6572604082015260600190565b602080825260119082015270696e636f7272656374206164647265737360781b604082015260600190565b6002810460018216806200056957607f821691505b602082108114156200058b57634e487b7160e01b600052602260045260246000fd5b50919050565b634e487b7160e01b600052604160045260246000fd5b612fa880620005b76000396000f3fe6080604052600436106102515760003560e01c8063715018a611610139578063b88d4fde116100b6578063e0a808531161007a578063e0a8085314610658578063e985e9c514610678578063ec596b7214610698578063f2c4ce1e146106ab578063f2fde38b146106cb578063f72ec829146106eb57610251565b8063b88d4fde146105ce578063c6682862146105ee578063c87b56dd14610603578063cb14eb8714610623578063da3ef23f1461063857610251565b80639abc8320116100fd5780639abc83201461055c578063a0712d6814610571578063a22cb46514610584578063a56d7730146105a4578063a8a4b4f1146105b957610251565b8063715018a6146104dd578063819b25ba146104f2578063844847f6146105125780638da5cb5b1461053257806395d89b411461054757610251565b806332cb6b0c116101d257806355f804b31161019657806355f804b31461042857806357ae51fb146104485780635c975abb146104685780636352211e1461047d5780636c19e7831461049d57806370a08231146104bd57610251565b806332cb6b0c146103a95780633ccfd60b146103be57806342842e0e146103d35780634f6ccce7146103f3578063518302271461041357610251565b80631315be25116102195780631315be251461031257806316c38b3c1461033457806318160ddd1461035457806323b872dd146103695780632f745c591461038957610251565b806301ffc9a71461025657806306fdde031461028c578063081812fc146102ae578063081c8c44146102db578063095ea7b3146102f0575b600080fd5b34801561026257600080fd5b50610276610271366004612408565b610700565b604051610283919061265f565b60405180910390f35b34801561029857600080fd5b506102a1610713565b6040516102839190612688565b3480156102ba57600080fd5b506102ce6102c9366004612486565b6107a5565b604051610283919061260e565b3480156102e757600080fd5b506102a16107f1565b3480156102fc57600080fd5b5061031061030b3660046123c5565b61087f565b005b34801561031e57600080fd5b50610327610917565b6040516102839190612e0d565b34801561034057600080fd5b5061031061034f3660046123ee565b61091d565b34801561036057600080fd5b5061032761096f565b34801561037557600080fd5b50610310610384366004612297565b610975565b34801561039557600080fd5b506103276103a43660046123c5565b6109ad565b3480156103b557600080fd5b506103276109ff565b3480156103ca57600080fd5b50610310610a05565b3480156103df57600080fd5b506103106103ee366004612297565b610a77565b3480156103ff57600080fd5b5061032761040e366004612486565b610a92565b34801561041f57600080fd5b50610276610aed565b34801561043457600080fd5b50610310610443366004612440565b610afc565b34801561045457600080fd5b506103106104633660046123ee565b610b4e565b34801561047457600080fd5b50610276610ba7565b34801561048957600080fd5b506102ce610498366004612486565b610bb0565b3480156104a957600080fd5b506103106104b836600461224b565b610be5565b3480156104c957600080fd5b506103276104d836600461224b565b610c6c565b3480156104e957600080fd5b50610310610cb0565b3480156104fe57600080fd5b5061031061050d366004612486565b610cfb565b34801561051e57600080fd5b506102ce61052d366004612374565b610da1565b34801561053e57600080fd5b506102ce610e21565b34801561055357600080fd5b506102a1610e30565b34801561056857600080fd5b506102a1610e3f565b61031061057f366004612486565b610e4c565b34801561059057600080fd5b5061031061059f36600461234b565b610f20565b3480156105b057600080fd5b50610327610f32565b3480156105c557600080fd5b50610327610f38565b3480156105da57600080fd5b506103106105e93660046122d2565b610f3e565b3480156105fa57600080fd5b506102a1610f7d565b34801561060f57600080fd5b506102a161061e366004612486565b610f8a565b34801561062f57600080fd5b506103276110b2565b34801561064457600080fd5b50610310610653366004612440565b6110b7565b34801561066457600080fd5b506103106106733660046123ee565b611109565b34801561068457600080fd5b50610276610693366004612265565b611164565b6103106106a636600461249e565b611192565b3480156106b757600080fd5b506103106106c6366004612440565b6112ea565b3480156106d757600080fd5b506103106106e636600461224b565b61133c565b3480156106f757600080fd5b506102766113ad565b600061070b826113bb565b90505b919050565b60606000805461072290612eb0565b80601f016020809104026020016040519081016040528092919081815260200182805461074e90612eb0565b801561079b5780601f106107705761010080835404028352916020019161079b565b820191906000526020600020905b81548152906001019060200180831161077e57829003601f168201915b5050505050905090565b60006107b0826113e0565b6107d55760405162461bcd60e51b81526004016107cc90612b29565b60405180910390fd5b506000908152600460205260409020546001600160a01b031690565b600d80546107fe90612eb0565b80601f016020809104026020016040519081016040528092919081815260200182805461082a90612eb0565b80156108775780601f1061084c57610100808354040283529160200191610877565b820191906000526020600020905b81548152906001019060200180831161085a57829003601f168201915b505050505081565b600061088a82610bb0565b9050806001600160a01b0316836001600160a01b031614156108be5760405162461bcd60e51b81526004016107cc90612ccf565b806001600160a01b03166108d06113fd565b6001600160a01b031614806108ec57506108ec816106936113fd565b6109085760405162461bcd60e51b81526004016107cc906129c2565b6109128383611401565b505050565b60115481565b6109256113fd565b6001600160a01b0316610936610e21565b6001600160a01b03161461095c5760405162461bcd60e51b81526004016107cc90612ba0565b600e805460ff1916911515919091179055565b60085490565b6109866109806113fd565b8261146f565b6109a25760405162461bcd60e51b81526004016107cc90612d47565b6109128383836114f4565b60006109b883610c6c565b82106109d65760405162461bcd60e51b81526004016107cc90612733565b506001600160a01b03919091166000908152600660209081526040808320938352929052205490565b614e1f81565b610a0d6113fd565b6001600160a01b0316610a1e610e21565b6001600160a01b031614610a445760405162461bcd60e51b81526004016107cc90612ba0565b6040514790339082156108fc029083906000818181858888f19350505050158015610a73573d6000803e3d6000fd5b5050565b61091283838360405180602001604052806000815250610f3e565b6000610a9c61096f565b8210610aba5760405162461bcd60e51b81526004016107cc90612d98565b60088281548110610adb57634e487b7160e01b600052603260045260246000fd5b90600052602060002001549050919050565b600e5462010000900460ff1681565b610b046113fd565b6001600160a01b0316610b15610e21565b6001600160a01b031614610b3b5760405162461bcd60e51b81526004016107cc90612ba0565b8051610a7390600b9060208401906120db565b610b566113fd565b6001600160a01b0316610b67610e21565b6001600160a01b031614610b8d5760405162461bcd60e51b81526004016107cc90612ba0565b600e80549115156101000261ff0019909216919091179055565b600e5460ff1681565b6000818152600260205260408120546001600160a01b03168061070b5760405162461bcd60e51b81526004016107cc90612a69565b610bed6113fd565b6001600160a01b0316610bfe610e21565b6001600160a01b031614610c245760405162461bcd60e51b81526004016107cc90612ba0565b6001600160a01b038116610c4a5760405162461bcd60e51b81526004016107cc90612ca4565b601280546001600160a01b0319166001600160a01b0392909216919091179055565b60006001600160a01b038216610c945760405162461bcd60e51b81526004016107cc90612a1f565b506001600160a01b031660009081526003602052604090205490565b610cb86113fd565b6001600160a01b0316610cc9610e21565b6001600160a01b031614610cef5760405162461bcd60e51b81526004016107cc90612ba0565b610cf96000611621565b565b610d036113fd565b6001600160a01b0316610d14610e21565b6001600160a01b031614610d3a5760405162461bcd60e51b81526004016107cc90612ba0565b6000610d4461096f565b9050614e1f610d538383612e22565b1115610d715760405162461bcd60e51b81526004016107cc90612816565b60005b8281101561091257610d8f33610d8a8385612e22565b611673565b80610d9981612eeb565b915050610d74565b60008084604051602001610db5919061260e565b604051602081830303815290604052805190602001209050610e1884848080601f016020809104026020016040519081016040528093929190818152602001838380828437600092019190915250610e12925085915061168d9050565b906116bd565b95945050505050565b600a546001600160a01b031690565b60606001805461072290612eb0565b600b80546107fe90612eb0565b6000610e5661096f565b600e5490915060ff1615610e7c5760405162461bcd60e51b81526004016107cc90612de4565b601e821115610e9d5760405162461bcd60e51b81526004016107cc90612d10565b614e1f610eaa8383612e22565b1115610ec85760405162461bcd60e51b81526004016107cc90612816565b3482601054610ed79190612e4e565b1115610ef55760405162461bcd60e51b81526004016107cc906128fd565b60005b8281101561091257610f0e33610d8a8385612e22565b80610f1881612eeb565b915050610ef8565b610a73610f2b6113fd565b83836116e1565b60105481565b600f5481565b610f4f610f496113fd565b8361146f565b610f6b5760405162461bcd60e51b81526004016107cc90612d47565b610f7784848484611784565b50505050565b600c80546107fe90612eb0565b6060610f95826113e0565b610fb15760405162461bcd60e51b81526004016107cc90612c55565b600e5462010000900460ff1661105357600d8054610fce90612eb0565b80601f0160208091040260200160405190810160405280929190818152602001828054610ffa90612eb0565b80156110475780601f1061101c57610100808354040283529160200191611047565b820191906000526020600020905b81548152906001019060200180831161102a57829003601f168201915b5050505050905061070e565b600061105d6117b7565b9050600081511161107d57604051806020016040528060008152506110ab565b80611087846117c6565b600c60405160200161109b9392919061251b565b6040516020818303038152906040525b9392505050565b601e81565b6110bf6113fd565b6001600160a01b03166110d0610e21565b6001600160a01b0316146110f65760405162461bcd60e51b81526004016107cc90612ba0565b8051610a7390600c9060208401906120db565b6111116113fd565b6001600160a01b0316611122610e21565b6001600160a01b0316146111485760405162461bcd60e51b81526004016107cc90612ba0565b600e8054911515620100000262ff000019909216919091179055565b6001600160a01b03918216600090815260056020908152604080832093909416825291909152205460ff1690565b600061119c61096f565b600e54909150610100900460ff16156111c75760405162461bcd60e51b81526004016107cc906126d2565b601e8511156111e85760405162461bcd60e51b81526004016107cc90612d10565b614e1f6111f58683612e22565b11156112135760405162461bcd60e51b81526004016107cc90612816565b6012546001600160a01b031661122a338585610da1565b6001600160a01b0316146112505760405162461bcd60e51b81526004016107cc90612b75565b61125933610c6c565b61128a5761126985600f546118e1565b6112855760405162461bcd60e51b81526004016107cc90612bd5565b6112b7565b34856011546112999190612e4e565b11156112b75760405162461bcd60e51b81526004016107cc906128fd565b60005b858110156112e2576112d033610d8a8385612e22565b806112da81612eeb565b9150506112ba565b505050505050565b6112f26113fd565b6001600160a01b0316611303610e21565b6001600160a01b0316146113295760405162461bcd60e51b81526004016107cc90612ba0565b8051610a7390600d9060208401906120db565b6113446113fd565b6001600160a01b0316611355610e21565b6001600160a01b03161461137b5760405162461bcd60e51b81526004016107cc90612ba0565b6001600160a01b0381166113a15760405162461bcd60e51b81526004016107cc906127d0565b6113aa81611621565b50565b600e54610100900460ff1681565b60006001600160e01b0319821663780e9d6360e01b148061070b575061070b82611911565b6000908152600260205260409020546001600160a01b0316151590565b3390565b600081815260046020526040902080546001600160a01b0319166001600160a01b038416908117909155819061143682610bb0565b6001600160a01b03167f8c5be1e5ebec7d5bd14f71427d1e84f3dd0314c0f7b2291e5b200ac8c7c3b92560405160405180910390a45050565b600061147a826113e0565b6114965760405162461bcd60e51b81526004016107cc90612976565b60006114a183610bb0565b9050806001600160a01b0316846001600160a01b031614806114dc5750836001600160a01b03166114d1846107a5565b6001600160a01b0316145b806114ec57506114ec8185611164565b949350505050565b826001600160a01b031661150782610bb0565b6001600160a01b03161461152d5760405162461bcd60e51b81526004016107cc90612c0c565b6001600160a01b0382166115535760405162461bcd60e51b81526004016107cc90612882565b61155e838383611951565b611569600082611401565b6001600160a01b0383166000908152600360205260408120805460019290611592908490612e6d565b90915550506001600160a01b03821660009081526003602052604081208054600192906115c0908490612e22565b909155505060008181526002602052604080822080546001600160a01b0319166001600160a01b0386811691821790925591518493918716917fddf252ad1be2c89b69c2b068fc378daa952ba7f163c4a11628f55a4df523b3ef91a4505050565b600a80546001600160a01b038381166001600160a01b0319831681179093556040519116919082907f8be0079c531659141344cd1fd0a4f28419497f9722a3daafe3b4186f6b6457e090600090a35050565b610a7382826040518060200160405280600081525061195c565b6000816040516020016116a091906125dd565b604051602081830303815290604052805190602001209050919050565b60008060006116cc858561198f565b915091506116d9816119ff565b509392505050565b816001600160a01b0316836001600160a01b031614156117135760405162461bcd60e51b81526004016107cc906128c6565b6001600160a01b0383811660008181526005602090815260408083209487168084529490915290819020805460ff1916851515179055517f17307eab39ab6107e8899845ad3d59bd9653f200f220920489ca2b5937696c319061177790859061265f565b60405180910390a3505050565b61178f8484846114f4565b61179b84848484611b2c565b610f775760405162461bcd60e51b81526004016107cc9061277e565b6060600b805461072290612eb0565b6060816117eb57506040805180820190915260018152600360fc1b602082015261070e565b8160005b811561181557806117ff81612eeb565b915061180e9050600a83612e3a565b91506117ef565b60008167ffffffffffffffff81111561183e57634e487b7160e01b600052604160045260246000fd5b6040519080825280601f01601f191660200182016040528015611868576020820181803683370190505b5090505b84156114ec5761187d600183612e6d565b915061188a600a86612f06565b611895906030612e22565b60f81b8183815181106118b857634e487b7160e01b600052603260045260246000fd5b60200101906001600160f81b031916908160001a9053506118da600a86612e3a565b945061186c565b6000806118ef600185612e6d565b6011546118fc9190612e4e565b6119069084612e22565b341015949350505050565b60006001600160e01b031982166380ac58cd60e01b148061194257506001600160e01b03198216635b5e139f60e01b145b8061070b575061070b82611c47565b610912838383611c60565b6119668383611ce9565b6119736000848484611b2c565b6109125760405162461bcd60e51b81526004016107cc9061277e565b6000808251604114156119c65760208301516040840151606085015160001a6119ba87828585611dc8565b945094505050506119f8565b8251604014156119f057602083015160408401516119e5868383611ea8565b9350935050506119f8565b506000905060025b9250929050565b6000816004811115611a2157634e487b7160e01b600052602160045260246000fd5b1415611a2c576113aa565b6001816004811115611a4e57634e487b7160e01b600052602160045260246000fd5b1415611a6c5760405162461bcd60e51b81526004016107cc9061269b565b6002816004811115611a8e57634e487b7160e01b600052602160045260246000fd5b1415611aac5760405162461bcd60e51b81526004016107cc906126fc565b6003816004811115611ace57634e487b7160e01b600052602160045260246000fd5b1415611aec5760405162461bcd60e51b81526004016107cc90612934565b6004816004811115611b0e57634e487b7160e01b600052602160045260246000fd5b14156113aa5760405162461bcd60e51b81526004016107cc90612ab2565b6000611b40846001600160a01b0316611ed7565b15611c3c57836001600160a01b031663150b7a02611b5c6113fd565b8786866040518563ffffffff1660e01b8152600401611b7e9493929190612622565b602060405180830381600087803b158015611b9857600080fd5b505af1925050508015611bc8575060408051601f3d908101601f19168201909252611bc591810190612424565b60015b611c22573d808015611bf6576040519150601f19603f3d011682016040523d82523d6000602084013e611bfb565b606091505b508051611c1a5760405162461bcd60e51b81526004016107cc9061277e565b805181602001fd5b6001600160e01b031916630a85bd0160e11b1490506114ec565b506001949350505050565b6001600160e01b031981166301ffc9a760e01b14919050565b611c6b838383610912565b6001600160a01b038316611c8757611c8281611edd565b611caa565b816001600160a01b0316836001600160a01b031614611caa57611caa8382611f21565b6001600160a01b038216611cc657611cc181611fbe565b610912565b826001600160a01b0316826001600160a01b031614610912576109128282612097565b6001600160a01b038216611d0f5760405162461bcd60e51b81526004016107cc90612af4565b611d18816113e0565b15611d355760405162461bcd60e51b81526004016107cc9061284b565b611d4160008383611951565b6001600160a01b0382166000908152600360205260408120805460019290611d6a908490612e22565b909155505060008181526002602052604080822080546001600160a01b0319166001600160a01b03861690811790915590518392907fddf252ad1be2c89b69c2b068fc378daa952ba7f163c4a11628f55a4df523b3ef908290a45050565b6000807f7fffffffffffffffffffffffffffffff5d576e7357a4501ddfe92f46681b20a0831115611dff5750600090506003611e9f565b8460ff16601b14158015611e1757508460ff16601c14155b15611e285750600090506004611e9f565b600060018787878760405160008152602001604052604051611e4d949392919061266a565b6020604051602081039080840390855afa158015611e6f573d6000803e3d6000fd5b5050604051601f1901519150506001600160a01b038116611e9857600060019250925050611e9f565b9150600090505b94509492505050565b6000806001600160ff1b03831660ff84901c601b01611ec987828885611dc8565b935093505050935093915050565b3b151590565b600880546000838152600960205260408120829055600182018355919091527ff3f7a9fe364faab93b216da50a3214154f22a0a2b415b23a84c8169e8b636ee30155565b60006001611f2e84610c6c565b611f389190612e6d565b600083815260076020526040902054909150808214611f8b576001600160a01b03841660009081526006602090815260408083208584528252808320548484528184208190558352600790915290208190555b5060009182526007602090815260408084208490556001600160a01b039094168352600681528383209183525290812055565b600854600090611fd090600190612e6d565b6000838152600960205260408120546008805493945090928490811061200657634e487b7160e01b600052603260045260246000fd5b90600052602060002001549050806008838154811061203557634e487b7160e01b600052603260045260246000fd5b600091825260208083209091019290925582815260099091526040808220849055858252812055600880548061207b57634e487b7160e01b600052603160045260246000fd5b6001900381819060005260206000200160009055905550505050565b60006120a283610c6c565b6001600160a01b039093166000908152600660209081526040808320868452825280832085905593825260079052919091209190915550565b8280546120e790612eb0565b90600052602060002090601f016020900481019282612109576000855561214f565b82601f1061212257805160ff191683800117855561214f565b8280016001018555821561214f579182015b8281111561214f578251825591602001919060010190612134565b5061215b92915061215f565b5090565b5b8082111561215b5760008155600101612160565b600067ffffffffffffffff8084111561218f5761218f612f46565b604051601f8501601f1916810160200182811182821017156121b3576121b3612f46565b6040528481529150818385018610156121cb57600080fd5b8484602083013760006020868301015250509392505050565b80356001600160a01b038116811461070e57600080fd5b8035801515811461070e57600080fd5b60008083601f84011261221c578182fd5b50813567ffffffffffffffff811115612233578182fd5b6020830191508360208285010111156119f857600080fd5b60006020828403121561225c578081fd5b6110ab826121e4565b60008060408385031215612277578081fd5b612280836121e4565b915061228e602084016121e4565b90509250929050565b6000806000606084860312156122ab578081fd5b6122b4846121e4565b92506122c2602085016121e4565b9150604084013590509250925092565b600080600080608085870312156122e7578081fd5b6122f0856121e4565b93506122fe602086016121e4565b925060408501359150606085013567ffffffffffffffff811115612320578182fd5b8501601f81018713612330578182fd5b61233f87823560208401612174565b91505092959194509250565b6000806040838503121561235d578182fd5b612366836121e4565b915061228e602084016121fb565b600080600060408486031215612388578283fd5b612391846121e4565b9250602084013567ffffffffffffffff8111156123ac578283fd5b6123b88682870161220b565b9497909650939450505050565b600080604083850312156123d7578182fd5b6123e0836121e4565b946020939093013593505050565b6000602082840312156123ff578081fd5b6110ab826121fb565b600060208284031215612419578081fd5b81356110ab81612f5c565b600060208284031215612435578081fd5b81516110ab81612f5c565b600060208284031215612451578081fd5b813567ffffffffffffffff811115612467578182fd5b8201601f81018413612477578182fd5b6114ec84823560208401612174565b600060208284031215612497578081fd5b5035919050565b600080600080606085870312156124b3578384fd5b8435935060208501359250604085013567ffffffffffffffff8111156124d7578283fd5b6124e38782880161220b565b95989497509550505050565b60008151808452612507816020860160208601612e84565b601f01601f19169290920160200192915050565b60008451602061252e8285838a01612e84565b8551918401916125418184848a01612e84565b855492019183906002810460018083168061255d57607f831692505b85831081141561257b57634e487b7160e01b88526022600452602488fd5b80801561258f57600181146125a0576125cc565b60ff198516885283880195506125cc565b6125a98b612e16565b895b858110156125c45781548a8201529084019088016125ab565b505083880195505b50939b9a5050505050505050505050565b7f19457468657265756d205369676e6564204d6573736167653a0a3332000000008152601c810191909152603c0190565b6001600160a01b0391909116815260200190565b6001600160a01b0385811682528416602082015260408101839052608060608201819052600090612655908301846124ef565b9695505050505050565b901515815260200190565b93845260ff9290921660208401526040830152606082015260800190565b6000602082526110ab60208301846124ef565b60208082526018908201527f45434453413a20696e76616c6964207369676e61747572650000000000000000604082015260600190565b60208082526010908201526f15da1a5d195b1a5cdd0814185d5cd95960821b604082015260600190565b6020808252601f908201527f45434453413a20696e76616c6964207369676e6174757265206c656e67746800604082015260600190565b6020808252602b908201527f455243373231456e756d657261626c653a206f776e657220696e646578206f7560408201526a74206f6620626f756e647360a81b606082015260800190565b60208082526032908201527f4552433732313a207472616e7366657220746f206e6f6e20455243373231526560408201527131b2b4bb32b91034b6b83632b6b2b73a32b960711b606082015260800190565b60208082526026908201527f4f776e61626c653a206e6577206f776e657220697320746865207a65726f206160408201526564647265737360d01b606082015260800190565b6020808252818101527f507572636861736520776f756c6420657863656564206d617820746f6b656e73604082015260600190565b6020808252601c908201527f4552433732313a20746f6b656e20616c7265616479206d696e74656400000000604082015260600190565b60208082526024908201527f4552433732313a207472616e7366657220746f20746865207a65726f206164646040820152637265737360e01b606082015260800190565b60208082526019908201527f4552433732313a20617070726f766520746f2063616c6c657200000000000000604082015260600190565b6020808252601f908201527f45746865722076616c75652073656e74206973206e6f7420636f727265637400604082015260600190565b60208082526022908201527f45434453413a20696e76616c6964207369676e6174757265202773272076616c604082015261756560f01b606082015260800190565b6020808252602c908201527f4552433732313a206f70657261746f7220717565727920666f72206e6f6e657860408201526b34b9ba32b73a103a37b5b2b760a11b606082015260800190565b60208082526038908201527f4552433732313a20617070726f76652063616c6c6572206973206e6f74206f7760408201527f6e6572206e6f7220617070726f76656420666f7220616c6c0000000000000000606082015260800190565b6020808252602a908201527f4552433732313a2062616c616e636520717565727920666f7220746865207a65604082015269726f206164647265737360b01b606082015260800190565b60208082526029908201527f4552433732313a206f776e657220717565727920666f72206e6f6e657869737460408201526832b73a103a37b5b2b760b91b606082015260800190565b60208082526022908201527f45434453413a20696e76616c6964207369676e6174757265202776272076616c604082015261756560f01b606082015260800190565b6020808252818101527f4552433732313a206d696e7420746f20746865207a65726f2061646472657373604082015260600190565b6020808252602c908201527f4552433732313a20617070726f76656420717565727920666f72206e6f6e657860408201526b34b9ba32b73a103a37b5b2b760a11b606082015260800190565b602080825260119082015270496e76616c6964205369676e617475726560781b604082015260600190565b6020808252818101527f4f776e61626c653a2063616c6c6572206973206e6f7420746865206f776e6572604082015260600190565b6020808252601b908201527f45746865722076616c756573206973206e6f7420636f72726563740000000000604082015260600190565b60208082526029908201527f4552433732313a207472616e73666572206f6620746f6b656e2074686174206960408201526839903737ba1037bbb760b91b606082015260800190565b6020808252602f908201527f4552433732314d657461646174613a2055524920717565727920666f72206e6f60408201526e3732bc34b9ba32b73a103a37b5b2b760891b606082015260800190565b602080825260119082015270696e636f7272656374206164647265737360781b604082015260600190565b60208082526021908201527f4552433732313a20617070726f76616c20746f2063757272656e74206f776e656040820152603960f91b606082015260800190565b6020808252601b908201527f4578636565646564206d617820746f6b656e2070757263686173650000000000604082015260600190565b60208082526031908201527f4552433732313a207472616e736665722063616c6c6572206973206e6f74206f6040820152701ddb995c881b9bdc88185c1c1c9bdd9959607a1b606082015260800190565b6020808252602c908201527f455243373231456e756d657261626c653a20676c6f62616c20696e646578206f60408201526b7574206f6620626f756e647360a01b606082015260800190565b6020808252600f908201526e10dbdb9d1c9858dd0814185d5cd959608a1b604082015260600190565b90815260200190565b60009081526020902090565b60008219821115612e3557612e35612f1a565b500190565b600082612e4957612e49612f30565b500490565b6000816000190483118215151615612e6857612e68612f1a565b500290565b600082821015612e7f57612e7f612f1a565b500390565b60005b83811015612e9f578181015183820152602001612e87565b83811115610f775750506000910152565b600281046001821680612ec457607f821691505b60208210811415612ee557634e487b7160e01b600052602260045260246000fd5b50919050565b6000600019821415612eff57612eff612f1a565b5060010190565b600082612f1557612f15612f30565b500690565b634e487b7160e01b600052601160045260246000fd5b634e487b7160e01b600052601260045260246000fd5b634e487b7160e01b600052604160045260246000fd5b6001600160e01b0319811681146113aa57600080fdfea2646970667358221220228b2cee0cac91b32082e07a5dbe15b9850894adb13538057dd4ae8271c935b364736f6c63430008000033",
  "linkReferences": {},
  "deployedLinkReferences": {}
}