{
  "_format": "hh-sol-artifact-1",
  "contractName": "TestContract",
  "sourceName": "contracts/TestContract.sol",
  "abi": [
    {
      "inputs": [
        {
          "internalType": "string",
          "name": "_name",
          "type": "string"
        },
        {
          "internalType": "string",
          "name": "_symbol",
          "type": "string"
        },
        {
          "internalType": "string",
          "name": "_initBaseURI",
          "type": "string"
        },
        {
          "internalType": "string",
          "name": "_initNotRevealedUri",
          "type": "string"
        }
      ],
      "stateMutability": "nonpayable",
      "type": "constructor"
    },
    {
      "anonymous": false,
      "inputs": [
        {
          "indexed": true,
          "internalType": "address",
          "name": "owner",
          "type": "address"
        },
        {
          "indexed": true,
          "internalType": "address",
          "name": "approved",
          "type": "address"
        },
        {
          "indexed": true,
          "internalType": "uint256",
          "name": "tokenId",
          "type": "uint256"
        }
      ],
      "name": "Approval",
      "type": "event"
    },
    {
      "anonymous": false,
      "inputs": [
        {
          "indexed": true,
          "internalType": "address",
          "name": "owner",
          "type": "address"
        },
        {
          "indexed": true,
          "internalType": "address",
          "name": "operator",
          "type": "address"
        },
        {
          "indexed": false,
          "internalType": "bool",
          "name": "approved",
          "type": "bool"
        }
      ],
      "name": "ApprovalForAll",
      "type": "event"
    },
    {
      "anonymous": false,
      "inputs": [
        {
          "indexed": true,
          "internalType": "address",
          "name": "previousOwner",
          "type": "address"
        },
        {
          "indexed": true,
          "internalType": "address",
          "name": "newOwner",
          "type": "address"
        }
      ],
      "name": "OwnershipTransferred",
      "type": "event"
    },
    {
      "anonymous": false,
      "inputs": [
        {
          "indexed": true,
          "internalType": "address",
          "name": "from",
          "type": "address"
        },
        {
          "indexed": true,
          "internalType": "address",
          "name": "to",
          "type": "address"
        },
        {
          "indexed": true,
          "internalType": "uint256",
          "name": "tokenId",
          "type": "uint256"
        }
      ],
      "name": "Transfer",
      "type": "event"
    },
    {
      "inputs": [],
      "name": "MAX_PER_TRANSACTION",
      "outputs": [
        {
          "internalType": "uint256",
          "name": "",
          "type": "uint256"
        }
      ],
      "stateMutability": "view",
      "type": "function"
    },
    {
      "inputs": [],
      "name": "MAX_SUPPLY",
      "outputs": [
        {
          "internalType": "uint256",
          "name": "",
          "type": "uint256"
        }
      ],
      "stateMutability": "view",
      "type": "function"
    },
    {
      "inputs": [],
      "name": "PRICE_FIRST",
      "outputs": [
        {
          "internalType": "uint256",
          "name": "",
          "type": "uint256"
        }
      ],
      "stateMutability": "view",
      "type": "function"
    },
    {
      "inputs": [],
      "name": "PRICE_PUBLIC",
      "outputs": [
        {
          "internalType": "uint256",
          "name": "",
          "type": "uint256"
        }
      ],
      "stateMutability": "view",
      "type": "function"
    },
    {
      "inputs": [
        {
          "internalType": "address",
          "name": "to",
          "type": "address"
        },
        {
          "internalType": "uint256",
          "name": "tokenId",
          "type": "uint256"
        }
      ],
      "name": "approve",
      "outputs": [],
      "stateMutability": "nonpayable",
      "type": "function"
    },
    {
      "inputs": [
        {
          "internalType": "address",
          "name": "owner",
          "type": "address"
        }
      ],
      "name": "balanceOf",
      "outputs": [
        {
          "internalType": "uint256",
          "name": "",
          "type": "uint256"
        }
      ],
      "stateMutability": "view",
      "type": "function"
    },
    {
      "inputs": [],
      "name": "baseExtension",
      "outputs": [
        {
          "internalType": "string",
          "name": "",
          "type": "string"
        }
      ],
      "stateMutability": "view",
      "type": "function"
    },
    {
      "inputs": [],
      "name": "baseUri",
      "outputs": [
        {
          "internalType": "string",
          "name": "",
          "type": "string"
        }
      ],
      "stateMutability": "view",
      "type": "function"
    },
    {
      "inputs": [
        {
          "internalType": "uint256",
          "name": "tokenId",
          "type": "uint256"
        }
      ],
      "name": "getApproved",
      "outputs": [
        {
          "internalType": "address",
          "name": "",
          "type": "address"
        }
      ],
      "stateMutability": "view",
      "type": "function"
    },
    {
      "inputs": [
        {
          "internalType": "address",
          "name": "owner",
          "type": "address"
        },
        {
          "internalType": "address",
          "name": "operator",
          "type": "address"
        }
      ],
      "name": "isApprovedForAll",
      "outputs": [
        {
          "internalType": "bool",
          "name": "",
          "type": "bool"
        }
      ],
      "stateMutability": "view",
      "type": "function"
    },
    {
      "inputs": [
        {
          "internalType": "uint256",
          "name": "numberOfTokens",
          "type": "uint256"
        }
      ],
      "name": "mint",
      "outputs": [],
      "stateMutability": "payable",
      "type": "function"
    },
    {
      "inputs": [],
      "name": "name",
      "outputs": [
        {
          "internalType": "string",
          "name": "",
          "type": "string"
        }
      ],
      "stateMutability": "view",
      "type": "function"
    },
    {
      "inputs": [],
      "name": "notRevealedUri",
      "outputs": [
        {
          "internalType": "string",
          "name": "",
          "type": "string"
        }
      ],
      "stateMutability": "view",
      "type": "function"
    },
    {
      "inputs": [],
      "name": "owner",
      "outputs": [
        {
          "internalType": "address",
          "name": "",
          "type": "address"
        }
      ],
      "stateMutability": "view",
      "type": "function"
    },
    {
      "inputs": [
        {
          "internalType": "uint256",
          "name": "tokenId",
          "type": "uint256"
        }
      ],
      "name": "ownerOf",
      "outputs": [
        {
          "internalType": "address",
          "name": "",
          "type": "address"
        }
      ],
      "stateMutability": "view",
      "type": "function"
    },
    {
      "inputs": [],
      "name": "paused",
      "outputs": [
        {
          "internalType": "bool",
          "name": "",
          "type": "bool"
        }
      ],
      "stateMutability": "view",
      "type": "function"
    },
    {
      "inputs": [],
      "name": "pausedWhitelist",
      "outputs": [
        {
          "internalType": "bool",
          "name": "",
          "type": "bool"
        }
      ],
      "stateMutability": "view",
      "type": "function"
    },
    {
      "inputs": [],
      "name": "renounceOwnership",
      "outputs": [],
      "stateMutability": "nonpayable",
      "type": "function"
    },
    {
      "inputs": [
        {
          "internalType": "uint256",
          "name": "numberOfTokens",
          "type": "uint256"
        }
      ],
      "name": "reserve",
      "outputs": [],
      "stateMutability": "nonpayable",
      "type": "function"
    },
    {
      "inputs": [],
      "name": "revealed",
      "outputs": [
        {
          "internalType": "bool",
          "name": "",
          "type": "bool"
        }
      ],
      "stateMutability": "view",
      "type": "function"
    },
    {
      "inputs": [
        {
          "internalType": "address",
          "name": "from",
          "type": "address"
        },
        {
          "internalType": "address",
          "name": "to",
          "type": "address"
        },
        {
          "internalType": "uint256",
          "name": "tokenId",
          "type": "uint256"
        }
      ],
      "name": "safeTransferFrom",
      "outputs": [],
      "stateMutability": "nonpayable",
      "type": "function"
    },
    {
      "inputs": [
        {
          "internalType": "address",
          "name": "from",
          "type": "address"
        },
        {
          "internalType": "address",
          "name": "to",
          "type": "address"
        },
        {
          "internalType": "uint256",
          "name": "tokenId",
          "type": "uint256"
        },
        {
          "internalType": "bytes",
          "name": "_data",
          "type": "bytes"
        }
      ],
      "name": "safeTransferFrom",
      "outputs": [],
      "stateMutability": "nonpayable",
      "type": "function"
    },
    {
      "inputs": [
        {
          "internalType": "address",
          "name": "operator",
          "type": "address"
        },
        {
          "internalType": "bool",
          "name": "approved",
          "type": "bool"
        }
      ],
      "name": "setApprovalForAll",
      "outputs": [],
      "stateMutability": "nonpayable",
      "type": "function"
    },
    {
      "inputs": [
        {
          "internalType": "string",
          "name": "_newBaseExtension",
          "type": "string"
        }
      ],
      "name": "setBaseExtension",
      "outputs": [],
      "stateMutability": "nonpayable",
      "type": "function"
    },
    {
      "inputs": [
        {
          "internalType": "string",
          "name": "newBaseURI",
          "type": "string"
        }
      ],
      "name": "setBaseURI",
      "outputs": [],
      "stateMutability": "nonpayable",
      "type": "function"
    },
    {
      "inputs": [
        {
          "internalType": "string",
          "name": "_notRevealedURI",
          "type": "string"
        }
      ],
      "name": "setNotRevealedURI",
      "outputs": [],
      "stateMutability": "nonpayable",
      "type": "function"
    },
    {
      "inputs": [
        {
          "internalType": "bool",
          "name": "newState",
          "type": "bool"
        }
      ],
      "name": "setPaused",
      "outputs": [],
      "stateMutability": "nonpayable",
      "type": "function"
    },
    {
      "inputs": [
        {
          "internalType": "bool",
          "name": "newState",
          "type": "bool"
        }
      ],
      "name": "setPausedWhitelist",
      "outputs": [],
      "stateMutability": "nonpayable",
      "type": "function"
    },
    {
      "inputs": [
        {
          "internalType": "bytes4",
          "name": "interfaceId",
          "type": "bytes4"
        }
      ],
      "name": "supportsInterface",
      "outputs": [
        {
          "internalType": "bool",
          "name": "",
          "type": "bool"
        }
      ],
      "stateMutability": "view",
      "type": "function"
    },
    {
      "inputs": [],
      "name": "symbol",
      "outputs": [
        {
          "internalType": "string",
          "name": "",
          "type": "string"
        }
      ],
      "stateMutability": "view",
      "type": "function"
    },
    {
      "inputs": [
        {
          "internalType": "uint256",
          "name": "index",
          "type": "uint256"
        }
      ],
      "name": "tokenByIndex",
      "outputs": [
        {
          "internalType": "uint256",
          "name": "",
          "type": "uint256"
        }
      ],
      "stateMutability": "view",
      "type": "function"
    },
    {
      "inputs": [
        {
          "internalType": "address",
          "name": "owner",
          "type": "address"
        },
        {
          "internalType": "uint256",
          "name": "index",
          "type": "uint256"
        }
      ],
      "name": "tokenOfOwnerByIndex",
      "outputs": [
        {
          "internalType": "uint256",
          "name": "",
          "type": "uint256"
        }
      ],
      "stateMutability": "view",
      "type": "function"
    },
    {
      "inputs": [
        {
          "internalType": "uint256",
          "name": "tokenId",
          "type": "uint256"
        }
      ],
      "name": "tokenURI",
      "outputs": [
        {
          "internalType": "string",
          "name": "",
          "type": "string"
        }
      ],
      "stateMutability": "view",
      "type": "function"
    },
    {
      "inputs": [],
      "name": "totalSupply",
      "outputs": [
        {
          "internalType": "uint256",
          "name": "",
          "type": "uint256"
        }
      ],
      "stateMutability": "view",
      "type": "function"
    },
    {
      "inputs": [
        {
          "internalType": "address",
          "name": "from",
          "type": "address"
        },
        {
          "internalType": "address",
          "name": "to",
          "type": "address"
        },
        {
          "internalType": "uint256",
          "name": "tokenId",
          "type": "uint256"
        }
      ],
      "name": "transferFrom",
      "outputs": [],
      "stateMutability": "nonpayable",
      "type": "function"
    },
    {
      "inputs": [
        {
          "internalType": "address",
          "name": "newOwner",
          "type": "address"
        }
      ],
      "name": "transferOwnership",
      "outputs": [],
      "stateMutability": "nonpayable",
      "type": "function"
    },
    {
      "inputs": [
        {
          "internalType": "uint256",
          "name": "numberOfTokens",
          "type": "uint256"
        }
      ],
      "name": "whitelistMint",
      "outputs": [],
      "stateMutability": "payable",
      "type": "function"
    },
    {
      "inputs": [],
      "name": "withdraw",
      "outputs": [],
      "stateMutability": "nonpayable",
      "type": "function"
    }
  ],
  "bytecode": "0x60c06040526005608081905264173539b7b760d91b60a09081526200002891600c919062000226565b50600e805462ff00001961ff001960ff19909216600117919091166101001716905567011c37937e080000600f5567013fbe85edc900006010553480156200006f57600080fd5b5060405162002c6738038062002c67833981016040819052620000929162000377565b835184908490620000ab90600090602085019062000226565b508051620000c190600190602084019062000226565b505050620000de620000d8620000fe60201b60201c565b62000102565b620000e98262000154565b620000f481620001bc565b50505050620004b3565b3390565b600a80546001600160a01b038381166001600160a01b0319831681179093556040519116919082907f8be0079c531659141344cd1fd0a4f28419497f9722a3daafe3b4186f6b6457e090600090a35050565b6200015e620000fe565b6001600160a01b03166200017162000217565b6001600160a01b031614620001a35760405162461bcd60e51b81526004016200019a906200042b565b60405180910390fd5b8051620001b890600b90602084019062000226565b5050565b620001c6620000fe565b6001600160a01b0316620001d962000217565b6001600160a01b031614620002025760405162461bcd60e51b81526004016200019a906200042b565b8051620001b890600d90602084019062000226565b600a546001600160a01b031690565b828054620002349062000460565b90600052602060002090601f016020900481019282620002585760008555620002a3565b82601f106200027357805160ff1916838001178555620002a3565b82800160010185558215620002a3579182015b82811115620002a357825182559160200191906001019062000286565b50620002b1929150620002b5565b5090565b5b80821115620002b15760008155600101620002b6565b600082601f830112620002dd578081fd5b81516001600160401b0380821115620002fa57620002fa6200049d565b6040516020601f8401601f19168201810183811183821017156200032257620003226200049d565b604052838252858401810187101562000339578485fd5b8492505b838310156200035c57858301810151828401820152918201916200033d565b838311156200036d57848185840101525b5095945050505050565b600080600080608085870312156200038d578384fd5b84516001600160401b0380821115620003a4578586fd5b620003b288838901620002cc565b95506020870151915080821115620003c8578485fd5b620003d688838901620002cc565b94506040870151915080821115620003ec578384fd5b620003fa88838901620002cc565b9350606087015191508082111562000410578283fd5b506200041f87828801620002cc565b91505092959194509250565b6020808252818101527f4f776e61626c653a2063616c6c6572206973206e6f7420746865206f776e6572604082015260600190565b6002810460018216806200047557607f821691505b602082108114156200049757634e487b7160e01b600052602260045260246000fd5b50919050565b634e487b7160e01b600052604160045260246000fd5b6127a480620004c36000396000f3fe6080604052600436106102255760003560e01c8063715018a611610123578063a8a4b4f1116100ab578063da3ef23f1161006f578063da3ef23f146105ca578063e985e9c5146105ea578063f2c4ce1e1461060a578063f2fde38b1461062a578063f72ec8291461064a57610225565b8063a8a4b4f11461054b578063b88d4fde14610560578063c668286214610580578063c87b56dd14610595578063cb14eb87146105b557610225565b806395d89b41116100f257806395d89b41146104d95780639abc8320146104ee578063a0712d6814610503578063a22cb46514610516578063a56d77301461053657610225565b8063715018a61461047c578063819b25ba14610491578063868ff4a2146104b15780638da5cb5b146104c457610225565b806332cb6b0c116101b157806355f804b31161017557806355f804b3146103e757806357ae51fb146104075780635c975abb146104275780636352211e1461043c57806370a082311461045c57610225565b806332cb6b0c146103685780633ccfd60b1461037d57806342842e0e146103925780634f6ccce7146103b257806351830227146103d257610225565b8063095ea7b3116101f8578063095ea7b3146102c457806316c38b3c146102e657806318160ddd1461030657806323b872dd146103285780632f745c591461034857610225565b806301ffc9a71461022a57806306fdde0314610260578063081812fc14610282578063081c8c44146102af575b600080fd5b34801561023657600080fd5b5061024a610245366004611e23565b61065f565b6040516102579190611ff8565b60405180910390f35b34801561026c57600080fd5b50610275610672565b6040516102579190612003565b34801561028e57600080fd5b506102a261029d366004611ea1565b610704565b6040516102579190611fa7565b3480156102bb57600080fd5b50610275610750565b3480156102d057600080fd5b506102e46102df366004611de0565b6107de565b005b3480156102f257600080fd5b506102e4610301366004611e09565b610876565b34801561031257600080fd5b5061031b6108c8565b6040516102579190612609565b34801561033457600080fd5b506102e4610343366004611d03565b6108ce565b34801561035457600080fd5b5061031b610363366004611de0565b610906565b34801561037457600080fd5b5061031b610958565b34801561038957600080fd5b506102e461095e565b34801561039e57600080fd5b506102e46103ad366004611d03565b6109d0565b3480156103be57600080fd5b5061031b6103cd366004611ea1565b6109eb565b3480156103de57600080fd5b5061024a610a46565b3480156103f357600080fd5b506102e4610402366004611e5b565b610a55565b34801561041357600080fd5b506102e4610422366004611e09565b610aa7565b34801561043357600080fd5b5061024a610b00565b34801561044857600080fd5b506102a2610457366004611ea1565b610b09565b34801561046857600080fd5b5061031b610477366004611cb7565b610b3e565b34801561048857600080fd5b506102e4610b82565b34801561049d57600080fd5b506102e46104ac366004611ea1565b610bcd565b6102e46104bf366004611ea1565b610c73565b3480156104d057600080fd5b506102a2610d47565b3480156104e557600080fd5b50610275610d56565b3480156104fa57600080fd5b50610275610d65565b6102e4610511366004611ea1565b610d72565b34801561052257600080fd5b506102e4610531366004611db7565b610e7b565b34801561054257600080fd5b5061031b610e8d565b34801561055757600080fd5b5061031b610e93565b34801561056c57600080fd5b506102e461057b366004611d3e565b610e99565b34801561058c57600080fd5b50610275610ed8565b3480156105a157600080fd5b506102756105b0366004611ea1565b610ee5565b3480156105c157600080fd5b5061031b61100d565b3480156105d657600080fd5b506102e46105e5366004611e5b565b611012565b3480156105f657600080fd5b5061024a610605366004611cd1565b611064565b34801561061657600080fd5b506102e4610625366004611e5b565b611092565b34801561063657600080fd5b506102e4610645366004611cb7565b6110e4565b34801561065657600080fd5b5061024a611155565b600061066a82611163565b90505b919050565b606060008054610681906126ac565b80601f01602080910402602001604051908101604052809291908181526020018280546106ad906126ac565b80156106fa5780601f106106cf576101008083540402835291602001916106fa565b820191906000526020600020905b8154815290600101906020018083116106dd57829003601f168201915b5050505050905090565b600061070f82611188565b6107345760405162461bcd60e51b815260040161072b9061237b565b60405180910390fd5b506000908152600460205260409020546001600160a01b031690565b600d805461075d906126ac565b80601f0160208091040260200160405190810160405280929190818152602001828054610789906126ac565b80156107d65780601f106107ab576101008083540402835291602001916107d6565b820191906000526020600020905b8154815290600101906020018083116107b957829003601f168201915b505050505081565b60006107e982610b09565b9050806001600160a01b0316836001600160a01b0316141561081d5760405162461bcd60e51b815260040161072b906124cb565b806001600160a01b031661082f6111a5565b6001600160a01b0316148061084b575061084b816106056111a5565b6108675760405162461bcd60e51b815260040161072b90612256565b61087183836111a9565b505050565b61087e6111a5565b6001600160a01b031661088f610d47565b6001600160a01b0316146108b55760405162461bcd60e51b815260040161072b906123c7565b600e805460ff1916911515919091179055565b60085490565b6108df6108d96111a5565b82611217565b6108fb5760405162461bcd60e51b815260040161072b90612543565b61087183838361129c565b600061091183610b3e565b821061092f5760405162461bcd60e51b815260040161072b90612040565b506001600160a01b03919091166000908152600660209081526040808320938352929052205490565b614e1f81565b6109666111a5565b6001600160a01b0316610977610d47565b6001600160a01b03161461099d5760405162461bcd60e51b815260040161072b906123c7565b6040514790339082156108fc029083906000818181858888f193505050501580156109cc573d6000803e3d6000fd5b5050565b61087183838360405180602001604052806000815250610e99565b60006109f56108c8565b8210610a135760405162461bcd60e51b815260040161072b90612594565b60088281548110610a3457634e487b7160e01b600052603260045260246000fd5b90600052602060002001549050919050565b600e5462010000900460ff1681565b610a5d6111a5565b6001600160a01b0316610a6e610d47565b6001600160a01b031614610a945760405162461bcd60e51b815260040161072b906123c7565b80516109cc90600b906020840190611b87565b610aaf6111a5565b6001600160a01b0316610ac0610d47565b6001600160a01b031614610ae65760405162461bcd60e51b815260040161072b906123c7565b600e80549115156101000261ff0019909216919091179055565b600e5460ff1681565b6000818152600260205260408120546001600160a01b03168061066a5760405162461bcd60e51b815260040161072b906122fd565b60006001600160a01b038216610b665760405162461bcd60e51b815260040161072b906122b3565b506001600160a01b031660009081526003602052604090205490565b610b8a6111a5565b6001600160a01b0316610b9b610d47565b6001600160a01b031614610bc15760405162461bcd60e51b815260040161072b906123c7565b610bcb60006113c9565b565b610bd56111a5565b6001600160a01b0316610be6610d47565b6001600160a01b031614610c0c5760405162461bcd60e51b815260040161072b906123c7565b6000610c166108c8565b9050614e1f610c25838361261e565b1115610c435760405162461bcd60e51b815260040161072b90612123565b60005b8281101561087157610c6133610c5c838561261e565b61141b565b80610c6b816126e7565b915050610c46565b6000610c7d6108c8565b600e54909150610100900460ff1615610ca85760405162461bcd60e51b815260040161072b90612016565b601e821115610cc95760405162461bcd60e51b815260040161072b9061250c565b614e1f610cd6838361261e565b1115610cf45760405162461bcd60e51b815260040161072b90612123565b610d0082600f54611435565b610d1c5760405162461bcd60e51b815260040161072b906123fc565b60005b8281101561087157610d3533610c5c838561261e565b80610d3f816126e7565b915050610d1f565b600a546001600160a01b031690565b606060018054610681906126ac565b600b805461075d906126ac565b6000610d7c6108c8565b600e5490915060ff1615610da25760405162461bcd60e51b815260040161072b906125e0565b601e821115610dc35760405162461bcd60e51b815260040161072b9061250c565b614e1f610dd0838361261e565b1115610dee5760405162461bcd60e51b815260040161072b90612123565b610df733610b3e565b610e2857610e0782600f54611435565b610e235760405162461bcd60e51b815260040161072b906123fc565b610e50565b610e3482601054611435565b610e505760405162461bcd60e51b815260040161072b906123fc565b60005b8281101561087157610e6933610c5c838561261e565b80610e73816126e7565b915050610e53565b6109cc610e866111a5565b8383611469565b60105481565b600f5481565b610eaa610ea46111a5565b83611217565b610ec65760405162461bcd60e51b815260040161072b90612543565b610ed28484848461150c565b50505050565b600c805461075d906126ac565b6060610ef082611188565b610f0c5760405162461bcd60e51b815260040161072b9061247c565b600e5462010000900460ff16610fae57600d8054610f29906126ac565b80601f0160208091040260200160405190810160405280929190818152602001828054610f55906126ac565b8015610fa25780601f10610f7757610100808354040283529160200191610fa2565b820191906000526020600020905b815481529060010190602001808311610f8557829003601f168201915b5050505050905061066d565b6000610fb861153f565b90506000815111610fd85760405180602001604052806000815250611006565b80610fe28461154e565b600c604051602001610ff693929190611ee5565b6040516020818303038152906040525b9392505050565b601e81565b61101a6111a5565b6001600160a01b031661102b610d47565b6001600160a01b0316146110515760405162461bcd60e51b815260040161072b906123c7565b80516109cc90600c906020840190611b87565b6001600160a01b03918216600090815260056020908152604080832093909416825291909152205460ff1690565b61109a6111a5565b6001600160a01b03166110ab610d47565b6001600160a01b0316146110d15760405162461bcd60e51b815260040161072b906123c7565b80516109cc90600d906020840190611b87565b6110ec6111a5565b6001600160a01b03166110fd610d47565b6001600160a01b0316146111235760405162461bcd60e51b815260040161072b906123c7565b6001600160a01b0381166111495760405162461bcd60e51b815260040161072b906120dd565b611152816113c9565b50565b600e54610100900460ff1681565b60006001600160e01b0319821663780e9d6360e01b148061066a575061066a82611669565b6000908152600260205260409020546001600160a01b0316151590565b3390565b600081815260046020526040902080546001600160a01b0319166001600160a01b03841690811790915581906111de82610b09565b6001600160a01b03167f8c5be1e5ebec7d5bd14f71427d1e84f3dd0314c0f7b2291e5b200ac8c7c3b92560405160405180910390a45050565b600061122282611188565b61123e5760405162461bcd60e51b815260040161072b9061220a565b600061124983610b09565b9050806001600160a01b0316846001600160a01b031614806112845750836001600160a01b031661127984610704565b6001600160a01b0316145b8061129457506112948185611064565b949350505050565b826001600160a01b03166112af82610b09565b6001600160a01b0316146112d55760405162461bcd60e51b815260040161072b90612433565b6001600160a01b0382166112fb5760405162461bcd60e51b815260040161072b9061218f565b6113068383836116a9565b6113116000826111a9565b6001600160a01b038316600090815260036020526040812080546001929061133a908490612669565b90915550506001600160a01b038216600090815260036020526040812080546001929061136890849061261e565b909155505060008181526002602052604080822080546001600160a01b0319166001600160a01b0386811691821790925591518493918716917fddf252ad1be2c89b69c2b068fc378daa952ba7f163c4a11628f55a4df523b3ef91a4505050565b600a80546001600160a01b038381166001600160a01b0319831681179093556040519116919082907f8be0079c531659141344cd1fd0a4f28419497f9722a3daafe3b4186f6b6457e090600090a35050565b6109cc8282604051806020016040528060008152506116b4565b600080611443600185612669565b6114549066d529ae9e86000061264a565b61145e908461261e565b341015949350505050565b816001600160a01b0316836001600160a01b0316141561149b5760405162461bcd60e51b815260040161072b906121d3565b6001600160a01b0383811660008181526005602090815260408083209487168084529490915290819020805460ff1916851515179055517f17307eab39ab6107e8899845ad3d59bd9653f200f220920489ca2b5937696c31906114ff908590611ff8565b60405180910390a3505050565b61151784848461129c565b611523848484846116e7565b610ed25760405162461bcd60e51b815260040161072b9061208b565b6060600b8054610681906126ac565b60608161157357506040805180820190915260018152600360fc1b602082015261066d565b8160005b811561159d5780611587816126e7565b91506115969050600a83612636565b9150611577565b60008167ffffffffffffffff8111156115c657634e487b7160e01b600052604160045260246000fd5b6040519080825280601f01601f1916602001820160405280156115f0576020820181803683370190505b5090505b841561129457611605600183612669565b9150611612600a86612702565b61161d90603061261e565b60f81b81838151811061164057634e487b7160e01b600052603260045260246000fd5b60200101906001600160f81b031916908160001a905350611662600a86612636565b94506115f4565b60006001600160e01b031982166380ac58cd60e01b148061169a57506001600160e01b03198216635b5e139f60e01b145b8061066a575061066a82611802565b61087183838361181b565b6116be83836118a4565b6116cb60008484846116e7565b6108715760405162461bcd60e51b815260040161072b9061208b565b60006116fb846001600160a01b0316611983565b156117f757836001600160a01b031663150b7a026117176111a5565b8786866040518563ffffffff1660e01b81526004016117399493929190611fbb565b602060405180830381600087803b15801561175357600080fd5b505af1925050508015611783575060408051601f3d908101601f1916820190925261178091810190611e3f565b60015b6117dd573d8080156117b1576040519150601f19603f3d011682016040523d82523d6000602084013e6117b6565b606091505b5080516117d55760405162461bcd60e51b815260040161072b9061208b565b805181602001fd5b6001600160e01b031916630a85bd0160e11b149050611294565b506001949350505050565b6001600160e01b031981166301ffc9a760e01b14919050565b611826838383610871565b6001600160a01b0383166118425761183d81611989565b611865565b816001600160a01b0316836001600160a01b0316146118655761186583826119cd565b6001600160a01b0382166118815761187c81611a6a565b610871565b826001600160a01b0316826001600160a01b031614610871576108718282611b43565b6001600160a01b0382166118ca5760405162461bcd60e51b815260040161072b90612346565b6118d381611188565b156118f05760405162461bcd60e51b815260040161072b90612158565b6118fc600083836116a9565b6001600160a01b038216600090815260036020526040812080546001929061192590849061261e565b909155505060008181526002602052604080822080546001600160a01b0319166001600160a01b03861690811790915590518392907fddf252ad1be2c89b69c2b068fc378daa952ba7f163c4a11628f55a4df523b3ef908290a45050565b3b151590565b600880546000838152600960205260408120829055600182018355919091527ff3f7a9fe364faab93b216da50a3214154f22a0a2b415b23a84c8169e8b636ee30155565b600060016119da84610b3e565b6119e49190612669565b600083815260076020526040902054909150808214611a37576001600160a01b03841660009081526006602090815260408083208584528252808320548484528184208190558352600790915290208190555b5060009182526007602090815260408084208490556001600160a01b039094168352600681528383209183525290812055565b600854600090611a7c90600190612669565b60008381526009602052604081205460088054939450909284908110611ab257634e487b7160e01b600052603260045260246000fd5b906000526020600020015490508060088381548110611ae157634e487b7160e01b600052603260045260246000fd5b6000918252602080832090910192909255828152600990915260408082208490558582528120556008805480611b2757634e487b7160e01b600052603160045260246000fd5b6001900381819060005260206000200160009055905550505050565b6000611b4e83610b3e565b6001600160a01b039093166000908152600660209081526040808320868452825280832085905593825260079052919091209190915550565b828054611b93906126ac565b90600052602060002090601f016020900481019282611bb55760008555611bfb565b82601f10611bce57805160ff1916838001178555611bfb565b82800160010185558215611bfb579182015b82811115611bfb578251825591602001919060010190611be0565b50611c07929150611c0b565b5090565b5b80821115611c075760008155600101611c0c565b600067ffffffffffffffff80841115611c3b57611c3b612742565b604051601f8501601f191681016020018281118282101715611c5f57611c5f612742565b604052848152915081838501861015611c7757600080fd5b8484602083013760006020868301015250509392505050565b80356001600160a01b038116811461066d57600080fd5b8035801515811461066d57600080fd5b600060208284031215611cc8578081fd5b61100682611c90565b60008060408385031215611ce3578081fd5b611cec83611c90565b9150611cfa60208401611c90565b90509250929050565b600080600060608486031215611d17578081fd5b611d2084611c90565b9250611d2e60208501611c90565b9150604084013590509250925092565b60008060008060808587031215611d53578081fd5b611d5c85611c90565b9350611d6a60208601611c90565b925060408501359150606085013567ffffffffffffffff811115611d8c578182fd5b8501601f81018713611d9c578182fd5b611dab87823560208401611c20565b91505092959194509250565b60008060408385031215611dc9578182fd5b611dd283611c90565b9150611cfa60208401611ca7565b60008060408385031215611df2578182fd5b611dfb83611c90565b946020939093013593505050565b600060208284031215611e1a578081fd5b61100682611ca7565b600060208284031215611e34578081fd5b813561100681612758565b600060208284031215611e50578081fd5b815161100681612758565b600060208284031215611e6c578081fd5b813567ffffffffffffffff811115611e82578182fd5b8201601f81018413611e92578182fd5b61129484823560208401611c20565b600060208284031215611eb2578081fd5b5035919050565b60008151808452611ed1816020860160208601612680565b601f01601f19169290920160200192915050565b600084516020611ef88285838a01612680565b855191840191611f0b8184848a01612680565b8554920191839060028104600180831680611f2757607f831692505b858310811415611f4557634e487b7160e01b88526022600452602488fd5b808015611f595760018114611f6a57611f96565b60ff19851688528388019550611f96565b611f738b612612565b895b85811015611f8e5781548a820152908401908801611f75565b505083880195505b50939b9a5050505050505050505050565b6001600160a01b0391909116815260200190565b6001600160a01b0385811682528416602082015260408101839052608060608201819052600090611fee90830184611eb9565b9695505050505050565b901515815260200190565b6000602082526110066020830184611eb9565b60208082526010908201526f15da1a5d195b1a5cdd0814185d5cd95960821b604082015260600190565b6020808252602b908201527f455243373231456e756d657261626c653a206f776e657220696e646578206f7560408201526a74206f6620626f756e647360a81b606082015260800190565b60208082526032908201527f4552433732313a207472616e7366657220746f206e6f6e20455243373231526560408201527131b2b4bb32b91034b6b83632b6b2b73a32b960711b606082015260800190565b60208082526026908201527f4f776e61626c653a206e6577206f776e657220697320746865207a65726f206160408201526564647265737360d01b606082015260800190565b6020808252818101527f507572636861736520776f756c6420657863656564206d617820746f6b656e73604082015260600190565b6020808252601c908201527f4552433732313a20746f6b656e20616c7265616479206d696e74656400000000604082015260600190565b60208082526024908201527f4552433732313a207472616e7366657220746f20746865207a65726f206164646040820152637265737360e01b606082015260800190565b60208082526019908201527f4552433732313a20617070726f766520746f2063616c6c657200000000000000604082015260600190565b6020808252602c908201527f4552433732313a206f70657261746f7220717565727920666f72206e6f6e657860408201526b34b9ba32b73a103a37b5b2b760a11b606082015260800190565b60208082526038908201527f4552433732313a20617070726f76652063616c6c6572206973206e6f74206f7760408201527f6e6572206e6f7220617070726f76656420666f7220616c6c0000000000000000606082015260800190565b6020808252602a908201527f4552433732313a2062616c616e636520717565727920666f7220746865207a65604082015269726f206164647265737360b01b606082015260800190565b60208082526029908201527f4552433732313a206f776e657220717565727920666f72206e6f6e657869737460408201526832b73a103a37b5b2b760b91b606082015260800190565b6020808252818101527f4552433732313a206d696e7420746f20746865207a65726f2061646472657373604082015260600190565b6020808252602c908201527f4552433732313a20617070726f76656420717565727920666f72206e6f6e657860408201526b34b9ba32b73a103a37b5b2b760a11b606082015260800190565b6020808252818101527f4f776e61626c653a2063616c6c6572206973206e6f7420746865206f776e6572604082015260600190565b6020808252601b908201527f45746865722076616c756573206973206e6f7420636f72726563740000000000604082015260600190565b60208082526029908201527f4552433732313a207472616e73666572206f6620746f6b656e2074686174206960408201526839903737ba1037bbb760b91b606082015260800190565b6020808252602f908201527f4552433732314d657461646174613a2055524920717565727920666f72206e6f60408201526e3732bc34b9ba32b73a103a37b5b2b760891b606082015260800190565b60208082526021908201527f4552433732313a20617070726f76616c20746f2063757272656e74206f776e656040820152603960f91b606082015260800190565b6020808252601b908201527f4578636565646564206d617820746f6b656e2070757263686173650000000000604082015260600190565b60208082526031908201527f4552433732313a207472616e736665722063616c6c6572206973206e6f74206f6040820152701ddb995c881b9bdc88185c1c1c9bdd9959607a1b606082015260800190565b6020808252602c908201527f455243373231456e756d657261626c653a20676c6f62616c20696e646578206f60408201526b7574206f6620626f756e647360a01b606082015260800190565b6020808252600f908201526e10dbdb9d1c9858dd0814185d5cd959608a1b604082015260600190565b90815260200190565b60009081526020902090565b6000821982111561263157612631612716565b500190565b6000826126455761264561272c565b500490565b600081600019048311821515161561266457612664612716565b500290565b60008282101561267b5761267b612716565b500390565b60005b8381101561269b578181015183820152602001612683565b83811115610ed25750506000910152565b6002810460018216806126c057607f821691505b602082108114156126e157634e487b7160e01b600052602260045260246000fd5b50919050565b60006000198214156126fb576126fb612716565b5060010190565b6000826127115761271161272c565b500690565b634e487b7160e01b600052601160045260246000fd5b634e487b7160e01b600052601260045260246000fd5b634e487b7160e01b600052604160045260246000fd5b6001600160e01b03198116811461115257600080fdfea2646970667358221220500a059e2c2cee4e13735e5efa1efe4a340a5e10d3c93d146b692b38892b018764736f6c63430008000033",
  "linkReferences": {},
  "deployedLinkReferences": {}
}