{
  "_format": "hh-sol-artifact-1",
  "contractName": "TestContract",
  "sourceName": "contracts/TestContract.sol",
  "abi": [
    {
      "inputs": [
        {
          "internalType": "string",
          "name": "_name",
          "type": "string"
        },
        {
          "internalType": "string",
          "name": "_symbol",
          "type": "string"
        },
        {
          "internalType": "address",
          "name": "_signer",
          "type": "address"
        },
        {
          "internalType": "string",
          "name": "_initBaseURI",
          "type": "string"
        },
        {
          "internalType": "string",
          "name": "_initNotRevealedUri",
          "type": "string"
        }
      ],
      "stateMutability": "nonpayable",
      "type": "constructor"
    },
    {
      "anonymous": false,
      "inputs": [
        {
          "indexed": true,
          "internalType": "address",
          "name": "owner",
          "type": "address"
        },
        {
          "indexed": true,
          "internalType": "address",
          "name": "approved",
          "type": "address"
        },
        {
          "indexed": true,
          "internalType": "uint256",
          "name": "tokenId",
          "type": "uint256"
        }
      ],
      "name": "Approval",
      "type": "event"
    },
    {
      "anonymous": false,
      "inputs": [
        {
          "indexed": true,
          "internalType": "address",
          "name": "owner",
          "type": "address"
        },
        {
          "indexed": true,
          "internalType": "address",
          "name": "operator",
          "type": "address"
        },
        {
          "indexed": false,
          "internalType": "bool",
          "name": "approved",
          "type": "bool"
        }
      ],
      "name": "ApprovalForAll",
      "type": "event"
    },
    {
      "anonymous": false,
      "inputs": [
        {
          "indexed": true,
          "internalType": "address",
          "name": "previousOwner",
          "type": "address"
        },
        {
          "indexed": true,
          "internalType": "address",
          "name": "newOwner",
          "type": "address"
        }
      ],
      "name": "OwnershipTransferred",
      "type": "event"
    },
    {
      "anonymous": false,
      "inputs": [
        {
          "indexed": true,
          "internalType": "address",
          "name": "from",
          "type": "address"
        },
        {
          "indexed": true,
          "internalType": "address",
          "name": "to",
          "type": "address"
        },
        {
          "indexed": true,
          "internalType": "uint256",
          "name": "tokenId",
          "type": "uint256"
        }
      ],
      "name": "Transfer",
      "type": "event"
    },
    {
      "inputs": [],
      "name": "MAX_PER_TRANSACTION",
      "outputs": [
        {
          "internalType": "uint256",
          "name": "",
          "type": "uint256"
        }
      ],
      "stateMutability": "view",
      "type": "function"
    },
    {
      "inputs": [],
      "name": "MAX_SUPPLY",
      "outputs": [
        {
          "internalType": "uint256",
          "name": "",
          "type": "uint256"
        }
      ],
      "stateMutability": "view",
      "type": "function"
    },
    {
      "inputs": [],
      "name": "PRICE_FIRST",
      "outputs": [
        {
          "internalType": "uint256",
          "name": "",
          "type": "uint256"
        }
      ],
      "stateMutability": "view",
      "type": "function"
    },
    {
      "inputs": [],
      "name": "PRICE_PUBLIC",
      "outputs": [
        {
          "internalType": "uint256",
          "name": "",
          "type": "uint256"
        }
      ],
      "stateMutability": "view",
      "type": "function"
    },
    {
      "inputs": [
        {
          "internalType": "address",
          "name": "to",
          "type": "address"
        },
        {
          "internalType": "uint256",
          "name": "tokenId",
          "type": "uint256"
        }
      ],
      "name": "approve",
      "outputs": [],
      "stateMutability": "nonpayable",
      "type": "function"
    },
    {
      "inputs": [
        {
          "internalType": "address",
          "name": "owner",
          "type": "address"
        }
      ],
      "name": "balanceOf",
      "outputs": [
        {
          "internalType": "uint256",
          "name": "",
          "type": "uint256"
        }
      ],
      "stateMutability": "view",
      "type": "function"
    },
    {
      "inputs": [],
      "name": "baseExtension",
      "outputs": [
        {
          "internalType": "string",
          "name": "",
          "type": "string"
        }
      ],
      "stateMutability": "view",
      "type": "function"
    },
    {
      "inputs": [],
      "name": "baseUri",
      "outputs": [
        {
          "internalType": "string",
          "name": "",
          "type": "string"
        }
      ],
      "stateMutability": "view",
      "type": "function"
    },
    {
      "inputs": [
        {
          "internalType": "uint256",
          "name": "tokenId",
          "type": "uint256"
        }
      ],
      "name": "getApproved",
      "outputs": [
        {
          "internalType": "address",
          "name": "",
          "type": "address"
        }
      ],
      "stateMutability": "view",
      "type": "function"
    },
    {
      "inputs": [
        {
          "internalType": "address",
          "name": "owner",
          "type": "address"
        },
        {
          "internalType": "address",
          "name": "operator",
          "type": "address"
        }
      ],
      "name": "isApprovedForAll",
      "outputs": [
        {
          "internalType": "bool",
          "name": "",
          "type": "bool"
        }
      ],
      "stateMutability": "view",
      "type": "function"
    },
    {
      "inputs": [
        {
          "internalType": "uint256",
          "name": "numberOfTokens",
          "type": "uint256"
        }
      ],
      "name": "mint",
      "outputs": [],
      "stateMutability": "payable",
      "type": "function"
    },
    {
      "inputs": [],
      "name": "name",
      "outputs": [
        {
          "internalType": "string",
          "name": "",
          "type": "string"
        }
      ],
      "stateMutability": "view",
      "type": "function"
    },
    {
      "inputs": [],
      "name": "notRevealedUri",
      "outputs": [
        {
          "internalType": "string",
          "name": "",
          "type": "string"
        }
      ],
      "stateMutability": "view",
      "type": "function"
    },
    {
      "inputs": [],
      "name": "owner",
      "outputs": [
        {
          "internalType": "address",
          "name": "",
          "type": "address"
        }
      ],
      "stateMutability": "view",
      "type": "function"
    },
    {
      "inputs": [
        {
          "internalType": "uint256",
          "name": "tokenId",
          "type": "uint256"
        }
      ],
      "name": "ownerOf",
      "outputs": [
        {
          "internalType": "address",
          "name": "",
          "type": "address"
        }
      ],
      "stateMutability": "view",
      "type": "function"
    },
    {
      "inputs": [],
      "name": "paused",
      "outputs": [
        {
          "internalType": "bool",
          "name": "",
          "type": "bool"
        }
      ],
      "stateMutability": "view",
      "type": "function"
    },
    {
      "inputs": [],
      "name": "pausedWhitelist",
      "outputs": [
        {
          "internalType": "bool",
          "name": "",
          "type": "bool"
        }
      ],
      "stateMutability": "view",
      "type": "function"
    },
    {
      "inputs": [
        {
          "internalType": "address",
          "name": "_sender",
          "type": "address"
        },
        {
          "internalType": "bytes",
          "name": "_signature",
          "type": "bytes"
        }
      ],
      "name": "recoverData",
      "outputs": [
        {
          "internalType": "address",
          "name": "_data",
          "type": "address"
        }
      ],
      "stateMutability": "pure",
      "type": "function"
    },
    {
      "inputs": [],
      "name": "renounceOwnership",
      "outputs": [],
      "stateMutability": "nonpayable",
      "type": "function"
    },
    {
      "inputs": [
        {
          "internalType": "uint256",
          "name": "numberOfTokens",
          "type": "uint256"
        }
      ],
      "name": "reserve",
      "outputs": [],
      "stateMutability": "nonpayable",
      "type": "function"
    },
    {
      "inputs": [],
      "name": "revealed",
      "outputs": [
        {
          "internalType": "bool",
          "name": "",
          "type": "bool"
        }
      ],
      "stateMutability": "view",
      "type": "function"
    },
    {
      "inputs": [
        {
          "internalType": "address",
          "name": "from",
          "type": "address"
        },
        {
          "internalType": "address",
          "name": "to",
          "type": "address"
        },
        {
          "internalType": "uint256",
          "name": "tokenId",
          "type": "uint256"
        }
      ],
      "name": "safeTransferFrom",
      "outputs": [],
      "stateMutability": "nonpayable",
      "type": "function"
    },
    {
      "inputs": [
        {
          "internalType": "address",
          "name": "from",
          "type": "address"
        },
        {
          "internalType": "address",
          "name": "to",
          "type": "address"
        },
        {
          "internalType": "uint256",
          "name": "tokenId",
          "type": "uint256"
        },
        {
          "internalType": "bytes",
          "name": "_data",
          "type": "bytes"
        }
      ],
      "name": "safeTransferFrom",
      "outputs": [],
      "stateMutability": "nonpayable",
      "type": "function"
    },
    {
      "inputs": [
        {
          "internalType": "address",
          "name": "operator",
          "type": "address"
        },
        {
          "internalType": "bool",
          "name": "approved",
          "type": "bool"
        }
      ],
      "name": "setApprovalForAll",
      "outputs": [],
      "stateMutability": "nonpayable",
      "type": "function"
    },
    {
      "inputs": [
        {
          "internalType": "string",
          "name": "_newBaseExtension",
          "type": "string"
        }
      ],
      "name": "setBaseExtension",
      "outputs": [],
      "stateMutability": "nonpayable",
      "type": "function"
    },
    {
      "inputs": [
        {
          "internalType": "string",
          "name": "newBaseURI",
          "type": "string"
        }
      ],
      "name": "setBaseURI",
      "outputs": [],
      "stateMutability": "nonpayable",
      "type": "function"
    },
    {
      "inputs": [
        {
          "internalType": "string",
          "name": "_notRevealedURI",
          "type": "string"
        }
      ],
      "name": "setNotRevealedURI",
      "outputs": [],
      "stateMutability": "nonpayable",
      "type": "function"
    },
    {
      "inputs": [
        {
          "internalType": "bool",
          "name": "newState",
          "type": "bool"
        }
      ],
      "name": "setPaused",
      "outputs": [],
      "stateMutability": "nonpayable",
      "type": "function"
    },
    {
      "inputs": [
        {
          "internalType": "bool",
          "name": "newState",
          "type": "bool"
        }
      ],
      "name": "setPausedWhitelist",
      "outputs": [],
      "stateMutability": "nonpayable",
      "type": "function"
    },
    {
      "inputs": [
        {
          "internalType": "address",
          "name": "newSigner",
          "type": "address"
        }
      ],
      "name": "setSigner",
      "outputs": [],
      "stateMutability": "nonpayable",
      "type": "function"
    },
    {
      "inputs": [
        {
          "internalType": "bytes4",
          "name": "interfaceId",
          "type": "bytes4"
        }
      ],
      "name": "supportsInterface",
      "outputs": [
        {
          "internalType": "bool",
          "name": "",
          "type": "bool"
        }
      ],
      "stateMutability": "view",
      "type": "function"
    },
    {
      "inputs": [],
      "name": "symbol",
      "outputs": [
        {
          "internalType": "string",
          "name": "",
          "type": "string"
        }
      ],
      "stateMutability": "view",
      "type": "function"
    },
    {
      "inputs": [
        {
          "internalType": "uint256",
          "name": "index",
          "type": "uint256"
        }
      ],
      "name": "tokenByIndex",
      "outputs": [
        {
          "internalType": "uint256",
          "name": "",
          "type": "uint256"
        }
      ],
      "stateMutability": "view",
      "type": "function"
    },
    {
      "inputs": [
        {
          "internalType": "address",
          "name": "owner",
          "type": "address"
        },
        {
          "internalType": "uint256",
          "name": "index",
          "type": "uint256"
        }
      ],
      "name": "tokenOfOwnerByIndex",
      "outputs": [
        {
          "internalType": "uint256",
          "name": "",
          "type": "uint256"
        }
      ],
      "stateMutability": "view",
      "type": "function"
    },
    {
      "inputs": [
        {
          "internalType": "uint256",
          "name": "tokenId",
          "type": "uint256"
        }
      ],
      "name": "tokenURI",
      "outputs": [
        {
          "internalType": "string",
          "name": "",
          "type": "string"
        }
      ],
      "stateMutability": "view",
      "type": "function"
    },
    {
      "inputs": [],
      "name": "totalSupply",
      "outputs": [
        {
          "internalType": "uint256",
          "name": "",
          "type": "uint256"
        }
      ],
      "stateMutability": "view",
      "type": "function"
    },
    {
      "inputs": [
        {
          "internalType": "address",
          "name": "from",
          "type": "address"
        },
        {
          "internalType": "address",
          "name": "to",
          "type": "address"
        },
        {
          "internalType": "uint256",
          "name": "tokenId",
          "type": "uint256"
        }
      ],
      "name": "transferFrom",
      "outputs": [],
      "stateMutability": "nonpayable",
      "type": "function"
    },
    {
      "inputs": [
        {
          "internalType": "address",
          "name": "newOwner",
          "type": "address"
        }
      ],
      "name": "transferOwnership",
      "outputs": [],
      "stateMutability": "nonpayable",
      "type": "function"
    },
    {
      "inputs": [
        {
          "internalType": "uint256",
          "name": "numberOfTokens",
          "type": "uint256"
        },
        {
          "internalType": "bytes",
          "name": "_signature",
          "type": "bytes"
        }
      ],
      "name": "whitelistMint",
      "outputs": [],
      "stateMutability": "payable",
      "type": "function"
    },
    {
      "inputs": [],
      "name": "withdraw",
      "outputs": [],
      "stateMutability": "nonpayable",
      "type": "function"
    }
  ],
  "bytecode": "0x60c06040526005608081905264173539b7b760d91b60a09081526200002891600c9190620002c3565b50600e805462ff00001961ff001960ff19909216600117919091166101001716905567011c37937e080000600f5567013fbe85edc900006010553480156200006f57600080fd5b506040516200344c3803806200344c833981016040819052620000929162000414565b845185908590620000ab906000906020850190620002c3565b508051620000c1906001906020840190620002c3565b505050620000de620000d86200010a60201b60201c565b6200010e565b620000e98262000160565b620000f481620001c8565b620000ff8362000223565b50505050506200059c565b3390565b600a80546001600160a01b038381166001600160a01b0319831681179093556040519116919082907f8be0079c531659141344cd1fd0a4f28419497f9722a3daafe3b4186f6b6457e090600090a35050565b6200016a6200010a565b6001600160a01b03166200017d620002b4565b6001600160a01b031614620001af5760405162461bcd60e51b8152600401620001a690620004e9565b60405180910390fd5b8051620001c490600b906020840190620002c3565b5050565b620001d26200010a565b6001600160a01b0316620001e5620002b4565b6001600160a01b0316146200020e5760405162461bcd60e51b8152600401620001a690620004e9565b8051620001c490600d906020840190620002c3565b6200022d6200010a565b6001600160a01b031662000240620002b4565b6001600160a01b031614620002695760405162461bcd60e51b8152600401620001a690620004e9565b6001600160a01b038116620002925760405162461bcd60e51b8152600401620001a6906200051e565b601180546001600160a01b0319166001600160a01b0392909216919091179055565b600a546001600160a01b031690565b828054620002d19062000549565b90600052602060002090601f016020900481019282620002f5576000855562000340565b82601f106200031057805160ff191683800117855562000340565b8280016001018555821562000340579182015b828111156200034057825182559160200191906001019062000323565b506200034e92915062000352565b5090565b5b808211156200034e576000815560010162000353565b600082601f8301126200037a578081fd5b81516001600160401b038082111562000397576200039762000586565b6040516020601f8401601f1916820181018381118382101715620003bf57620003bf62000586565b6040528382528584018101871015620003d6578485fd5b8492505b83831015620003f95785830181015182840182015291820191620003da565b838311156200040a57848185840101525b5095945050505050565b600080600080600060a086880312156200042c578081fd5b85516001600160401b038082111562000443578283fd5b6200045189838a0162000369565b9650602088015191508082111562000467578283fd5b6200047589838a0162000369565b604089015190965091506001600160a01b038216821462000494578283fd5b606088015191945080821115620004a9578283fd5b620004b789838a0162000369565b93506080880151915080821115620004cd578283fd5b50620004dc8882890162000369565b9150509295509295909350565b6020808252818101527f4f776e61626c653a2063616c6c6572206973206e6f7420746865206f776e6572604082015260600190565b602080825260119082015270696e636f7272656374206164647265737360781b604082015260600190565b6002810460018216806200055e57607f821691505b602082108114156200058057634e487b7160e01b600052602260045260246000fd5b50919050565b634e487b7160e01b600052604160045260246000fd5b612ea080620005ac6000396000f3fe60806040526004361061023b5760003560e01c8063715018a61161012e578063a8a4b4f1116100ab578063da3ef23f1161006f578063da3ef23f14610620578063e985e9c514610640578063f2c4ce1e14610660578063f2fde38b14610680578063f72ec829146106a05761023b565b8063a8a4b4f1146105a1578063b88d4fde146105b6578063c6682862146105d6578063c87b56dd146105eb578063cb14eb871461060b5761023b565b80639abc8320116100f25780639abc8320146105315780639e852f7514610546578063a0712d6814610559578063a22cb4651461056c578063a56d77301461058c5761023b565b8063715018a6146104b2578063819b25ba146104c7578063844847f6146104e75780638da5cb5b1461050757806395d89b411461051c5761023b565b80633ccfd60b116101bc57806357ae51fb1161018057806357ae51fb1461041d5780635c975abb1461043d5780636352211e146104525780636c19e7831461047257806370a08231146104925761023b565b80633ccfd60b1461039357806342842e0e146103a85780634f6ccce7146103c857806351830227146103e857806355f804b3146103fd5761023b565b806316c38b3c1161020357806316c38b3c146102fc57806318160ddd1461031c57806323b872dd1461033e5780632f745c591461035e57806332cb6b0c1461037e5761023b565b806301ffc9a71461024057806306fdde0314610276578063081812fc14610298578063081c8c44146102c5578063095ea7b3146102da575b600080fd5b34801561024c57600080fd5b5061026061025b366004612320565b6106b5565b60405161026d9190612557565b60405180910390f35b34801561028257600080fd5b5061028b6106c8565b60405161026d9190612580565b3480156102a457600080fd5b506102b86102b336600461239e565b61075a565b60405161026d9190612506565b3480156102d157600080fd5b5061028b6107a6565b3480156102e657600080fd5b506102fa6102f53660046122dd565b610834565b005b34801561030857600080fd5b506102fa610317366004612306565b6108cc565b34801561032857600080fd5b5061033161091e565b60405161026d9190612d05565b34801561034a57600080fd5b506102fa6103593660046121af565b610924565b34801561036a57600080fd5b506103316103793660046122dd565b61095c565b34801561038a57600080fd5b506103316109ae565b34801561039f57600080fd5b506102fa6109b4565b3480156103b457600080fd5b506102fa6103c33660046121af565b610a26565b3480156103d457600080fd5b506103316103e336600461239e565b610a41565b3480156103f457600080fd5b50610260610a9c565b34801561040957600080fd5b506102fa610418366004612358565b610aab565b34801561042957600080fd5b506102fa610438366004612306565b610afd565b34801561044957600080fd5b50610260610b56565b34801561045e57600080fd5b506102b861046d36600461239e565b610b5f565b34801561047e57600080fd5b506102fa61048d366004612163565b610b94565b34801561049e57600080fd5b506103316104ad366004612163565b610c1b565b3480156104be57600080fd5b506102fa610c5f565b3480156104d357600080fd5b506102fa6104e236600461239e565b610caa565b3480156104f357600080fd5b506102b861050236600461228c565b610d50565b34801561051357600080fd5b506102b8610dd0565b34801561052857600080fd5b5061028b610ddf565b34801561053d57600080fd5b5061028b610dee565b6102fa6105543660046123b6565b610dfb565b6102fa61056736600461239e565b610f13565b34801561057857600080fd5b506102fa610587366004612263565b610fe7565b34801561059857600080fd5b50610331610ff9565b3480156105ad57600080fd5b50610331610fff565b3480156105c257600080fd5b506102fa6105d13660046121ea565b611005565b3480156105e257600080fd5b5061028b611044565b3480156105f757600080fd5b5061028b61060636600461239e565b611051565b34801561061757600080fd5b50610331611179565b34801561062c57600080fd5b506102fa61063b366004612358565b61117e565b34801561064c57600080fd5b5061026061065b36600461217d565b6111d0565b34801561066c57600080fd5b506102fa61067b366004612358565b6111fe565b34801561068c57600080fd5b506102fa61069b366004612163565b611250565b3480156106ac57600080fd5b506102606112c1565b60006106c0826112cf565b90505b919050565b6060600080546106d790612da8565b80601f016020809104026020016040519081016040528092919081815260200182805461070390612da8565b80156107505780601f1061072557610100808354040283529160200191610750565b820191906000526020600020905b81548152906001019060200180831161073357829003601f168201915b5050505050905090565b6000610765826112f4565b61078a5760405162461bcd60e51b815260040161078190612a21565b60405180910390fd5b506000908152600460205260409020546001600160a01b031690565b600d80546107b390612da8565b80601f01602080910402602001604051908101604052809291908181526020018280546107df90612da8565b801561082c5780601f106108015761010080835404028352916020019161082c565b820191906000526020600020905b81548152906001019060200180831161080f57829003601f168201915b505050505081565b600061083f82610b5f565b9050806001600160a01b0316836001600160a01b031614156108735760405162461bcd60e51b815260040161078190612bc7565b806001600160a01b0316610885611311565b6001600160a01b031614806108a157506108a18161065b611311565b6108bd5760405162461bcd60e51b8152600401610781906128ba565b6108c78383611315565b505050565b6108d4611311565b6001600160a01b03166108e5610dd0565b6001600160a01b03161461090b5760405162461bcd60e51b815260040161078190612a98565b600e805460ff1916911515919091179055565b60085490565b61093561092f611311565b82611383565b6109515760405162461bcd60e51b815260040161078190612c3f565b6108c7838383611408565b600061096783610c1b565b82106109855760405162461bcd60e51b81526004016107819061262b565b506001600160a01b03919091166000908152600660209081526040808320938352929052205490565b614e1f81565b6109bc611311565b6001600160a01b03166109cd610dd0565b6001600160a01b0316146109f35760405162461bcd60e51b815260040161078190612a98565b6040514790339082156108fc029083906000818181858888f19350505050158015610a22573d6000803e3d6000fd5b5050565b6108c783838360405180602001604052806000815250611005565b6000610a4b61091e565b8210610a695760405162461bcd60e51b815260040161078190612c90565b60088281548110610a8a57634e487b7160e01b600052603260045260246000fd5b90600052602060002001549050919050565b600e5462010000900460ff1681565b610ab3611311565b6001600160a01b0316610ac4610dd0565b6001600160a01b031614610aea5760405162461bcd60e51b815260040161078190612a98565b8051610a2290600b906020840190611ff3565b610b05611311565b6001600160a01b0316610b16610dd0565b6001600160a01b031614610b3c5760405162461bcd60e51b815260040161078190612a98565b600e80549115156101000261ff0019909216919091179055565b600e5460ff1681565b6000818152600260205260408120546001600160a01b0316806106c05760405162461bcd60e51b815260040161078190612961565b610b9c611311565b6001600160a01b0316610bad610dd0565b6001600160a01b031614610bd35760405162461bcd60e51b815260040161078190612a98565b6001600160a01b038116610bf95760405162461bcd60e51b815260040161078190612b9c565b601180546001600160a01b0319166001600160a01b0392909216919091179055565b60006001600160a01b038216610c435760405162461bcd60e51b815260040161078190612917565b506001600160a01b031660009081526003602052604090205490565b610c67611311565b6001600160a01b0316610c78610dd0565b6001600160a01b031614610c9e5760405162461bcd60e51b815260040161078190612a98565b610ca86000611535565b565b610cb2611311565b6001600160a01b0316610cc3610dd0565b6001600160a01b031614610ce95760405162461bcd60e51b815260040161078190612a98565b6000610cf361091e565b9050614e1f610d028383612d1a565b1115610d205760405162461bcd60e51b81526004016107819061270e565b60005b828110156108c757610d3e33610d398385612d1a565b611587565b80610d4881612de3565b915050610d23565b60008084604051602001610d649190612506565b604051602081830303815290604052805190602001209050610dc784848080601f016020809104026020016040519081016040528093929190818152602001838380828437600092019190915250610dc192508591506115a19050565b906115d1565b95945050505050565b600a546001600160a01b031690565b6060600180546106d790612da8565b600b80546107b390612da8565b6000610e0561091e565b600e54909150610100900460ff1615610e305760405162461bcd60e51b8152600401610781906125ca565b601e841115610e515760405162461bcd60e51b815260040161078190612c08565b614e1f610e5e8583612d1a565b1115610e7c5760405162461bcd60e51b81526004016107819061270e565b610e8884600f546115f5565b610ea45760405162461bcd60e51b815260040161078190612acd565b6011546001600160a01b0316610ebb338585610d50565b6001600160a01b031614610ee15760405162461bcd60e51b815260040161078190612a6d565b60005b84811015610f0c57610efa33610d398385612d1a565b80610f0481612de3565b915050610ee4565b5050505050565b6000610f1d61091e565b600e5490915060ff1615610f435760405162461bcd60e51b815260040161078190612cdc565b601e821115610f645760405162461bcd60e51b815260040161078190612c08565b614e1f610f718383612d1a565b1115610f8f5760405162461bcd60e51b81526004016107819061270e565b3482601054610f9e9190612d46565b1115610fbc5760405162461bcd60e51b8152600401610781906127f5565b60005b828110156108c757610fd533610d398385612d1a565b80610fdf81612de3565b915050610fbf565b610a22610ff2611311565b8383611629565b60105481565b600f5481565b611016611010611311565b83611383565b6110325760405162461bcd60e51b815260040161078190612c3f565b61103e848484846116cc565b50505050565b600c80546107b390612da8565b606061105c826112f4565b6110785760405162461bcd60e51b815260040161078190612b4d565b600e5462010000900460ff1661111a57600d805461109590612da8565b80601f01602080910402602001604051908101604052809291908181526020018280546110c190612da8565b801561110e5780601f106110e35761010080835404028352916020019161110e565b820191906000526020600020905b8154815290600101906020018083116110f157829003601f168201915b505050505090506106c3565b60006111246116ff565b905060008151116111445760405180602001604052806000815250611172565b8061114e8461170e565b600c60405160200161116293929190612413565b6040516020818303038152906040525b9392505050565b601e81565b611186611311565b6001600160a01b0316611197610dd0565b6001600160a01b0316146111bd5760405162461bcd60e51b815260040161078190612a98565b8051610a2290600c906020840190611ff3565b6001600160a01b03918216600090815260056020908152604080832093909416825291909152205460ff1690565b611206611311565b6001600160a01b0316611217610dd0565b6001600160a01b03161461123d5760405162461bcd60e51b815260040161078190612a98565b8051610a2290600d906020840190611ff3565b611258611311565b6001600160a01b0316611269610dd0565b6001600160a01b03161461128f5760405162461bcd60e51b815260040161078190612a98565b6001600160a01b0381166112b55760405162461bcd60e51b8152600401610781906126c8565b6112be81611535565b50565b600e54610100900460ff1681565b60006001600160e01b0319821663780e9d6360e01b14806106c057506106c082611829565b6000908152600260205260409020546001600160a01b0316151590565b3390565b600081815260046020526040902080546001600160a01b0319166001600160a01b038416908117909155819061134a82610b5f565b6001600160a01b03167f8c5be1e5ebec7d5bd14f71427d1e84f3dd0314c0f7b2291e5b200ac8c7c3b92560405160405180910390a45050565b600061138e826112f4565b6113aa5760405162461bcd60e51b81526004016107819061286e565b60006113b583610b5f565b9050806001600160a01b0316846001600160a01b031614806113f05750836001600160a01b03166113e58461075a565b6001600160a01b0316145b80611400575061140081856111d0565b949350505050565b826001600160a01b031661141b82610b5f565b6001600160a01b0316146114415760405162461bcd60e51b815260040161078190612b04565b6001600160a01b0382166114675760405162461bcd60e51b81526004016107819061277a565b611472838383611869565b61147d600082611315565b6001600160a01b03831660009081526003602052604081208054600192906114a6908490612d65565b90915550506001600160a01b03821660009081526003602052604081208054600192906114d4908490612d1a565b909155505060008181526002602052604080822080546001600160a01b0319166001600160a01b0386811691821790925591518493918716917fddf252ad1be2c89b69c2b068fc378daa952ba7f163c4a11628f55a4df523b3ef91a4505050565b600a80546001600160a01b038381166001600160a01b0319831681179093556040519116919082907f8be0079c531659141344cd1fd0a4f28419497f9722a3daafe3b4186f6b6457e090600090a35050565b610a22828260405180602001604052806000815250611874565b6000816040516020016115b491906124d5565b604051602081830303815290604052805190602001209050919050565b60008060006115e085856118a7565b915091506115ed81611917565b509392505050565b600080611603600185612d65565b6116149066d529ae9e860000612d46565b61161e9084612d1a565b341015949350505050565b816001600160a01b0316836001600160a01b0316141561165b5760405162461bcd60e51b8152600401610781906127be565b6001600160a01b0383811660008181526005602090815260408083209487168084529490915290819020805460ff1916851515179055517f17307eab39ab6107e8899845ad3d59bd9653f200f220920489ca2b5937696c31906116bf908590612557565b60405180910390a3505050565b6116d7848484611408565b6116e384848484611a44565b61103e5760405162461bcd60e51b815260040161078190612676565b6060600b80546106d790612da8565b60608161173357506040805180820190915260018152600360fc1b60208201526106c3565b8160005b811561175d578061174781612de3565b91506117569050600a83612d32565b9150611737565b60008167ffffffffffffffff81111561178657634e487b7160e01b600052604160045260246000fd5b6040519080825280601f01601f1916602001820160405280156117b0576020820181803683370190505b5090505b8415611400576117c5600183612d65565b91506117d2600a86612dfe565b6117dd906030612d1a565b60f81b81838151811061180057634e487b7160e01b600052603260045260246000fd5b60200101906001600160f81b031916908160001a905350611822600a86612d32565b94506117b4565b60006001600160e01b031982166380ac58cd60e01b148061185a57506001600160e01b03198216635b5e139f60e01b145b806106c057506106c082611b5f565b6108c7838383611b78565b61187e8383611c01565b61188b6000848484611a44565b6108c75760405162461bcd60e51b815260040161078190612676565b6000808251604114156118de5760208301516040840151606085015160001a6118d287828585611ce0565b94509450505050611910565b82516040141561190857602083015160408401516118fd868383611dc0565b935093505050611910565b506000905060025b9250929050565b600081600481111561193957634e487b7160e01b600052602160045260246000fd5b1415611944576112be565b600181600481111561196657634e487b7160e01b600052602160045260246000fd5b14156119845760405162461bcd60e51b815260040161078190612593565b60028160048111156119a657634e487b7160e01b600052602160045260246000fd5b14156119c45760405162461bcd60e51b8152600401610781906125f4565b60038160048111156119e657634e487b7160e01b600052602160045260246000fd5b1415611a045760405162461bcd60e51b81526004016107819061282c565b6004816004811115611a2657634e487b7160e01b600052602160045260246000fd5b14156112be5760405162461bcd60e51b8152600401610781906129aa565b6000611a58846001600160a01b0316611def565b15611b5457836001600160a01b031663150b7a02611a74611311565b8786866040518563ffffffff1660e01b8152600401611a96949392919061251a565b602060405180830381600087803b158015611ab057600080fd5b505af1925050508015611ae0575060408051601f3d908101601f19168201909252611add9181019061233c565b60015b611b3a573d808015611b0e576040519150601f19603f3d011682016040523d82523d6000602084013e611b13565b606091505b508051611b325760405162461bcd60e51b815260040161078190612676565b805181602001fd5b6001600160e01b031916630a85bd0160e11b149050611400565b506001949350505050565b6001600160e01b031981166301ffc9a760e01b14919050565b611b838383836108c7565b6001600160a01b038316611b9f57611b9a81611df5565b611bc2565b816001600160a01b0316836001600160a01b031614611bc257611bc28382611e39565b6001600160a01b038216611bde57611bd981611ed6565b6108c7565b826001600160a01b0316826001600160a01b0316146108c7576108c78282611faf565b6001600160a01b038216611c275760405162461bcd60e51b8152600401610781906129ec565b611c30816112f4565b15611c4d5760405162461bcd60e51b815260040161078190612743565b611c5960008383611869565b6001600160a01b0382166000908152600360205260408120805460019290611c82908490612d1a565b909155505060008181526002602052604080822080546001600160a01b0319166001600160a01b03861690811790915590518392907fddf252ad1be2c89b69c2b068fc378daa952ba7f163c4a11628f55a4df523b3ef908290a45050565b6000807f7fffffffffffffffffffffffffffffff5d576e7357a4501ddfe92f46681b20a0831115611d175750600090506003611db7565b8460ff16601b14158015611d2f57508460ff16601c14155b15611d405750600090506004611db7565b600060018787878760405160008152602001604052604051611d659493929190612562565b6020604051602081039080840390855afa158015611d87573d6000803e3d6000fd5b5050604051601f1901519150506001600160a01b038116611db057600060019250925050611db7565b9150600090505b94509492505050565b6000806001600160ff1b03831660ff84901c601b01611de187828885611ce0565b935093505050935093915050565b3b151590565b600880546000838152600960205260408120829055600182018355919091527ff3f7a9fe364faab93b216da50a3214154f22a0a2b415b23a84c8169e8b636ee30155565b60006001611e4684610c1b565b611e509190612d65565b600083815260076020526040902054909150808214611ea3576001600160a01b03841660009081526006602090815260408083208584528252808320548484528184208190558352600790915290208190555b5060009182526007602090815260408084208490556001600160a01b039094168352600681528383209183525290812055565b600854600090611ee890600190612d65565b60008381526009602052604081205460088054939450909284908110611f1e57634e487b7160e01b600052603260045260246000fd5b906000526020600020015490508060088381548110611f4d57634e487b7160e01b600052603260045260246000fd5b6000918252602080832090910192909255828152600990915260408082208490558582528120556008805480611f9357634e487b7160e01b600052603160045260246000fd5b6001900381819060005260206000200160009055905550505050565b6000611fba83610c1b565b6001600160a01b039093166000908152600660209081526040808320868452825280832085905593825260079052919091209190915550565b828054611fff90612da8565b90600052602060002090601f0160209004810192826120215760008555612067565b82601f1061203a57805160ff1916838001178555612067565b82800160010185558215612067579182015b8281111561206757825182559160200191906001019061204c565b50612073929150612077565b5090565b5b808211156120735760008155600101612078565b600067ffffffffffffffff808411156120a7576120a7612e3e565b604051601f8501601f1916810160200182811182821017156120cb576120cb612e3e565b6040528481529150818385018610156120e357600080fd5b8484602083013760006020868301015250509392505050565b80356001600160a01b03811681146106c357600080fd5b803580151581146106c357600080fd5b60008083601f840112612134578182fd5b50813567ffffffffffffffff81111561214b578182fd5b60208301915083602082850101111561191057600080fd5b600060208284031215612174578081fd5b611172826120fc565b6000806040838503121561218f578081fd5b612198836120fc565b91506121a6602084016120fc565b90509250929050565b6000806000606084860312156121c3578081fd5b6121cc846120fc565b92506121da602085016120fc565b9150604084013590509250925092565b600080600080608085870312156121ff578081fd5b612208856120fc565b9350612216602086016120fc565b925060408501359150606085013567ffffffffffffffff811115612238578182fd5b8501601f81018713612248578182fd5b6122578782356020840161208c565b91505092959194509250565b60008060408385031215612275578182fd5b61227e836120fc565b91506121a660208401612113565b6000806000604084860312156122a0578283fd5b6122a9846120fc565b9250602084013567ffffffffffffffff8111156122c4578283fd5b6122d086828701612123565b9497909650939450505050565b600080604083850312156122ef578182fd5b6122f8836120fc565b946020939093013593505050565b600060208284031215612317578081fd5b61117282612113565b600060208284031215612331578081fd5b813561117281612e54565b60006020828403121561234d578081fd5b815161117281612e54565b600060208284031215612369578081fd5b813567ffffffffffffffff81111561237f578182fd5b8201601f8101841361238f578182fd5b6114008482356020840161208c565b6000602082840312156123af578081fd5b5035919050565b6000806000604084860312156123ca578283fd5b83359250602084013567ffffffffffffffff8111156122c4578283fd5b600081518084526123ff816020860160208601612d7c565b601f01601f19169290920160200192915050565b6000845160206124268285838a01612d7c565b8551918401916124398184848a01612d7c565b855492019183906002810460018083168061245557607f831692505b85831081141561247357634e487b7160e01b88526022600452602488fd5b8080156124875760018114612498576124c4565b60ff198516885283880195506124c4565b6124a18b612d0e565b895b858110156124bc5781548a8201529084019088016124a3565b505083880195505b50939b9a5050505050505050505050565b7f19457468657265756d205369676e6564204d6573736167653a0a3332000000008152601c810191909152603c0190565b6001600160a01b0391909116815260200190565b6001600160a01b038581168252841660208201526040810183905260806060820181905260009061254d908301846123e7565b9695505050505050565b901515815260200190565b93845260ff9290921660208401526040830152606082015260800190565b60006020825261117260208301846123e7565b60208082526018908201527f45434453413a20696e76616c6964207369676e61747572650000000000000000604082015260600190565b60208082526010908201526f15da1a5d195b1a5cdd0814185d5cd95960821b604082015260600190565b6020808252601f908201527f45434453413a20696e76616c6964207369676e6174757265206c656e67746800604082015260600190565b6020808252602b908201527f455243373231456e756d657261626c653a206f776e657220696e646578206f7560408201526a74206f6620626f756e647360a81b606082015260800190565b60208082526032908201527f4552433732313a207472616e7366657220746f206e6f6e20455243373231526560408201527131b2b4bb32b91034b6b83632b6b2b73a32b960711b606082015260800190565b60208082526026908201527f4f776e61626c653a206e6577206f776e657220697320746865207a65726f206160408201526564647265737360d01b606082015260800190565b6020808252818101527f507572636861736520776f756c6420657863656564206d617820746f6b656e73604082015260600190565b6020808252601c908201527f4552433732313a20746f6b656e20616c7265616479206d696e74656400000000604082015260600190565b60208082526024908201527f4552433732313a207472616e7366657220746f20746865207a65726f206164646040820152637265737360e01b606082015260800190565b60208082526019908201527f4552433732313a20617070726f766520746f2063616c6c657200000000000000604082015260600190565b6020808252601f908201527f45746865722076616c75652073656e74206973206e6f7420636f727265637400604082015260600190565b60208082526022908201527f45434453413a20696e76616c6964207369676e6174757265202773272076616c604082015261756560f01b606082015260800190565b6020808252602c908201527f4552433732313a206f70657261746f7220717565727920666f72206e6f6e657860408201526b34b9ba32b73a103a37b5b2b760a11b606082015260800190565b60208082526038908201527f4552433732313a20617070726f76652063616c6c6572206973206e6f74206f7760408201527f6e6572206e6f7220617070726f76656420666f7220616c6c0000000000000000606082015260800190565b6020808252602a908201527f4552433732313a2062616c616e636520717565727920666f7220746865207a65604082015269726f206164647265737360b01b606082015260800190565b60208082526029908201527f4552433732313a206f776e657220717565727920666f72206e6f6e657869737460408201526832b73a103a37b5b2b760b91b606082015260800190565b60208082526022908201527f45434453413a20696e76616c6964207369676e6174757265202776272076616c604082015261756560f01b606082015260800190565b6020808252818101527f4552433732313a206d696e7420746f20746865207a65726f2061646472657373604082015260600190565b6020808252602c908201527f4552433732313a20617070726f76656420717565727920666f72206e6f6e657860408201526b34b9ba32b73a103a37b5b2b760a11b606082015260800190565b602080825260119082015270496e76616c6964205369676e617475726560781b604082015260600190565b6020808252818101527f4f776e61626c653a2063616c6c6572206973206e6f7420746865206f776e6572604082015260600190565b6020808252601b908201527f45746865722076616c756573206973206e6f7420636f72726563740000000000604082015260600190565b60208082526029908201527f4552433732313a207472616e73666572206f6620746f6b656e2074686174206960408201526839903737ba1037bbb760b91b606082015260800190565b6020808252602f908201527f4552433732314d657461646174613a2055524920717565727920666f72206e6f60408201526e3732bc34b9ba32b73a103a37b5b2b760891b606082015260800190565b602080825260119082015270696e636f7272656374206164647265737360781b604082015260600190565b60208082526021908201527f4552433732313a20617070726f76616c20746f2063757272656e74206f776e656040820152603960f91b606082015260800190565b6020808252601b908201527f4578636565646564206d617820746f6b656e2070757263686173650000000000604082015260600190565b60208082526031908201527f4552433732313a207472616e736665722063616c6c6572206973206e6f74206f6040820152701ddb995c881b9bdc88185c1c1c9bdd9959607a1b606082015260800190565b6020808252602c908201527f455243373231456e756d657261626c653a20676c6f62616c20696e646578206f60408201526b7574206f6620626f756e647360a01b606082015260800190565b6020808252600f908201526e10dbdb9d1c9858dd0814185d5cd959608a1b604082015260600190565b90815260200190565b60009081526020902090565b60008219821115612d2d57612d2d612e12565b500190565b600082612d4157612d41612e28565b500490565b6000816000190483118215151615612d6057612d60612e12565b500290565b600082821015612d7757612d77612e12565b500390565b60005b83811015612d97578181015183820152602001612d7f565b8381111561103e5750506000910152565b600281046001821680612dbc57607f821691505b60208210811415612ddd57634e487b7160e01b600052602260045260246000fd5b50919050565b6000600019821415612df757612df7612e12565b5060010190565b600082612e0d57612e0d612e28565b500690565b634e487b7160e01b600052601160045260246000fd5b634e487b7160e01b600052601260045260246000fd5b634e487b7160e01b600052604160045260246000fd5b6001600160e01b0319811681146112be57600080fdfea2646970667358221220b8e6e0665be7a83ad6dc56838153d749c4379e326f0e826c55f928e872d3277464736f6c63430008000033",
  "linkReferences": {},
  "deployedLinkReferences": {}
}