{
  "_format": "hh-sol-artifact-1",
  "contractName": "TestContract",
  "sourceName": "contracts/TestContract.sol",
  "abi": [
    {
      "inputs": [
        {
          "internalType": "string",
          "name": "_name",
          "type": "string"
        },
        {
          "internalType": "string",
          "name": "_symbol",
          "type": "string"
        },
        {
          "internalType": "address",
          "name": "_signer",
          "type": "address"
        },
        {
          "internalType": "string",
          "name": "_initBaseURI",
          "type": "string"
        },
        {
          "internalType": "string",
          "name": "_initNotRevealedUri",
          "type": "string"
        }
      ],
      "stateMutability": "nonpayable",
      "type": "constructor"
    },
    {
      "anonymous": false,
      "inputs": [
        {
          "indexed": true,
          "internalType": "address",
          "name": "owner",
          "type": "address"
        },
        {
          "indexed": true,
          "internalType": "address",
          "name": "approved",
          "type": "address"
        },
        {
          "indexed": true,
          "internalType": "uint256",
          "name": "tokenId",
          "type": "uint256"
        }
      ],
      "name": "Approval",
      "type": "event"
    },
    {
      "anonymous": false,
      "inputs": [
        {
          "indexed": true,
          "internalType": "address",
          "name": "owner",
          "type": "address"
        },
        {
          "indexed": true,
          "internalType": "address",
          "name": "operator",
          "type": "address"
        },
        {
          "indexed": false,
          "internalType": "bool",
          "name": "approved",
          "type": "bool"
        }
      ],
      "name": "ApprovalForAll",
      "type": "event"
    },
    {
      "anonymous": false,
      "inputs": [
        {
          "indexed": true,
          "internalType": "address",
          "name": "previousOwner",
          "type": "address"
        },
        {
          "indexed": true,
          "internalType": "address",
          "name": "newOwner",
          "type": "address"
        }
      ],
      "name": "OwnershipTransferred",
      "type": "event"
    },
    {
      "anonymous": false,
      "inputs": [
        {
          "indexed": true,
          "internalType": "address",
          "name": "from",
          "type": "address"
        },
        {
          "indexed": true,
          "internalType": "address",
          "name": "to",
          "type": "address"
        },
        {
          "indexed": true,
          "internalType": "uint256",
          "name": "tokenId",
          "type": "uint256"
        }
      ],
      "name": "Transfer",
      "type": "event"
    },
    {
      "inputs": [],
      "name": "MAX_PER_TRANSACTION",
      "outputs": [
        {
          "internalType": "uint256",
          "name": "",
          "type": "uint256"
        }
      ],
      "stateMutability": "view",
      "type": "function"
    },
    {
      "inputs": [],
      "name": "MAX_SUPPLY",
      "outputs": [
        {
          "internalType": "uint256",
          "name": "",
          "type": "uint256"
        }
      ],
      "stateMutability": "view",
      "type": "function"
    },
    {
      "inputs": [],
      "name": "PRICE_FIRST",
      "outputs": [
        {
          "internalType": "uint256",
          "name": "",
          "type": "uint256"
        }
      ],
      "stateMutability": "view",
      "type": "function"
    },
    {
      "inputs": [],
      "name": "PRICE_PUBLIC",
      "outputs": [
        {
          "internalType": "uint256",
          "name": "",
          "type": "uint256"
        }
      ],
      "stateMutability": "view",
      "type": "function"
    },
    {
      "inputs": [],
      "name": "PRICE_SECOND",
      "outputs": [
        {
          "internalType": "uint256",
          "name": "",
          "type": "uint256"
        }
      ],
      "stateMutability": "view",
      "type": "function"
    },
    {
      "inputs": [
        {
          "internalType": "address",
          "name": "to",
          "type": "address"
        },
        {
          "internalType": "uint256",
          "name": "tokenId",
          "type": "uint256"
        }
      ],
      "name": "approve",
      "outputs": [],
      "stateMutability": "nonpayable",
      "type": "function"
    },
    {
      "inputs": [
        {
          "internalType": "address",
          "name": "owner",
          "type": "address"
        }
      ],
      "name": "balanceOf",
      "outputs": [
        {
          "internalType": "uint256",
          "name": "",
          "type": "uint256"
        }
      ],
      "stateMutability": "view",
      "type": "function"
    },
    {
      "inputs": [],
      "name": "baseExtension",
      "outputs": [
        {
          "internalType": "string",
          "name": "",
          "type": "string"
        }
      ],
      "stateMutability": "view",
      "type": "function"
    },
    {
      "inputs": [],
      "name": "baseUri",
      "outputs": [
        {
          "internalType": "string",
          "name": "",
          "type": "string"
        }
      ],
      "stateMutability": "view",
      "type": "function"
    },
    {
      "inputs": [
        {
          "internalType": "uint256",
          "name": "tokenId",
          "type": "uint256"
        }
      ],
      "name": "getApproved",
      "outputs": [
        {
          "internalType": "address",
          "name": "",
          "type": "address"
        }
      ],
      "stateMutability": "view",
      "type": "function"
    },
    {
      "inputs": [
        {
          "internalType": "address",
          "name": "owner",
          "type": "address"
        },
        {
          "internalType": "address",
          "name": "operator",
          "type": "address"
        }
      ],
      "name": "isApprovedForAll",
      "outputs": [
        {
          "internalType": "bool",
          "name": "",
          "type": "bool"
        }
      ],
      "stateMutability": "view",
      "type": "function"
    },
    {
      "inputs": [
        {
          "internalType": "uint256",
          "name": "numberOfTokens",
          "type": "uint256"
        }
      ],
      "name": "mint",
      "outputs": [],
      "stateMutability": "payable",
      "type": "function"
    },
    {
      "inputs": [],
      "name": "name",
      "outputs": [
        {
          "internalType": "string",
          "name": "",
          "type": "string"
        }
      ],
      "stateMutability": "view",
      "type": "function"
    },
    {
      "inputs": [],
      "name": "notRevealedUri",
      "outputs": [
        {
          "internalType": "string",
          "name": "",
          "type": "string"
        }
      ],
      "stateMutability": "view",
      "type": "function"
    },
    {
      "inputs": [],
      "name": "owner",
      "outputs": [
        {
          "internalType": "address",
          "name": "",
          "type": "address"
        }
      ],
      "stateMutability": "view",
      "type": "function"
    },
    {
      "inputs": [
        {
          "internalType": "uint256",
          "name": "tokenId",
          "type": "uint256"
        }
      ],
      "name": "ownerOf",
      "outputs": [
        {
          "internalType": "address",
          "name": "",
          "type": "address"
        }
      ],
      "stateMutability": "view",
      "type": "function"
    },
    {
      "inputs": [],
      "name": "paused",
      "outputs": [
        {
          "internalType": "bool",
          "name": "",
          "type": "bool"
        }
      ],
      "stateMutability": "view",
      "type": "function"
    },
    {
      "inputs": [],
      "name": "pausedWhitelist",
      "outputs": [
        {
          "internalType": "bool",
          "name": "",
          "type": "bool"
        }
      ],
      "stateMutability": "view",
      "type": "function"
    },
    {
      "inputs": [],
      "name": "renounceOwnership",
      "outputs": [],
      "stateMutability": "nonpayable",
      "type": "function"
    },
    {
      "inputs": [
        {
          "internalType": "uint256",
          "name": "numberOfTokens",
          "type": "uint256"
        }
      ],
      "name": "reserve",
      "outputs": [],
      "stateMutability": "nonpayable",
      "type": "function"
    },
    {
      "inputs": [],
      "name": "revealed",
      "outputs": [
        {
          "internalType": "bool",
          "name": "",
          "type": "bool"
        }
      ],
      "stateMutability": "view",
      "type": "function"
    },
    {
      "inputs": [
        {
          "internalType": "address",
          "name": "from",
          "type": "address"
        },
        {
          "internalType": "address",
          "name": "to",
          "type": "address"
        },
        {
          "internalType": "uint256",
          "name": "tokenId",
          "type": "uint256"
        }
      ],
      "name": "safeTransferFrom",
      "outputs": [],
      "stateMutability": "nonpayable",
      "type": "function"
    },
    {
      "inputs": [
        {
          "internalType": "address",
          "name": "from",
          "type": "address"
        },
        {
          "internalType": "address",
          "name": "to",
          "type": "address"
        },
        {
          "internalType": "uint256",
          "name": "tokenId",
          "type": "uint256"
        },
        {
          "internalType": "bytes",
          "name": "_data",
          "type": "bytes"
        }
      ],
      "name": "safeTransferFrom",
      "outputs": [],
      "stateMutability": "nonpayable",
      "type": "function"
    },
    {
      "inputs": [
        {
          "internalType": "address",
          "name": "operator",
          "type": "address"
        },
        {
          "internalType": "bool",
          "name": "approved",
          "type": "bool"
        }
      ],
      "name": "setApprovalForAll",
      "outputs": [],
      "stateMutability": "nonpayable",
      "type": "function"
    },
    {
      "inputs": [
        {
          "internalType": "string",
          "name": "_newBaseExtension",
          "type": "string"
        }
      ],
      "name": "setBaseExtension",
      "outputs": [],
      "stateMutability": "nonpayable",
      "type": "function"
    },
    {
      "inputs": [
        {
          "internalType": "string",
          "name": "newBaseURI",
          "type": "string"
        }
      ],
      "name": "setBaseURI",
      "outputs": [],
      "stateMutability": "nonpayable",
      "type": "function"
    },
    {
      "inputs": [
        {
          "internalType": "string",
          "name": "_notRevealedURI",
          "type": "string"
        }
      ],
      "name": "setNotRevealedURI",
      "outputs": [],
      "stateMutability": "nonpayable",
      "type": "function"
    },
    {
      "inputs": [
        {
          "internalType": "bool",
          "name": "newState",
          "type": "bool"
        }
      ],
      "name": "setPaused",
      "outputs": [],
      "stateMutability": "nonpayable",
      "type": "function"
    },
    {
      "inputs": [
        {
          "internalType": "bool",
          "name": "newState",
          "type": "bool"
        }
      ],
      "name": "setPausedWhitelist",
      "outputs": [],
      "stateMutability": "nonpayable",
      "type": "function"
    },
    {
      "inputs": [
        {
          "internalType": "bool",
          "name": "newState",
          "type": "bool"
        }
      ],
      "name": "setRevealed",
      "outputs": [],
      "stateMutability": "nonpayable",
      "type": "function"
    },
    {
      "inputs": [
        {
          "internalType": "address",
          "name": "newSigner",
          "type": "address"
        }
      ],
      "name": "setSigner",
      "outputs": [],
      "stateMutability": "nonpayable",
      "type": "function"
    },
    {
      "inputs": [
        {
          "internalType": "bytes4",
          "name": "interfaceId",
          "type": "bytes4"
        }
      ],
      "name": "supportsInterface",
      "outputs": [
        {
          "internalType": "bool",
          "name": "",
          "type": "bool"
        }
      ],
      "stateMutability": "view",
      "type": "function"
    },
    {
      "inputs": [],
      "name": "symbol",
      "outputs": [
        {
          "internalType": "string",
          "name": "",
          "type": "string"
        }
      ],
      "stateMutability": "view",
      "type": "function"
    },
    {
      "inputs": [
        {
          "internalType": "uint256",
          "name": "index",
          "type": "uint256"
        }
      ],
      "name": "tokenByIndex",
      "outputs": [
        {
          "internalType": "uint256",
          "name": "",
          "type": "uint256"
        }
      ],
      "stateMutability": "view",
      "type": "function"
    },
    {
      "inputs": [
        {
          "internalType": "address",
          "name": "owner",
          "type": "address"
        },
        {
          "internalType": "uint256",
          "name": "index",
          "type": "uint256"
        }
      ],
      "name": "tokenOfOwnerByIndex",
      "outputs": [
        {
          "internalType": "uint256",
          "name": "",
          "type": "uint256"
        }
      ],
      "stateMutability": "view",
      "type": "function"
    },
    {
      "inputs": [
        {
          "internalType": "uint256",
          "name": "tokenId",
          "type": "uint256"
        }
      ],
      "name": "tokenURI",
      "outputs": [
        {
          "internalType": "string",
          "name": "",
          "type": "string"
        }
      ],
      "stateMutability": "view",
      "type": "function"
    },
    {
      "inputs": [],
      "name": "totalSupply",
      "outputs": [
        {
          "internalType": "uint256",
          "name": "",
          "type": "uint256"
        }
      ],
      "stateMutability": "view",
      "type": "function"
    },
    {
      "inputs": [
        {
          "internalType": "address",
          "name": "from",
          "type": "address"
        },
        {
          "internalType": "address",
          "name": "to",
          "type": "address"
        },
        {
          "internalType": "uint256",
          "name": "tokenId",
          "type": "uint256"
        }
      ],
      "name": "transferFrom",
      "outputs": [],
      "stateMutability": "nonpayable",
      "type": "function"
    },
    {
      "inputs": [
        {
          "internalType": "address",
          "name": "newOwner",
          "type": "address"
        }
      ],
      "name": "transferOwnership",
      "outputs": [],
      "stateMutability": "nonpayable",
      "type": "function"
    },
    {
      "inputs": [
        {
          "internalType": "uint256",
          "name": "numberOfTokens",
          "type": "uint256"
        },
        {
          "internalType": "uint256",
          "name": "limit",
          "type": "uint256"
        },
        {
          "internalType": "bytes",
          "name": "_signature",
          "type": "bytes"
        }
      ],
      "name": "whitelistMint",
      "outputs": [],
      "stateMutability": "payable",
      "type": "function"
    },
    {
      "inputs": [],
      "name": "withdraw",
      "outputs": [],
      "stateMutability": "nonpayable",
      "type": "function"
    }
  ],
  "bytecode": "0x60c06040526005608081905264173539b7b760d91b60a09081526200002891600c9190620002ce565b50600e805462ff00001961ff001960ff19909216600117919091166101001716905567011c37937e080000600f5567013fbe85edc9000060105566d529ae9e8600006011553480156200007a57600080fd5b50604051620034cd380380620034cd8339810160408190526200009d916200041f565b845185908590620000b6906000906020850190620002ce565b508051620000cc906001906020840190620002ce565b505050620000e9620000e36200011560201b60201c565b62000119565b620000f4826200016b565b620000ff81620001d3565b6200010a836200022e565b5050505050620005a7565b3390565b600a80546001600160a01b038381166001600160a01b0319831681179093556040519116919082907f8be0079c531659141344cd1fd0a4f28419497f9722a3daafe3b4186f6b6457e090600090a35050565b6200017562000115565b6001600160a01b031662000188620002bf565b6001600160a01b031614620001ba5760405162461bcd60e51b8152600401620001b190620004f4565b60405180910390fd5b8051620001cf90600b906020840190620002ce565b5050565b620001dd62000115565b6001600160a01b0316620001f0620002bf565b6001600160a01b031614620002195760405162461bcd60e51b8152600401620001b190620004f4565b8051620001cf90600d906020840190620002ce565b6200023862000115565b6001600160a01b03166200024b620002bf565b6001600160a01b031614620002745760405162461bcd60e51b8152600401620001b190620004f4565b6001600160a01b0381166200029d5760405162461bcd60e51b8152600401620001b19062000529565b601280546001600160a01b0319166001600160a01b0392909216919091179055565b600a546001600160a01b031690565b828054620002dc9062000554565b90600052602060002090601f0160209004810192826200030057600085556200034b565b82601f106200031b57805160ff19168380011785556200034b565b828001600101855582156200034b579182015b828111156200034b5782518255916020019190600101906200032e565b50620003599291506200035d565b5090565b5b808211156200035957600081556001016200035e565b600082601f83011262000385578081fd5b81516001600160401b0380821115620003a257620003a262000591565b6040516020601f8401601f1916820181018381118382101715620003ca57620003ca62000591565b6040528382528584018101871015620003e1578485fd5b8492505b83831015620004045785830181015182840182015291820191620003e5565b838311156200041557848185840101525b5095945050505050565b600080600080600060a0868803121562000437578081fd5b85516001600160401b03808211156200044e578283fd5b6200045c89838a0162000374565b9650602088015191508082111562000472578283fd5b6200048089838a0162000374565b604089015190965091506001600160a01b03821682146200049f578283fd5b606088015191945080821115620004b4578283fd5b620004c289838a0162000374565b93506080880151915080821115620004d8578283fd5b50620004e78882890162000374565b9150509295509295909350565b6020808252818101527f4f776e61626c653a2063616c6c6572206973206e6f7420746865206f776e6572604082015260600190565b602080825260119082015270696e636f7272656374206164647265737360781b604082015260600190565b6002810460018216806200056957607f821691505b602082108114156200058b57634e487b7160e01b600052602260045260246000fd5b50919050565b634e487b7160e01b600052604160045260246000fd5b612f1680620005b76000396000f3fe6080604052600436106102465760003560e01c806370a0823111610139578063b88d4fde116100b6578063e0a808531161007a578063e0a808531461062d578063e985e9c51461064d578063ec596b721461066d578063f2c4ce1e14610680578063f2fde38b146106a0578063f72ec829146106c057610246565b8063b88d4fde146105a3578063c6682862146105c3578063c87b56dd146105d8578063cb14eb87146105f8578063da3ef23f1461060d57610246565b80639abc8320116100fd5780639abc832014610531578063a0712d6814610546578063a22cb46514610559578063a56d773014610579578063a8a4b4f11461058e57610246565b806370a08231146104b2578063715018a6146104d2578063819b25ba146104e75780638da5cb5b1461050757806395d89b411461051c57610246565b806332cb6b0c116101c757806355f804b31161018b57806355f804b31461041d57806357ae51fb1461043d5780635c975abb1461045d5780636352211e146104725780636c19e7831461049257610246565b806332cb6b0c1461039e5780633ccfd60b146103b357806342842e0e146103c85780634f6ccce7146103e8578063518302271461040857610246565b80631315be251161020e5780631315be251461030757806316c38b3c1461032957806318160ddd1461034957806323b872dd1461035e5780632f745c591461037e57610246565b806301ffc9a71461024b57806306fdde0314610281578063081812fc146102a3578063081c8c44146102d0578063095ea7b3146102e5575b600080fd5b34801561025757600080fd5b5061026b61026636600461234c565b6106d5565b60405161027891906125cd565b60405180910390f35b34801561028d57600080fd5b506102966106e8565b60405161027891906125f6565b3480156102af57600080fd5b506102c36102be3660046123ca565b61077a565b604051610278919061257c565b3480156102dc57600080fd5b506102966107c6565b3480156102f157600080fd5b50610305610300366004612309565b610854565b005b34801561031357600080fd5b5061031c6108ec565b6040516102789190612d7b565b34801561033557600080fd5b50610305610344366004612332565b6108f2565b34801561035557600080fd5b5061031c610944565b34801561036a57600080fd5b5061030561037936600461222c565b61094a565b34801561038a57600080fd5b5061031c610399366004612309565b610982565b3480156103aa57600080fd5b5061031c6109d4565b3480156103bf57600080fd5b506103056109da565b3480156103d457600080fd5b506103056103e336600461222c565b610a4c565b3480156103f457600080fd5b5061031c6104033660046123ca565b610a67565b34801561041457600080fd5b5061026b610ac2565b34801561042957600080fd5b50610305610438366004612384565b610ad1565b34801561044957600080fd5b50610305610458366004612332565b610b23565b34801561046957600080fd5b5061026b610b7c565b34801561047e57600080fd5b506102c361048d3660046123ca565b610b85565b34801561049e57600080fd5b506103056104ad3660046121e0565b610bba565b3480156104be57600080fd5b5061031c6104cd3660046121e0565b610c41565b3480156104de57600080fd5b50610305610c85565b3480156104f357600080fd5b506103056105023660046123ca565b610cd0565b34801561051357600080fd5b506102c3610d76565b34801561052857600080fd5b50610296610d85565b34801561053d57600080fd5b50610296610d94565b6103056105543660046123ca565b610da1565b34801561056557600080fd5b506103056105743660046122e0565b610e75565b34801561058557600080fd5b5061031c610e87565b34801561059a57600080fd5b5061031c610e8d565b3480156105af57600080fd5b506103056105be366004612267565b610e93565b3480156105cf57600080fd5b50610296610ed2565b3480156105e457600080fd5b506102966105f33660046123ca565b610edf565b34801561060457600080fd5b5061031c611007565b34801561061957600080fd5b50610305610628366004612384565b61100c565b34801561063957600080fd5b50610305610648366004612332565b61105e565b34801561065957600080fd5b5061026b6106683660046121fa565b6110b9565b61030561067b3660046123e2565b6110e7565b34801561068c57600080fd5b5061030561069b366004612384565b61123f565b3480156106ac57600080fd5b506103056106bb3660046121e0565b611291565b3480156106cc57600080fd5b5061026b611302565b60006106e082611310565b90505b919050565b6060600080546106f790612e1e565b80601f016020809104026020016040519081016040528092919081815260200182805461072390612e1e565b80156107705780601f1061074557610100808354040283529160200191610770565b820191906000526020600020905b81548152906001019060200180831161075357829003601f168201915b5050505050905090565b600061078582611335565b6107aa5760405162461bcd60e51b81526004016107a190612a97565b60405180910390fd5b506000908152600460205260409020546001600160a01b031690565b600d80546107d390612e1e565b80601f01602080910402602001604051908101604052809291908181526020018280546107ff90612e1e565b801561084c5780601f106108215761010080835404028352916020019161084c565b820191906000526020600020905b81548152906001019060200180831161082f57829003601f168201915b505050505081565b600061085f82610b85565b9050806001600160a01b0316836001600160a01b031614156108935760405162461bcd60e51b81526004016107a190612c3d565b806001600160a01b03166108a5611352565b6001600160a01b031614806108c157506108c181610668611352565b6108dd5760405162461bcd60e51b81526004016107a190612930565b6108e78383611356565b505050565b60115481565b6108fa611352565b6001600160a01b031661090b610d76565b6001600160a01b0316146109315760405162461bcd60e51b81526004016107a190612b0e565b600e805460ff1916911515919091179055565b60085490565b61095b610955611352565b826113c4565b6109775760405162461bcd60e51b81526004016107a190612cb5565b6108e7838383611449565b600061098d83610c41565b82106109ab5760405162461bcd60e51b81526004016107a1906126a1565b506001600160a01b03919091166000908152600660209081526040808320938352929052205490565b614e1f81565b6109e2611352565b6001600160a01b03166109f3610d76565b6001600160a01b031614610a195760405162461bcd60e51b81526004016107a190612b0e565b6040514790339082156108fc029083906000818181858888f19350505050158015610a48573d6000803e3d6000fd5b5050565b6108e783838360405180602001604052806000815250610e93565b6000610a71610944565b8210610a8f5760405162461bcd60e51b81526004016107a190612d06565b60088281548110610ab057634e487b7160e01b600052603260045260246000fd5b90600052602060002001549050919050565b600e5462010000900460ff1681565b610ad9611352565b6001600160a01b0316610aea610d76565b6001600160a01b031614610b105760405162461bcd60e51b81526004016107a190612b0e565b8051610a4890600b9060208401906120b0565b610b2b611352565b6001600160a01b0316610b3c610d76565b6001600160a01b031614610b625760405162461bcd60e51b81526004016107a190612b0e565b600e80549115156101000261ff0019909216919091179055565b600e5460ff1681565b6000818152600260205260408120546001600160a01b0316806106e05760405162461bcd60e51b81526004016107a1906129d7565b610bc2611352565b6001600160a01b0316610bd3610d76565b6001600160a01b031614610bf95760405162461bcd60e51b81526004016107a190612b0e565b6001600160a01b038116610c1f5760405162461bcd60e51b81526004016107a190612c12565b601280546001600160a01b0319166001600160a01b0392909216919091179055565b60006001600160a01b038216610c695760405162461bcd60e51b81526004016107a19061298d565b506001600160a01b031660009081526003602052604090205490565b610c8d611352565b6001600160a01b0316610c9e610d76565b6001600160a01b031614610cc45760405162461bcd60e51b81526004016107a190612b0e565b610cce6000611576565b565b610cd8611352565b6001600160a01b0316610ce9610d76565b6001600160a01b031614610d0f5760405162461bcd60e51b81526004016107a190612b0e565b6000610d19610944565b9050614e1f610d288383612d90565b1115610d465760405162461bcd60e51b81526004016107a190612784565b60005b828110156108e757610d6433610d5f8385612d90565b6115c8565b80610d6e81612e59565b915050610d49565b600a546001600160a01b031690565b6060600180546106f790612e1e565b600b80546107d390612e1e565b6000610dab610944565b600e5490915060ff1615610dd15760405162461bcd60e51b81526004016107a190612d52565b601e821115610df25760405162461bcd60e51b81526004016107a190612c7e565b614e1f610dff8383612d90565b1115610e1d5760405162461bcd60e51b81526004016107a190612784565b3482601054610e2c9190612dbc565b1115610e4a5760405162461bcd60e51b81526004016107a19061286b565b60005b828110156108e757610e6333610d5f8385612d90565b80610e6d81612e59565b915050610e4d565b610a48610e80611352565b83836115e2565b60105481565b600f5481565b610ea4610e9e611352565b836113c4565b610ec05760405162461bcd60e51b81526004016107a190612cb5565b610ecc84848484611685565b50505050565b600c80546107d390612e1e565b6060610eea82611335565b610f065760405162461bcd60e51b81526004016107a190612bc3565b600e5462010000900460ff16610fa857600d8054610f2390612e1e565b80601f0160208091040260200160405190810160405280929190818152602001828054610f4f90612e1e565b8015610f9c5780601f10610f7157610100808354040283529160200191610f9c565b820191906000526020600020905b815481529060010190602001808311610f7f57829003601f168201915b505050505090506106e3565b6000610fb26116b8565b90506000815111610fd25760405180602001604052806000815250611000565b80610fdc846116c7565b600c604051602001610ff093929190612489565b6040516020818303038152906040525b9392505050565b601e81565b611014611352565b6001600160a01b0316611025610d76565b6001600160a01b03161461104b5760405162461bcd60e51b81526004016107a190612b0e565b8051610a4890600c9060208401906120b0565b611066611352565b6001600160a01b0316611077610d76565b6001600160a01b03161461109d5760405162461bcd60e51b81526004016107a190612b0e565b600e8054911515620100000262ff000019909216919091179055565b6001600160a01b03918216600090815260056020908152604080832093909416825291909152205460ff1690565b60006110f1610944565b600e54909150610100900460ff161561111c5760405162461bcd60e51b81526004016107a190612640565b601e85111561113d5760405162461bcd60e51b81526004016107a190612c7e565b614e1f61114a8683612d90565b11156111685760405162461bcd60e51b81526004016107a190612784565b6012546001600160a01b031661117f3385856117e2565b6001600160a01b0316146111a55760405162461bcd60e51b81526004016107a190612ae3565b6111ae33610c41565b6111df576111be85600f54611862565b6111da5760405162461bcd60e51b81526004016107a190612b43565b61120c565b34856011546111ee9190612dbc565b111561120c5760405162461bcd60e51b81526004016107a19061286b565b60005b858110156112375761122533610d5f8385612d90565b8061122f81612e59565b91505061120f565b505050505050565b611247611352565b6001600160a01b0316611258610d76565b6001600160a01b03161461127e5760405162461bcd60e51b81526004016107a190612b0e565b8051610a4890600d9060208401906120b0565b611299611352565b6001600160a01b03166112aa610d76565b6001600160a01b0316146112d05760405162461bcd60e51b81526004016107a190612b0e565b6001600160a01b0381166112f65760405162461bcd60e51b81526004016107a19061273e565b6112ff81611576565b50565b600e54610100900460ff1681565b60006001600160e01b0319821663780e9d6360e01b14806106e057506106e082611892565b6000908152600260205260409020546001600160a01b0316151590565b3390565b600081815260046020526040902080546001600160a01b0319166001600160a01b038416908117909155819061138b82610b85565b6001600160a01b03167f8c5be1e5ebec7d5bd14f71427d1e84f3dd0314c0f7b2291e5b200ac8c7c3b92560405160405180910390a45050565b60006113cf82611335565b6113eb5760405162461bcd60e51b81526004016107a1906128e4565b60006113f683610b85565b9050806001600160a01b0316846001600160a01b031614806114315750836001600160a01b03166114268461077a565b6001600160a01b0316145b80611441575061144181856110b9565b949350505050565b826001600160a01b031661145c82610b85565b6001600160a01b0316146114825760405162461bcd60e51b81526004016107a190612b7a565b6001600160a01b0382166114a85760405162461bcd60e51b81526004016107a1906127f0565b6114b38383836118d2565b6114be600082611356565b6001600160a01b03831660009081526003602052604081208054600192906114e7908490612ddb565b90915550506001600160a01b0382166000908152600360205260408120805460019290611515908490612d90565b909155505060008181526002602052604080822080546001600160a01b0319166001600160a01b0386811691821790925591518493918716917fddf252ad1be2c89b69c2b068fc378daa952ba7f163c4a11628f55a4df523b3ef91a4505050565b600a80546001600160a01b038381166001600160a01b0319831681179093556040519116919082907f8be0079c531659141344cd1fd0a4f28419497f9722a3daafe3b4186f6b6457e090600090a35050565b610a488282604051806020016040528060008152506118dd565b816001600160a01b0316836001600160a01b031614156116145760405162461bcd60e51b81526004016107a190612834565b6001600160a01b0383811660008181526005602090815260408083209487168084529490915290819020805460ff1916851515179055517f17307eab39ab6107e8899845ad3d59bd9653f200f220920489ca2b5937696c31906116789085906125cd565b60405180910390a3505050565b611690848484611449565b61169c84848484611910565b610ecc5760405162461bcd60e51b81526004016107a1906126ec565b6060600b80546106f790612e1e565b6060816116ec57506040805180820190915260018152600360fc1b60208201526106e3565b8160005b8115611716578061170081612e59565b915061170f9050600a83612da8565b91506116f0565b60008167ffffffffffffffff81111561173f57634e487b7160e01b600052604160045260246000fd5b6040519080825280601f01601f191660200182016040528015611769576020820181803683370190505b5090505b84156114415761177e600183612ddb565b915061178b600a86612e74565b611796906030612d90565b60f81b8183815181106117b957634e487b7160e01b600052603260045260246000fd5b60200101906001600160f81b031916908160001a9053506117db600a86612da8565b945061176d565b600080846040516020016117f6919061257c565b60405160208183030381529060405280519060200120905061185984848080601f0160208091040260200160405190810160405280939291908181526020018383808284376000920191909152506118539250859150611a2b9050565b90611a5b565b95945050505050565b600080611870600185612ddb565b60115461187d9190612dbc565b6118879084612d90565b341015949350505050565b60006001600160e01b031982166380ac58cd60e01b14806118c357506001600160e01b03198216635b5e139f60e01b145b806106e057506106e082611a7f565b6108e7838383611a98565b6118e78383611b21565b6118f46000848484611910565b6108e75760405162461bcd60e51b81526004016107a1906126ec565b6000611924846001600160a01b0316611c00565b15611a2057836001600160a01b031663150b7a02611940611352565b8786866040518563ffffffff1660e01b81526004016119629493929190612590565b602060405180830381600087803b15801561197c57600080fd5b505af19250505080156119ac575060408051601f3d908101601f191682019092526119a991810190612368565b60015b611a06573d8080156119da576040519150601f19603f3d011682016040523d82523d6000602084013e6119df565b606091505b5080516119fe5760405162461bcd60e51b81526004016107a1906126ec565b805181602001fd5b6001600160e01b031916630a85bd0160e11b149050611441565b506001949350505050565b600081604051602001611a3e919061254b565b604051602081830303815290604052805190602001209050919050565b6000806000611a6a8585611c06565b91509150611a7781611c76565b509392505050565b6001600160e01b031981166301ffc9a760e01b14919050565b611aa38383836108e7565b6001600160a01b038316611abf57611aba81611da3565b611ae2565b816001600160a01b0316836001600160a01b031614611ae257611ae28382611de7565b6001600160a01b038216611afe57611af981611e84565b6108e7565b826001600160a01b0316826001600160a01b0316146108e7576108e78282611f5d565b6001600160a01b038216611b475760405162461bcd60e51b81526004016107a190612a62565b611b5081611335565b15611b6d5760405162461bcd60e51b81526004016107a1906127b9565b611b79600083836118d2565b6001600160a01b0382166000908152600360205260408120805460019290611ba2908490612d90565b909155505060008181526002602052604080822080546001600160a01b0319166001600160a01b03861690811790915590518392907fddf252ad1be2c89b69c2b068fc378daa952ba7f163c4a11628f55a4df523b3ef908290a45050565b3b151590565b600080825160411415611c3d5760208301516040840151606085015160001a611c3187828585611fa1565b94509450505050611c6f565b825160401415611c675760208301516040840151611c5c868383612081565b935093505050611c6f565b506000905060025b9250929050565b6000816004811115611c9857634e487b7160e01b600052602160045260246000fd5b1415611ca3576112ff565b6001816004811115611cc557634e487b7160e01b600052602160045260246000fd5b1415611ce35760405162461bcd60e51b81526004016107a190612609565b6002816004811115611d0557634e487b7160e01b600052602160045260246000fd5b1415611d235760405162461bcd60e51b81526004016107a19061266a565b6003816004811115611d4557634e487b7160e01b600052602160045260246000fd5b1415611d635760405162461bcd60e51b81526004016107a1906128a2565b6004816004811115611d8557634e487b7160e01b600052602160045260246000fd5b14156112ff5760405162461bcd60e51b81526004016107a190612a20565b600880546000838152600960205260408120829055600182018355919091527ff3f7a9fe364faab93b216da50a3214154f22a0a2b415b23a84c8169e8b636ee30155565b60006001611df484610c41565b611dfe9190612ddb565b600083815260076020526040902054909150808214611e51576001600160a01b03841660009081526006602090815260408083208584528252808320548484528184208190558352600790915290208190555b5060009182526007602090815260408084208490556001600160a01b039094168352600681528383209183525290812055565b600854600090611e9690600190612ddb565b60008381526009602052604081205460088054939450909284908110611ecc57634e487b7160e01b600052603260045260246000fd5b906000526020600020015490508060088381548110611efb57634e487b7160e01b600052603260045260246000fd5b6000918252602080832090910192909255828152600990915260408082208490558582528120556008805480611f4157634e487b7160e01b600052603160045260246000fd5b6001900381819060005260206000200160009055905550505050565b6000611f6883610c41565b6001600160a01b039093166000908152600660209081526040808320868452825280832085905593825260079052919091209190915550565b6000807f7fffffffffffffffffffffffffffffff5d576e7357a4501ddfe92f46681b20a0831115611fd85750600090506003612078565b8460ff16601b14158015611ff057508460ff16601c14155b156120015750600090506004612078565b60006001878787876040516000815260200160405260405161202694939291906125d8565b6020604051602081039080840390855afa158015612048573d6000803e3d6000fd5b5050604051601f1901519150506001600160a01b03811661207157600060019250925050612078565b9150600090505b94509492505050565b6000806001600160ff1b03831660ff84901c601b016120a287828885611fa1565b935093505050935093915050565b8280546120bc90612e1e565b90600052602060002090601f0160209004810192826120de5760008555612124565b82601f106120f757805160ff1916838001178555612124565b82800160010185558215612124579182015b82811115612124578251825591602001919060010190612109565b50612130929150612134565b5090565b5b808211156121305760008155600101612135565b600067ffffffffffffffff8084111561216457612164612eb4565b604051601f8501601f19168101602001828111828210171561218857612188612eb4565b6040528481529150818385018610156121a057600080fd5b8484602083013760006020868301015250509392505050565b80356001600160a01b03811681146106e357600080fd5b803580151581146106e357600080fd5b6000602082840312156121f1578081fd5b611000826121b9565b6000806040838503121561220c578081fd5b612215836121b9565b9150612223602084016121b9565b90509250929050565b600080600060608486031215612240578081fd5b612249846121b9565b9250612257602085016121b9565b9150604084013590509250925092565b6000806000806080858703121561227c578081fd5b612285856121b9565b9350612293602086016121b9565b925060408501359150606085013567ffffffffffffffff8111156122b5578182fd5b8501601f810187136122c5578182fd5b6122d487823560208401612149565b91505092959194509250565b600080604083850312156122f2578182fd5b6122fb836121b9565b9150612223602084016121d0565b6000806040838503121561231b578182fd5b612324836121b9565b946020939093013593505050565b600060208284031215612343578081fd5b611000826121d0565b60006020828403121561235d578081fd5b813561100081612eca565b600060208284031215612379578081fd5b815161100081612eca565b600060208284031215612395578081fd5b813567ffffffffffffffff8111156123ab578182fd5b8201601f810184136123bb578182fd5b61144184823560208401612149565b6000602082840312156123db578081fd5b5035919050565b600080600080606085870312156123f7578384fd5b8435935060208501359250604085013567ffffffffffffffff8082111561241c578384fd5b818701915087601f83011261242f578384fd5b81358181111561243d578485fd5b88602082850101111561244e578485fd5b95989497505060200194505050565b60008151808452612475816020860160208601612df2565b601f01601f19169290920160200192915050565b60008451602061249c8285838a01612df2565b8551918401916124af8184848a01612df2565b85549201918390600281046001808316806124cb57607f831692505b8583108114156124e957634e487b7160e01b88526022600452602488fd5b8080156124fd576001811461250e5761253a565b60ff1985168852838801955061253a565b6125178b612d84565b895b858110156125325781548a820152908401908801612519565b505083880195505b50939b9a5050505050505050505050565b7f19457468657265756d205369676e6564204d6573736167653a0a3332000000008152601c810191909152603c0190565b6001600160a01b0391909116815260200190565b6001600160a01b03858116825284166020820152604081018390526080606082018190526000906125c39083018461245d565b9695505050505050565b901515815260200190565b93845260ff9290921660208401526040830152606082015260800190565b600060208252611000602083018461245d565b60208082526018908201527f45434453413a20696e76616c6964207369676e61747572650000000000000000604082015260600190565b60208082526010908201526f15da1a5d195b1a5cdd0814185d5cd95960821b604082015260600190565b6020808252601f908201527f45434453413a20696e76616c6964207369676e6174757265206c656e67746800604082015260600190565b6020808252602b908201527f455243373231456e756d657261626c653a206f776e657220696e646578206f7560408201526a74206f6620626f756e647360a81b606082015260800190565b60208082526032908201527f4552433732313a207472616e7366657220746f206e6f6e20455243373231526560408201527131b2b4bb32b91034b6b83632b6b2b73a32b960711b606082015260800190565b60208082526026908201527f4f776e61626c653a206e6577206f776e657220697320746865207a65726f206160408201526564647265737360d01b606082015260800190565b6020808252818101527f507572636861736520776f756c6420657863656564206d617820746f6b656e73604082015260600190565b6020808252601c908201527f4552433732313a20746f6b656e20616c7265616479206d696e74656400000000604082015260600190565b60208082526024908201527f4552433732313a207472616e7366657220746f20746865207a65726f206164646040820152637265737360e01b606082015260800190565b60208082526019908201527f4552433732313a20617070726f766520746f2063616c6c657200000000000000604082015260600190565b6020808252601f908201527f45746865722076616c75652073656e74206973206e6f7420636f727265637400604082015260600190565b60208082526022908201527f45434453413a20696e76616c6964207369676e6174757265202773272076616c604082015261756560f01b606082015260800190565b6020808252602c908201527f4552433732313a206f70657261746f7220717565727920666f72206e6f6e657860408201526b34b9ba32b73a103a37b5b2b760a11b606082015260800190565b60208082526038908201527f4552433732313a20617070726f76652063616c6c6572206973206e6f74206f7760408201527f6e6572206e6f7220617070726f76656420666f7220616c6c0000000000000000606082015260800190565b6020808252602a908201527f4552433732313a2062616c616e636520717565727920666f7220746865207a65604082015269726f206164647265737360b01b606082015260800190565b60208082526029908201527f4552433732313a206f776e657220717565727920666f72206e6f6e657869737460408201526832b73a103a37b5b2b760b91b606082015260800190565b60208082526022908201527f45434453413a20696e76616c6964207369676e6174757265202776272076616c604082015261756560f01b606082015260800190565b6020808252818101527f4552433732313a206d696e7420746f20746865207a65726f2061646472657373604082015260600190565b6020808252602c908201527f4552433732313a20617070726f76656420717565727920666f72206e6f6e657860408201526b34b9ba32b73a103a37b5b2b760a11b606082015260800190565b602080825260119082015270496e76616c6964205369676e617475726560781b604082015260600190565b6020808252818101527f4f776e61626c653a2063616c6c6572206973206e6f7420746865206f776e6572604082015260600190565b6020808252601b908201527f45746865722076616c756573206973206e6f7420636f72726563740000000000604082015260600190565b60208082526029908201527f4552433732313a207472616e73666572206f6620746f6b656e2074686174206960408201526839903737ba1037bbb760b91b606082015260800190565b6020808252602f908201527f4552433732314d657461646174613a2055524920717565727920666f72206e6f60408201526e3732bc34b9ba32b73a103a37b5b2b760891b606082015260800190565b602080825260119082015270696e636f7272656374206164647265737360781b604082015260600190565b60208082526021908201527f4552433732313a20617070726f76616c20746f2063757272656e74206f776e656040820152603960f91b606082015260800190565b6020808252601b908201527f4578636565646564206d617820746f6b656e2070757263686173650000000000604082015260600190565b60208082526031908201527f4552433732313a207472616e736665722063616c6c6572206973206e6f74206f6040820152701ddb995c881b9bdc88185c1c1c9bdd9959607a1b606082015260800190565b6020808252602c908201527f455243373231456e756d657261626c653a20676c6f62616c20696e646578206f60408201526b7574206f6620626f756e647360a01b606082015260800190565b6020808252600f908201526e10dbdb9d1c9858dd0814185d5cd959608a1b604082015260600190565b90815260200190565b60009081526020902090565b60008219821115612da357612da3612e88565b500190565b600082612db757612db7612e9e565b500490565b6000816000190483118215151615612dd657612dd6612e88565b500290565b600082821015612ded57612ded612e88565b500390565b60005b83811015612e0d578181015183820152602001612df5565b83811115610ecc5750506000910152565b600281046001821680612e3257607f821691505b60208210811415612e5357634e487b7160e01b600052602260045260246000fd5b50919050565b6000600019821415612e6d57612e6d612e88565b5060010190565b600082612e8357612e83612e9e565b500690565b634e487b7160e01b600052601160045260246000fd5b634e487b7160e01b600052601260045260246000fd5b634e487b7160e01b600052604160045260246000fd5b6001600160e01b0319811681146112ff57600080fdfea26469706673582212204a6e1ea40ba84bf0091a8de5403fb8eddedc139ad731c24457ec0f2a5f8c6d0b64736f6c63430008000033",
  "linkReferences": {},
  "deployedLinkReferences": {}
}