{
  "_format": "hh-sol-artifact-1",
  "contractName": "TestContract",
  "sourceName": "contracts/TestContract.sol",
  "abi": [
    {
      "inputs": [
        {
          "internalType": "string",
          "name": "_name",
          "type": "string"
        },
        {
          "internalType": "string",
          "name": "_symbol",
          "type": "string"
        },
        {
          "internalType": "address",
          "name": "_signer",
          "type": "address"
        },
        {
          "internalType": "string",
          "name": "_initBaseURI",
          "type": "string"
        },
        {
          "internalType": "string",
          "name": "_initNotRevealedUri",
          "type": "string"
        }
      ],
      "stateMutability": "nonpayable",
      "type": "constructor"
    },
    {
      "anonymous": false,
      "inputs": [
        {
          "indexed": true,
          "internalType": "address",
          "name": "owner",
          "type": "address"
        },
        {
          "indexed": true,
          "internalType": "address",
          "name": "approved",
          "type": "address"
        },
        {
          "indexed": true,
          "internalType": "uint256",
          "name": "tokenId",
          "type": "uint256"
        }
      ],
      "name": "Approval",
      "type": "event"
    },
    {
      "anonymous": false,
      "inputs": [
        {
          "indexed": true,
          "internalType": "address",
          "name": "owner",
          "type": "address"
        },
        {
          "indexed": true,
          "internalType": "address",
          "name": "operator",
          "type": "address"
        },
        {
          "indexed": false,
          "internalType": "bool",
          "name": "approved",
          "type": "bool"
        }
      ],
      "name": "ApprovalForAll",
      "type": "event"
    },
    {
      "anonymous": false,
      "inputs": [
        {
          "indexed": true,
          "internalType": "address",
          "name": "previousOwner",
          "type": "address"
        },
        {
          "indexed": true,
          "internalType": "address",
          "name": "newOwner",
          "type": "address"
        }
      ],
      "name": "OwnershipTransferred",
      "type": "event"
    },
    {
      "anonymous": false,
      "inputs": [
        {
          "indexed": true,
          "internalType": "address",
          "name": "from",
          "type": "address"
        },
        {
          "indexed": true,
          "internalType": "address",
          "name": "to",
          "type": "address"
        },
        {
          "indexed": true,
          "internalType": "uint256",
          "name": "tokenId",
          "type": "uint256"
        }
      ],
      "name": "Transfer",
      "type": "event"
    },
    {
      "inputs": [],
      "name": "MAX_PER_TRANSACTION",
      "outputs": [
        {
          "internalType": "uint256",
          "name": "",
          "type": "uint256"
        }
      ],
      "stateMutability": "view",
      "type": "function"
    },
    {
      "inputs": [],
      "name": "MAX_SUPPLY",
      "outputs": [
        {
          "internalType": "uint256",
          "name": "",
          "type": "uint256"
        }
      ],
      "stateMutability": "view",
      "type": "function"
    },
    {
      "inputs": [],
      "name": "PRICE_FIRST",
      "outputs": [
        {
          "internalType": "uint256",
          "name": "",
          "type": "uint256"
        }
      ],
      "stateMutability": "view",
      "type": "function"
    },
    {
      "inputs": [],
      "name": "PRICE_PUBLIC",
      "outputs": [
        {
          "internalType": "uint256",
          "name": "",
          "type": "uint256"
        }
      ],
      "stateMutability": "view",
      "type": "function"
    },
    {
      "inputs": [],
      "name": "PRICE_SECOND",
      "outputs": [
        {
          "internalType": "uint256",
          "name": "",
          "type": "uint256"
        }
      ],
      "stateMutability": "view",
      "type": "function"
    },
    {
      "inputs": [
        {
          "internalType": "address",
          "name": "to",
          "type": "address"
        },
        {
          "internalType": "uint256",
          "name": "tokenId",
          "type": "uint256"
        }
      ],
      "name": "approve",
      "outputs": [],
      "stateMutability": "nonpayable",
      "type": "function"
    },
    {
      "inputs": [
        {
          "internalType": "address",
          "name": "owner",
          "type": "address"
        }
      ],
      "name": "balanceOf",
      "outputs": [
        {
          "internalType": "uint256",
          "name": "",
          "type": "uint256"
        }
      ],
      "stateMutability": "view",
      "type": "function"
    },
    {
      "inputs": [],
      "name": "baseExtension",
      "outputs": [
        {
          "internalType": "string",
          "name": "",
          "type": "string"
        }
      ],
      "stateMutability": "view",
      "type": "function"
    },
    {
      "inputs": [],
      "name": "baseUri",
      "outputs": [
        {
          "internalType": "string",
          "name": "",
          "type": "string"
        }
      ],
      "stateMutability": "view",
      "type": "function"
    },
    {
      "inputs": [
        {
          "internalType": "uint256",
          "name": "tokenId",
          "type": "uint256"
        }
      ],
      "name": "getApproved",
      "outputs": [
        {
          "internalType": "address",
          "name": "",
          "type": "address"
        }
      ],
      "stateMutability": "view",
      "type": "function"
    },
    {
      "inputs": [
        {
          "internalType": "address",
          "name": "owner",
          "type": "address"
        },
        {
          "internalType": "address",
          "name": "operator",
          "type": "address"
        }
      ],
      "name": "isApprovedForAll",
      "outputs": [
        {
          "internalType": "bool",
          "name": "",
          "type": "bool"
        }
      ],
      "stateMutability": "view",
      "type": "function"
    },
    {
      "inputs": [
        {
          "internalType": "uint256",
          "name": "numberOfTokens",
          "type": "uint256"
        }
      ],
      "name": "mint",
      "outputs": [],
      "stateMutability": "payable",
      "type": "function"
    },
    {
      "inputs": [
        {
          "internalType": "uint256",
          "name": "numberOfTokens",
          "type": "uint256"
        },
        {
          "internalType": "address",
          "name": "to",
          "type": "address"
        }
      ],
      "name": "mintTo",
      "outputs": [],
      "stateMutability": "nonpayable",
      "type": "function"
    },
    {
      "inputs": [],
      "name": "name",
      "outputs": [
        {
          "internalType": "string",
          "name": "",
          "type": "string"
        }
      ],
      "stateMutability": "view",
      "type": "function"
    },
    {
      "inputs": [],
      "name": "notRevealedUri",
      "outputs": [
        {
          "internalType": "string",
          "name": "",
          "type": "string"
        }
      ],
      "stateMutability": "view",
      "type": "function"
    },
    {
      "inputs": [],
      "name": "owner",
      "outputs": [
        {
          "internalType": "address",
          "name": "",
          "type": "address"
        }
      ],
      "stateMutability": "view",
      "type": "function"
    },
    {
      "inputs": [
        {
          "internalType": "uint256",
          "name": "tokenId",
          "type": "uint256"
        }
      ],
      "name": "ownerOf",
      "outputs": [
        {
          "internalType": "address",
          "name": "",
          "type": "address"
        }
      ],
      "stateMutability": "view",
      "type": "function"
    },
    {
      "inputs": [],
      "name": "paused",
      "outputs": [
        {
          "internalType": "bool",
          "name": "",
          "type": "bool"
        }
      ],
      "stateMutability": "view",
      "type": "function"
    },
    {
      "inputs": [],
      "name": "pausedWhitelist",
      "outputs": [
        {
          "internalType": "bool",
          "name": "",
          "type": "bool"
        }
      ],
      "stateMutability": "view",
      "type": "function"
    },
    {
      "inputs": [],
      "name": "renounceOwnership",
      "outputs": [],
      "stateMutability": "nonpayable",
      "type": "function"
    },
    {
      "inputs": [
        {
          "internalType": "uint256",
          "name": "numberOfTokens",
          "type": "uint256"
        }
      ],
      "name": "reserve",
      "outputs": [],
      "stateMutability": "nonpayable",
      "type": "function"
    },
    {
      "inputs": [],
      "name": "revealed",
      "outputs": [
        {
          "internalType": "bool",
          "name": "",
          "type": "bool"
        }
      ],
      "stateMutability": "view",
      "type": "function"
    },
    {
      "inputs": [
        {
          "internalType": "address",
          "name": "from",
          "type": "address"
        },
        {
          "internalType": "address",
          "name": "to",
          "type": "address"
        },
        {
          "internalType": "uint256",
          "name": "tokenId",
          "type": "uint256"
        }
      ],
      "name": "safeTransferFrom",
      "outputs": [],
      "stateMutability": "nonpayable",
      "type": "function"
    },
    {
      "inputs": [
        {
          "internalType": "address",
          "name": "from",
          "type": "address"
        },
        {
          "internalType": "address",
          "name": "to",
          "type": "address"
        },
        {
          "internalType": "uint256",
          "name": "tokenId",
          "type": "uint256"
        },
        {
          "internalType": "bytes",
          "name": "_data",
          "type": "bytes"
        }
      ],
      "name": "safeTransferFrom",
      "outputs": [],
      "stateMutability": "nonpayable",
      "type": "function"
    },
    {
      "inputs": [
        {
          "internalType": "address",
          "name": "operator",
          "type": "address"
        },
        {
          "internalType": "bool",
          "name": "approved",
          "type": "bool"
        }
      ],
      "name": "setApprovalForAll",
      "outputs": [],
      "stateMutability": "nonpayable",
      "type": "function"
    },
    {
      "inputs": [
        {
          "internalType": "string",
          "name": "_newBaseExtension",
          "type": "string"
        }
      ],
      "name": "setBaseExtension",
      "outputs": [],
      "stateMutability": "nonpayable",
      "type": "function"
    },
    {
      "inputs": [
        {
          "internalType": "string",
          "name": "newBaseURI",
          "type": "string"
        }
      ],
      "name": "setBaseURI",
      "outputs": [],
      "stateMutability": "nonpayable",
      "type": "function"
    },
    {
      "inputs": [
        {
          "internalType": "string",
          "name": "_notRevealedURI",
          "type": "string"
        }
      ],
      "name": "setNotRevealedURI",
      "outputs": [],
      "stateMutability": "nonpayable",
      "type": "function"
    },
    {
      "inputs": [
        {
          "internalType": "bool",
          "name": "newState",
          "type": "bool"
        }
      ],
      "name": "setPaused",
      "outputs": [],
      "stateMutability": "nonpayable",
      "type": "function"
    },
    {
      "inputs": [
        {
          "internalType": "bool",
          "name": "newState",
          "type": "bool"
        }
      ],
      "name": "setPausedWhitelist",
      "outputs": [],
      "stateMutability": "nonpayable",
      "type": "function"
    },
    {
      "inputs": [
        {
          "internalType": "bool",
          "name": "newState",
          "type": "bool"
        }
      ],
      "name": "setRevealed",
      "outputs": [],
      "stateMutability": "nonpayable",
      "type": "function"
    },
    {
      "inputs": [
        {
          "internalType": "address",
          "name": "newSigner",
          "type": "address"
        }
      ],
      "name": "setSigner",
      "outputs": [],
      "stateMutability": "nonpayable",
      "type": "function"
    },
    {
      "inputs": [
        {
          "internalType": "bytes4",
          "name": "interfaceId",
          "type": "bytes4"
        }
      ],
      "name": "supportsInterface",
      "outputs": [
        {
          "internalType": "bool",
          "name": "",
          "type": "bool"
        }
      ],
      "stateMutability": "view",
      "type": "function"
    },
    {
      "inputs": [],
      "name": "symbol",
      "outputs": [
        {
          "internalType": "string",
          "name": "",
          "type": "string"
        }
      ],
      "stateMutability": "view",
      "type": "function"
    },
    {
      "inputs": [
        {
          "internalType": "uint256",
          "name": "index",
          "type": "uint256"
        }
      ],
      "name": "tokenByIndex",
      "outputs": [
        {
          "internalType": "uint256",
          "name": "",
          "type": "uint256"
        }
      ],
      "stateMutability": "view",
      "type": "function"
    },
    {
      "inputs": [
        {
          "internalType": "address",
          "name": "owner",
          "type": "address"
        },
        {
          "internalType": "uint256",
          "name": "index",
          "type": "uint256"
        }
      ],
      "name": "tokenOfOwnerByIndex",
      "outputs": [
        {
          "internalType": "uint256",
          "name": "",
          "type": "uint256"
        }
      ],
      "stateMutability": "view",
      "type": "function"
    },
    {
      "inputs": [
        {
          "internalType": "uint256",
          "name": "tokenId",
          "type": "uint256"
        }
      ],
      "name": "tokenURI",
      "outputs": [
        {
          "internalType": "string",
          "name": "",
          "type": "string"
        }
      ],
      "stateMutability": "view",
      "type": "function"
    },
    {
      "inputs": [],
      "name": "totalSupply",
      "outputs": [
        {
          "internalType": "uint256",
          "name": "",
          "type": "uint256"
        }
      ],
      "stateMutability": "view",
      "type": "function"
    },
    {
      "inputs": [
        {
          "internalType": "address",
          "name": "from",
          "type": "address"
        },
        {
          "internalType": "address",
          "name": "to",
          "type": "address"
        },
        {
          "internalType": "uint256",
          "name": "tokenId",
          "type": "uint256"
        }
      ],
      "name": "transferFrom",
      "outputs": [],
      "stateMutability": "nonpayable",
      "type": "function"
    },
    {
      "inputs": [
        {
          "internalType": "address",
          "name": "newOwner",
          "type": "address"
        }
      ],
      "name": "transferOwnership",
      "outputs": [],
      "stateMutability": "nonpayable",
      "type": "function"
    },
    {
      "inputs": [
        {
          "internalType": "uint256",
          "name": "numberOfTokens",
          "type": "uint256"
        },
        {
          "internalType": "uint256",
          "name": "limit",
          "type": "uint256"
        },
        {
          "internalType": "bytes",
          "name": "_signature",
          "type": "bytes"
        }
      ],
      "name": "whitelistMint",
      "outputs": [],
      "stateMutability": "payable",
      "type": "function"
    },
    {
      "inputs": [],
      "name": "withdraw",
      "outputs": [],
      "stateMutability": "nonpayable",
      "type": "function"
    }
  ],
  "bytecode": "0x60c06040526005608081905264173539b7b760d91b60a09081526200002891600c9190620002ce565b50600e805462ff00001961ff001960ff19909216600117919091166101001716905567011c37937e080000600f5567013fbe85edc9000060105566d529ae9e8600006011553480156200007a57600080fd5b50604051620035bb380380620035bb8339810160408190526200009d916200041f565b845185908590620000b6906000906020850190620002ce565b508051620000cc906001906020840190620002ce565b505050620000e9620000e36200011560201b60201c565b62000119565b620000f4826200016b565b620000ff81620001d3565b6200010a836200022e565b5050505050620005a7565b3390565b600a80546001600160a01b038381166001600160a01b0319831681179093556040519116919082907f8be0079c531659141344cd1fd0a4f28419497f9722a3daafe3b4186f6b6457e090600090a35050565b6200017562000115565b6001600160a01b031662000188620002bf565b6001600160a01b031614620001ba5760405162461bcd60e51b8152600401620001b190620004f4565b60405180910390fd5b8051620001cf90600b906020840190620002ce565b5050565b620001dd62000115565b6001600160a01b0316620001f0620002bf565b6001600160a01b031614620002195760405162461bcd60e51b8152600401620001b190620004f4565b8051620001cf90600d906020840190620002ce565b6200023862000115565b6001600160a01b03166200024b620002bf565b6001600160a01b031614620002745760405162461bcd60e51b8152600401620001b190620004f4565b6001600160a01b0381166200029d5760405162461bcd60e51b8152600401620001b19062000529565b601280546001600160a01b0319166001600160a01b0392909216919091179055565b600a546001600160a01b031690565b828054620002dc9062000554565b90600052602060002090601f0160209004810192826200030057600085556200034b565b82601f106200031b57805160ff19168380011785556200034b565b828001600101855582156200034b579182015b828111156200034b5782518255916020019190600101906200032e565b50620003599291506200035d565b5090565b5b808211156200035957600081556001016200035e565b600082601f83011262000385578081fd5b81516001600160401b0380821115620003a257620003a262000591565b6040516020601f8401601f1916820181018381118382101715620003ca57620003ca62000591565b6040528382528584018101871015620003e1578485fd5b8492505b83831015620004045785830181015182840182015291820191620003e5565b838311156200041557848185840101525b5095945050505050565b600080600080600060a0868803121562000437578081fd5b85516001600160401b03808211156200044e578283fd5b6200045c89838a0162000374565b9650602088015191508082111562000472578283fd5b6200048089838a0162000374565b604089015190965091506001600160a01b03821682146200049f578283fd5b606088015191945080821115620004b4578283fd5b620004c289838a0162000374565b93506080880151915080821115620004d8578283fd5b50620004e78882890162000374565b9150509295509295909350565b6020808252818101527f4f776e61626c653a2063616c6c6572206973206e6f7420746865206f776e6572604082015260600190565b602080825260119082015270696e636f7272656374206164647265737360781b604082015260600190565b6002810460018216806200056957607f821691505b602082108114156200058b57634e487b7160e01b600052602260045260246000fd5b50919050565b634e487b7160e01b600052604160045260246000fd5b61300480620005b76000396000f3fe6080604052600436106102515760003560e01c8063715018a611610139578063b88d4fde116100b6578063e0a808531161007a578063e0a8085314610658578063e985e9c514610678578063ec596b7214610698578063f2c4ce1e146106ab578063f2fde38b146106cb578063f72ec829146106eb57610251565b8063b88d4fde146105ce578063c6682862146105ee578063c87b56dd14610603578063cb14eb8714610623578063da3ef23f1461063857610251565b8063a0712d68116100fd578063a0712d6814610551578063a22cb46514610564578063a56d773014610584578063a8a4b4f114610599578063b723b34e146105ae57610251565b8063715018a6146104dd578063819b25ba146104f25780638da5cb5b1461051257806395d89b41146105275780639abc83201461053c57610251565b806332cb6b0c116101d257806355f804b31161019657806355f804b31461042857806357ae51fb146104485780635c975abb146104685780636352211e1461047d5780636c19e7831461049d57806370a08231146104bd57610251565b806332cb6b0c146103a95780633ccfd60b146103be57806342842e0e146103d35780634f6ccce7146103f3578063518302271461041357610251565b80631315be25116102195780631315be251461031257806316c38b3c1461033457806318160ddd1461035457806323b872dd146103695780632f745c591461038957610251565b806301ffc9a71461025657806306fdde031461028c578063081812fc146102ae578063081c8c44146102db578063095ea7b3146102f0575b600080fd5b34801561026257600080fd5b50610276610271366004612418565b610700565b60405161028391906126bb565b60405180910390f35b34801561029857600080fd5b506102a1610713565b60405161028391906126e4565b3480156102ba57600080fd5b506102ce6102c9366004612496565b6107a5565b604051610283919061266a565b3480156102e757600080fd5b506102a16107f1565b3480156102fc57600080fd5b5061031061030b3660046123d5565b61087f565b005b34801561031e57600080fd5b50610327610917565b6040516102839190612e69565b34801561034057600080fd5b5061031061034f3660046123fe565b61091d565b34801561036057600080fd5b5061032761096f565b34801561037557600080fd5b506103106103843660046122f8565b610975565b34801561039557600080fd5b506103276103a43660046123d5565b6109ad565b3480156103b557600080fd5b506103276109ff565b3480156103ca57600080fd5b50610310610a05565b3480156103df57600080fd5b506103106103ee3660046122f8565b610a77565b3480156103ff57600080fd5b5061032761040e366004612496565b610a92565b34801561041f57600080fd5b50610276610aed565b34801561043457600080fd5b50610310610443366004612450565b610afc565b34801561045457600080fd5b506103106104633660046123fe565b610b4e565b34801561047457600080fd5b50610276610ba7565b34801561048957600080fd5b506102ce610498366004612496565b610bb0565b3480156104a957600080fd5b506103106104b83660046122ac565b610be5565b3480156104c957600080fd5b506103276104d83660046122ac565b610c6c565b3480156104e957600080fd5b50610310610cb0565b3480156104fe57600080fd5b5061031061050d366004612496565b610cfb565b34801561051e57600080fd5b506102ce610da1565b34801561053357600080fd5b506102a1610db0565b34801561054857600080fd5b506102a1610dbf565b61031061055f366004612496565b610dcc565b34801561057057600080fd5b5061031061057f3660046123ac565b610ea0565b34801561059057600080fd5b50610327610eb2565b3480156105a557600080fd5b50610327610eb8565b3480156105ba57600080fd5b506103106105c93660046124ae565b610ebe565b3480156105da57600080fd5b506103106105e9366004612333565b610f65565b3480156105fa57600080fd5b506102a1610f9e565b34801561060f57600080fd5b506102a161061e366004612496565b610fab565b34801561062f57600080fd5b506103276110d3565b34801561064457600080fd5b50610310610653366004612450565b6110d8565b34801561066457600080fd5b506103106106733660046123fe565b61112a565b34801561068457600080fd5b506102766106933660046122c6565b611185565b6103106106a63660046124d0565b6111b3565b3480156106b757600080fd5b506103106106c6366004612450565b61130b565b3480156106d757600080fd5b506103106106e63660046122ac565b61135d565b3480156106f757600080fd5b506102766113ce565b600061070b826113dc565b90505b919050565b60606000805461072290612f0c565b80601f016020809104026020016040519081016040528092919081815260200182805461074e90612f0c565b801561079b5780601f106107705761010080835404028352916020019161079b565b820191906000526020600020905b81548152906001019060200180831161077e57829003601f168201915b5050505050905090565b60006107b082611401565b6107d55760405162461bcd60e51b81526004016107cc90612b85565b60405180910390fd5b506000908152600460205260409020546001600160a01b031690565b600d80546107fe90612f0c565b80601f016020809104026020016040519081016040528092919081815260200182805461082a90612f0c565b80156108775780601f1061084c57610100808354040283529160200191610877565b820191906000526020600020905b81548152906001019060200180831161085a57829003601f168201915b505050505081565b600061088a82610bb0565b9050806001600160a01b0316836001600160a01b031614156108be5760405162461bcd60e51b81526004016107cc90612d2b565b806001600160a01b03166108d061141e565b6001600160a01b031614806108ec57506108ec8161069361141e565b6109085760405162461bcd60e51b81526004016107cc90612a1e565b6109128383611422565b505050565b60115481565b61092561141e565b6001600160a01b0316610936610da1565b6001600160a01b03161461095c5760405162461bcd60e51b81526004016107cc90612bfc565b600e805460ff1916911515919091179055565b60085490565b61098661098061141e565b82611490565b6109a25760405162461bcd60e51b81526004016107cc90612da3565b610912838383611515565b60006109b883610c6c565b82106109d65760405162461bcd60e51b81526004016107cc9061278f565b506001600160a01b03919091166000908152600660209081526040808320938352929052205490565b614e1f81565b610a0d61141e565b6001600160a01b0316610a1e610da1565b6001600160a01b031614610a445760405162461bcd60e51b81526004016107cc90612bfc565b6040514790339082156108fc029083906000818181858888f19350505050158015610a73573d6000803e3d6000fd5b5050565b61091283838360405180602001604052806000815250610f65565b6000610a9c61096f565b8210610aba5760405162461bcd60e51b81526004016107cc90612df4565b60088281548110610adb57634e487b7160e01b600052603260045260246000fd5b90600052602060002001549050919050565b600e5462010000900460ff1681565b610b0461141e565b6001600160a01b0316610b15610da1565b6001600160a01b031614610b3b5760405162461bcd60e51b81526004016107cc90612bfc565b8051610a7390600b90602084019061217c565b610b5661141e565b6001600160a01b0316610b67610da1565b6001600160a01b031614610b8d5760405162461bcd60e51b81526004016107cc90612bfc565b600e80549115156101000261ff0019909216919091179055565b600e5460ff1681565b6000818152600260205260408120546001600160a01b03168061070b5760405162461bcd60e51b81526004016107cc90612ac5565b610bed61141e565b6001600160a01b0316610bfe610da1565b6001600160a01b031614610c245760405162461bcd60e51b81526004016107cc90612bfc565b6001600160a01b038116610c4a5760405162461bcd60e51b81526004016107cc90612d00565b601280546001600160a01b0319166001600160a01b0392909216919091179055565b60006001600160a01b038216610c945760405162461bcd60e51b81526004016107cc90612a7b565b506001600160a01b031660009081526003602052604090205490565b610cb861141e565b6001600160a01b0316610cc9610da1565b6001600160a01b031614610cef5760405162461bcd60e51b81526004016107cc90612bfc565b610cf96000611642565b565b610d0361141e565b6001600160a01b0316610d14610da1565b6001600160a01b031614610d3a5760405162461bcd60e51b81526004016107cc90612bfc565b6000610d4461096f565b9050614e1f610d538383612e7e565b1115610d715760405162461bcd60e51b81526004016107cc90612872565b60005b8281101561091257610d8f33610d8a8385612e7e565b611694565b80610d9981612f47565b915050610d74565b600a546001600160a01b031690565b60606001805461072290612f0c565b600b80546107fe90612f0c565b6000610dd661096f565b600e5490915060ff1615610dfc5760405162461bcd60e51b81526004016107cc90612e40565b601e821115610e1d5760405162461bcd60e51b81526004016107cc90612d6c565b614e1f610e2a8383612e7e565b1115610e485760405162461bcd60e51b81526004016107cc90612872565b3482601054610e579190612eaa565b1115610e755760405162461bcd60e51b81526004016107cc90612959565b60005b8281101561091257610e8e33610d8a8385612e7e565b80610e9881612f47565b915050610e78565b610a73610eab61141e565b83836116ae565b60105481565b600f5481565b610ec661141e565b6001600160a01b0316610ed7610da1565b6001600160a01b031614610efd5760405162461bcd60e51b81526004016107cc90612bfc565b6000610f0761096f565b9050614e1f610f168483612e7e565b1115610f345760405162461bcd60e51b81526004016107cc90612872565b60005b83811015610f5f57610f4d83610d8a8385612e7e565b80610f5781612f47565b915050610f37565b50505050565b610f76610f7061141e565b83611490565b610f925760405162461bcd60e51b81526004016107cc90612da3565b610f5f84848484611751565b600c80546107fe90612f0c565b6060610fb682611401565b610fd25760405162461bcd60e51b81526004016107cc90612cb1565b600e5462010000900460ff1661107457600d8054610fef90612f0c565b80601f016020809104026020016040519081016040528092919081815260200182805461101b90612f0c565b80156110685780601f1061103d57610100808354040283529160200191611068565b820191906000526020600020905b81548152906001019060200180831161104b57829003601f168201915b5050505050905061070e565b600061107e611784565b9050600081511161109e57604051806020016040528060008152506110cc565b806110a884611793565b600c6040516020016110bc93929190612577565b6040516020818303038152906040525b9392505050565b601e81565b6110e061141e565b6001600160a01b03166110f1610da1565b6001600160a01b0316146111175760405162461bcd60e51b81526004016107cc90612bfc565b8051610a7390600c90602084019061217c565b61113261141e565b6001600160a01b0316611143610da1565b6001600160a01b0316146111695760405162461bcd60e51b81526004016107cc90612bfc565b600e8054911515620100000262ff000019909216919091179055565b6001600160a01b03918216600090815260056020908152604080832093909416825291909152205460ff1690565b60006111bd61096f565b600e54909150610100900460ff16156111e85760405162461bcd60e51b81526004016107cc9061272e565b601e8511156112095760405162461bcd60e51b81526004016107cc90612d6c565b614e1f6112168683612e7e565b11156112345760405162461bcd60e51b81526004016107cc90612872565b6012546001600160a01b031661124b3385856118ae565b6001600160a01b0316146112715760405162461bcd60e51b81526004016107cc90612bd1565b61127a33610c6c565b6112ab5761128a85600f5461192e565b6112a65760405162461bcd60e51b81526004016107cc90612c31565b6112d8565b34856011546112ba9190612eaa565b11156112d85760405162461bcd60e51b81526004016107cc90612959565b60005b85811015611303576112f133610d8a8385612e7e565b806112fb81612f47565b9150506112db565b505050505050565b61131361141e565b6001600160a01b0316611324610da1565b6001600160a01b03161461134a5760405162461bcd60e51b81526004016107cc90612bfc565b8051610a7390600d90602084019061217c565b61136561141e565b6001600160a01b0316611376610da1565b6001600160a01b03161461139c5760405162461bcd60e51b81526004016107cc90612bfc565b6001600160a01b0381166113c25760405162461bcd60e51b81526004016107cc9061282c565b6113cb81611642565b50565b600e54610100900460ff1681565b60006001600160e01b0319821663780e9d6360e01b148061070b575061070b8261195e565b6000908152600260205260409020546001600160a01b0316151590565b3390565b600081815260046020526040902080546001600160a01b0319166001600160a01b038416908117909155819061145782610bb0565b6001600160a01b03167f8c5be1e5ebec7d5bd14f71427d1e84f3dd0314c0f7b2291e5b200ac8c7c3b92560405160405180910390a45050565b600061149b82611401565b6114b75760405162461bcd60e51b81526004016107cc906129d2565b60006114c283610bb0565b9050806001600160a01b0316846001600160a01b031614806114fd5750836001600160a01b03166114f2846107a5565b6001600160a01b0316145b8061150d575061150d8185611185565b949350505050565b826001600160a01b031661152882610bb0565b6001600160a01b03161461154e5760405162461bcd60e51b81526004016107cc90612c68565b6001600160a01b0382166115745760405162461bcd60e51b81526004016107cc906128de565b61157f83838361199e565b61158a600082611422565b6001600160a01b03831660009081526003602052604081208054600192906115b3908490612ec9565b90915550506001600160a01b03821660009081526003602052604081208054600192906115e1908490612e7e565b909155505060008181526002602052604080822080546001600160a01b0319166001600160a01b0386811691821790925591518493918716917fddf252ad1be2c89b69c2b068fc378daa952ba7f163c4a11628f55a4df523b3ef91a4505050565b600a80546001600160a01b038381166001600160a01b0319831681179093556040519116919082907f8be0079c531659141344cd1fd0a4f28419497f9722a3daafe3b4186f6b6457e090600090a35050565b610a738282604051806020016040528060008152506119a9565b816001600160a01b0316836001600160a01b031614156116e05760405162461bcd60e51b81526004016107cc90612922565b6001600160a01b0383811660008181526005602090815260408083209487168084529490915290819020805460ff1916851515179055517f17307eab39ab6107e8899845ad3d59bd9653f200f220920489ca2b5937696c31906117449085906126bb565b60405180910390a3505050565b61175c848484611515565b611768848484846119dc565b610f5f5760405162461bcd60e51b81526004016107cc906127da565b6060600b805461072290612f0c565b6060816117b857506040805180820190915260018152600360fc1b602082015261070e565b8160005b81156117e257806117cc81612f47565b91506117db9050600a83612e96565b91506117bc565b60008167ffffffffffffffff81111561180b57634e487b7160e01b600052604160045260246000fd5b6040519080825280601f01601f191660200182016040528015611835576020820181803683370190505b5090505b841561150d5761184a600183612ec9565b9150611857600a86612f62565b611862906030612e7e565b60f81b81838151811061188557634e487b7160e01b600052603260045260246000fd5b60200101906001600160f81b031916908160001a9053506118a7600a86612e96565b9450611839565b600080846040516020016118c2919061266a565b60405160208183030381529060405280519060200120905061192584848080601f01602080910402602001604051908101604052809392919081815260200183838082843760009201919091525061191f9250859150611af79050565b90611b27565b95945050505050565b60008061193c600185612ec9565b6011546119499190612eaa565b6119539084612e7e565b341015949350505050565b60006001600160e01b031982166380ac58cd60e01b148061198f57506001600160e01b03198216635b5e139f60e01b145b8061070b575061070b82611b4b565b610912838383611b64565b6119b38383611bed565b6119c060008484846119dc565b6109125760405162461bcd60e51b81526004016107cc906127da565b60006119f0846001600160a01b0316611ccc565b15611aec57836001600160a01b031663150b7a02611a0c61141e565b8786866040518563ffffffff1660e01b8152600401611a2e949392919061267e565b602060405180830381600087803b158015611a4857600080fd5b505af1925050508015611a78575060408051601f3d908101601f19168201909252611a7591810190612434565b60015b611ad2573d808015611aa6576040519150601f19603f3d011682016040523d82523d6000602084013e611aab565b606091505b508051611aca5760405162461bcd60e51b81526004016107cc906127da565b805181602001fd5b6001600160e01b031916630a85bd0160e11b14905061150d565b506001949350505050565b600081604051602001611b0a9190612639565b604051602081830303815290604052805190602001209050919050565b6000806000611b368585611cd2565b91509150611b4381611d42565b509392505050565b6001600160e01b031981166301ffc9a760e01b14919050565b611b6f838383610912565b6001600160a01b038316611b8b57611b8681611e6f565b611bae565b816001600160a01b0316836001600160a01b031614611bae57611bae8382611eb3565b6001600160a01b038216611bca57611bc581611f50565b610912565b826001600160a01b0316826001600160a01b031614610912576109128282612029565b6001600160a01b038216611c135760405162461bcd60e51b81526004016107cc90612b50565b611c1c81611401565b15611c395760405162461bcd60e51b81526004016107cc906128a7565b611c456000838361199e565b6001600160a01b0382166000908152600360205260408120805460019290611c6e908490612e7e565b909155505060008181526002602052604080822080546001600160a01b0319166001600160a01b03861690811790915590518392907fddf252ad1be2c89b69c2b068fc378daa952ba7f163c4a11628f55a4df523b3ef908290a45050565b3b151590565b600080825160411415611d095760208301516040840151606085015160001a611cfd8782858561206d565b94509450505050611d3b565b825160401415611d335760208301516040840151611d2886838361214d565b935093505050611d3b565b506000905060025b9250929050565b6000816004811115611d6457634e487b7160e01b600052602160045260246000fd5b1415611d6f576113cb565b6001816004811115611d9157634e487b7160e01b600052602160045260246000fd5b1415611daf5760405162461bcd60e51b81526004016107cc906126f7565b6002816004811115611dd157634e487b7160e01b600052602160045260246000fd5b1415611def5760405162461bcd60e51b81526004016107cc90612758565b6003816004811115611e1157634e487b7160e01b600052602160045260246000fd5b1415611e2f5760405162461bcd60e51b81526004016107cc90612990565b6004816004811115611e5157634e487b7160e01b600052602160045260246000fd5b14156113cb5760405162461bcd60e51b81526004016107cc90612b0e565b600880546000838152600960205260408120829055600182018355919091527ff3f7a9fe364faab93b216da50a3214154f22a0a2b415b23a84c8169e8b636ee30155565b60006001611ec084610c6c565b611eca9190612ec9565b600083815260076020526040902054909150808214611f1d576001600160a01b03841660009081526006602090815260408083208584528252808320548484528184208190558352600790915290208190555b5060009182526007602090815260408084208490556001600160a01b039094168352600681528383209183525290812055565b600854600090611f6290600190612ec9565b60008381526009602052604081205460088054939450909284908110611f9857634e487b7160e01b600052603260045260246000fd5b906000526020600020015490508060088381548110611fc757634e487b7160e01b600052603260045260246000fd5b600091825260208083209091019290925582815260099091526040808220849055858252812055600880548061200d57634e487b7160e01b600052603160045260246000fd5b6001900381819060005260206000200160009055905550505050565b600061203483610c6c565b6001600160a01b039093166000908152600660209081526040808320868452825280832085905593825260079052919091209190915550565b6000807f7fffffffffffffffffffffffffffffff5d576e7357a4501ddfe92f46681b20a08311156120a45750600090506003612144565b8460ff16601b141580156120bc57508460ff16601c14155b156120cd5750600090506004612144565b6000600187878787604051600081526020016040526040516120f294939291906126c6565b6020604051602081039080840390855afa158015612114573d6000803e3d6000fd5b5050604051601f1901519150506001600160a01b03811661213d57600060019250925050612144565b9150600090505b94509492505050565b6000806001600160ff1b03831660ff84901c601b0161216e8782888561206d565b935093505050935093915050565b82805461218890612f0c565b90600052602060002090601f0160209004810192826121aa57600085556121f0565b82601f106121c357805160ff19168380011785556121f0565b828001600101855582156121f0579182015b828111156121f05782518255916020019190600101906121d5565b506121fc929150612200565b5090565b5b808211156121fc5760008155600101612201565b600067ffffffffffffffff8084111561223057612230612fa2565b604051601f8501601f19168101602001828111828210171561225457612254612fa2565b60405284815291508183850186101561226c57600080fd5b8484602083013760006020868301015250509392505050565b80356001600160a01b038116811461070e57600080fd5b8035801515811461070e57600080fd5b6000602082840312156122bd578081fd5b6110cc82612285565b600080604083850312156122d8578081fd5b6122e183612285565b91506122ef60208401612285565b90509250929050565b60008060006060848603121561230c578081fd5b61231584612285565b925061232360208501612285565b9150604084013590509250925092565b60008060008060808587031215612348578081fd5b61235185612285565b935061235f60208601612285565b925060408501359150606085013567ffffffffffffffff811115612381578182fd5b8501601f81018713612391578182fd5b6123a087823560208401612215565b91505092959194509250565b600080604083850312156123be578182fd5b6123c783612285565b91506122ef6020840161229c565b600080604083850312156123e7578182fd5b6123f083612285565b946020939093013593505050565b60006020828403121561240f578081fd5b6110cc8261229c565b600060208284031215612429578081fd5b81356110cc81612fb8565b600060208284031215612445578081fd5b81516110cc81612fb8565b600060208284031215612461578081fd5b813567ffffffffffffffff811115612477578182fd5b8201601f81018413612487578182fd5b61150d84823560208401612215565b6000602082840312156124a7578081fd5b5035919050565b600080604083850312156124c0578182fd5b823591506122ef60208401612285565b600080600080606085870312156124e5578384fd5b8435935060208501359250604085013567ffffffffffffffff8082111561250a578384fd5b818701915087601f83011261251d578384fd5b81358181111561252b578485fd5b88602082850101111561253c578485fd5b95989497505060200194505050565b60008151808452612563816020860160208601612ee0565b601f01601f19169290920160200192915050565b60008451602061258a8285838a01612ee0565b85519184019161259d8184848a01612ee0565b85549201918390600281046001808316806125b957607f831692505b8583108114156125d757634e487b7160e01b88526022600452602488fd5b8080156125eb57600181146125fc57612628565b60ff19851688528388019550612628565b6126058b612e72565b895b858110156126205781548a820152908401908801612607565b505083880195505b50939b9a5050505050505050505050565b7f19457468657265756d205369676e6564204d6573736167653a0a3332000000008152601c810191909152603c0190565b6001600160a01b0391909116815260200190565b6001600160a01b03858116825284166020820152604081018390526080606082018190526000906126b19083018461254b565b9695505050505050565b901515815260200190565b93845260ff9290921660208401526040830152606082015260800190565b6000602082526110cc602083018461254b565b60208082526018908201527f45434453413a20696e76616c6964207369676e61747572650000000000000000604082015260600190565b60208082526010908201526f15da1a5d195b1a5cdd0814185d5cd95960821b604082015260600190565b6020808252601f908201527f45434453413a20696e76616c6964207369676e6174757265206c656e67746800604082015260600190565b6020808252602b908201527f455243373231456e756d657261626c653a206f776e657220696e646578206f7560408201526a74206f6620626f756e647360a81b606082015260800190565b60208082526032908201527f4552433732313a207472616e7366657220746f206e6f6e20455243373231526560408201527131b2b4bb32b91034b6b83632b6b2b73a32b960711b606082015260800190565b60208082526026908201527f4f776e61626c653a206e6577206f776e657220697320746865207a65726f206160408201526564647265737360d01b606082015260800190565b6020808252818101527f507572636861736520776f756c6420657863656564206d617820746f6b656e73604082015260600190565b6020808252601c908201527f4552433732313a20746f6b656e20616c7265616479206d696e74656400000000604082015260600190565b60208082526024908201527f4552433732313a207472616e7366657220746f20746865207a65726f206164646040820152637265737360e01b606082015260800190565b60208082526019908201527f4552433732313a20617070726f766520746f2063616c6c657200000000000000604082015260600190565b6020808252601f908201527f45746865722076616c75652073656e74206973206e6f7420636f727265637400604082015260600190565b60208082526022908201527f45434453413a20696e76616c6964207369676e6174757265202773272076616c604082015261756560f01b606082015260800190565b6020808252602c908201527f4552433732313a206f70657261746f7220717565727920666f72206e6f6e657860408201526b34b9ba32b73a103a37b5b2b760a11b606082015260800190565b60208082526038908201527f4552433732313a20617070726f76652063616c6c6572206973206e6f74206f7760408201527f6e6572206e6f7220617070726f76656420666f7220616c6c0000000000000000606082015260800190565b6020808252602a908201527f4552433732313a2062616c616e636520717565727920666f7220746865207a65604082015269726f206164647265737360b01b606082015260800190565b60208082526029908201527f4552433732313a206f776e657220717565727920666f72206e6f6e657869737460408201526832b73a103a37b5b2b760b91b606082015260800190565b60208082526022908201527f45434453413a20696e76616c6964207369676e6174757265202776272076616c604082015261756560f01b606082015260800190565b6020808252818101527f4552433732313a206d696e7420746f20746865207a65726f2061646472657373604082015260600190565b6020808252602c908201527f4552433732313a20617070726f76656420717565727920666f72206e6f6e657860408201526b34b9ba32b73a103a37b5b2b760a11b606082015260800190565b602080825260119082015270496e76616c6964205369676e617475726560781b604082015260600190565b6020808252818101527f4f776e61626c653a2063616c6c6572206973206e6f7420746865206f776e6572604082015260600190565b6020808252601b908201527f45746865722076616c756573206973206e6f7420636f72726563740000000000604082015260600190565b60208082526029908201527f4552433732313a207472616e73666572206f6620746f6b656e2074686174206960408201526839903737ba1037bbb760b91b606082015260800190565b6020808252602f908201527f4552433732314d657461646174613a2055524920717565727920666f72206e6f60408201526e3732bc34b9ba32b73a103a37b5b2b760891b606082015260800190565b602080825260119082015270696e636f7272656374206164647265737360781b604082015260600190565b60208082526021908201527f4552433732313a20617070726f76616c20746f2063757272656e74206f776e656040820152603960f91b606082015260800190565b6020808252601b908201527f4578636565646564206d617820746f6b656e2070757263686173650000000000604082015260600190565b60208082526031908201527f4552433732313a207472616e736665722063616c6c6572206973206e6f74206f6040820152701ddb995c881b9bdc88185c1c1c9bdd9959607a1b606082015260800190565b6020808252602c908201527f455243373231456e756d657261626c653a20676c6f62616c20696e646578206f60408201526b7574206f6620626f756e647360a01b606082015260800190565b6020808252600f908201526e10dbdb9d1c9858dd0814185d5cd959608a1b604082015260600190565b90815260200190565b60009081526020902090565b60008219821115612e9157612e91612f76565b500190565b600082612ea557612ea5612f8c565b500490565b6000816000190483118215151615612ec457612ec4612f76565b500290565b600082821015612edb57612edb612f76565b500390565b60005b83811015612efb578181015183820152602001612ee3565b83811115610f5f5750506000910152565b600281046001821680612f2057607f821691505b60208210811415612f4157634e487b7160e01b600052602260045260246000fd5b50919050565b6000600019821415612f5b57612f5b612f76565b5060010190565b600082612f7157612f71612f8c565b500690565b634e487b7160e01b600052601160045260246000fd5b634e487b7160e01b600052601260045260246000fd5b634e487b7160e01b600052604160045260246000fd5b6001600160e01b0319811681146113cb57600080fdfea2646970667358221220b7fce02c9239a74f139b67a76920f74c65dfab1c47ad33ac53abfa032f39797264736f6c63430008000033",
  "linkReferences": {},
  "deployedLinkReferences": {}
}