{
  "_format": "hh-sol-artifact-1",
  "contractName": "TestContract",
  "sourceName": "contracts/TestContract.sol",
  "abi": [
    {
      "inputs": [
        {
          "internalType": "string",
          "name": "_name",
          "type": "string"
        },
        {
          "internalType": "string",
          "name": "_symbol",
          "type": "string"
        },
        {
          "internalType": "string",
          "name": "_initBaseURI",
          "type": "string"
        },
        {
          "internalType": "string",
          "name": "_initNotRevealedUri",
          "type": "string"
        }
      ],
      "stateMutability": "nonpayable",
      "type": "constructor"
    },
    {
      "anonymous": false,
      "inputs": [
        {
          "indexed": true,
          "internalType": "address",
          "name": "owner",
          "type": "address"
        },
        {
          "indexed": true,
          "internalType": "address",
          "name": "approved",
          "type": "address"
        },
        {
          "indexed": true,
          "internalType": "uint256",
          "name": "tokenId",
          "type": "uint256"
        }
      ],
      "name": "Approval",
      "type": "event"
    },
    {
      "anonymous": false,
      "inputs": [
        {
          "indexed": true,
          "internalType": "address",
          "name": "owner",
          "type": "address"
        },
        {
          "indexed": true,
          "internalType": "address",
          "name": "operator",
          "type": "address"
        },
        {
          "indexed": false,
          "internalType": "bool",
          "name": "approved",
          "type": "bool"
        }
      ],
      "name": "ApprovalForAll",
      "type": "event"
    },
    {
      "anonymous": false,
      "inputs": [
        {
          "indexed": true,
          "internalType": "address",
          "name": "previousOwner",
          "type": "address"
        },
        {
          "indexed": true,
          "internalType": "address",
          "name": "newOwner",
          "type": "address"
        }
      ],
      "name": "OwnershipTransferred",
      "type": "event"
    },
    {
      "anonymous": false,
      "inputs": [
        {
          "indexed": true,
          "internalType": "address",
          "name": "from",
          "type": "address"
        },
        {
          "indexed": true,
          "internalType": "address",
          "name": "to",
          "type": "address"
        },
        {
          "indexed": true,
          "internalType": "uint256",
          "name": "tokenId",
          "type": "uint256"
        }
      ],
      "name": "Transfer",
      "type": "event"
    },
    {
      "inputs": [],
      "name": "MAX_PER_TRANSACTION",
      "outputs": [
        {
          "internalType": "uint256",
          "name": "",
          "type": "uint256"
        }
      ],
      "stateMutability": "view",
      "type": "function"
    },
    {
      "inputs": [],
      "name": "MAX_SUPPLY",
      "outputs": [
        {
          "internalType": "uint256",
          "name": "",
          "type": "uint256"
        }
      ],
      "stateMutability": "view",
      "type": "function"
    },
    {
      "inputs": [],
      "name": "PRICE_FIRST",
      "outputs": [
        {
          "internalType": "uint256",
          "name": "",
          "type": "uint256"
        }
      ],
      "stateMutability": "view",
      "type": "function"
    },
    {
      "inputs": [],
      "name": "PRICE_PUBLIC",
      "outputs": [
        {
          "internalType": "uint256",
          "name": "",
          "type": "uint256"
        }
      ],
      "stateMutability": "view",
      "type": "function"
    },
    {
      "inputs": [
        {
          "internalType": "address",
          "name": "to",
          "type": "address"
        },
        {
          "internalType": "uint256",
          "name": "tokenId",
          "type": "uint256"
        }
      ],
      "name": "approve",
      "outputs": [],
      "stateMutability": "nonpayable",
      "type": "function"
    },
    {
      "inputs": [
        {
          "internalType": "address",
          "name": "owner",
          "type": "address"
        }
      ],
      "name": "balanceOf",
      "outputs": [
        {
          "internalType": "uint256",
          "name": "",
          "type": "uint256"
        }
      ],
      "stateMutability": "view",
      "type": "function"
    },
    {
      "inputs": [],
      "name": "baseExtension",
      "outputs": [
        {
          "internalType": "string",
          "name": "",
          "type": "string"
        }
      ],
      "stateMutability": "view",
      "type": "function"
    },
    {
      "inputs": [],
      "name": "baseUri",
      "outputs": [
        {
          "internalType": "string",
          "name": "",
          "type": "string"
        }
      ],
      "stateMutability": "view",
      "type": "function"
    },
    {
      "inputs": [
        {
          "internalType": "uint256",
          "name": "tokenId",
          "type": "uint256"
        }
      ],
      "name": "getApproved",
      "outputs": [
        {
          "internalType": "address",
          "name": "",
          "type": "address"
        }
      ],
      "stateMutability": "view",
      "type": "function"
    },
    {
      "inputs": [
        {
          "internalType": "address",
          "name": "owner",
          "type": "address"
        },
        {
          "internalType": "address",
          "name": "operator",
          "type": "address"
        }
      ],
      "name": "isApprovedForAll",
      "outputs": [
        {
          "internalType": "bool",
          "name": "",
          "type": "bool"
        }
      ],
      "stateMutability": "view",
      "type": "function"
    },
    {
      "inputs": [],
      "name": "merkleRoot",
      "outputs": [
        {
          "internalType": "bytes32",
          "name": "",
          "type": "bytes32"
        }
      ],
      "stateMutability": "view",
      "type": "function"
    },
    {
      "inputs": [
        {
          "internalType": "uint256",
          "name": "numberOfTokens",
          "type": "uint256"
        }
      ],
      "name": "mintFirst",
      "outputs": [],
      "stateMutability": "payable",
      "type": "function"
    },
    {
      "inputs": [
        {
          "internalType": "uint256",
          "name": "numberOfTokens",
          "type": "uint256"
        }
      ],
      "name": "mintPublic",
      "outputs": [],
      "stateMutability": "payable",
      "type": "function"
    },
    {
      "inputs": [],
      "name": "name",
      "outputs": [
        {
          "internalType": "string",
          "name": "",
          "type": "string"
        }
      ],
      "stateMutability": "view",
      "type": "function"
    },
    {
      "inputs": [],
      "name": "notRevealedUri",
      "outputs": [
        {
          "internalType": "string",
          "name": "",
          "type": "string"
        }
      ],
      "stateMutability": "view",
      "type": "function"
    },
    {
      "inputs": [],
      "name": "owner",
      "outputs": [
        {
          "internalType": "address",
          "name": "",
          "type": "address"
        }
      ],
      "stateMutability": "view",
      "type": "function"
    },
    {
      "inputs": [
        {
          "internalType": "uint256",
          "name": "tokenId",
          "type": "uint256"
        }
      ],
      "name": "ownerOf",
      "outputs": [
        {
          "internalType": "address",
          "name": "",
          "type": "address"
        }
      ],
      "stateMutability": "view",
      "type": "function"
    },
    {
      "inputs": [],
      "name": "pausedFist",
      "outputs": [
        {
          "internalType": "bool",
          "name": "",
          "type": "bool"
        }
      ],
      "stateMutability": "view",
      "type": "function"
    },
    {
      "inputs": [],
      "name": "pausedPublic",
      "outputs": [
        {
          "internalType": "bool",
          "name": "",
          "type": "bool"
        }
      ],
      "stateMutability": "view",
      "type": "function"
    },
    {
      "inputs": [],
      "name": "pausedWhitelist",
      "outputs": [
        {
          "internalType": "bool",
          "name": "",
          "type": "bool"
        }
      ],
      "stateMutability": "view",
      "type": "function"
    },
    {
      "inputs": [],
      "name": "renounceOwnership",
      "outputs": [],
      "stateMutability": "nonpayable",
      "type": "function"
    },
    {
      "inputs": [],
      "name": "revealed",
      "outputs": [
        {
          "internalType": "bool",
          "name": "",
          "type": "bool"
        }
      ],
      "stateMutability": "view",
      "type": "function"
    },
    {
      "inputs": [
        {
          "internalType": "address",
          "name": "from",
          "type": "address"
        },
        {
          "internalType": "address",
          "name": "to",
          "type": "address"
        },
        {
          "internalType": "uint256",
          "name": "tokenId",
          "type": "uint256"
        }
      ],
      "name": "safeTransferFrom",
      "outputs": [],
      "stateMutability": "nonpayable",
      "type": "function"
    },
    {
      "inputs": [
        {
          "internalType": "address",
          "name": "from",
          "type": "address"
        },
        {
          "internalType": "address",
          "name": "to",
          "type": "address"
        },
        {
          "internalType": "uint256",
          "name": "tokenId",
          "type": "uint256"
        },
        {
          "internalType": "bytes",
          "name": "_data",
          "type": "bytes"
        }
      ],
      "name": "safeTransferFrom",
      "outputs": [],
      "stateMutability": "nonpayable",
      "type": "function"
    },
    {
      "inputs": [
        {
          "internalType": "address",
          "name": "operator",
          "type": "address"
        },
        {
          "internalType": "bool",
          "name": "approved",
          "type": "bool"
        }
      ],
      "name": "setApprovalForAll",
      "outputs": [],
      "stateMutability": "nonpayable",
      "type": "function"
    },
    {
      "inputs": [
        {
          "internalType": "string",
          "name": "_newBaseExtension",
          "type": "string"
        }
      ],
      "name": "setBaseExtension",
      "outputs": [],
      "stateMutability": "nonpayable",
      "type": "function"
    },
    {
      "inputs": [
        {
          "internalType": "string",
          "name": "newBaseURI",
          "type": "string"
        }
      ],
      "name": "setBaseURI",
      "outputs": [],
      "stateMutability": "nonpayable",
      "type": "function"
    },
    {
      "inputs": [
        {
          "internalType": "bytes32",
          "name": "newMerkleRoot",
          "type": "bytes32"
        }
      ],
      "name": "setMerkleRoot",
      "outputs": [],
      "stateMutability": "nonpayable",
      "type": "function"
    },
    {
      "inputs": [
        {
          "internalType": "string",
          "name": "_notRevealedURI",
          "type": "string"
        }
      ],
      "name": "setNotRevealedURI",
      "outputs": [],
      "stateMutability": "nonpayable",
      "type": "function"
    },
    {
      "inputs": [
        {
          "internalType": "bool",
          "name": "newState",
          "type": "bool"
        }
      ],
      "name": "setPausedFist",
      "outputs": [],
      "stateMutability": "nonpayable",
      "type": "function"
    },
    {
      "inputs": [
        {
          "internalType": "bool",
          "name": "newState",
          "type": "bool"
        }
      ],
      "name": "setPausedPublic",
      "outputs": [],
      "stateMutability": "nonpayable",
      "type": "function"
    },
    {
      "inputs": [
        {
          "internalType": "bool",
          "name": "newState",
          "type": "bool"
        }
      ],
      "name": "setPausedWhitelist",
      "outputs": [],
      "stateMutability": "nonpayable",
      "type": "function"
    },
    {
      "inputs": [
        {
          "internalType": "bytes4",
          "name": "interfaceId",
          "type": "bytes4"
        }
      ],
      "name": "supportsInterface",
      "outputs": [
        {
          "internalType": "bool",
          "name": "",
          "type": "bool"
        }
      ],
      "stateMutability": "view",
      "type": "function"
    },
    {
      "inputs": [],
      "name": "symbol",
      "outputs": [
        {
          "internalType": "string",
          "name": "",
          "type": "string"
        }
      ],
      "stateMutability": "view",
      "type": "function"
    },
    {
      "inputs": [
        {
          "internalType": "uint256",
          "name": "index",
          "type": "uint256"
        }
      ],
      "name": "tokenByIndex",
      "outputs": [
        {
          "internalType": "uint256",
          "name": "",
          "type": "uint256"
        }
      ],
      "stateMutability": "view",
      "type": "function"
    },
    {
      "inputs": [
        {
          "internalType": "address",
          "name": "owner",
          "type": "address"
        },
        {
          "internalType": "uint256",
          "name": "index",
          "type": "uint256"
        }
      ],
      "name": "tokenOfOwnerByIndex",
      "outputs": [
        {
          "internalType": "uint256",
          "name": "",
          "type": "uint256"
        }
      ],
      "stateMutability": "view",
      "type": "function"
    },
    {
      "inputs": [
        {
          "internalType": "uint256",
          "name": "tokenId",
          "type": "uint256"
        }
      ],
      "name": "tokenURI",
      "outputs": [
        {
          "internalType": "string",
          "name": "",
          "type": "string"
        }
      ],
      "stateMutability": "view",
      "type": "function"
    },
    {
      "inputs": [],
      "name": "totalSupply",
      "outputs": [
        {
          "internalType": "uint256",
          "name": "",
          "type": "uint256"
        }
      ],
      "stateMutability": "view",
      "type": "function"
    },
    {
      "inputs": [
        {
          "internalType": "address",
          "name": "from",
          "type": "address"
        },
        {
          "internalType": "address",
          "name": "to",
          "type": "address"
        },
        {
          "internalType": "uint256",
          "name": "tokenId",
          "type": "uint256"
        }
      ],
      "name": "transferFrom",
      "outputs": [],
      "stateMutability": "nonpayable",
      "type": "function"
    },
    {
      "inputs": [
        {
          "internalType": "address",
          "name": "newOwner",
          "type": "address"
        }
      ],
      "name": "transferOwnership",
      "outputs": [],
      "stateMutability": "nonpayable",
      "type": "function"
    },
    {
      "inputs": [
        {
          "internalType": "address",
          "name": "",
          "type": "address"
        }
      ],
      "name": "whitelistClaimed",
      "outputs": [
        {
          "internalType": "bool",
          "name": "",
          "type": "bool"
        }
      ],
      "stateMutability": "view",
      "type": "function"
    },
    {
      "inputs": [
        {
          "internalType": "bytes32[]",
          "name": "_merkleProof",
          "type": "bytes32[]"
        },
        {
          "internalType": "uint256",
          "name": "numberOfTokens",
          "type": "uint256"
        }
      ],
      "name": "whitelistMint",
      "outputs": [],
      "stateMutability": "payable",
      "type": "function"
    },
    {
      "inputs": [],
      "name": "withdraw",
      "outputs": [],
      "stateMutability": "nonpayable",
      "type": "function"
    }
  ],
  "bytecode": "0x60c06040526005608081905264173539b7b760d91b60a09081526200002891600c919062000259565b50600e805463ff0000001962ff00001961ff001960ff19909316600117929092166101001791909116620100001716905567011c37937e080000600f5567013fbe85edc900006010557f3bdb961dc6401a133fe06f9ee44234e370a4370107be5ce57d3ce488a4a392c4601155348015620000a257600080fd5b506040516200310d3803806200310d833981016040819052620000c591620003aa565b835184908490620000de90600090602085019062000259565b508051620000f490600190602084019062000259565b505050620001116200010b6200013160201b60201c565b62000135565b6200011c8262000187565b6200012781620001ef565b50505050620004e6565b3390565b600a80546001600160a01b038381166001600160a01b0319831681179093556040519116919082907f8be0079c531659141344cd1fd0a4f28419497f9722a3daafe3b4186f6b6457e090600090a35050565b6200019162000131565b6001600160a01b0316620001a46200024a565b6001600160a01b031614620001d65760405162461bcd60e51b8152600401620001cd906200045e565b60405180910390fd5b8051620001eb90600b90602084019062000259565b5050565b620001f962000131565b6001600160a01b03166200020c6200024a565b6001600160a01b031614620002355760405162461bcd60e51b8152600401620001cd906200045e565b8051620001eb90600d90602084019062000259565b600a546001600160a01b031690565b828054620002679062000493565b90600052602060002090601f0160209004810192826200028b5760008555620002d6565b82601f10620002a657805160ff1916838001178555620002d6565b82800160010185558215620002d6579182015b82811115620002d6578251825591602001919060010190620002b9565b50620002e4929150620002e8565b5090565b5b80821115620002e45760008155600101620002e9565b600082601f83011262000310578081fd5b81516001600160401b03808211156200032d576200032d620004d0565b6040516020601f8401601f1916820181018381118382101715620003555762000355620004d0565b60405283825285840181018710156200036c578485fd5b8492505b838310156200038f578583018101518284018201529182019162000370565b83831115620003a057848185840101525b5095945050505050565b60008060008060808587031215620003c0578384fd5b84516001600160401b0380821115620003d7578586fd5b620003e588838901620002ff565b95506020870151915080821115620003fb578485fd5b6200040988838901620002ff565b945060408701519150808211156200041f578384fd5b6200042d88838901620002ff565b9350606087015191508082111562000443578283fd5b506200045287828801620002ff565b91505092959194509250565b6020808252818101527f4f776e61626c653a2063616c6c6572206973206e6f7420746865206f776e6572604082015260600190565b600281046001821680620004a857607f821691505b60208210811415620004ca57634e487b7160e01b600052602260045260246000fd5b50919050565b634e487b7160e01b600052604160045260246000fd5b612c1780620004f66000396000f3fe60806040526004361061025c5760003560e01c806370a0823111610144578063b88d4fde116100b6578063db4bec441161007a578063db4bec441461066b578063e985e9c51461068b578063efd0cbf9146106ab578063f2c4ce1e146106be578063f2fde38b146106de578063f72ec829146106fe5761025c565b8063b88d4fde146105e1578063c668286214610601578063c87b56dd14610616578063cb14eb8714610636578063da3ef23f1461064b5761025c565b806395f7da571161010857806395f7da571461054d57806398754ca1146105625780639abc832014610582578063a22cb46514610597578063a56d7730146105b7578063a8a4b4f1146105cc5761025c565b806370a08231146104ce578063715018a6146104ee5780637cb64759146105035780638da5cb5b1461052357806395d89b41146105385761025c565b80632f745c59116101dd57806342842e0e116101a157806342842e0e146104195780634f6ccce714610439578063518302271461045957806355f804b31461046e57806357ae51fb1461048e5780636352211e146104ae5761025c565b80632f745c591461039c57806332cb6b0c146103bc57806333a2cc5b146103d15780633af2d386146103e45780633ccfd60b146104045761025c565b806318160ddd1161022457806318160ddd1461031d57806323b872dd1461033f57806324bb7c261461035f5780632904e6d9146103745780632eb4a7ab146103875761025c565b806301ffc9a71461026157806306fdde0314610297578063081812fc146102b9578063081c8c44146102e6578063095ea7b3146102fb575b600080fd5b34801561026d57600080fd5b5061028161027c3660046121f5565b610713565b60405161028e91906123dd565b60405180910390f35b3480156102a357600080fd5b506102ac610726565b60405161028e91906123f1565b3480156102c557600080fd5b506102d96102d43660046121dd565b6107b8565b60405161028e919061238c565b3480156102f257600080fd5b506102ac610804565b34801561030757600080fd5b5061031b610316366004612125565b610892565b005b34801561032957600080fd5b5061033261092a565b60405161028e91906123e8565b34801561034b57600080fd5b5061031b61035a366004612048565b610930565b34801561036b57600080fd5b50610281610968565b61031b61038236600461214e565b610976565b34801561039357600080fd5b50610332610b28565b3480156103a857600080fd5b506103326103b7366004612125565b610b2e565b3480156103c857600080fd5b50610332610b80565b61031b6103df3660046121dd565b610b86565b3480156103f057600080fd5b5061031b6103ff3660046121c3565b610c7b565b34801561041057600080fd5b5061031b610ccd565b34801561042557600080fd5b5061031b610434366004612048565b610d3f565b34801561044557600080fd5b506103326104543660046121dd565b610d5a565b34801561046557600080fd5b50610281610db5565b34801561047a57600080fd5b5061031b61048936600461222d565b610dc5565b34801561049a57600080fd5b5061031b6104a93660046121c3565b610e17565b3480156104ba57600080fd5b506102d96104c93660046121dd565b610e72565b3480156104da57600080fd5b506103326104e9366004611ffc565b610ea7565b3480156104fa57600080fd5b5061031b610eeb565b34801561050f57600080fd5b5061031b61051e3660046121dd565b610f36565b34801561052f57600080fd5b506102d9610f7a565b34801561054457600080fd5b506102ac610f89565b34801561055957600080fd5b50610281610f98565b34801561056e57600080fd5b5061031b61057d3660046121c3565b610fa1565b34801561058e57600080fd5b506102ac610ffa565b3480156105a357600080fd5b5061031b6105b23660046120fc565b611007565b3480156105c357600080fd5b50610332611019565b3480156105d857600080fd5b5061033261101f565b3480156105ed57600080fd5b5061031b6105fc366004612083565b611025565b34801561060d57600080fd5b506102ac611064565b34801561062257600080fd5b506102ac6106313660046121dd565b611071565b34801561064257600080fd5b5061033261119a565b34801561065757600080fd5b5061031b61066636600461222d565b61119f565b34801561067757600080fd5b50610281610686366004611ffc565b6111f1565b34801561069757600080fd5b506102816106a6366004612016565b611206565b61031b6106b93660046121dd565b611234565b3480156106ca57600080fd5b5061031b6106d936600461222d565b611308565b3480156106ea57600080fd5b5061031b6106f9366004611ffc565b61135a565b34801561070a57600080fd5b506102816113cb565b600061071e826113da565b90505b919050565b60606000805461073590612b1f565b80601f016020809104026020016040519081016040528092919081815260200182805461076190612b1f565b80156107ae5780601f10610783576101008083540402835291602001916107ae565b820191906000526020600020905b81548152906001019060200180831161079157829003601f168201915b5050505050905090565b60006107c3826113ff565b6107e85760405162461bcd60e51b81526004016107df906127d0565b60405180910390fd5b506000908152600460205260409020546001600160a01b031690565b600d805461081190612b1f565b80601f016020809104026020016040519081016040528092919081815260200182805461083d90612b1f565b801561088a5780601f1061085f5761010080835404028352916020019161088a565b820191906000526020600020905b81548152906001019060200180831161086d57829003601f168201915b505050505081565b600061089d82610e72565b9050806001600160a01b0316836001600160a01b031614156108d15760405162461bcd60e51b81526004016107df90612920565b806001600160a01b03166108e361141c565b6001600160a01b031614806108ff57506108ff816106a661141c565b61091b5760405162461bcd60e51b81526004016107df906126ab565b6109258383611420565b505050565b60085490565b61094161093b61141c565b8261148e565b61095d5760405162461bcd60e51b81526004016107df90612998565b610925838383611513565b600e54610100900460ff1681565b3360009081526012602052604090205460ff16156109a65760405162461bcd60e51b81526004016107df90612674565b6000336040516020016109b9919061229f565b604051602081830303815290604052805190602001209050610a12848480806020026020016040519081016040528093929190818152602001838360200280828437600092019190915250506011549150849050611640565b610a2e5760405162461bcd60e51b81526004016107df90612a35565b336000908152601260205260408120805460ff19166001179055610a5061092a565b600e5490915062010000900460ff1615610a7c5760405162461bcd60e51b81526004016107df90612434565b6064831115610a9d5760405162461bcd60e51b81526004016107df90612961565b614e1f610aaa8483612a91565b1115610ac85760405162461bcd60e51b81526004016107df90612541565b610ad483601054611656565b610af05760405162461bcd60e51b81526004016107df90612851565b60005b83811015610b2057610b0e33610b098385612a91565b61168a565b80610b1881612b5a565b915050610af3565b505050505050565b60115481565b6000610b3983610ea7565b8210610b575760405162461bcd60e51b81526004016107df9061245e565b506001600160a01b03919091166000908152600660209081526040808320938352929052205490565b614e1f81565b6000610b9061092a565b600e5490915060ff1615610bb65760405162461bcd60e51b81526004016107df90612a5c565b6064821115610bd75760405162461bcd60e51b81526004016107df90612961565b614e1f610be48383612a91565b1115610c025760405162461bcd60e51b81526004016107df90612541565b610c0e82600f54611656565b610c2a5760405162461bcd60e51b81526004016107df90612851565b610c3333610ea7565b15610c505760405162461bcd60e51b81526004016107df90612404565b60005b8281101561092557610c6933610b098385612a91565b80610c7381612b5a565b915050610c53565b610c8361141c565b6001600160a01b0316610c94610f7a565b6001600160a01b031614610cba5760405162461bcd60e51b81526004016107df9061281c565b600e805460ff1916911515919091179055565b610cd561141c565b6001600160a01b0316610ce6610f7a565b6001600160a01b031614610d0c5760405162461bcd60e51b81526004016107df9061281c565b6040514790339082156108fc029083906000818181858888f19350505050158015610d3b573d6000803e3d6000fd5b5050565b61092583838360405180602001604052806000815250611025565b6000610d6461092a565b8210610d825760405162461bcd60e51b81526004016107df906129e9565b60088281548110610da357634e487b7160e01b600052603260045260246000fd5b90600052602060002001549050919050565b600e546301000000900460ff1681565b610dcd61141c565b6001600160a01b0316610dde610f7a565b6001600160a01b031614610e045760405162461bcd60e51b81526004016107df9061281c565b8051610d3b90600b906020840190611ecc565b610e1f61141c565b6001600160a01b0316610e30610f7a565b6001600160a01b031614610e565760405162461bcd60e51b81526004016107df9061281c565b600e8054911515620100000262ff000019909216919091179055565b6000818152600260205260408120546001600160a01b03168061071e5760405162461bcd60e51b81526004016107df90612752565b60006001600160a01b038216610ecf5760405162461bcd60e51b81526004016107df90612708565b506001600160a01b031660009081526003602052604090205490565b610ef361141c565b6001600160a01b0316610f04610f7a565b6001600160a01b031614610f2a5760405162461bcd60e51b81526004016107df9061281c565b610f3460006116a4565b565b610f3e61141c565b6001600160a01b0316610f4f610f7a565b6001600160a01b031614610f755760405162461bcd60e51b81526004016107df9061281c565b601155565b600a546001600160a01b031690565b60606001805461073590612b1f565b600e5460ff1681565b610fa961141c565b6001600160a01b0316610fba610f7a565b6001600160a01b031614610fe05760405162461bcd60e51b81526004016107df9061281c565b600e80549115156101000261ff0019909216919091179055565b600b805461081190612b1f565b610d3b61101261141c565b83836116f6565b60105481565b600f5481565b61103661103061141c565b8361148e565b6110525760405162461bcd60e51b81526004016107df90612998565b61105e84848484611799565b50505050565b600c805461081190612b1f565b606061107c826113ff565b6110985760405162461bcd60e51b81526004016107df906128d1565b600e546301000000900460ff1661113b57600d80546110b690612b1f565b80601f01602080910402602001604051908101604052809291908181526020018280546110e290612b1f565b801561112f5780601f106111045761010080835404028352916020019161112f565b820191906000526020600020905b81548152906001019060200180831161111257829003601f168201915b50505050509050610721565b60006111456117cc565b905060008151116111655760405180602001604052806000815250611193565b8061116f846117db565b600c604051602001611183939291906122ca565b6040516020818303038152906040525b9392505050565b606481565b6111a761141c565b6001600160a01b03166111b8610f7a565b6001600160a01b0316146111de5760405162461bcd60e51b81526004016107df9061281c565b8051610d3b90600c906020840190611ecc565b60126020526000908152604090205460ff1681565b6001600160a01b03918216600090815260056020908152604080832093909416825291909152205460ff1690565b600061123e61092a565b600e54909150610100900460ff16156112695760405162461bcd60e51b81526004016107df90612a5c565b606482111561128a5760405162461bcd60e51b81526004016107df90612961565b614e1f6112978383612a91565b11156112b55760405162461bcd60e51b81526004016107df90612541565b6112c182601054611656565b6112dd5760405162461bcd60e51b81526004016107df90612851565b60005b82811015610925576112f633610b098385612a91565b8061130081612b5a565b9150506112e0565b61131061141c565b6001600160a01b0316611321610f7a565b6001600160a01b0316146113475760405162461bcd60e51b81526004016107df9061281c565b8051610d3b90600d906020840190611ecc565b61136261141c565b6001600160a01b0316611373610f7a565b6001600160a01b0316146113995760405162461bcd60e51b81526004016107df9061281c565b6001600160a01b0381166113bf5760405162461bcd60e51b81526004016107df906124fb565b6113c8816116a4565b50565b600e5462010000900460ff1681565b60006001600160e01b0319821663780e9d6360e01b148061071e575061071e826118f6565b6000908152600260205260409020546001600160a01b0316151590565b3390565b600081815260046020526040902080546001600160a01b0319166001600160a01b038416908117909155819061145582610e72565b6001600160a01b03167f8c5be1e5ebec7d5bd14f71427d1e84f3dd0314c0f7b2291e5b200ac8c7c3b92560405160405180910390a45050565b6000611499826113ff565b6114b55760405162461bcd60e51b81526004016107df90612628565b60006114c083610e72565b9050806001600160a01b0316846001600160a01b031614806114fb5750836001600160a01b03166114f0846107b8565b6001600160a01b0316145b8061150b575061150b8185611206565b949350505050565b826001600160a01b031661152682610e72565b6001600160a01b03161461154c5760405162461bcd60e51b81526004016107df90612888565b6001600160a01b0382166115725760405162461bcd60e51b81526004016107df906125ad565b61157d838383611936565b611588600082611420565b6001600160a01b03831660009081526003602052604081208054600192906115b1908490612adc565b90915550506001600160a01b03821660009081526003602052604081208054600192906115df908490612a91565b909155505060008181526002602052604080822080546001600160a01b0319166001600160a01b0386811691821790925591518493918716917fddf252ad1be2c89b69c2b068fc378daa952ba7f163c4a11628f55a4df523b3ef91a4505050565b60008261164d8584611941565b14949350505050565b600080611664600185612adc565b6116759066d529ae9e860000612abd565b61167f9084612a91565b341015949350505050565b610d3b8282604051806020016040528060008152506119f9565b600a80546001600160a01b038381166001600160a01b0319831681179093556040519116919082907f8be0079c531659141344cd1fd0a4f28419497f9722a3daafe3b4186f6b6457e090600090a35050565b816001600160a01b0316836001600160a01b031614156117285760405162461bcd60e51b81526004016107df906125f1565b6001600160a01b0383811660008181526005602090815260408083209487168084529490915290819020805460ff1916851515179055517f17307eab39ab6107e8899845ad3d59bd9653f200f220920489ca2b5937696c319061178c9085906123dd565b60405180910390a3505050565b6117a4848484611513565b6117b084848484611a2c565b61105e5760405162461bcd60e51b81526004016107df906124a9565b6060600b805461073590612b1f565b60608161180057506040805180820190915260018152600360fc1b6020820152610721565b8160005b811561182a578061181481612b5a565b91506118239050600a83612aa9565b9150611804565b60008167ffffffffffffffff81111561185357634e487b7160e01b600052604160045260246000fd5b6040519080825280601f01601f19166020018201604052801561187d576020820181803683370190505b5090505b841561150b57611892600183612adc565b915061189f600a86612b75565b6118aa906030612a91565b60f81b8183815181106118cd57634e487b7160e01b600052603260045260246000fd5b60200101906001600160f81b031916908160001a9053506118ef600a86612aa9565b9450611881565b60006001600160e01b031982166380ac58cd60e01b148061192757506001600160e01b03198216635b5e139f60e01b145b8061071e575061071e82611b47565b610925838383611b60565b600081815b84518110156119f157600085828151811061197157634e487b7160e01b600052603260045260246000fd5b602002602001015190508083116119b25782816040516020016119959291906122bc565b6040516020818303038152906040528051906020012092506119de565b80836040516020016119c59291906122bc565b6040516020818303038152906040528051906020012092505b50806119e981612b5a565b915050611946565b509392505050565b611a038383611be9565b611a106000848484611a2c565b6109255760405162461bcd60e51b81526004016107df906124a9565b6000611a40846001600160a01b0316611cc8565b15611b3c57836001600160a01b031663150b7a02611a5c61141c565b8786866040518563ffffffff1660e01b8152600401611a7e94939291906123a0565b602060405180830381600087803b158015611a9857600080fd5b505af1925050508015611ac8575060408051601f3d908101601f19168201909252611ac591810190612211565b60015b611b22573d808015611af6576040519150601f19603f3d011682016040523d82523d6000602084013e611afb565b606091505b508051611b1a5760405162461bcd60e51b81526004016107df906124a9565b805181602001fd5b6001600160e01b031916630a85bd0160e11b14905061150b565b506001949350505050565b6001600160e01b031981166301ffc9a760e01b14919050565b611b6b838383610925565b6001600160a01b038316611b8757611b8281611cce565b611baa565b816001600160a01b0316836001600160a01b031614611baa57611baa8382611d12565b6001600160a01b038216611bc657611bc181611daf565b610925565b826001600160a01b0316826001600160a01b031614610925576109258282611e88565b6001600160a01b038216611c0f5760405162461bcd60e51b81526004016107df9061279b565b611c18816113ff565b15611c355760405162461bcd60e51b81526004016107df90612576565b611c4160008383611936565b6001600160a01b0382166000908152600360205260408120805460019290611c6a908490612a91565b909155505060008181526002602052604080822080546001600160a01b0319166001600160a01b03861690811790915590518392907fddf252ad1be2c89b69c2b068fc378daa952ba7f163c4a11628f55a4df523b3ef908290a45050565b3b151590565b600880546000838152600960205260408120829055600182018355919091527ff3f7a9fe364faab93b216da50a3214154f22a0a2b415b23a84c8169e8b636ee30155565b60006001611d1f84610ea7565b611d299190612adc565b600083815260076020526040902054909150808214611d7c576001600160a01b03841660009081526006602090815260408083208584528252808320548484528184208190558352600790915290208190555b5060009182526007602090815260408084208490556001600160a01b039094168352600681528383209183525290812055565b600854600090611dc190600190612adc565b60008381526009602052604081205460088054939450909284908110611df757634e487b7160e01b600052603260045260246000fd5b906000526020600020015490508060088381548110611e2657634e487b7160e01b600052603260045260246000fd5b6000918252602080832090910192909255828152600990915260408082208490558582528120556008805480611e6c57634e487b7160e01b600052603160045260246000fd5b6001900381819060005260206000200160009055905550505050565b6000611e9383610ea7565b6001600160a01b039093166000908152600660209081526040808320868452825280832085905593825260079052919091209190915550565b828054611ed890612b1f565b90600052602060002090601f016020900481019282611efa5760008555611f40565b82601f10611f1357805160ff1916838001178555611f40565b82800160010185558215611f40579182015b82811115611f40578251825591602001919060010190611f25565b50611f4c929150611f50565b5090565b5b80821115611f4c5760008155600101611f51565b600067ffffffffffffffff80841115611f8057611f80612bb5565b604051601f8501601f191681016020018281118282101715611fa457611fa4612bb5565b604052848152915081838501861015611fbc57600080fd5b8484602083013760006020868301015250509392505050565b80356001600160a01b038116811461072157600080fd5b8035801515811461072157600080fd5b60006020828403121561200d578081fd5b61119382611fd5565b60008060408385031215612028578081fd5b61203183611fd5565b915061203f60208401611fd5565b90509250929050565b60008060006060848603121561205c578081fd5b61206584611fd5565b925061207360208501611fd5565b9150604084013590509250925092565b60008060008060808587031215612098578081fd5b6120a185611fd5565b93506120af60208601611fd5565b925060408501359150606085013567ffffffffffffffff8111156120d1578182fd5b8501601f810187136120e1578182fd5b6120f087823560208401611f65565b91505092959194509250565b6000806040838503121561210e578182fd5b61211783611fd5565b915061203f60208401611fec565b60008060408385031215612137578182fd5b61214083611fd5565b946020939093013593505050565b600080600060408486031215612162578283fd5b833567ffffffffffffffff80821115612179578485fd5b818601915086601f83011261218c578485fd5b81358181111561219a578586fd5b87602080830285010111156121ad578586fd5b6020928301989097509590910135949350505050565b6000602082840312156121d4578081fd5b61119382611fec565b6000602082840312156121ee578081fd5b5035919050565b600060208284031215612206578081fd5b813561119381612bcb565b600060208284031215612222578081fd5b815161119381612bcb565b60006020828403121561223e578081fd5b813567ffffffffffffffff811115612254578182fd5b8201601f81018413612264578182fd5b61150b84823560208401611f65565b6000815180845261228b816020860160208601612af3565b601f01601f19169290920160200192915050565b60609190911b6bffffffffffffffffffffffff1916815260140190565b918252602082015260400190565b6000845160206122dd8285838a01612af3565b8551918401916122f08184848a01612af3565b855492019183906002810460018083168061230c57607f831692505b85831081141561232a57634e487b7160e01b88526022600452602488fd5b80801561233e576001811461234f5761237b565b60ff1985168852838801955061237b565b6123588b612a85565b895b858110156123735781548a82015290840190880161235a565b505083880195505b50939b9a5050505050505050505050565b6001600160a01b0391909116815260200190565b6001600160a01b03858116825284166020820152604081018390526080606082018190526000906123d390830184612273565b9695505050505050565b901515815260200190565b90815260200190565b6000602082526111936020830184612273565b6020808252601690820152754f6e6c7920466f72204669727374204d696e74696e6760501b604082015260600190565b60208082526010908201526f15da1a5d195b1a5cdd0814185d5cd95960821b604082015260600190565b6020808252602b908201527f455243373231456e756d657261626c653a206f776e657220696e646578206f7560408201526a74206f6620626f756e647360a81b606082015260800190565b60208082526032908201527f4552433732313a207472616e7366657220746f206e6f6e20455243373231526560408201527131b2b4bb32b91034b6b83632b6b2b73a32b960711b606082015260800190565b60208082526026908201527f4f776e61626c653a206e6577206f776e657220697320746865207a65726f206160408201526564647265737360d01b606082015260800190565b6020808252818101527f507572636861736520776f756c6420657863656564206d617820746f6b656e73604082015260600190565b6020808252601c908201527f4552433732313a20746f6b656e20616c7265616479206d696e74656400000000604082015260600190565b60208082526024908201527f4552433732313a207472616e7366657220746f20746865207a65726f206164646040820152637265737360e01b606082015260800190565b60208082526019908201527f4552433732313a20617070726f766520746f2063616c6c657200000000000000604082015260600190565b6020808252602c908201527f4552433732313a206f70657261746f7220717565727920666f72206e6f6e657860408201526b34b9ba32b73a103a37b5b2b760a11b606082015260800190565b6020808252601b908201527f416464726573732068617320616c726561647920636c61696d65640000000000604082015260600190565b60208082526038908201527f4552433732313a20617070726f76652063616c6c6572206973206e6f74206f7760408201527f6e6572206e6f7220617070726f76656420666f7220616c6c0000000000000000606082015260800190565b6020808252602a908201527f4552433732313a2062616c616e636520717565727920666f7220746865207a65604082015269726f206164647265737360b01b606082015260800190565b60208082526029908201527f4552433732313a206f776e657220717565727920666f72206e6f6e657869737460408201526832b73a103a37b5b2b760b91b606082015260800190565b6020808252818101527f4552433732313a206d696e7420746f20746865207a65726f2061646472657373604082015260600190565b6020808252602c908201527f4552433732313a20617070726f76656420717565727920666f72206e6f6e657860408201526b34b9ba32b73a103a37b5b2b760a11b606082015260800190565b6020808252818101527f4f776e61626c653a2063616c6c6572206973206e6f7420746865206f776e6572604082015260600190565b6020808252601b908201527f45746865722076616c756573206973206e6f7420636f72726563740000000000604082015260600190565b60208082526029908201527f4552433732313a207472616e73666572206f6620746f6b656e2074686174206960408201526839903737ba1037bbb760b91b606082015260800190565b6020808252602f908201527f4552433732314d657461646174613a2055524920717565727920666f72206e6f60408201526e3732bc34b9ba32b73a103a37b5b2b760891b606082015260800190565b60208082526021908201527f4552433732313a20617070726f76616c20746f2063757272656e74206f776e656040820152603960f91b606082015260800190565b6020808252601b908201527f4578636565646564206d617820746f6b656e2070757263686173650000000000604082015260600190565b60208082526031908201527f4552433732313a207472616e736665722063616c6c6572206973206e6f74206f6040820152701ddb995c881b9bdc88185c1c1c9bdd9959607a1b606082015260800190565b6020808252602c908201527f455243373231456e756d657261626c653a20676c6f62616c20696e646578206f60408201526b7574206f6620626f756e647360a01b606082015260800190565b6020808252600d908201526c24b73b30b634b210283937b7b360991b604082015260600190565b6020808252600f908201526e10dbdb9d1c9858dd0814185d5cd959608a1b604082015260600190565b60009081526020902090565b60008219821115612aa457612aa4612b89565b500190565b600082612ab857612ab8612b9f565b500490565b6000816000190483118215151615612ad757612ad7612b89565b500290565b600082821015612aee57612aee612b89565b500390565b60005b83811015612b0e578181015183820152602001612af6565b8381111561105e5750506000910152565b600281046001821680612b3357607f821691505b60208210811415612b5457634e487b7160e01b600052602260045260246000fd5b50919050565b6000600019821415612b6e57612b6e612b89565b5060010190565b600082612b8457612b84612b9f565b500690565b634e487b7160e01b600052601160045260246000fd5b634e487b7160e01b600052601260045260246000fd5b634e487b7160e01b600052604160045260246000fd5b6001600160e01b0319811681146113c857600080fdfea2646970667358221220a327c12527e02b11b0f591f527e1376d40ba9b13c003af151551bdb9ff5dbf0264736f6c63430008000033",
  "linkReferences": {},
  "deployedLinkReferences": {}
}