{
  "_format": "hh-sol-artifact-1",
  "contractName": "MetasaursPunks",
  "sourceName": "contracts/MetasaursPunks.sol",
  "abi": [
    {
      "inputs": [
        {
          "internalType": "string",
          "name": "_name",
          "type": "string"
        },
        {
          "internalType": "string",
          "name": "_symbol",
          "type": "string"
        },
        {
          "internalType": "address",
          "name": "_signer",
          "type": "address"
        },
        {
          "internalType": "string",
          "name": "_initBaseURI",
          "type": "string"
        },
        {
          "internalType": "string",
          "name": "_initNotRevealedUri",
          "type": "string"
        }
      ],
      "stateMutability": "nonpayable",
      "type": "constructor"
    },
    {
      "anonymous": false,
      "inputs": [
        {
          "indexed": true,
          "internalType": "address",
          "name": "owner",
          "type": "address"
        },
        {
          "indexed": true,
          "internalType": "address",
          "name": "approved",
          "type": "address"
        },
        {
          "indexed": true,
          "internalType": "uint256",
          "name": "tokenId",
          "type": "uint256"
        }
      ],
      "name": "Approval",
      "type": "event"
    },
    {
      "anonymous": false,
      "inputs": [
        {
          "indexed": true,
          "internalType": "address",
          "name": "owner",
          "type": "address"
        },
        {
          "indexed": true,
          "internalType": "address",
          "name": "operator",
          "type": "address"
        },
        {
          "indexed": false,
          "internalType": "bool",
          "name": "approved",
          "type": "bool"
        }
      ],
      "name": "ApprovalForAll",
      "type": "event"
    },
    {
      "anonymous": false,
      "inputs": [
        {
          "indexed": true,
          "internalType": "address",
          "name": "previousOwner",
          "type": "address"
        },
        {
          "indexed": true,
          "internalType": "address",
          "name": "newOwner",
          "type": "address"
        }
      ],
      "name": "OwnershipTransferred",
      "type": "event"
    },
    {
      "anonymous": false,
      "inputs": [
        {
          "indexed": true,
          "internalType": "address",
          "name": "from",
          "type": "address"
        },
        {
          "indexed": true,
          "internalType": "address",
          "name": "to",
          "type": "address"
        },
        {
          "indexed": true,
          "internalType": "uint256",
          "name": "tokenId",
          "type": "uint256"
        }
      ],
      "name": "Transfer",
      "type": "event"
    },
    {
      "inputs": [],
      "name": "MAX_PER_TRANSACTION",
      "outputs": [
        {
          "internalType": "uint256",
          "name": "",
          "type": "uint256"
        }
      ],
      "stateMutability": "view",
      "type": "function"
    },
    {
      "inputs": [],
      "name": "MAX_SUPPLY",
      "outputs": [
        {
          "internalType": "uint256",
          "name": "",
          "type": "uint256"
        }
      ],
      "stateMutability": "view",
      "type": "function"
    },
    {
      "inputs": [],
      "name": "PRICE_FIRST",
      "outputs": [
        {
          "internalType": "uint256",
          "name": "",
          "type": "uint256"
        }
      ],
      "stateMutability": "view",
      "type": "function"
    },
    {
      "inputs": [],
      "name": "PRICE_PUBLIC",
      "outputs": [
        {
          "internalType": "uint256",
          "name": "",
          "type": "uint256"
        }
      ],
      "stateMutability": "view",
      "type": "function"
    },
    {
      "inputs": [
        {
          "internalType": "address",
          "name": "to",
          "type": "address"
        },
        {
          "internalType": "uint256",
          "name": "tokenId",
          "type": "uint256"
        }
      ],
      "name": "approve",
      "outputs": [],
      "stateMutability": "nonpayable",
      "type": "function"
    },
    {
      "inputs": [
        {
          "internalType": "address",
          "name": "owner",
          "type": "address"
        }
      ],
      "name": "balanceOf",
      "outputs": [
        {
          "internalType": "uint256",
          "name": "",
          "type": "uint256"
        }
      ],
      "stateMutability": "view",
      "type": "function"
    },
    {
      "inputs": [],
      "name": "baseExtension",
      "outputs": [
        {
          "internalType": "string",
          "name": "",
          "type": "string"
        }
      ],
      "stateMutability": "view",
      "type": "function"
    },
    {
      "inputs": [],
      "name": "baseUri",
      "outputs": [
        {
          "internalType": "string",
          "name": "",
          "type": "string"
        }
      ],
      "stateMutability": "view",
      "type": "function"
    },
    {
      "inputs": [
        {
          "internalType": "uint256",
          "name": "tokenId",
          "type": "uint256"
        }
      ],
      "name": "getApproved",
      "outputs": [
        {
          "internalType": "address",
          "name": "",
          "type": "address"
        }
      ],
      "stateMutability": "view",
      "type": "function"
    },
    {
      "inputs": [
        {
          "internalType": "address",
          "name": "owner",
          "type": "address"
        },
        {
          "internalType": "address",
          "name": "operator",
          "type": "address"
        }
      ],
      "name": "isApprovedForAll",
      "outputs": [
        {
          "internalType": "bool",
          "name": "",
          "type": "bool"
        }
      ],
      "stateMutability": "view",
      "type": "function"
    },
    {
      "inputs": [
        {
          "internalType": "uint256",
          "name": "numberOfTokens",
          "type": "uint256"
        }
      ],
      "name": "mint",
      "outputs": [],
      "stateMutability": "payable",
      "type": "function"
    },
    {
      "inputs": [],
      "name": "name",
      "outputs": [
        {
          "internalType": "string",
          "name": "",
          "type": "string"
        }
      ],
      "stateMutability": "view",
      "type": "function"
    },
    {
      "inputs": [],
      "name": "notRevealedUri",
      "outputs": [
        {
          "internalType": "string",
          "name": "",
          "type": "string"
        }
      ],
      "stateMutability": "view",
      "type": "function"
    },
    {
      "inputs": [],
      "name": "owner",
      "outputs": [
        {
          "internalType": "address",
          "name": "",
          "type": "address"
        }
      ],
      "stateMutability": "view",
      "type": "function"
    },
    {
      "inputs": [
        {
          "internalType": "uint256",
          "name": "tokenId",
          "type": "uint256"
        }
      ],
      "name": "ownerOf",
      "outputs": [
        {
          "internalType": "address",
          "name": "",
          "type": "address"
        }
      ],
      "stateMutability": "view",
      "type": "function"
    },
    {
      "inputs": [],
      "name": "paused",
      "outputs": [
        {
          "internalType": "bool",
          "name": "",
          "type": "bool"
        }
      ],
      "stateMutability": "view",
      "type": "function"
    },
    {
      "inputs": [],
      "name": "pausedWhitelist",
      "outputs": [
        {
          "internalType": "bool",
          "name": "",
          "type": "bool"
        }
      ],
      "stateMutability": "view",
      "type": "function"
    },
    {
      "inputs": [
        {
          "internalType": "address",
          "name": "_sender",
          "type": "address"
        },
        {
          "internalType": "bytes",
          "name": "_signature",
          "type": "bytes"
        }
      ],
      "name": "recoverData",
      "outputs": [
        {
          "internalType": "address",
          "name": "_data",
          "type": "address"
        }
      ],
      "stateMutability": "pure",
      "type": "function"
    },
    {
      "inputs": [],
      "name": "renounceOwnership",
      "outputs": [],
      "stateMutability": "nonpayable",
      "type": "function"
    },
    {
      "inputs": [
        {
          "internalType": "uint256",
          "name": "numberOfTokens",
          "type": "uint256"
        }
      ],
      "name": "reserve",
      "outputs": [],
      "stateMutability": "nonpayable",
      "type": "function"
    },
    {
      "inputs": [],
      "name": "revealed",
      "outputs": [
        {
          "internalType": "bool",
          "name": "",
          "type": "bool"
        }
      ],
      "stateMutability": "view",
      "type": "function"
    },
    {
      "inputs": [
        {
          "internalType": "address",
          "name": "from",
          "type": "address"
        },
        {
          "internalType": "address",
          "name": "to",
          "type": "address"
        },
        {
          "internalType": "uint256",
          "name": "tokenId",
          "type": "uint256"
        }
      ],
      "name": "safeTransferFrom",
      "outputs": [],
      "stateMutability": "nonpayable",
      "type": "function"
    },
    {
      "inputs": [
        {
          "internalType": "address",
          "name": "from",
          "type": "address"
        },
        {
          "internalType": "address",
          "name": "to",
          "type": "address"
        },
        {
          "internalType": "uint256",
          "name": "tokenId",
          "type": "uint256"
        },
        {
          "internalType": "bytes",
          "name": "_data",
          "type": "bytes"
        }
      ],
      "name": "safeTransferFrom",
      "outputs": [],
      "stateMutability": "nonpayable",
      "type": "function"
    },
    {
      "inputs": [
        {
          "internalType": "address",
          "name": "operator",
          "type": "address"
        },
        {
          "internalType": "bool",
          "name": "approved",
          "type": "bool"
        }
      ],
      "name": "setApprovalForAll",
      "outputs": [],
      "stateMutability": "nonpayable",
      "type": "function"
    },
    {
      "inputs": [
        {
          "internalType": "string",
          "name": "_newBaseExtension",
          "type": "string"
        }
      ],
      "name": "setBaseExtension",
      "outputs": [],
      "stateMutability": "nonpayable",
      "type": "function"
    },
    {
      "inputs": [
        {
          "internalType": "string",
          "name": "newBaseURI",
          "type": "string"
        }
      ],
      "name": "setBaseURI",
      "outputs": [],
      "stateMutability": "nonpayable",
      "type": "function"
    },
    {
      "inputs": [
        {
          "internalType": "string",
          "name": "_notRevealedURI",
          "type": "string"
        }
      ],
      "name": "setNotRevealedURI",
      "outputs": [],
      "stateMutability": "nonpayable",
      "type": "function"
    },
    {
      "inputs": [
        {
          "internalType": "bool",
          "name": "newState",
          "type": "bool"
        }
      ],
      "name": "setPaused",
      "outputs": [],
      "stateMutability": "nonpayable",
      "type": "function"
    },
    {
      "inputs": [
        {
          "internalType": "bool",
          "name": "newState",
          "type": "bool"
        }
      ],
      "name": "setPausedWhitelist",
      "outputs": [],
      "stateMutability": "nonpayable",
      "type": "function"
    },
    {
      "inputs": [
        {
          "internalType": "bool",
          "name": "newState",
          "type": "bool"
        }
      ],
      "name": "setRevealed",
      "outputs": [],
      "stateMutability": "nonpayable",
      "type": "function"
    },
    {
      "inputs": [
        {
          "internalType": "address",
          "name": "newSigner",
          "type": "address"
        }
      ],
      "name": "setSigner",
      "outputs": [],
      "stateMutability": "nonpayable",
      "type": "function"
    },
    {
      "inputs": [
        {
          "internalType": "bytes4",
          "name": "interfaceId",
          "type": "bytes4"
        }
      ],
      "name": "supportsInterface",
      "outputs": [
        {
          "internalType": "bool",
          "name": "",
          "type": "bool"
        }
      ],
      "stateMutability": "view",
      "type": "function"
    },
    {
      "inputs": [],
      "name": "symbol",
      "outputs": [
        {
          "internalType": "string",
          "name": "",
          "type": "string"
        }
      ],
      "stateMutability": "view",
      "type": "function"
    },
    {
      "inputs": [
        {
          "internalType": "uint256",
          "name": "index",
          "type": "uint256"
        }
      ],
      "name": "tokenByIndex",
      "outputs": [
        {
          "internalType": "uint256",
          "name": "",
          "type": "uint256"
        }
      ],
      "stateMutability": "view",
      "type": "function"
    },
    {
      "inputs": [
        {
          "internalType": "address",
          "name": "owner",
          "type": "address"
        },
        {
          "internalType": "uint256",
          "name": "index",
          "type": "uint256"
        }
      ],
      "name": "tokenOfOwnerByIndex",
      "outputs": [
        {
          "internalType": "uint256",
          "name": "",
          "type": "uint256"
        }
      ],
      "stateMutability": "view",
      "type": "function"
    },
    {
      "inputs": [
        {
          "internalType": "uint256",
          "name": "tokenId",
          "type": "uint256"
        }
      ],
      "name": "tokenURI",
      "outputs": [
        {
          "internalType": "string",
          "name": "",
          "type": "string"
        }
      ],
      "stateMutability": "view",
      "type": "function"
    },
    {
      "inputs": [],
      "name": "totalSupply",
      "outputs": [
        {
          "internalType": "uint256",
          "name": "",
          "type": "uint256"
        }
      ],
      "stateMutability": "view",
      "type": "function"
    },
    {
      "inputs": [
        {
          "internalType": "address",
          "name": "from",
          "type": "address"
        },
        {
          "internalType": "address",
          "name": "to",
          "type": "address"
        },
        {
          "internalType": "uint256",
          "name": "tokenId",
          "type": "uint256"
        }
      ],
      "name": "transferFrom",
      "outputs": [],
      "stateMutability": "nonpayable",
      "type": "function"
    },
    {
      "inputs": [
        {
          "internalType": "address",
          "name": "newOwner",
          "type": "address"
        }
      ],
      "name": "transferOwnership",
      "outputs": [],
      "stateMutability": "nonpayable",
      "type": "function"
    },
    {
      "inputs": [
        {
          "internalType": "uint256",
          "name": "numberOfTokens",
          "type": "uint256"
        },
        {
          "internalType": "uint256",
          "name": "limit",
          "type": "uint256"
        },
        {
          "internalType": "bytes",
          "name": "_signature",
          "type": "bytes"
        }
      ],
      "name": "whitelistMint",
      "outputs": [],
      "stateMutability": "payable",
      "type": "function"
    },
    {
      "inputs": [],
      "name": "withdraw",
      "outputs": [],
      "stateMutability": "nonpayable",
      "type": "function"
    }
  ],
  "bytecode": "0x60c06040526005608081905264173539b7b760d91b60a09081526200002891600c9190620002c3565b50600e805462ff00001961ff001960ff19909216600117919091166101001716905567011c37937e080000600f5567013fbe85edc900006010553480156200006f57600080fd5b506040516200355538038062003555833981016040819052620000929162000414565b845185908590620000ab906000906020850190620002c3565b508051620000c1906001906020840190620002c3565b505050620000de620000d86200010a60201b60201c565b6200010e565b620000e98262000160565b620000f481620001c8565b620000ff8362000223565b50505050506200059c565b3390565b600a80546001600160a01b038381166001600160a01b0319831681179093556040519116919082907f8be0079c531659141344cd1fd0a4f28419497f9722a3daafe3b4186f6b6457e090600090a35050565b6200016a6200010a565b6001600160a01b03166200017d620002b4565b6001600160a01b031614620001af5760405162461bcd60e51b8152600401620001a690620004e9565b60405180910390fd5b8051620001c490600b906020840190620002c3565b5050565b620001d26200010a565b6001600160a01b0316620001e5620002b4565b6001600160a01b0316146200020e5760405162461bcd60e51b8152600401620001a690620004e9565b8051620001c490600d906020840190620002c3565b6200022d6200010a565b6001600160a01b031662000240620002b4565b6001600160a01b031614620002695760405162461bcd60e51b8152600401620001a690620004e9565b6001600160a01b038116620002925760405162461bcd60e51b8152600401620001a6906200051e565b601180546001600160a01b0319166001600160a01b0392909216919091179055565b600a546001600160a01b031690565b828054620002d19062000549565b90600052602060002090601f016020900481019282620002f5576000855562000340565b82601f106200031057805160ff191683800117855562000340565b8280016001018555821562000340579182015b828111156200034057825182559160200191906001019062000323565b506200034e92915062000352565b5090565b5b808211156200034e576000815560010162000353565b600082601f8301126200037a578081fd5b81516001600160401b038082111562000397576200039762000586565b6040516020601f8401601f1916820181018381118382101715620003bf57620003bf62000586565b6040528382528584018101871015620003d6578485fd5b8492505b83831015620003f95785830181015182840182015291820191620003da565b838311156200040a57848185840101525b5095945050505050565b600080600080600060a086880312156200042c578081fd5b85516001600160401b038082111562000443578283fd5b6200045189838a0162000369565b9650602088015191508082111562000467578283fd5b6200047589838a0162000369565b604089015190965091506001600160a01b038216821462000494578283fd5b606088015191945080821115620004a9578283fd5b620004b789838a0162000369565b93506080880151915080821115620004cd578283fd5b50620004dc8882890162000369565b9150509295509295909350565b6020808252818101527f4f776e61626c653a2063616c6c6572206973206e6f7420746865206f776e6572604082015260600190565b602080825260119082015270696e636f7272656374206164647265737360781b604082015260600190565b6002810460018216806200055e57607f821691505b602082108114156200058057634e487b7160e01b600052602260045260246000fd5b50919050565b634e487b7160e01b600052604160045260246000fd5b612fa980620005ac6000396000f3fe6080604052600436106102465760003560e01c8063715018a611610139578063b88d4fde116100b6578063e0a808531161007a578063e0a8085314610638578063e985e9c514610658578063ec596b7214610678578063f2c4ce1e1461068b578063f2fde38b146106ab578063f72ec829146106cb57610246565b8063b88d4fde146105ae578063c6682862146105ce578063c87b56dd146105e3578063cb14eb8714610603578063da3ef23f1461061857610246565b80639abc8320116100fd5780639abc83201461053c578063a0712d6814610551578063a22cb46514610564578063a56d773014610584578063a8a4b4f11461059957610246565b8063715018a6146104bd578063819b25ba146104d2578063844847f6146104f25780638da5cb5b1461051257806395d89b411461052757610246565b80633ccfd60b116101c757806357ae51fb1161018b57806357ae51fb146104285780635c975abb146104485780636352211e1461045d5780636c19e7831461047d57806370a082311461049d57610246565b80633ccfd60b1461039e57806342842e0e146103b35780634f6ccce7146103d357806351830227146103f357806355f804b31461040857610246565b806316c38b3c1161020e57806316c38b3c1461030757806318160ddd1461032757806323b872dd146103495780632f745c591461036957806332cb6b0c1461038957610246565b806301ffc9a71461024b57806306fdde0314610281578063081812fc146102a3578063081c8c44146102d0578063095ea7b3146102e5575b600080fd5b34801561025757600080fd5b5061026b610266366004612409565b6106e0565b6040516102789190612660565b60405180910390f35b34801561028d57600080fd5b506102966106f3565b6040516102789190612689565b3480156102af57600080fd5b506102c36102be366004612487565b610785565b604051610278919061260f565b3480156102dc57600080fd5b506102966107d1565b3480156102f157600080fd5b506103056103003660046123c6565b61085f565b005b34801561031357600080fd5b506103056103223660046123ef565b6108f7565b34801561033357600080fd5b5061033c610949565b6040516102789190612e0e565b34801561035557600080fd5b50610305610364366004612298565b61094f565b34801561037557600080fd5b5061033c6103843660046123c6565b610987565b34801561039557600080fd5b5061033c6109d9565b3480156103aa57600080fd5b506103056109df565b3480156103bf57600080fd5b506103056103ce366004612298565b610a51565b3480156103df57600080fd5b5061033c6103ee366004612487565b610a6c565b3480156103ff57600080fd5b5061026b610ac7565b34801561041457600080fd5b50610305610423366004612441565b610ad6565b34801561043457600080fd5b506103056104433660046123ef565b610b28565b34801561045457600080fd5b5061026b610b81565b34801561046957600080fd5b506102c3610478366004612487565b610b8a565b34801561048957600080fd5b5061030561049836600461224c565b610bbf565b3480156104a957600080fd5b5061033c6104b836600461224c565b610c46565b3480156104c957600080fd5b50610305610c8a565b3480156104de57600080fd5b506103056104ed366004612487565b610cd5565b3480156104fe57600080fd5b506102c361050d366004612375565b610d7b565b34801561051e57600080fd5b506102c3610dfb565b34801561053357600080fd5b50610296610e0a565b34801561054857600080fd5b50610296610e19565b61030561055f366004612487565b610e26565b34801561057057600080fd5b5061030561057f36600461234c565b610efa565b34801561059057600080fd5b5061033c610f0c565b3480156105a557600080fd5b5061033c610f12565b3480156105ba57600080fd5b506103056105c93660046122d3565b610f18565b3480156105da57600080fd5b50610296610f57565b3480156105ef57600080fd5b506102966105fe366004612487565b610f64565b34801561060f57600080fd5b5061033c61108c565b34801561062457600080fd5b50610305610633366004612441565b611091565b34801561064457600080fd5b506103056106533660046123ef565b6110e3565b34801561066457600080fd5b5061026b610673366004612266565b61113e565b61030561068636600461249f565b61116c565b34801561069757600080fd5b506103056106a6366004612441565b6112e7565b3480156106b757600080fd5b506103056106c636600461224c565b611339565b3480156106d757600080fd5b5061026b6113aa565b60006106eb826113b8565b90505b919050565b60606000805461070290612eb1565b80601f016020809104026020016040519081016040528092919081815260200182805461072e90612eb1565b801561077b5780601f106107505761010080835404028352916020019161077b565b820191906000526020600020905b81548152906001019060200180831161075e57829003601f168201915b5050505050905090565b6000610790826113dd565b6107b55760405162461bcd60e51b81526004016107ac90612b2a565b60405180910390fd5b506000908152600460205260409020546001600160a01b031690565b600d80546107de90612eb1565b80601f016020809104026020016040519081016040528092919081815260200182805461080a90612eb1565b80156108575780601f1061082c57610100808354040283529160200191610857565b820191906000526020600020905b81548152906001019060200180831161083a57829003601f168201915b505050505081565b600061086a82610b8a565b9050806001600160a01b0316836001600160a01b0316141561089e5760405162461bcd60e51b81526004016107ac90612cd0565b806001600160a01b03166108b06113fa565b6001600160a01b031614806108cc57506108cc816106736113fa565b6108e85760405162461bcd60e51b81526004016107ac906129c3565b6108f283836113fe565b505050565b6108ff6113fa565b6001600160a01b0316610910610dfb565b6001600160a01b0316146109365760405162461bcd60e51b81526004016107ac90612ba1565b600e805460ff1916911515919091179055565b60085490565b61096061095a6113fa565b8261146c565b61097c5760405162461bcd60e51b81526004016107ac90612d48565b6108f28383836114f1565b600061099283610c46565b82106109b05760405162461bcd60e51b81526004016107ac90612734565b506001600160a01b03919091166000908152600660209081526040808320938352929052205490565b614e1f81565b6109e76113fa565b6001600160a01b03166109f8610dfb565b6001600160a01b031614610a1e5760405162461bcd60e51b81526004016107ac90612ba1565b6040514790339082156108fc029083906000818181858888f19350505050158015610a4d573d6000803e3d6000fd5b5050565b6108f283838360405180602001604052806000815250610f18565b6000610a76610949565b8210610a945760405162461bcd60e51b81526004016107ac90612d99565b60088281548110610ab557634e487b7160e01b600052603260045260246000fd5b90600052602060002001549050919050565b600e5462010000900460ff1681565b610ade6113fa565b6001600160a01b0316610aef610dfb565b6001600160a01b031614610b155760405162461bcd60e51b81526004016107ac90612ba1565b8051610a4d90600b9060208401906120dc565b610b306113fa565b6001600160a01b0316610b41610dfb565b6001600160a01b031614610b675760405162461bcd60e51b81526004016107ac90612ba1565b600e80549115156101000261ff0019909216919091179055565b600e5460ff1681565b6000818152600260205260408120546001600160a01b0316806106eb5760405162461bcd60e51b81526004016107ac90612a6a565b610bc76113fa565b6001600160a01b0316610bd8610dfb565b6001600160a01b031614610bfe5760405162461bcd60e51b81526004016107ac90612ba1565b6001600160a01b038116610c245760405162461bcd60e51b81526004016107ac90612ca5565b601180546001600160a01b0319166001600160a01b0392909216919091179055565b60006001600160a01b038216610c6e5760405162461bcd60e51b81526004016107ac90612a20565b506001600160a01b031660009081526003602052604090205490565b610c926113fa565b6001600160a01b0316610ca3610dfb565b6001600160a01b031614610cc95760405162461bcd60e51b81526004016107ac90612ba1565b610cd3600061161e565b565b610cdd6113fa565b6001600160a01b0316610cee610dfb565b6001600160a01b031614610d145760405162461bcd60e51b81526004016107ac90612ba1565b6000610d1e610949565b9050614e1f610d2d8383612e23565b1115610d4b5760405162461bcd60e51b81526004016107ac90612817565b60005b828110156108f257610d6933610d648385612e23565b611670565b80610d7381612eec565b915050610d4e565b60008084604051602001610d8f919061260f565b604051602081830303815290604052805190602001209050610df284848080601f016020809104026020016040519081016040528093929190818152602001838380828437600092019190915250610dec925085915061168a9050565b906116ba565b95945050505050565b600a546001600160a01b031690565b60606001805461070290612eb1565b600b80546107de90612eb1565b6000610e30610949565b600e5490915060ff1615610e565760405162461bcd60e51b81526004016107ac90612de5565b601e821115610e775760405162461bcd60e51b81526004016107ac90612d11565b614e1f610e848383612e23565b1115610ea25760405162461bcd60e51b81526004016107ac90612817565b3482601054610eb19190612e4f565b1115610ecf5760405162461bcd60e51b81526004016107ac906128fe565b60005b828110156108f257610ee833610d648385612e23565b80610ef281612eec565b915050610ed2565b610a4d610f056113fa565b83836116de565b60105481565b600f5481565b610f29610f236113fa565b8361146c565b610f455760405162461bcd60e51b81526004016107ac90612d48565b610f5184848484611781565b50505050565b600c80546107de90612eb1565b6060610f6f826113dd565b610f8b5760405162461bcd60e51b81526004016107ac90612c56565b600e5462010000900460ff1661102d57600d8054610fa890612eb1565b80601f0160208091040260200160405190810160405280929190818152602001828054610fd490612eb1565b80156110215780601f10610ff657610100808354040283529160200191611021565b820191906000526020600020905b81548152906001019060200180831161100457829003601f168201915b505050505090506106ee565b60006110376117b4565b905060008151116110575760405180602001604052806000815250611085565b80611061846117c3565b600c6040516020016110759392919061251c565b6040516020818303038152906040525b9392505050565b601e81565b6110996113fa565b6001600160a01b03166110aa610dfb565b6001600160a01b0316146110d05760405162461bcd60e51b81526004016107ac90612ba1565b8051610a4d90600c9060208401906120dc565b6110eb6113fa565b6001600160a01b03166110fc610dfb565b6001600160a01b0316146111225760405162461bcd60e51b81526004016107ac90612ba1565b600e8054911515620100000262ff000019909216919091179055565b6001600160a01b03918216600090815260056020908152604080832093909416825291909152205460ff1690565b6000611176610949565b600e54909150610100900460ff16156111a15760405162461bcd60e51b81526004016107ac906126d3565b601e8511156111c25760405162461bcd60e51b81526004016107ac90612d11565b614e1f6111cf8683612e23565b11156111ed5760405162461bcd60e51b81526004016107ac90612817565b6111f985600f546118de565b6112155760405162461bcd60e51b81526004016107ac90612bd6565b6011546001600160a01b031661122c338585610d7b565b6001600160a01b0316146112525760405162461bcd60e51b81526004016107ac90612b76565b61125b33610c46565b61128c5761126b85600f546118de565b6112875760405162461bcd60e51b81526004016107ac90612bd6565b6112b4565b611298856010546118de565b6112b45760405162461bcd60e51b81526004016107ac90612bd6565b60005b858110156112df576112cd33610d648385612e23565b806112d781612eec565b9150506112b7565b505050505050565b6112ef6113fa565b6001600160a01b0316611300610dfb565b6001600160a01b0316146113265760405162461bcd60e51b81526004016107ac90612ba1565b8051610a4d90600d9060208401906120dc565b6113416113fa565b6001600160a01b0316611352610dfb565b6001600160a01b0316146113785760405162461bcd60e51b81526004016107ac90612ba1565b6001600160a01b03811661139e5760405162461bcd60e51b81526004016107ac906127d1565b6113a78161161e565b50565b600e54610100900460ff1681565b60006001600160e01b0319821663780e9d6360e01b14806106eb57506106eb82611912565b6000908152600260205260409020546001600160a01b0316151590565b3390565b600081815260046020526040902080546001600160a01b0319166001600160a01b038416908117909155819061143382610b8a565b6001600160a01b03167f8c5be1e5ebec7d5bd14f71427d1e84f3dd0314c0f7b2291e5b200ac8c7c3b92560405160405180910390a45050565b6000611477826113dd565b6114935760405162461bcd60e51b81526004016107ac90612977565b600061149e83610b8a565b9050806001600160a01b0316846001600160a01b031614806114d95750836001600160a01b03166114ce84610785565b6001600160a01b0316145b806114e957506114e9818561113e565b949350505050565b826001600160a01b031661150482610b8a565b6001600160a01b03161461152a5760405162461bcd60e51b81526004016107ac90612c0d565b6001600160a01b0382166115505760405162461bcd60e51b81526004016107ac90612883565b61155b838383611952565b6115666000826113fe565b6001600160a01b038316600090815260036020526040812080546001929061158f908490612e6e565b90915550506001600160a01b03821660009081526003602052604081208054600192906115bd908490612e23565b909155505060008181526002602052604080822080546001600160a01b0319166001600160a01b0386811691821790925591518493918716917fddf252ad1be2c89b69c2b068fc378daa952ba7f163c4a11628f55a4df523b3ef91a4505050565b600a80546001600160a01b038381166001600160a01b0319831681179093556040519116919082907f8be0079c531659141344cd1fd0a4f28419497f9722a3daafe3b4186f6b6457e090600090a35050565b610a4d82826040518060200160405280600081525061195d565b60008160405160200161169d91906125de565b604051602081830303815290604052805190602001209050919050565b60008060006116c98585611990565b915091506116d681611a00565b509392505050565b816001600160a01b0316836001600160a01b031614156117105760405162461bcd60e51b81526004016107ac906128c7565b6001600160a01b0383811660008181526005602090815260408083209487168084529490915290819020805460ff1916851515179055517f17307eab39ab6107e8899845ad3d59bd9653f200f220920489ca2b5937696c3190611774908590612660565b60405180910390a3505050565b61178c8484846114f1565b61179884848484611b2d565b610f515760405162461bcd60e51b81526004016107ac9061277f565b6060600b805461070290612eb1565b6060816117e857506040805180820190915260018152600360fc1b60208201526106ee565b8160005b811561181257806117fc81612eec565b915061180b9050600a83612e3b565b91506117ec565b60008167ffffffffffffffff81111561183b57634e487b7160e01b600052604160045260246000fd5b6040519080825280601f01601f191660200182016040528015611865576020820181803683370190505b5090505b84156114e95761187a600183612e6e565b9150611887600a86612f07565b611892906030612e23565b60f81b8183815181106118b557634e487b7160e01b600052603260045260246000fd5b60200101906001600160f81b031916908160001a9053506118d7600a86612e3b565b9450611869565b6000806118ec600185612e6e565b6118fd9066d529ae9e860000612e4f565b6119079084612e23565b341015949350505050565b60006001600160e01b031982166380ac58cd60e01b148061194357506001600160e01b03198216635b5e139f60e01b145b806106eb57506106eb82611c48565b6108f2838383611c61565b6119678383611cea565b6119746000848484611b2d565b6108f25760405162461bcd60e51b81526004016107ac9061277f565b6000808251604114156119c75760208301516040840151606085015160001a6119bb87828585611dc9565b945094505050506119f9565b8251604014156119f157602083015160408401516119e6868383611ea9565b9350935050506119f9565b506000905060025b9250929050565b6000816004811115611a2257634e487b7160e01b600052602160045260246000fd5b1415611a2d576113a7565b6001816004811115611a4f57634e487b7160e01b600052602160045260246000fd5b1415611a6d5760405162461bcd60e51b81526004016107ac9061269c565b6002816004811115611a8f57634e487b7160e01b600052602160045260246000fd5b1415611aad5760405162461bcd60e51b81526004016107ac906126fd565b6003816004811115611acf57634e487b7160e01b600052602160045260246000fd5b1415611aed5760405162461bcd60e51b81526004016107ac90612935565b6004816004811115611b0f57634e487b7160e01b600052602160045260246000fd5b14156113a75760405162461bcd60e51b81526004016107ac90612ab3565b6000611b41846001600160a01b0316611ed8565b15611c3d57836001600160a01b031663150b7a02611b5d6113fa565b8786866040518563ffffffff1660e01b8152600401611b7f9493929190612623565b602060405180830381600087803b158015611b9957600080fd5b505af1925050508015611bc9575060408051601f3d908101601f19168201909252611bc691810190612425565b60015b611c23573d808015611bf7576040519150601f19603f3d011682016040523d82523d6000602084013e611bfc565b606091505b508051611c1b5760405162461bcd60e51b81526004016107ac9061277f565b805181602001fd5b6001600160e01b031916630a85bd0160e11b1490506114e9565b506001949350505050565b6001600160e01b031981166301ffc9a760e01b14919050565b611c6c8383836108f2565b6001600160a01b038316611c8857611c8381611ede565b611cab565b816001600160a01b0316836001600160a01b031614611cab57611cab8382611f22565b6001600160a01b038216611cc757611cc281611fbf565b6108f2565b826001600160a01b0316826001600160a01b0316146108f2576108f28282612098565b6001600160a01b038216611d105760405162461bcd60e51b81526004016107ac90612af5565b611d19816113dd565b15611d365760405162461bcd60e51b81526004016107ac9061284c565b611d4260008383611952565b6001600160a01b0382166000908152600360205260408120805460019290611d6b908490612e23565b909155505060008181526002602052604080822080546001600160a01b0319166001600160a01b03861690811790915590518392907fddf252ad1be2c89b69c2b068fc378daa952ba7f163c4a11628f55a4df523b3ef908290a45050565b6000807f7fffffffffffffffffffffffffffffff5d576e7357a4501ddfe92f46681b20a0831115611e005750600090506003611ea0565b8460ff16601b14158015611e1857508460ff16601c14155b15611e295750600090506004611ea0565b600060018787878760405160008152602001604052604051611e4e949392919061266b565b6020604051602081039080840390855afa158015611e70573d6000803e3d6000fd5b5050604051601f1901519150506001600160a01b038116611e9957600060019250925050611ea0565b9150600090505b94509492505050565b6000806001600160ff1b03831660ff84901c601b01611eca87828885611dc9565b935093505050935093915050565b3b151590565b600880546000838152600960205260408120829055600182018355919091527ff3f7a9fe364faab93b216da50a3214154f22a0a2b415b23a84c8169e8b636ee30155565b60006001611f2f84610c46565b611f399190612e6e565b600083815260076020526040902054909150808214611f8c576001600160a01b03841660009081526006602090815260408083208584528252808320548484528184208190558352600790915290208190555b5060009182526007602090815260408084208490556001600160a01b039094168352600681528383209183525290812055565b600854600090611fd190600190612e6e565b6000838152600960205260408120546008805493945090928490811061200757634e487b7160e01b600052603260045260246000fd5b90600052602060002001549050806008838154811061203657634e487b7160e01b600052603260045260246000fd5b600091825260208083209091019290925582815260099091526040808220849055858252812055600880548061207c57634e487b7160e01b600052603160045260246000fd5b6001900381819060005260206000200160009055905550505050565b60006120a383610c46565b6001600160a01b039093166000908152600660209081526040808320868452825280832085905593825260079052919091209190915550565b8280546120e890612eb1565b90600052602060002090601f01602090048101928261210a5760008555612150565b82601f1061212357805160ff1916838001178555612150565b82800160010185558215612150579182015b82811115612150578251825591602001919060010190612135565b5061215c929150612160565b5090565b5b8082111561215c5760008155600101612161565b600067ffffffffffffffff8084111561219057612190612f47565b604051601f8501601f1916810160200182811182821017156121b4576121b4612f47565b6040528481529150818385018610156121cc57600080fd5b8484602083013760006020868301015250509392505050565b80356001600160a01b03811681146106ee57600080fd5b803580151581146106ee57600080fd5b60008083601f84011261221d578182fd5b50813567ffffffffffffffff811115612234578182fd5b6020830191508360208285010111156119f957600080fd5b60006020828403121561225d578081fd5b611085826121e5565b60008060408385031215612278578081fd5b612281836121e5565b915061228f602084016121e5565b90509250929050565b6000806000606084860312156122ac578081fd5b6122b5846121e5565b92506122c3602085016121e5565b9150604084013590509250925092565b600080600080608085870312156122e8578081fd5b6122f1856121e5565b93506122ff602086016121e5565b925060408501359150606085013567ffffffffffffffff811115612321578182fd5b8501601f81018713612331578182fd5b61234087823560208401612175565b91505092959194509250565b6000806040838503121561235e578182fd5b612367836121e5565b915061228f602084016121fc565b600080600060408486031215612389578283fd5b612392846121e5565b9250602084013567ffffffffffffffff8111156123ad578283fd5b6123b98682870161220c565b9497909650939450505050565b600080604083850312156123d8578182fd5b6123e1836121e5565b946020939093013593505050565b600060208284031215612400578081fd5b611085826121fc565b60006020828403121561241a578081fd5b813561108581612f5d565b600060208284031215612436578081fd5b815161108581612f5d565b600060208284031215612452578081fd5b813567ffffffffffffffff811115612468578182fd5b8201601f81018413612478578182fd5b6114e984823560208401612175565b600060208284031215612498578081fd5b5035919050565b600080600080606085870312156124b4578384fd5b8435935060208501359250604085013567ffffffffffffffff8111156124d8578283fd5b6124e48782880161220c565b95989497509550505050565b60008151808452612508816020860160208601612e85565b601f01601f19169290920160200192915050565b60008451602061252f8285838a01612e85565b8551918401916125428184848a01612e85565b855492019183906002810460018083168061255e57607f831692505b85831081141561257c57634e487b7160e01b88526022600452602488fd5b80801561259057600181146125a1576125cd565b60ff198516885283880195506125cd565b6125aa8b612e17565b895b858110156125c55781548a8201529084019088016125ac565b505083880195505b50939b9a5050505050505050505050565b7f19457468657265756d205369676e6564204d6573736167653a0a3332000000008152601c810191909152603c0190565b6001600160a01b0391909116815260200190565b6001600160a01b0385811682528416602082015260408101839052608060608201819052600090612656908301846124f0565b9695505050505050565b901515815260200190565b93845260ff9290921660208401526040830152606082015260800190565b60006020825261108560208301846124f0565b60208082526018908201527f45434453413a20696e76616c6964207369676e61747572650000000000000000604082015260600190565b60208082526010908201526f15da1a5d195b1a5cdd0814185d5cd95960821b604082015260600190565b6020808252601f908201527f45434453413a20696e76616c6964207369676e6174757265206c656e67746800604082015260600190565b6020808252602b908201527f455243373231456e756d657261626c653a206f776e657220696e646578206f7560408201526a74206f6620626f756e647360a81b606082015260800190565b60208082526032908201527f4552433732313a207472616e7366657220746f206e6f6e20455243373231526560408201527131b2b4bb32b91034b6b83632b6b2b73a32b960711b606082015260800190565b60208082526026908201527f4f776e61626c653a206e6577206f776e657220697320746865207a65726f206160408201526564647265737360d01b606082015260800190565b6020808252818101527f507572636861736520776f756c6420657863656564206d617820746f6b656e73604082015260600190565b6020808252601c908201527f4552433732313a20746f6b656e20616c7265616479206d696e74656400000000604082015260600190565b60208082526024908201527f4552433732313a207472616e7366657220746f20746865207a65726f206164646040820152637265737360e01b606082015260800190565b60208082526019908201527f4552433732313a20617070726f766520746f2063616c6c657200000000000000604082015260600190565b6020808252601f908201527f45746865722076616c75652073656e74206973206e6f7420636f727265637400604082015260600190565b60208082526022908201527f45434453413a20696e76616c6964207369676e6174757265202773272076616c604082015261756560f01b606082015260800190565b6020808252602c908201527f4552433732313a206f70657261746f7220717565727920666f72206e6f6e657860408201526b34b9ba32b73a103a37b5b2b760a11b606082015260800190565b60208082526038908201527f4552433732313a20617070726f76652063616c6c6572206973206e6f74206f7760408201527f6e6572206e6f7220617070726f76656420666f7220616c6c0000000000000000606082015260800190565b6020808252602a908201527f4552433732313a2062616c616e636520717565727920666f7220746865207a65604082015269726f206164647265737360b01b606082015260800190565b60208082526029908201527f4552433732313a206f776e657220717565727920666f72206e6f6e657869737460408201526832b73a103a37b5b2b760b91b606082015260800190565b60208082526022908201527f45434453413a20696e76616c6964207369676e6174757265202776272076616c604082015261756560f01b606082015260800190565b6020808252818101527f4552433732313a206d696e7420746f20746865207a65726f2061646472657373604082015260600190565b6020808252602c908201527f4552433732313a20617070726f76656420717565727920666f72206e6f6e657860408201526b34b9ba32b73a103a37b5b2b760a11b606082015260800190565b602080825260119082015270496e76616c6964205369676e617475726560781b604082015260600190565b6020808252818101527f4f776e61626c653a2063616c6c6572206973206e6f7420746865206f776e6572604082015260600190565b6020808252601b908201527f45746865722076616c756573206973206e6f7420636f72726563740000000000604082015260600190565b60208082526029908201527f4552433732313a207472616e73666572206f6620746f6b656e2074686174206960408201526839903737ba1037bbb760b91b606082015260800190565b6020808252602f908201527f4552433732314d657461646174613a2055524920717565727920666f72206e6f60408201526e3732bc34b9ba32b73a103a37b5b2b760891b606082015260800190565b602080825260119082015270696e636f7272656374206164647265737360781b604082015260600190565b60208082526021908201527f4552433732313a20617070726f76616c20746f2063757272656e74206f776e656040820152603960f91b606082015260800190565b6020808252601b908201527f4578636565646564206d617820746f6b656e2070757263686173650000000000604082015260600190565b60208082526031908201527f4552433732313a207472616e736665722063616c6c6572206973206e6f74206f6040820152701ddb995c881b9bdc88185c1c1c9bdd9959607a1b606082015260800190565b6020808252602c908201527f455243373231456e756d657261626c653a20676c6f62616c20696e646578206f60408201526b7574206f6620626f756e647360a01b606082015260800190565b6020808252600f908201526e10dbdb9d1c9858dd0814185d5cd959608a1b604082015260600190565b90815260200190565b60009081526020902090565b60008219821115612e3657612e36612f1b565b500190565b600082612e4a57612e4a612f31565b500490565b6000816000190483118215151615612e6957612e69612f1b565b500290565b600082821015612e8057612e80612f1b565b500390565b60005b83811015612ea0578181015183820152602001612e88565b83811115610f515750506000910152565b600281046001821680612ec557607f821691505b60208210811415612ee657634e487b7160e01b600052602260045260246000fd5b50919050565b6000600019821415612f0057612f00612f1b565b5060010190565b600082612f1657612f16612f31565b500690565b634e487b7160e01b600052601160045260246000fd5b634e487b7160e01b600052601260045260246000fd5b634e487b7160e01b600052604160045260246000fd5b6001600160e01b0319811681146113a757600080fdfea26469706673582212202e46fba38cf17a69f866c40b1b8ad3b7d0ff2eb71c41665e211c3e80d5b5f03664736f6c63430008000033",
  "linkReferences": {},
  "deployedLinkReferences": {}
}