{
  "_format": "hh-sol-artifact-1",
  "contractName": "Merkle",
  "sourceName": "contracts/Merkle.sol",
  "abi": [
    {
      "inputs": [],
      "name": "merkleRoot",
      "outputs": [
        {
          "internalType": "bytes32",
          "name": "",
          "type": "bytes32"
        }
      ],
      "stateMutability": "view",
      "type": "function"
    },
    {
      "inputs": [
        {
          "internalType": "address",
          "name": "",
          "type": "address"
        }
      ],
      "name": "whitelistClaimed",
      "outputs": [
        {
          "internalType": "bool",
          "name": "",
          "type": "bool"
        }
      ],
      "stateMutability": "view",
      "type": "function"
    },
    {
      "inputs": [
        {
          "internalType": "bytes32[]",
          "name": "_merkleProof",
          "type": "bytes32[]"
        }
      ],
      "name": "whitelistMint",
      "outputs": [],
      "stateMutability": "nonpayable",
      "type": "function"
    }
  ],
  "bytecode": "0x60806040527f9f3a4509aa49dde177706de9a4168bf3975ccf5958a4a48677331db3cd0afca960005534801561003457600080fd5b506103fa806100446000396000f3fe608060405234801561001057600080fd5b50600436106100415760003560e01c80632eb4a7ab14610046578063372f657c14610064578063db4bec4414610079575b600080fd5b61004e610099565b60405161005b9190610336565b60405180910390f35b610077610072366004610291565b61009f565b005b61008c610087366004610263565b610180565b60405161005b919061032b565b60005481565b3360009081526001602052604090205460ff16156100d85760405162461bcd60e51b81526004016100cf9061033f565b60405180910390fd5b6000336040516020016100eb9190610300565b60405160208183030381529060405280519060200120905061014283838080602002602001604051908101604052809392919081815260200183836020028082843760009201829052505492508591506101959050565b61015e5760405162461bcd60e51b81526004016100cf90610376565b5050336000908152600160208190526040909120805460ff1916909117905550565b60016020526000908152604090205460ff1681565b6000826101a285846101ab565b14949350505050565b600081815b845181101561025b5760008582815181106101db57634e487b7160e01b600052603260045260246000fd5b6020026020010151905080831161021c5782816040516020016101ff92919061031d565b604051602081830303815290604052805190602001209250610248565b808360405160200161022f92919061031d565b6040516020818303038152906040528051906020012092505b50806102538161039d565b9150506101b0565b509392505050565b600060208284031215610274578081fd5b81356001600160a01b038116811461028a578182fd5b9392505050565b600080602083850312156102a3578081fd5b823567ffffffffffffffff808211156102ba578283fd5b818501915085601f8301126102cd578283fd5b8135818111156102db578384fd5b86602080830285010111156102ee578384fd5b60209290920196919550909350505050565b60609190911b6bffffffffffffffffffffffff1916815260140190565b918252602082015260400190565b901515815260200190565b90815260200190565b6020808252601b908201527f416464726573732068617320616c726561647920636c61696d65640000000000604082015260600190565b6020808252600d908201526c24b73b30b634b210283937b7b360991b604082015260600190565b60006000198214156103bd57634e487b7160e01b81526011600452602481fd5b506001019056fea264697066735822122068135e0fb83e47d77b4c239565929a4d3d0890a4d091479f7561c4f5ecaefe7064736f6c63430008000033",
  "linkReferences": {},
  "deployedLinkReferences": {}
}