{
  "_format": "hh-sol-artifact-1",
  "contractName": "MetasaursPunk",
  "sourceName": "contracts/MetasaursPunk.sol",
  "abi": [
    {
      "inputs": [
        {
          "internalType": "string",
          "name": "_name",
          "type": "string"
        },
        {
          "internalType": "string",
          "name": "_symbol",
          "type": "string"
        },
        {
          "internalType": "string",
          "name": "_initBaseURI",
          "type": "string"
        },
        {
          "internalType": "string",
          "name": "_initNotRevealedUri",
          "type": "string"
        }
      ],
      "stateMutability": "nonpayable",
      "type": "constructor"
    },
    {
      "anonymous": false,
      "inputs": [
        {
          "indexed": true,
          "internalType": "address",
          "name": "owner",
          "type": "address"
        },
        {
          "indexed": true,
          "internalType": "address",
          "name": "approved",
          "type": "address"
        },
        {
          "indexed": true,
          "internalType": "uint256",
          "name": "tokenId",
          "type": "uint256"
        }
      ],
      "name": "Approval",
      "type": "event"
    },
    {
      "anonymous": false,
      "inputs": [
        {
          "indexed": true,
          "internalType": "address",
          "name": "owner",
          "type": "address"
        },
        {
          "indexed": true,
          "internalType": "address",
          "name": "operator",
          "type": "address"
        },
        {
          "indexed": false,
          "internalType": "bool",
          "name": "approved",
          "type": "bool"
        }
      ],
      "name": "ApprovalForAll",
      "type": "event"
    },
    {
      "anonymous": false,
      "inputs": [
        {
          "indexed": true,
          "internalType": "address",
          "name": "previousOwner",
          "type": "address"
        },
        {
          "indexed": true,
          "internalType": "address",
          "name": "newOwner",
          "type": "address"
        }
      ],
      "name": "OwnershipTransferred",
      "type": "event"
    },
    {
      "anonymous": false,
      "inputs": [
        {
          "indexed": true,
          "internalType": "address",
          "name": "from",
          "type": "address"
        },
        {
          "indexed": true,
          "internalType": "address",
          "name": "to",
          "type": "address"
        },
        {
          "indexed": true,
          "internalType": "uint256",
          "name": "tokenId",
          "type": "uint256"
        }
      ],
      "name": "Transfer",
      "type": "event"
    },
    {
      "inputs": [],
      "name": "MAX_PER_TRANSACTION",
      "outputs": [
        {
          "internalType": "uint256",
          "name": "",
          "type": "uint256"
        }
      ],
      "stateMutability": "view",
      "type": "function"
    },
    {
      "inputs": [],
      "name": "MAX_SUPPLY",
      "outputs": [
        {
          "internalType": "uint256",
          "name": "",
          "type": "uint256"
        }
      ],
      "stateMutability": "view",
      "type": "function"
    },
    {
      "inputs": [],
      "name": "PRICE",
      "outputs": [
        {
          "internalType": "uint256",
          "name": "",
          "type": "uint256"
        }
      ],
      "stateMutability": "view",
      "type": "function"
    },
    {
      "inputs": [
        {
          "internalType": "address",
          "name": "to",
          "type": "address"
        },
        {
          "internalType": "uint256",
          "name": "tokenId",
          "type": "uint256"
        }
      ],
      "name": "approve",
      "outputs": [],
      "stateMutability": "nonpayable",
      "type": "function"
    },
    {
      "inputs": [
        {
          "internalType": "address",
          "name": "owner",
          "type": "address"
        }
      ],
      "name": "balanceOf",
      "outputs": [
        {
          "internalType": "uint256",
          "name": "",
          "type": "uint256"
        }
      ],
      "stateMutability": "view",
      "type": "function"
    },
    {
      "inputs": [],
      "name": "baseExtension",
      "outputs": [
        {
          "internalType": "string",
          "name": "",
          "type": "string"
        }
      ],
      "stateMutability": "view",
      "type": "function"
    },
    {
      "inputs": [],
      "name": "baseUri",
      "outputs": [
        {
          "internalType": "string",
          "name": "",
          "type": "string"
        }
      ],
      "stateMutability": "view",
      "type": "function"
    },
    {
      "inputs": [
        {
          "internalType": "uint256",
          "name": "tokenId",
          "type": "uint256"
        }
      ],
      "name": "getApproved",
      "outputs": [
        {
          "internalType": "address",
          "name": "",
          "type": "address"
        }
      ],
      "stateMutability": "view",
      "type": "function"
    },
    {
      "inputs": [
        {
          "internalType": "address",
          "name": "owner",
          "type": "address"
        },
        {
          "internalType": "address",
          "name": "operator",
          "type": "address"
        }
      ],
      "name": "isApprovedForAll",
      "outputs": [
        {
          "internalType": "bool",
          "name": "",
          "type": "bool"
        }
      ],
      "stateMutability": "view",
      "type": "function"
    },
    {
      "inputs": [
        {
          "internalType": "uint256",
          "name": "numberOfTokens",
          "type": "uint256"
        }
      ],
      "name": "mint",
      "outputs": [],
      "stateMutability": "payable",
      "type": "function"
    },
    {
      "inputs": [],
      "name": "name",
      "outputs": [
        {
          "internalType": "string",
          "name": "",
          "type": "string"
        }
      ],
      "stateMutability": "view",
      "type": "function"
    },
    {
      "inputs": [],
      "name": "notRevealedUri",
      "outputs": [
        {
          "internalType": "string",
          "name": "",
          "type": "string"
        }
      ],
      "stateMutability": "view",
      "type": "function"
    },
    {
      "inputs": [],
      "name": "owner",
      "outputs": [
        {
          "internalType": "address",
          "name": "",
          "type": "address"
        }
      ],
      "stateMutability": "view",
      "type": "function"
    },
    {
      "inputs": [
        {
          "internalType": "uint256",
          "name": "tokenId",
          "type": "uint256"
        }
      ],
      "name": "ownerOf",
      "outputs": [
        {
          "internalType": "address",
          "name": "",
          "type": "address"
        }
      ],
      "stateMutability": "view",
      "type": "function"
    },
    {
      "inputs": [],
      "name": "paused",
      "outputs": [
        {
          "internalType": "bool",
          "name": "",
          "type": "bool"
        }
      ],
      "stateMutability": "view",
      "type": "function"
    },
    {
      "inputs": [],
      "name": "renounceOwnership",
      "outputs": [],
      "stateMutability": "nonpayable",
      "type": "function"
    },
    {
      "inputs": [],
      "name": "revealed",
      "outputs": [
        {
          "internalType": "bool",
          "name": "",
          "type": "bool"
        }
      ],
      "stateMutability": "view",
      "type": "function"
    },
    {
      "inputs": [
        {
          "internalType": "address",
          "name": "from",
          "type": "address"
        },
        {
          "internalType": "address",
          "name": "to",
          "type": "address"
        },
        {
          "internalType": "uint256",
          "name": "tokenId",
          "type": "uint256"
        }
      ],
      "name": "safeTransferFrom",
      "outputs": [],
      "stateMutability": "nonpayable",
      "type": "function"
    },
    {
      "inputs": [
        {
          "internalType": "address",
          "name": "from",
          "type": "address"
        },
        {
          "internalType": "address",
          "name": "to",
          "type": "address"
        },
        {
          "internalType": "uint256",
          "name": "tokenId",
          "type": "uint256"
        },
        {
          "internalType": "bytes",
          "name": "_data",
          "type": "bytes"
        }
      ],
      "name": "safeTransferFrom",
      "outputs": [],
      "stateMutability": "nonpayable",
      "type": "function"
    },
    {
      "inputs": [
        {
          "internalType": "address",
          "name": "operator",
          "type": "address"
        },
        {
          "internalType": "bool",
          "name": "approved",
          "type": "bool"
        }
      ],
      "name": "setApprovalForAll",
      "outputs": [],
      "stateMutability": "nonpayable",
      "type": "function"
    },
    {
      "inputs": [
        {
          "internalType": "string",
          "name": "_newBaseExtension",
          "type": "string"
        }
      ],
      "name": "setBaseExtension",
      "outputs": [],
      "stateMutability": "nonpayable",
      "type": "function"
    },
    {
      "inputs": [
        {
          "internalType": "string",
          "name": "newBaseURI",
          "type": "string"
        }
      ],
      "name": "setBaseURI",
      "outputs": [],
      "stateMutability": "nonpayable",
      "type": "function"
    },
    {
      "inputs": [
        {
          "internalType": "string",
          "name": "_notRevealedURI",
          "type": "string"
        }
      ],
      "name": "setNotRevealedURI",
      "outputs": [],
      "stateMutability": "nonpayable",
      "type": "function"
    },
    {
      "inputs": [
        {
          "internalType": "bool",
          "name": "newState",
          "type": "bool"
        }
      ],
      "name": "setPaused",
      "outputs": [],
      "stateMutability": "nonpayable",
      "type": "function"
    },
    {
      "inputs": [
        {
          "internalType": "bytes4",
          "name": "interfaceId",
          "type": "bytes4"
        }
      ],
      "name": "supportsInterface",
      "outputs": [
        {
          "internalType": "bool",
          "name": "",
          "type": "bool"
        }
      ],
      "stateMutability": "view",
      "type": "function"
    },
    {
      "inputs": [],
      "name": "symbol",
      "outputs": [
        {
          "internalType": "string",
          "name": "",
          "type": "string"
        }
      ],
      "stateMutability": "view",
      "type": "function"
    },
    {
      "inputs": [
        {
          "internalType": "uint256",
          "name": "index",
          "type": "uint256"
        }
      ],
      "name": "tokenByIndex",
      "outputs": [
        {
          "internalType": "uint256",
          "name": "",
          "type": "uint256"
        }
      ],
      "stateMutability": "view",
      "type": "function"
    },
    {
      "inputs": [
        {
          "internalType": "address",
          "name": "owner",
          "type": "address"
        },
        {
          "internalType": "uint256",
          "name": "index",
          "type": "uint256"
        }
      ],
      "name": "tokenOfOwnerByIndex",
      "outputs": [
        {
          "internalType": "uint256",
          "name": "",
          "type": "uint256"
        }
      ],
      "stateMutability": "view",
      "type": "function"
    },
    {
      "inputs": [
        {
          "internalType": "uint256",
          "name": "tokenId",
          "type": "uint256"
        }
      ],
      "name": "tokenURI",
      "outputs": [
        {
          "internalType": "string",
          "name": "",
          "type": "string"
        }
      ],
      "stateMutability": "view",
      "type": "function"
    },
    {
      "inputs": [],
      "name": "totalSupply",
      "outputs": [
        {
          "internalType": "uint256",
          "name": "",
          "type": "uint256"
        }
      ],
      "stateMutability": "view",
      "type": "function"
    },
    {
      "inputs": [
        {
          "internalType": "address",
          "name": "from",
          "type": "address"
        },
        {
          "internalType": "address",
          "name": "to",
          "type": "address"
        },
        {
          "internalType": "uint256",
          "name": "tokenId",
          "type": "uint256"
        }
      ],
      "name": "transferFrom",
      "outputs": [],
      "stateMutability": "nonpayable",
      "type": "function"
    },
    {
      "inputs": [
        {
          "internalType": "address",
          "name": "newOwner",
          "type": "address"
        }
      ],
      "name": "transferOwnership",
      "outputs": [],
      "stateMutability": "nonpayable",
      "type": "function"
    },
    {
      "inputs": [],
      "name": "withdraw",
      "outputs": [],
      "stateMutability": "nonpayable",
      "type": "function"
    }
  ],
  "bytecode": "0x60c06040526005608081905264173539b7b760d91b60a09081526200002891600c919062000212565b50600d805460ff1990811660011790915567013fbe85edc90000600e55600f805490911690553480156200005b57600080fd5b506040516200291e3803806200291e8339810160408190526200007e9162000363565b8351849084906200009790600090602085019062000212565b508051620000ad90600190602084019062000212565b505050620000ca620000c4620000ea60201b60201c565b620000ee565b620000d58262000140565b620000e081620001a8565b505050506200049f565b3390565b600a80546001600160a01b038381166001600160a01b0319831681179093556040519116919082907f8be0079c531659141344cd1fd0a4f28419497f9722a3daafe3b4186f6b6457e090600090a35050565b6200014a620000ea565b6001600160a01b03166200015d62000203565b6001600160a01b0316146200018f5760405162461bcd60e51b8152600401620001869062000417565b60405180910390fd5b8051620001a490600b90602084019062000212565b5050565b620001b2620000ea565b6001600160a01b0316620001c562000203565b6001600160a01b031614620001ee5760405162461bcd60e51b8152600401620001869062000417565b8051620001a490601090602084019062000212565b600a546001600160a01b031690565b82805462000220906200044c565b90600052602060002090601f0160209004810192826200024457600085556200028f565b82601f106200025f57805160ff19168380011785556200028f565b828001600101855582156200028f579182015b828111156200028f57825182559160200191906001019062000272565b506200029d929150620002a1565b5090565b5b808211156200029d5760008155600101620002a2565b600082601f830112620002c9578081fd5b81516001600160401b0380821115620002e657620002e662000489565b6040516020601f8401601f19168201810183811183821017156200030e576200030e62000489565b604052838252858401810187101562000325578485fd5b8492505b8383101562000348578583018101518284018201529182019162000329565b838311156200035957848185840101525b5095945050505050565b6000806000806080858703121562000379578384fd5b84516001600160401b038082111562000390578586fd5b6200039e88838901620002b8565b95506020870151915080821115620003b4578485fd5b620003c288838901620002b8565b94506040870151915080821115620003d8578384fd5b620003e688838901620002b8565b93506060870151915080821115620003fc578283fd5b506200040b87828801620002b8565b91505092959194509250565b6020808252818101527f4f776e61626c653a2063616c6c6572206973206e6f7420746865206f776e6572604082015260600190565b6002810460018216806200046157607f821691505b602082108114156200048357634e487b7160e01b600052602260045260246000fd5b50919050565b634e487b7160e01b600052604160045260246000fd5b61246f80620004af6000396000f3fe6080604052600436106101ee5760003560e01c80636352211e1161010d578063a22cb465116100a0578063cb14eb871161006f578063cb14eb8714610516578063da3ef23f1461052b578063e985e9c51461054b578063f2c4ce1e1461056b578063f2fde38b1461058b576101ee565b8063a22cb465146104a1578063b88d4fde146104c1578063c6682862146104e1578063c87b56dd146104f6576101ee565b80638da5cb5b116100dc5780638da5cb5b1461044f57806395d89b41146104645780639abc832014610479578063a0712d681461048e576101ee565b80636352211e146103e557806370a0823114610405578063715018a6146104255780638d859f3e1461043a576101ee565b80632f745c59116101855780634f6ccce7116101545780634f6ccce71461037b578063518302271461039b57806355f804b3146103b05780635c975abb146103d0576101ee565b80632f745c591461031157806332cb6b0c146103315780633ccfd60b1461034657806342842e0e1461035b576101ee565b8063095ea7b3116101c1578063095ea7b31461028d57806316c38b3c146102af57806318160ddd146102cf57806323b872dd146102f1576101ee565b806301ffc9a7146101f357806306fdde0314610229578063081812fc1461024b578063081c8c4414610278575b600080fd5b3480156101ff57600080fd5b5061021361020e366004611b18565b6105ab565b6040516102209190611ced565b60405180910390f35b34801561023557600080fd5b5061023e6105be565b6040516102209190611cf8565b34801561025757600080fd5b5061026b610266366004611b96565b610650565b6040516102209190611c9c565b34801561028457600080fd5b5061023e61069c565b34801561029957600080fd5b506102ad6102a8366004611ad5565b61072a565b005b3480156102bb57600080fd5b506102ad6102ca366004611afe565b6107c2565b3480156102db57600080fd5b506102e4610814565b60405161022091906122d4565b3480156102fd57600080fd5b506102ad61030c3660046119f8565b61081a565b34801561031d57600080fd5b506102e461032c366004611ad5565b610852565b34801561033d57600080fd5b506102e46108a4565b34801561035257600080fd5b506102ad6108aa565b34801561036757600080fd5b506102ad6103763660046119f8565b61091c565b34801561038757600080fd5b506102e4610396366004611b96565b610937565b3480156103a757600080fd5b50610213610992565b3480156103bc57600080fd5b506102ad6103cb366004611b50565b61099b565b3480156103dc57600080fd5b506102136109ed565b3480156103f157600080fd5b5061026b610400366004611b96565b6109f6565b34801561041157600080fd5b506102e46104203660046119ac565b610a2b565b34801561043157600080fd5b506102ad610a6f565b34801561044657600080fd5b506102e4610aba565b34801561045b57600080fd5b5061026b610ac0565b34801561047057600080fd5b5061023e610acf565b34801561048557600080fd5b5061023e610ade565b6102ad61049c366004611b96565b610aeb565b3480156104ad57600080fd5b506102ad6104bc366004611aac565b610bc4565b3480156104cd57600080fd5b506102ad6104dc366004611a33565b610bd6565b3480156104ed57600080fd5b5061023e610c15565b34801561050257600080fd5b5061023e610511366004611b96565b610c22565b34801561052257600080fd5b506102e4610d44565b34801561053757600080fd5b506102ad610546366004611b50565b610d49565b34801561055757600080fd5b506102136105663660046119c6565b610d9b565b34801561057757600080fd5b506102ad610586366004611b50565b610dc9565b34801561059757600080fd5b506102ad6105a63660046119ac565b610e1b565b60006105b682610e8c565b90505b919050565b6060600080546105cd90612377565b80601f01602080910402602001604051908101604052809291908181526020018280546105f990612377565b80156106465780601f1061061b57610100808354040283529160200191610646565b820191906000526020600020905b81548152906001019060200180831161062957829003601f168201915b5050505050905090565b600061065b82610eb1565b6106805760405162461bcd60e51b81526004016106779061207d565b60405180910390fd5b506000908152600460205260409020546001600160a01b031690565b601080546106a990612377565b80601f01602080910402602001604051908101604052809291908181526020018280546106d590612377565b80156107225780601f106106f757610100808354040283529160200191610722565b820191906000526020600020905b81548152906001019060200180831161070557829003601f168201915b505050505081565b6000610735826109f6565b9050806001600160a01b0316836001600160a01b031614156107695760405162461bcd60e51b815260040161067790612196565b806001600160a01b031661077b610ece565b6001600160a01b03161480610797575061079781610566610ece565b6107b35760405162461bcd60e51b815260040161067790611f58565b6107bd8383610ed2565b505050565b6107ca610ece565b6001600160a01b03166107db610ac0565b6001600160a01b0316146108015760405162461bcd60e51b8152600401610677906120c9565b600d805460ff1916911515919091179055565b60085490565b61082b610825610ece565b82610f40565b6108475760405162461bcd60e51b81526004016106779061220e565b6107bd838383610fc5565b600061085d83610a2b565b821061087b5760405162461bcd60e51b815260040161067790611d0b565b506001600160a01b03919091166000908152600660209081526040808320938352929052205490565b614e1f81565b6108b2610ece565b6001600160a01b03166108c3610ac0565b6001600160a01b0316146108e95760405162461bcd60e51b8152600401610677906120c9565b6040514790339082156108fc029083906000818181858888f19350505050158015610918573d6000803e3d6000fd5b5050565b6107bd83838360405180602001604052806000815250610bd6565b6000610941610814565b821061095f5760405162461bcd60e51b81526004016106779061225f565b6008828154811061098057634e487b7160e01b600052603260045260246000fd5b90600052602060002001549050919050565b600f5460ff1681565b6109a3610ece565b6001600160a01b03166109b4610ac0565b6001600160a01b0316146109da5760405162461bcd60e51b8152600401610677906120c9565b805161091890600b90602084019061187c565b600d5460ff1681565b6000818152600260205260408120546001600160a01b0316806105b65760405162461bcd60e51b815260040161067790611fff565b60006001600160a01b038216610a535760405162461bcd60e51b815260040161067790611fb5565b506001600160a01b031660009081526003602052604090205490565b610a77610ece565b6001600160a01b0316610a88610ac0565b6001600160a01b031614610aae5760405162461bcd60e51b8152600401610677906120c9565b610ab860006110f2565b565b600e5481565b600a546001600160a01b031690565b6060600180546105cd90612377565b600b80546106a990612377565b6000610af5610814565b600d5490915060ff1615610b1b5760405162461bcd60e51b8152600401610677906122ab565b600a821115610b3c5760405162461bcd60e51b8152600401610677906121d7565b614e1f610b4983836122e9565b1115610b675760405162461bcd60e51b815260040161067790611dee565b3482600e54610b769190612315565b1115610b945760405162461bcd60e51b815260040161067790611ed5565b60005b828110156107bd57610bb233610bad83856122e9565b611144565b80610bbc816123b2565b915050610b97565b610918610bcf610ece565b838361115e565b610be7610be1610ece565b83610f40565b610c035760405162461bcd60e51b81526004016106779061220e565b610c0f84848484611201565b50505050565b600c80546106a990612377565b6060610c2d82610eb1565b610c495760405162461bcd60e51b815260040161067790612147565b600f5460ff16610ce55760108054610c6090612377565b80601f0160208091040260200160405190810160405280929190818152602001828054610c8c90612377565b8015610cd95780601f10610cae57610100808354040283529160200191610cd9565b820191906000526020600020905b815481529060010190602001808311610cbc57829003601f168201915b505050505090506105b9565b6000610cef611234565b90506000815111610d0f5760405180602001604052806000815250610d3d565b80610d1984611243565b600c604051602001610d2d93929190611bda565b6040516020818303038152906040525b9392505050565b600a81565b610d51610ece565b6001600160a01b0316610d62610ac0565b6001600160a01b031614610d885760405162461bcd60e51b8152600401610677906120c9565b805161091890600c90602084019061187c565b6001600160a01b03918216600090815260056020908152604080832093909416825291909152205460ff1690565b610dd1610ece565b6001600160a01b0316610de2610ac0565b6001600160a01b031614610e085760405162461bcd60e51b8152600401610677906120c9565b805161091890601090602084019061187c565b610e23610ece565b6001600160a01b0316610e34610ac0565b6001600160a01b031614610e5a5760405162461bcd60e51b8152600401610677906120c9565b6001600160a01b038116610e805760405162461bcd60e51b815260040161067790611da8565b610e89816110f2565b50565b60006001600160e01b0319821663780e9d6360e01b14806105b657506105b68261135e565b6000908152600260205260409020546001600160a01b0316151590565b3390565b600081815260046020526040902080546001600160a01b0319166001600160a01b0384169081179091558190610f07826109f6565b6001600160a01b03167f8c5be1e5ebec7d5bd14f71427d1e84f3dd0314c0f7b2291e5b200ac8c7c3b92560405160405180910390a45050565b6000610f4b82610eb1565b610f675760405162461bcd60e51b815260040161067790611f0c565b6000610f72836109f6565b9050806001600160a01b0316846001600160a01b03161480610fad5750836001600160a01b0316610fa284610650565b6001600160a01b0316145b80610fbd5750610fbd8185610d9b565b949350505050565b826001600160a01b0316610fd8826109f6565b6001600160a01b031614610ffe5760405162461bcd60e51b8152600401610677906120fe565b6001600160a01b0382166110245760405162461bcd60e51b815260040161067790611e5a565b61102f83838361139e565b61103a600082610ed2565b6001600160a01b0383166000908152600360205260408120805460019290611063908490612334565b90915550506001600160a01b03821660009081526003602052604081208054600192906110919084906122e9565b909155505060008181526002602052604080822080546001600160a01b0319166001600160a01b0386811691821790925591518493918716917fddf252ad1be2c89b69c2b068fc378daa952ba7f163c4a11628f55a4df523b3ef91a4505050565b600a80546001600160a01b038381166001600160a01b0319831681179093556040519116919082907f8be0079c531659141344cd1fd0a4f28419497f9722a3daafe3b4186f6b6457e090600090a35050565b6109188282604051806020016040528060008152506113a9565b816001600160a01b0316836001600160a01b031614156111905760405162461bcd60e51b815260040161067790611e9e565b6001600160a01b0383811660008181526005602090815260408083209487168084529490915290819020805460ff1916851515179055517f17307eab39ab6107e8899845ad3d59bd9653f200f220920489ca2b5937696c31906111f4908590611ced565b60405180910390a3505050565b61120c848484610fc5565b611218848484846113dc565b610c0f5760405162461bcd60e51b815260040161067790611d56565b6060600b80546105cd90612377565b60608161126857506040805180820190915260018152600360fc1b60208201526105b9565b8160005b8115611292578061127c816123b2565b915061128b9050600a83612301565b915061126c565b60008167ffffffffffffffff8111156112bb57634e487b7160e01b600052604160045260246000fd5b6040519080825280601f01601f1916602001820160405280156112e5576020820181803683370190505b5090505b8415610fbd576112fa600183612334565b9150611307600a866123cd565b6113129060306122e9565b60f81b81838151811061133557634e487b7160e01b600052603260045260246000fd5b60200101906001600160f81b031916908160001a905350611357600a86612301565b94506112e9565b60006001600160e01b031982166380ac58cd60e01b148061138f57506001600160e01b03198216635b5e139f60e01b145b806105b657506105b6826114f7565b6107bd838383611510565b6113b38383611599565b6113c060008484846113dc565b6107bd5760405162461bcd60e51b815260040161067790611d56565b60006113f0846001600160a01b0316611678565b156114ec57836001600160a01b031663150b7a0261140c610ece565b8786866040518563ffffffff1660e01b815260040161142e9493929190611cb0565b602060405180830381600087803b15801561144857600080fd5b505af1925050508015611478575060408051601f3d908101601f1916820190925261147591810190611b34565b60015b6114d2573d8080156114a6576040519150601f19603f3d011682016040523d82523d6000602084013e6114ab565b606091505b5080516114ca5760405162461bcd60e51b815260040161067790611d56565b805181602001fd5b6001600160e01b031916630a85bd0160e11b149050610fbd565b506001949350505050565b6001600160e01b031981166301ffc9a760e01b14919050565b61151b8383836107bd565b6001600160a01b038316611537576115328161167e565b61155a565b816001600160a01b0316836001600160a01b03161461155a5761155a83826116c2565b6001600160a01b038216611576576115718161175f565b6107bd565b826001600160a01b0316826001600160a01b0316146107bd576107bd8282611838565b6001600160a01b0382166115bf5760405162461bcd60e51b815260040161067790612048565b6115c881610eb1565b156115e55760405162461bcd60e51b815260040161067790611e23565b6115f16000838361139e565b6001600160a01b038216600090815260036020526040812080546001929061161a9084906122e9565b909155505060008181526002602052604080822080546001600160a01b0319166001600160a01b03861690811790915590518392907fddf252ad1be2c89b69c2b068fc378daa952ba7f163c4a11628f55a4df523b3ef908290a45050565b3b151590565b600880546000838152600960205260408120829055600182018355919091527ff3f7a9fe364faab93b216da50a3214154f22a0a2b415b23a84c8169e8b636ee30155565b600060016116cf84610a2b565b6116d99190612334565b60008381526007602052604090205490915080821461172c576001600160a01b03841660009081526006602090815260408083208584528252808320548484528184208190558352600790915290208190555b5060009182526007602090815260408084208490556001600160a01b039094168352600681528383209183525290812055565b60085460009061177190600190612334565b600083815260096020526040812054600880549394509092849081106117a757634e487b7160e01b600052603260045260246000fd5b9060005260206000200154905080600883815481106117d657634e487b7160e01b600052603260045260246000fd5b600091825260208083209091019290925582815260099091526040808220849055858252812055600880548061181c57634e487b7160e01b600052603160045260246000fd5b6001900381819060005260206000200160009055905550505050565b600061184383610a2b565b6001600160a01b039093166000908152600660209081526040808320868452825280832085905593825260079052919091209190915550565b82805461188890612377565b90600052602060002090601f0160209004810192826118aa57600085556118f0565b82601f106118c357805160ff19168380011785556118f0565b828001600101855582156118f0579182015b828111156118f05782518255916020019190600101906118d5565b506118fc929150611900565b5090565b5b808211156118fc5760008155600101611901565b600067ffffffffffffffff808411156119305761193061240d565b604051601f8501601f1916810160200182811182821017156119545761195461240d565b60405284815291508183850186101561196c57600080fd5b8484602083013760006020868301015250509392505050565b80356001600160a01b03811681146105b957600080fd5b803580151581146105b957600080fd5b6000602082840312156119bd578081fd5b610d3d82611985565b600080604083850312156119d8578081fd5b6119e183611985565b91506119ef60208401611985565b90509250929050565b600080600060608486031215611a0c578081fd5b611a1584611985565b9250611a2360208501611985565b9150604084013590509250925092565b60008060008060808587031215611a48578081fd5b611a5185611985565b9350611a5f60208601611985565b925060408501359150606085013567ffffffffffffffff811115611a81578182fd5b8501601f81018713611a91578182fd5b611aa087823560208401611915565b91505092959194509250565b60008060408385031215611abe578182fd5b611ac783611985565b91506119ef6020840161199c565b60008060408385031215611ae7578182fd5b611af083611985565b946020939093013593505050565b600060208284031215611b0f578081fd5b610d3d8261199c565b600060208284031215611b29578081fd5b8135610d3d81612423565b600060208284031215611b45578081fd5b8151610d3d81612423565b600060208284031215611b61578081fd5b813567ffffffffffffffff811115611b77578182fd5b8201601f81018413611b87578182fd5b610fbd84823560208401611915565b600060208284031215611ba7578081fd5b5035919050565b60008151808452611bc681602086016020860161234b565b601f01601f19169290920160200192915050565b600084516020611bed8285838a0161234b565b855191840191611c008184848a0161234b565b8554920191839060028104600180831680611c1c57607f831692505b858310811415611c3a57634e487b7160e01b88526022600452602488fd5b808015611c4e5760018114611c5f57611c8b565b60ff19851688528388019550611c8b565b611c688b6122dd565b895b85811015611c835781548a820152908401908801611c6a565b505083880195505b50939b9a5050505050505050505050565b6001600160a01b0391909116815260200190565b6001600160a01b0385811682528416602082015260408101839052608060608201819052600090611ce390830184611bae565b9695505050505050565b901515815260200190565b600060208252610d3d6020830184611bae565b6020808252602b908201527f455243373231456e756d657261626c653a206f776e657220696e646578206f7560408201526a74206f6620626f756e647360a81b606082015260800190565b60208082526032908201527f4552433732313a207472616e7366657220746f206e6f6e20455243373231526560408201527131b2b4bb32b91034b6b83632b6b2b73a32b960711b606082015260800190565b60208082526026908201527f4f776e61626c653a206e6577206f776e657220697320746865207a65726f206160408201526564647265737360d01b606082015260800190565b6020808252818101527f507572636861736520776f756c6420657863656564206d617820746f6b656e73604082015260600190565b6020808252601c908201527f4552433732313a20746f6b656e20616c7265616479206d696e74656400000000604082015260600190565b60208082526024908201527f4552433732313a207472616e7366657220746f20746865207a65726f206164646040820152637265737360e01b606082015260800190565b60208082526019908201527f4552433732313a20617070726f766520746f2063616c6c657200000000000000604082015260600190565b6020808252601f908201527f45746865722076616c75652073656e74206973206e6f7420636f727265637400604082015260600190565b6020808252602c908201527f4552433732313a206f70657261746f7220717565727920666f72206e6f6e657860408201526b34b9ba32b73a103a37b5b2b760a11b606082015260800190565b60208082526038908201527f4552433732313a20617070726f76652063616c6c6572206973206e6f74206f7760408201527f6e6572206e6f7220617070726f76656420666f7220616c6c0000000000000000606082015260800190565b6020808252602a908201527f4552433732313a2062616c616e636520717565727920666f7220746865207a65604082015269726f206164647265737360b01b606082015260800190565b60208082526029908201527f4552433732313a206f776e657220717565727920666f72206e6f6e657869737460408201526832b73a103a37b5b2b760b91b606082015260800190565b6020808252818101527f4552433732313a206d696e7420746f20746865207a65726f2061646472657373604082015260600190565b6020808252602c908201527f4552433732313a20617070726f76656420717565727920666f72206e6f6e657860408201526b34b9ba32b73a103a37b5b2b760a11b606082015260800190565b6020808252818101527f4f776e61626c653a2063616c6c6572206973206e6f7420746865206f776e6572604082015260600190565b60208082526029908201527f4552433732313a207472616e73666572206f6620746f6b656e2074686174206960408201526839903737ba1037bbb760b91b606082015260800190565b6020808252602f908201527f4552433732314d657461646174613a2055524920717565727920666f72206e6f60408201526e3732bc34b9ba32b73a103a37b5b2b760891b606082015260800190565b60208082526021908201527f4552433732313a20617070726f76616c20746f2063757272656e74206f776e656040820152603960f91b606082015260800190565b6020808252601b908201527f4578636565646564206d617820746f6b656e2070757263686173650000000000604082015260600190565b60208082526031908201527f4552433732313a207472616e736665722063616c6c6572206973206e6f74206f6040820152701ddb995c881b9bdc88185c1c1c9bdd9959607a1b606082015260800190565b6020808252602c908201527f455243373231456e756d657261626c653a20676c6f62616c20696e646578206f60408201526b7574206f6620626f756e647360a01b606082015260800190565b6020808252600f908201526e10dbdb9d1c9858dd0814185d5cd959608a1b604082015260600190565b90815260200190565b60009081526020902090565b600082198211156122fc576122fc6123e1565b500190565b600082612310576123106123f7565b500490565b600081600019048311821515161561232f5761232f6123e1565b500290565b600082821015612346576123466123e1565b500390565b60005b8381101561236657818101518382015260200161234e565b83811115610c0f5750506000910152565b60028104600182168061238b57607f821691505b602082108114156123ac57634e487b7160e01b600052602260045260246000fd5b50919050565b60006000198214156123c6576123c66123e1565b5060010190565b6000826123dc576123dc6123f7565b500690565b634e487b7160e01b600052601160045260246000fd5b634e487b7160e01b600052601260045260246000fd5b634e487b7160e01b600052604160045260246000fd5b6001600160e01b031981168114610e8957600080fdfea2646970667358221220b8bb9de7ddbb0348d914f03814ebc19cef9e8f98a48eb946cf81323316dd5e5b64736f6c63430008000033",
  "linkReferences": {},
  "deployedLinkReferences": {}
}